{
	"blockchain/contracts/HouseSecurityToken.sol": {
		"HouseSecurityToken": {
			"abi": [
				{
					"inputs": [
						{
							"internalType": "address",
							"name": "platformOwner",
							"type": "address"
						},
						{
							"internalType": "address",
							"name": "_projectOwner",
							"type": "address"
						},
						{
							"internalType": "string",
							"name": "_name",
							"type": "string"
						},
						{
							"internalType": "string",
							"name": "_symbol",
							"type": "string"
						},
						{
							"internalType": "uint256",
							"name": "_maxSupply",
							"type": "uint256"
						},
						{
							"internalType": "address",
							"name": "_identityRegistry",
							"type": "address"
						}
					],
					"stateMutability": "nonpayable",
					"type": "constructor"
				},
				{
					"anonymous": false,
					"inputs": [
						{
							"indexed": true,
							"internalType": "address",
							"name": "from",
							"type": "address"
						},
						{
							"indexed": false,
							"internalType": "uint256",
							"name": "amount",
							"type": "uint256"
						}
					],
					"name": "Burn",
					"type": "event"
				},
				{
					"anonymous": false,
					"inputs": [
						{
							"indexed": true,
							"internalType": "address",
							"name": "to",
							"type": "address"
						},
						{
							"indexed": false,
							"internalType": "uint256",
							"name": "amount",
							"type": "uint256"
						}
					],
					"name": "Mint",
					"type": "event"
				},
				{
					"anonymous": false,
					"inputs": [
						{
							"indexed": true,
							"internalType": "address",
							"name": "previousOwner",
							"type": "address"
						},
						{
							"indexed": true,
							"internalType": "address",
							"name": "newOwner",
							"type": "address"
						}
					],
					"name": "OwnershipTransferred",
					"type": "event"
				},
				{
					"anonymous": false,
					"inputs": [
						{
							"indexed": true,
							"internalType": "address",
							"name": "by",
							"type": "address"
						}
					],
					"name": "Paused",
					"type": "event"
				},
				{
					"anonymous": false,
					"inputs": [
						{
							"indexed": true,
							"internalType": "address",
							"name": "oldSale",
							"type": "address"
						},
						{
							"indexed": true,
							"internalType": "address",
							"name": "newSale",
							"type": "address"
						}
					],
					"name": "SaleContractUpdated",
					"type": "event"
				},
				{
					"anonymous": false,
					"inputs": [
						{
							"indexed": true,
							"internalType": "address",
							"name": "oldFactory",
							"type": "address"
						},
						{
							"indexed": true,
							"internalType": "address",
							"name": "newFactory",
							"type": "address"
						}
					],
					"name": "SaleFactoryUpdated",
					"type": "event"
				},
				{
					"anonymous": false,
					"inputs": [
						{
							"indexed": true,
							"internalType": "address",
							"name": "from",
							"type": "address"
						},
						{
							"indexed": true,
							"internalType": "address",
							"name": "to",
							"type": "address"
						},
						{
							"indexed": false,
							"internalType": "uint256",
							"name": "amount",
							"type": "uint256"
						}
					],
					"name": "Transfer",
					"type": "event"
				},
				{
					"anonymous": false,
					"inputs": [
						{
							"indexed": true,
							"internalType": "address",
							"name": "by",
							"type": "address"
						}
					],
					"name": "Unpaused",
					"type": "event"
				},
				{
					"inputs": [],
					"name": "MAX_INVESTOR_PERCENT",
					"outputs": [
						{
							"internalType": "uint256",
							"name": "",
							"type": "uint256"
						}
					],
					"stateMutability": "view",
					"type": "function"
				},
				{
					"inputs": [
						{
							"internalType": "address",
							"name": "",
							"type": "address"
						}
					],
					"name": "balanceOf",
					"outputs": [
						{
							"internalType": "uint256",
							"name": "",
							"type": "uint256"
						}
					],
					"stateMutability": "view",
					"type": "function"
				},
				{
					"inputs": [
						{
							"internalType": "address",
							"name": "from",
							"type": "address"
						},
						{
							"internalType": "uint256",
							"name": "amount",
							"type": "uint256"
						}
					],
					"name": "burn",
					"outputs": [],
					"stateMutability": "nonpayable",
					"type": "function"
				},
				{
					"inputs": [],
					"name": "decimals",
					"outputs": [
						{
							"internalType": "uint8",
							"name": "",
							"type": "uint8"
						}
					],
					"stateMutability": "view",
					"type": "function"
				},
				{
					"inputs": [],
					"name": "factory",
					"outputs": [
						{
							"internalType": "address",
							"name": "",
							"type": "address"
						}
					],
					"stateMutability": "view",
					"type": "function"
				},
				{
					"inputs": [],
					"name": "identityRegistry",
					"outputs": [
						{
							"internalType": "contract IIdentityRegistry",
							"name": "",
							"type": "address"
						}
					],
					"stateMutability": "view",
					"type": "function"
				},
				{
					"inputs": [],
					"name": "maxSupply",
					"outputs": [
						{
							"internalType": "uint256",
							"name": "",
							"type": "uint256"
						}
					],
					"stateMutability": "view",
					"type": "function"
				},
				{
					"inputs": [
						{
							"internalType": "address",
							"name": "to",
							"type": "address"
						},
						{
							"internalType": "uint256",
							"name": "amount",
							"type": "uint256"
						}
					],
					"name": "mint",
					"outputs": [],
					"stateMutability": "nonpayable",
					"type": "function"
				},
				{
					"inputs": [],
					"name": "name",
					"outputs": [
						{
							"internalType": "string",
							"name": "",
							"type": "string"
						}
					],
					"stateMutability": "view",
					"type": "function"
				},
				{
					"inputs": [],
					"name": "owner",
					"outputs": [
						{
							"internalType": "address",
							"name": "",
							"type": "address"
						}
					],
					"stateMutability": "view",
					"type": "function"
				},
				{
					"inputs": [],
					"name": "pause",
					"outputs": [],
					"stateMutability": "nonpayable",
					"type": "function"
				},
				{
					"inputs": [],
					"name": "paused",
					"outputs": [
						{
							"internalType": "bool",
							"name": "",
							"type": "bool"
						}
					],
					"stateMutability": "view",
					"type": "function"
				},
				{
					"inputs": [],
					"name": "projectOwner",
					"outputs": [
						{
							"internalType": "address",
							"name": "",
							"type": "address"
						}
					],
					"stateMutability": "view",
					"type": "function"
				},
				{
					"inputs": [],
					"name": "saleContract",
					"outputs": [
						{
							"internalType": "address",
							"name": "",
							"type": "address"
						}
					],
					"stateMutability": "view",
					"type": "function"
				},
				{
					"inputs": [],
					"name": "saleFactory",
					"outputs": [
						{
							"internalType": "address",
							"name": "",
							"type": "address"
						}
					],
					"stateMutability": "view",
					"type": "function"
				},
				{
					"inputs": [
						{
							"internalType": "address",
							"name": "_saleContract",
							"type": "address"
						}
					],
					"name": "setSaleContract",
					"outputs": [],
					"stateMutability": "nonpayable",
					"type": "function"
				},
				{
					"inputs": [
						{
							"internalType": "address",
							"name": "_saleFactory",
							"type": "address"
						}
					],
					"name": "setSaleFactory",
					"outputs": [],
					"stateMutability": "nonpayable",
					"type": "function"
				},
				{
					"inputs": [],
					"name": "symbol",
					"outputs": [
						{
							"internalType": "string",
							"name": "",
							"type": "string"
						}
					],
					"stateMutability": "view",
					"type": "function"
				},
				{
					"inputs": [],
					"name": "totalSupply",
					"outputs": [
						{
							"internalType": "uint256",
							"name": "",
							"type": "uint256"
						}
					],
					"stateMutability": "view",
					"type": "function"
				},
				{
					"inputs": [
						{
							"internalType": "address",
							"name": "to",
							"type": "address"
						},
						{
							"internalType": "uint256",
							"name": "amount",
							"type": "uint256"
						}
					],
					"name": "transfer",
					"outputs": [
						{
							"internalType": "bool",
							"name": "",
							"type": "bool"
						}
					],
					"stateMutability": "nonpayable",
					"type": "function"
				},
				{
					"inputs": [
						{
							"internalType": "address",
							"name": "newOwner",
							"type": "address"
						}
					],
					"name": "transferOwnership",
					"outputs": [],
					"stateMutability": "nonpayable",
					"type": "function"
				},
				{
					"inputs": [],
					"name": "unpause",
					"outputs": [],
					"stateMutability": "nonpayable",
					"type": "function"
				}
			],
			"devdoc": {
				"kind": "dev",
				"methods": {},
				"version": 1
			},
			"evm": {
				"assembly": "    /* \"blockchain/contracts/HouseSecurityToken.sol\":165:5485  contract HouseSecurityToken is Ownable {... */\n  mstore(0x40, 0x80)\n    /* \"blockchain/contracts/HouseSecurityToken.sol\":1826:2461  constructor(... */\n  callvalue\n  dup1\n  iszero\n  tag_1\n  jumpi\n  revert(0x00, 0x00)\ntag_1:\n  pop\n  mload(0x40)\n  sub(codesize, bytecodeSize)\n  dup1\n  bytecodeSize\n  dup4\n  codecopy\n  dup2\n  dup2\n  add\n  0x40\n  mstore\n  dup2\n  add\n  swap1\n  tag_2\n  swap2\n  swap1\n  tag_3\n  jump\t// in\ntag_2:\n    /* \"blockchain/contracts/HouseSecurityToken.sol\":2037:2050  platformOwner */\n  dup6\n    /* \"blockchain/contracts/Ownable.sol\":411:412  0 */\n  0x00\n    /* \"blockchain/contracts/Ownable.sol\":387:413  initialOwner != address(0) */\n  0xffffffffffffffffffffffffffffffffffffffff\n  and\n    /* \"blockchain/contracts/Ownable.sol\":387:399  initialOwner */\n  dup2\n    /* \"blockchain/contracts/Ownable.sol\":387:413  initialOwner != address(0) */\n  0xffffffffffffffffffffffffffffffffffffffff\n  and\n  sub\n    /* \"blockchain/contracts/Ownable.sol\":379:440  require(initialOwner != address(0), \"Ownable: owner is zero\") */\n  tag_7\n  jumpi\n  mload(0x40)\n  0x08c379a000000000000000000000000000000000000000000000000000000000\n  dup2\n  mstore\n  0x04\n  add\n  tag_8\n  swap1\n  tag_9\n  jump\t// in\ntag_8:\n  mload(0x40)\n  dup1\n  swap2\n  sub\n  swap1\n  revert\ntag_7:\n    /* \"blockchain/contracts/Ownable.sol\":458:470  initialOwner */\n  dup1\n    /* \"blockchain/contracts/Ownable.sol\":450:455  owner */\n  0x00\n  0x00\n    /* \"blockchain/contracts/Ownable.sol\":450:470  owner = initialOwner */\n  0x0100\n  exp\n  dup2\n  sload\n  dup2\n  0xffffffffffffffffffffffffffffffffffffffff\n  mul\n  not\n  and\n  swap1\n  dup4\n  0xffffffffffffffffffffffffffffffffffffffff\n  and\n  mul\n  or\n  swap1\n  sstore\n  pop\n    /* \"blockchain/contracts/Ownable.sol\":518:530  initialOwner */\n  dup1\n    /* \"blockchain/contracts/Ownable.sol\":485:531  OwnershipTransferred(address(0), initialOwner) */\n  0xffffffffffffffffffffffffffffffffffffffff\n  and\n    /* \"blockchain/contracts/Ownable.sol\":514:515  0 */\n  0x00\n    /* \"blockchain/contracts/Ownable.sol\":485:531  OwnershipTransferred(address(0), initialOwner) */\n  0xffffffffffffffffffffffffffffffffffffffff\n  and\n  0x8be0079c531659141344cd1fd0a4f28419497f9722a3daafe3b4186f6b6457e0\n  mload(0x40)\n  mload(0x40)\n  dup1\n  swap2\n  sub\n  swap1\n  log3\n    /* \"blockchain/contracts/Ownable.sol\":335:538  constructor(address initialOwner) {... */\n  pop\n    /* \"blockchain/contracts/HouseSecurityToken.sol\":2095:2096  0 */\n  0x00\n    /* \"blockchain/contracts/HouseSecurityToken.sol\":2070:2097  _projectOwner != address(0) */\n  0xffffffffffffffffffffffffffffffffffffffff\n  and\n    /* \"blockchain/contracts/HouseSecurityToken.sol\":2070:2083  _projectOwner */\n  dup6\n    /* \"blockchain/contracts/HouseSecurityToken.sol\":2070:2097  _projectOwner != address(0) */\n  0xffffffffffffffffffffffffffffffffffffffff\n  and\n  sub\n    /* \"blockchain/contracts/HouseSecurityToken.sol\":2062:2126  require(_projectOwner != address(0), \"Token: projectOwner zero\") */\n  tag_11\n  jumpi\n  mload(0x40)\n  0x08c379a000000000000000000000000000000000000000000000000000000000\n  dup2\n  mstore\n  0x04\n  add\n  tag_12\n  swap1\n  tag_13\n  jump\t// in\ntag_12:\n  mload(0x40)\n  dup1\n  swap2\n  sub\n  swap1\n  revert\ntag_11:\n    /* \"blockchain/contracts/HouseSecurityToken.sol\":2173:2174  0 */\n  0x00\n    /* \"blockchain/contracts/HouseSecurityToken.sol\":2144:2175  _identityRegistry != address(0) */\n  0xffffffffffffffffffffffffffffffffffffffff\n  and\n    /* \"blockchain/contracts/HouseSecurityToken.sol\":2144:2161  _identityRegistry */\n  dup2\n    /* \"blockchain/contracts/HouseSecurityToken.sol\":2144:2175  _identityRegistry != address(0) */\n  0xffffffffffffffffffffffffffffffffffffffff\n  and\n  sub\n    /* \"blockchain/contracts/HouseSecurityToken.sol\":2136:2208  require(_identityRegistry != address(0), \"Token: identityRegistry zero\") */\n  tag_14\n  jumpi\n  mload(0x40)\n  0x08c379a000000000000000000000000000000000000000000000000000000000\n  dup2\n  mstore\n  0x04\n  add\n  tag_15\n  swap1\n  tag_16\n  jump\t// in\ntag_15:\n  mload(0x40)\n  dup1\n  swap2\n  sub\n  swap1\n  revert\ntag_14:\n    /* \"blockchain/contracts/HouseSecurityToken.sol\":2234:2247  _projectOwner */\n  dup5\n    /* \"blockchain/contracts/HouseSecurityToken.sol\":2219:2231  projectOwner */\n  0x06\n  0x00\n    /* \"blockchain/contracts/HouseSecurityToken.sol\":2219:2247  projectOwner = _projectOwner */\n  0x0100\n  exp\n  dup2\n  sload\n  dup2\n  0xffffffffffffffffffffffffffffffffffffffff\n  mul\n  not\n  and\n  swap1\n  dup4\n  0xffffffffffffffffffffffffffffffffffffffff\n  and\n  mul\n  or\n  swap1\n  sstore\n  pop\n    /* \"blockchain/contracts/HouseSecurityToken.sol\":2264:2269  _name */\n  dup4\n    /* \"blockchain/contracts/HouseSecurityToken.sol\":2257:2261  name */\n  0x01\n    /* \"blockchain/contracts/HouseSecurityToken.sol\":2257:2269  name = _name */\n  swap1\n  dup2\n  tag_17\n  swap2\n  swap1\n  tag_18\n  jump\t// in\ntag_17:\n  pop\n    /* \"blockchain/contracts/HouseSecurityToken.sol\":2288:2295  _symbol */\n  dup3\n    /* \"blockchain/contracts/HouseSecurityToken.sol\":2279:2285  symbol */\n  0x02\n    /* \"blockchain/contracts/HouseSecurityToken.sol\":2279:2295  symbol = _symbol */\n  swap1\n  dup2\n  tag_19\n  swap2\n  swap1\n  tag_18\n  jump\t// in\ntag_19:\n  pop\n    /* \"blockchain/contracts/HouseSecurityToken.sol\":2317:2327  _maxSupply */\n  dup2\n    /* \"blockchain/contracts/HouseSecurityToken.sol\":2305:2314  maxSupply */\n  0x04\n    /* \"blockchain/contracts/HouseSecurityToken.sol\":2305:2327  maxSupply = _maxSupply */\n  dup2\n  swap1\n  sstore\n  pop\n    /* \"blockchain/contracts/HouseSecurityToken.sol\":2374:2391  _identityRegistry */\n  dup1\n    /* \"blockchain/contracts/HouseSecurityToken.sol\":2337:2353  identityRegistry */\n  0x0a\n  0x00\n    /* \"blockchain/contracts/HouseSecurityToken.sol\":2337:2392  identityRegistry = IIdentityRegistry(_identityRegistry) */\n  0x0100\n  exp\n  dup2\n  sload\n  dup2\n  0xffffffffffffffffffffffffffffffffffffffff\n  mul\n  not\n  and\n  swap1\n  dup4\n  0xffffffffffffffffffffffffffffffffffffffff\n  and\n  mul\n  or\n  swap1\n  sstore\n  pop\n    /* \"blockchain/contracts/HouseSecurityToken.sol\":2412:2422  msg.sender */\n  caller\n    /* \"blockchain/contracts/HouseSecurityToken.sol\":2402:2409  factory */\n  0x07\n  0x00\n    /* \"blockchain/contracts/HouseSecurityToken.sol\":2402:2422  factory = msg.sender */\n  0x0100\n  exp\n  dup2\n  sload\n  dup2\n  0xffffffffffffffffffffffffffffffffffffffff\n  mul\n  not\n  and\n  swap1\n  dup4\n  0xffffffffffffffffffffffffffffffffffffffff\n  and\n  mul\n  or\n  swap1\n  sstore\n  pop\n    /* \"blockchain/contracts/HouseSecurityToken.sol\":1826:2461  constructor(... */\n  pop\n  pop\n  pop\n  pop\n  pop\n  pop\n    /* \"blockchain/contracts/HouseSecurityToken.sol\":165:5485  contract HouseSecurityToken is Ownable {... */\n  jump(tag_20)\n    /* \"#utility.yul\":7:82   */\ntag_21:\n    /* \"#utility.yul\":40:46   */\n  0x00\n    /* \"#utility.yul\":73:75   */\n  0x40\n    /* \"#utility.yul\":67:76   */\n  mload\n    /* \"#utility.yul\":57:76   */\n  swap1\n  pop\n    /* \"#utility.yul\":7:82   */\n  swap1\n  jump\t// out\n    /* \"#utility.yul\":88:205   */\ntag_22:\n    /* \"#utility.yul\":197:198   */\n  0x00\n    /* \"#utility.yul\":194:195   */\n  0x00\n    /* \"#utility.yul\":187:199   */\n  revert\n    /* \"#utility.yul\":211:328   */\ntag_23:\n    /* \"#utility.yul\":320:321   */\n  0x00\n    /* \"#utility.yul\":317:318   */\n  0x00\n    /* \"#utility.yul\":310:322   */\n  revert\n    /* \"#utility.yul\":334:460   */\ntag_24:\n    /* \"#utility.yul\":371:378   */\n  0x00\n    /* \"#utility.yul\":411:453   */\n  0xffffffffffffffffffffffffffffffffffffffff\n    /* \"#utility.yul\":404:409   */\n  dup3\n    /* \"#utility.yul\":400:454   */\n  and\n    /* \"#utility.yul\":389:454   */\n  swap1\n  pop\n    /* \"#utility.yul\":334:460   */\n  swap2\n  swap1\n  pop\n  jump\t// out\n    /* \"#utility.yul\":466:562   */\ntag_25:\n    /* \"#utility.yul\":503:510   */\n  0x00\n    /* \"#utility.yul\":532:556   */\n  tag_72\n    /* \"#utility.yul\":550:555   */\n  dup3\n    /* \"#utility.yul\":532:556   */\n  tag_24\n  jump\t// in\ntag_72:\n    /* \"#utility.yul\":521:556   */\n  swap1\n  pop\n    /* \"#utility.yul\":466:562   */\n  swap2\n  swap1\n  pop\n  jump\t// out\n    /* \"#utility.yul\":568:690   */\ntag_26:\n    /* \"#utility.yul\":641:665   */\n  tag_74\n    /* \"#utility.yul\":659:664   */\n  dup2\n    /* \"#utility.yul\":641:665   */\n  tag_25\n  jump\t// in\ntag_74:\n    /* \"#utility.yul\":634:639   */\n  dup2\n    /* \"#utility.yul\":631:666   */\n  eq\n    /* \"#utility.yul\":621:684   */\n  tag_75\n  jumpi\n    /* \"#utility.yul\":680:681   */\n  0x00\n    /* \"#utility.yul\":677:678   */\n  0x00\n    /* \"#utility.yul\":670:682   */\n  revert\n    /* \"#utility.yul\":621:684   */\ntag_75:\n    /* \"#utility.yul\":568:690   */\n  pop\n  jump\t// out\n    /* \"#utility.yul\":696:839   */\ntag_27:\n    /* \"#utility.yul\":753:758   */\n  0x00\n    /* \"#utility.yul\":784:790   */\n  dup2\n    /* \"#utility.yul\":778:791   */\n  mload\n    /* \"#utility.yul\":769:791   */\n  swap1\n  pop\n    /* \"#utility.yul\":800:833   */\n  tag_77\n    /* \"#utility.yul\":827:832   */\n  dup2\n    /* \"#utility.yul\":800:833   */\n  tag_26\n  jump\t// in\ntag_77:\n    /* \"#utility.yul\":696:839   */\n  swap3\n  swap2\n  pop\n  pop\n  jump\t// out\n    /* \"#utility.yul\":845:962   */\ntag_28:\n    /* \"#utility.yul\":954:955   */\n  0x00\n    /* \"#utility.yul\":951:952   */\n  0x00\n    /* \"#utility.yul\":944:956   */\n  revert\n    /* \"#utility.yul\":968:1085   */\ntag_29:\n    /* \"#utility.yul\":1077:1078   */\n  0x00\n    /* \"#utility.yul\":1074:1075   */\n  0x00\n    /* \"#utility.yul\":1067:1079   */\n  revert\n    /* \"#utility.yul\":1091:1193   */\ntag_30:\n    /* \"#utility.yul\":1132:1138   */\n  0x00\n    /* \"#utility.yul\":1183:1185   */\n  0x1f\n    /* \"#utility.yul\":1179:1186   */\n  not\n    /* \"#utility.yul\":1174:1176   */\n  0x1f\n    /* \"#utility.yul\":1167:1172   */\n  dup4\n    /* \"#utility.yul\":1163:1177   */\n  add\n    /* \"#utility.yul\":1159:1187   */\n  and\n    /* \"#utility.yul\":1149:1187   */\n  swap1\n  pop\n    /* \"#utility.yul\":1091:1193   */\n  swap2\n  swap1\n  pop\n  jump\t// out\n    /* \"#utility.yul\":1199:1379   */\ntag_31:\n    /* \"#utility.yul\":1247:1324   */\n  0x4e487b7100000000000000000000000000000000000000000000000000000000\n    /* \"#utility.yul\":1244:1245   */\n  0x00\n    /* \"#utility.yul\":1237:1325   */\n  mstore\n    /* \"#utility.yul\":1344:1348   */\n  0x41\n    /* \"#utility.yul\":1341:1342   */\n  0x04\n    /* \"#utility.yul\":1334:1349   */\n  mstore\n    /* \"#utility.yul\":1368:1372   */\n  0x24\n    /* \"#utility.yul\":1365:1366   */\n  0x00\n    /* \"#utility.yul\":1358:1373   */\n  revert\n    /* \"#utility.yul\":1385:1666   */\ntag_32:\n    /* \"#utility.yul\":1468:1495   */\n  tag_83\n    /* \"#utility.yul\":1490:1494   */\n  dup3\n    /* \"#utility.yul\":1468:1495   */\n  tag_30\n  jump\t// in\ntag_83:\n    /* \"#utility.yul\":1460:1466   */\n  dup2\n    /* \"#utility.yul\":1456:1496   */\n  add\n    /* \"#utility.yul\":1598:1604   */\n  dup2\n    /* \"#utility.yul\":1586:1596   */\n  dup2\n    /* \"#utility.yul\":1583:1605   */\n  lt\n    /* \"#utility.yul\":1562:1580   */\n  0xffffffffffffffff\n    /* \"#utility.yul\":1550:1560   */\n  dup3\n    /* \"#utility.yul\":1547:1581   */\n  gt\n    /* \"#utility.yul\":1544:1606   */\n  or\n    /* \"#utility.yul\":1541:1629   */\n  iszero\n  tag_84\n  jumpi\n    /* \"#utility.yul\":1609:1627   */\n  tag_85\n  tag_31\n  jump\t// in\ntag_85:\n    /* \"#utility.yul\":1541:1629   */\ntag_84:\n    /* \"#utility.yul\":1649:1659   */\n  dup1\n    /* \"#utility.yul\":1645:1647   */\n  0x40\n    /* \"#utility.yul\":1638:1660   */\n  mstore\n    /* \"#utility.yul\":1428:1666   */\n  pop\n    /* \"#utility.yul\":1385:1666   */\n  pop\n  pop\n  jump\t// out\n    /* \"#utility.yul\":1672:1801   */\ntag_33:\n    /* \"#utility.yul\":1706:1712   */\n  0x00\n    /* \"#utility.yul\":1733:1753   */\n  tag_87\n  tag_21\n  jump\t// in\ntag_87:\n    /* \"#utility.yul\":1723:1753   */\n  swap1\n  pop\n    /* \"#utility.yul\":1762:1795   */\n  tag_88\n    /* \"#utility.yul\":1790:1794   */\n  dup3\n    /* \"#utility.yul\":1782:1788   */\n  dup3\n    /* \"#utility.yul\":1762:1795   */\n  tag_32\n  jump\t// in\ntag_88:\n    /* \"#utility.yul\":1672:1801   */\n  swap2\n  swap1\n  pop\n  jump\t// out\n    /* \"#utility.yul\":1807:2115   */\ntag_34:\n    /* \"#utility.yul\":1869:1873   */\n  0x00\n    /* \"#utility.yul\":1959:1977   */\n  0xffffffffffffffff\n    /* \"#utility.yul\":1951:1957   */\n  dup3\n    /* \"#utility.yul\":1948:1978   */\n  gt\n    /* \"#utility.yul\":1945:2001   */\n  iszero\n  tag_90\n  jumpi\n    /* \"#utility.yul\":1981:1999   */\n  tag_91\n  tag_31\n  jump\t// in\ntag_91:\n    /* \"#utility.yul\":1945:2001   */\ntag_90:\n    /* \"#utility.yul\":2019:2048   */\n  tag_92\n    /* \"#utility.yul\":2041:2047   */\n  dup3\n    /* \"#utility.yul\":2019:2048   */\n  tag_30\n  jump\t// in\ntag_92:\n    /* \"#utility.yul\":2011:2048   */\n  swap1\n  pop\n    /* \"#utility.yul\":2103:2107   */\n  0x20\n    /* \"#utility.yul\":2097:2101   */\n  dup2\n    /* \"#utility.yul\":2093:2108   */\n  add\n    /* \"#utility.yul\":2085:2108   */\n  swap1\n  pop\n    /* \"#utility.yul\":1807:2115   */\n  swap2\n  swap1\n  pop\n  jump\t// out\n    /* \"#utility.yul\":2121:2260   */\ntag_35:\n    /* \"#utility.yul\":2210:2216   */\n  dup3\n    /* \"#utility.yul\":2205:2208   */\n  dup2\n    /* \"#utility.yul\":2200:2203   */\n  dup4\n    /* \"#utility.yul\":2194:2217   */\n  mcopy\n    /* \"#utility.yul\":2251:2252   */\n  0x00\n    /* \"#utility.yul\":2242:2248   */\n  dup4\n    /* \"#utility.yul\":2237:2240   */\n  dup4\n    /* \"#utility.yul\":2233:2249   */\n  add\n    /* \"#utility.yul\":2226:2253   */\n  mstore\n    /* \"#utility.yul\":2121:2260   */\n  pop\n  pop\n  pop\n  jump\t// out\n    /* \"#utility.yul\":2266:2700   */\ntag_36:\n    /* \"#utility.yul\":2355:2360   */\n  0x00\n    /* \"#utility.yul\":2380:2446   */\n  tag_95\n    /* \"#utility.yul\":2396:2445   */\n  tag_96\n    /* \"#utility.yul\":2438:2444   */\n  dup5\n    /* \"#utility.yul\":2396:2445   */\n  tag_34\n  jump\t// in\ntag_96:\n    /* \"#utility.yul\":2380:2446   */\n  tag_33\n  jump\t// in\ntag_95:\n    /* \"#utility.yul\":2371:2446   */\n  swap1\n  pop\n    /* \"#utility.yul\":2469:2475   */\n  dup3\n    /* \"#utility.yul\":2462:2467   */\n  dup2\n    /* \"#utility.yul\":2455:2476   */\n  mstore\n    /* \"#utility.yul\":2507:2511   */\n  0x20\n    /* \"#utility.yul\":2500:2505   */\n  dup2\n    /* \"#utility.yul\":2496:2512   */\n  add\n    /* \"#utility.yul\":2545:2548   */\n  dup5\n    /* \"#utility.yul\":2536:2542   */\n  dup5\n    /* \"#utility.yul\":2531:2534   */\n  dup5\n    /* \"#utility.yul\":2527:2543   */\n  add\n    /* \"#utility.yul\":2524:2549   */\n  gt\n    /* \"#utility.yul\":2521:2633   */\n  iszero\n  tag_97\n  jumpi\n    /* \"#utility.yul\":2552:2631   */\n  tag_98\n  tag_29\n  jump\t// in\ntag_98:\n    /* \"#utility.yul\":2521:2633   */\ntag_97:\n    /* \"#utility.yul\":2642:2694   */\n  tag_99\n    /* \"#utility.yul\":2687:2693   */\n  dup5\n    /* \"#utility.yul\":2682:2685   */\n  dup3\n    /* \"#utility.yul\":2677:2680   */\n  dup6\n    /* \"#utility.yul\":2642:2694   */\n  tag_35\n  jump\t// in\ntag_99:\n    /* \"#utility.yul\":2361:2700   */\n  pop\n    /* \"#utility.yul\":2266:2700   */\n  swap4\n  swap3\n  pop\n  pop\n  pop\n  jump\t// out\n    /* \"#utility.yul\":2720:3075   */\ntag_37:\n    /* \"#utility.yul\":2787:2792   */\n  0x00\n    /* \"#utility.yul\":2836:2839   */\n  dup3\n    /* \"#utility.yul\":2829:2833   */\n  0x1f\n    /* \"#utility.yul\":2821:2827   */\n  dup4\n    /* \"#utility.yul\":2817:2834   */\n  add\n    /* \"#utility.yul\":2813:2840   */\n  slt\n    /* \"#utility.yul\":2803:2925   */\n  tag_101\n  jumpi\n    /* \"#utility.yul\":2844:2923   */\n  tag_102\n  tag_28\n  jump\t// in\ntag_102:\n    /* \"#utility.yul\":2803:2925   */\ntag_101:\n    /* \"#utility.yul\":2954:2960   */\n  dup2\n    /* \"#utility.yul\":2948:2961   */\n  mload\n    /* \"#utility.yul\":2979:3069   */\n  tag_103\n    /* \"#utility.yul\":3065:3068   */\n  dup5\n    /* \"#utility.yul\":3057:3063   */\n  dup3\n    /* \"#utility.yul\":3050:3054   */\n  0x20\n    /* \"#utility.yul\":3042:3048   */\n  dup7\n    /* \"#utility.yul\":3038:3055   */\n  add\n    /* \"#utility.yul\":2979:3069   */\n  tag_36\n  jump\t// in\ntag_103:\n    /* \"#utility.yul\":2970:3069   */\n  swap2\n  pop\n    /* \"#utility.yul\":2793:3075   */\n  pop\n    /* \"#utility.yul\":2720:3075   */\n  swap3\n  swap2\n  pop\n  pop\n  jump\t// out\n    /* \"#utility.yul\":3081:3158   */\ntag_38:\n    /* \"#utility.yul\":3118:3125   */\n  0x00\n    /* \"#utility.yul\":3147:3152   */\n  dup2\n    /* \"#utility.yul\":3136:3152   */\n  swap1\n  pop\n    /* \"#utility.yul\":3081:3158   */\n  swap2\n  swap1\n  pop\n  jump\t// out\n    /* \"#utility.yul\":3164:3286   */\ntag_39:\n    /* \"#utility.yul\":3237:3261   */\n  tag_106\n    /* \"#utility.yul\":3255:3260   */\n  dup2\n    /* \"#utility.yul\":3237:3261   */\n  tag_38\n  jump\t// in\ntag_106:\n    /* \"#utility.yul\":3230:3235   */\n  dup2\n    /* \"#utility.yul\":3227:3262   */\n  eq\n    /* \"#utility.yul\":3217:3280   */\n  tag_107\n  jumpi\n    /* \"#utility.yul\":3276:3277   */\n  0x00\n    /* \"#utility.yul\":3273:3274   */\n  0x00\n    /* \"#utility.yul\":3266:3278   */\n  revert\n    /* \"#utility.yul\":3217:3280   */\ntag_107:\n    /* \"#utility.yul\":3164:3286   */\n  pop\n  jump\t// out\n    /* \"#utility.yul\":3292:3435   */\ntag_40:\n    /* \"#utility.yul\":3349:3354   */\n  0x00\n    /* \"#utility.yul\":3380:3386   */\n  dup2\n    /* \"#utility.yul\":3374:3387   */\n  mload\n    /* \"#utility.yul\":3365:3387   */\n  swap1\n  pop\n    /* \"#utility.yul\":3396:3429   */\n  tag_109\n    /* \"#utility.yul\":3423:3428   */\n  dup2\n    /* \"#utility.yul\":3396:3429   */\n  tag_39\n  jump\t// in\ntag_109:\n    /* \"#utility.yul\":3292:3435   */\n  swap3\n  swap2\n  pop\n  pop\n  jump\t// out\n    /* \"#utility.yul\":3441:4921   */\ntag_3:\n    /* \"#utility.yul\":3576:3582   */\n  0x00\n    /* \"#utility.yul\":3584:3590   */\n  0x00\n    /* \"#utility.yul\":3592:3598   */\n  0x00\n    /* \"#utility.yul\":3600:3606   */\n  0x00\n    /* \"#utility.yul\":3608:3614   */\n  0x00\n    /* \"#utility.yul\":3616:3622   */\n  0x00\n    /* \"#utility.yul\":3665:3668   */\n  0xc0\n    /* \"#utility.yul\":3653:3662   */\n  dup8\n    /* \"#utility.yul\":3644:3651   */\n  dup10\n    /* \"#utility.yul\":3640:3663   */\n  sub\n    /* \"#utility.yul\":3636:3669   */\n  slt\n    /* \"#utility.yul\":3633:3753   */\n  iszero\n  tag_111\n  jumpi\n    /* \"#utility.yul\":3672:3751   */\n  tag_112\n  tag_22\n  jump\t// in\ntag_112:\n    /* \"#utility.yul\":3633:3753   */\ntag_111:\n    /* \"#utility.yul\":3792:3793   */\n  0x00\n    /* \"#utility.yul\":3817:3881   */\n  tag_113\n    /* \"#utility.yul\":3873:3880   */\n  dup10\n    /* \"#utility.yul\":3864:3870   */\n  dup3\n    /* \"#utility.yul\":3853:3862   */\n  dup11\n    /* \"#utility.yul\":3849:3871   */\n  add\n    /* \"#utility.yul\":3817:3881   */\n  tag_27\n  jump\t// in\ntag_113:\n    /* \"#utility.yul\":3807:3881   */\n  swap7\n  pop\n    /* \"#utility.yul\":3763:3891   */\n  pop\n    /* \"#utility.yul\":3930:3932   */\n  0x20\n    /* \"#utility.yul\":3956:4020   */\n  tag_114\n    /* \"#utility.yul\":4012:4019   */\n  dup10\n    /* \"#utility.yul\":4003:4009   */\n  dup3\n    /* \"#utility.yul\":3992:4001   */\n  dup11\n    /* \"#utility.yul\":3988:4010   */\n  add\n    /* \"#utility.yul\":3956:4020   */\n  tag_27\n  jump\t// in\ntag_114:\n    /* \"#utility.yul\":3946:4020   */\n  swap6\n  pop\n    /* \"#utility.yul\":3901:4030   */\n  pop\n    /* \"#utility.yul\":4090:4092   */\n  0x40\n    /* \"#utility.yul\":4079:4088   */\n  dup8\n    /* \"#utility.yul\":4075:4093   */\n  add\n    /* \"#utility.yul\":4069:4094   */\n  mload\n    /* \"#utility.yul\":4121:4139   */\n  0xffffffffffffffff\n    /* \"#utility.yul\":4113:4119   */\n  dup2\n    /* \"#utility.yul\":4110:4140   */\n  gt\n    /* \"#utility.yul\":4107:4224   */\n  iszero\n  tag_115\n  jumpi\n    /* \"#utility.yul\":4143:4222   */\n  tag_116\n  tag_23\n  jump\t// in\ntag_116:\n    /* \"#utility.yul\":4107:4224   */\ntag_115:\n    /* \"#utility.yul\":4248:4322   */\n  tag_117\n    /* \"#utility.yul\":4314:4321   */\n  dup10\n    /* \"#utility.yul\":4305:4311   */\n  dup3\n    /* \"#utility.yul\":4294:4303   */\n  dup11\n    /* \"#utility.yul\":4290:4312   */\n  add\n    /* \"#utility.yul\":4248:4322   */\n  tag_37\n  jump\t// in\ntag_117:\n    /* \"#utility.yul\":4238:4322   */\n  swap5\n  pop\n    /* \"#utility.yul\":4040:4332   */\n  pop\n    /* \"#utility.yul\":4392:4394   */\n  0x60\n    /* \"#utility.yul\":4381:4390   */\n  dup8\n    /* \"#utility.yul\":4377:4395   */\n  add\n    /* \"#utility.yul\":4371:4396   */\n  mload\n    /* \"#utility.yul\":4423:4441   */\n  0xffffffffffffffff\n    /* \"#utility.yul\":4415:4421   */\n  dup2\n    /* \"#utility.yul\":4412:4442   */\n  gt\n    /* \"#utility.yul\":4409:4526   */\n  iszero\n  tag_118\n  jumpi\n    /* \"#utility.yul\":4445:4524   */\n  tag_119\n  tag_23\n  jump\t// in\ntag_119:\n    /* \"#utility.yul\":4409:4526   */\ntag_118:\n    /* \"#utility.yul\":4550:4624   */\n  tag_120\n    /* \"#utility.yul\":4616:4623   */\n  dup10\n    /* \"#utility.yul\":4607:4613   */\n  dup3\n    /* \"#utility.yul\":4596:4605   */\n  dup11\n    /* \"#utility.yul\":4592:4614   */\n  add\n    /* \"#utility.yul\":4550:4624   */\n  tag_37\n  jump\t// in\ntag_120:\n    /* \"#utility.yul\":4540:4624   */\n  swap4\n  pop\n    /* \"#utility.yul\":4342:4634   */\n  pop\n    /* \"#utility.yul\":4673:4676   */\n  0x80\n    /* \"#utility.yul\":4700:4764   */\n  tag_121\n    /* \"#utility.yul\":4756:4763   */\n  dup10\n    /* \"#utility.yul\":4747:4753   */\n  dup3\n    /* \"#utility.yul\":4736:4745   */\n  dup11\n    /* \"#utility.yul\":4732:4754   */\n  add\n    /* \"#utility.yul\":4700:4764   */\n  tag_40\n  jump\t// in\ntag_121:\n    /* \"#utility.yul\":4690:4764   */\n  swap3\n  pop\n    /* \"#utility.yul\":4644:4774   */\n  pop\n    /* \"#utility.yul\":4813:4816   */\n  0xa0\n    /* \"#utility.yul\":4840:4904   */\n  tag_122\n    /* \"#utility.yul\":4896:4903   */\n  dup10\n    /* \"#utility.yul\":4887:4893   */\n  dup3\n    /* \"#utility.yul\":4876:4885   */\n  dup11\n    /* \"#utility.yul\":4872:4894   */\n  add\n    /* \"#utility.yul\":4840:4904   */\n  tag_27\n  jump\t// in\ntag_122:\n    /* \"#utility.yul\":4830:4904   */\n  swap2\n  pop\n    /* \"#utility.yul\":4784:4914   */\n  pop\n    /* \"#utility.yul\":3441:4921   */\n  swap3\n  swap6\n  pop\n  swap3\n  swap6\n  pop\n  swap3\n  swap6\n  jump\t// out\n    /* \"#utility.yul\":4927:5096   */\ntag_41:\n    /* \"#utility.yul\":5011:5022   */\n  0x00\n    /* \"#utility.yul\":5045:5051   */\n  dup3\n    /* \"#utility.yul\":5040:5043   */\n  dup3\n    /* \"#utility.yul\":5033:5052   */\n  mstore\n    /* \"#utility.yul\":5085:5089   */\n  0x20\n    /* \"#utility.yul\":5080:5083   */\n  dup3\n    /* \"#utility.yul\":5076:5090   */\n  add\n    /* \"#utility.yul\":5061:5090   */\n  swap1\n  pop\n    /* \"#utility.yul\":4927:5096   */\n  swap3\n  swap2\n  pop\n  pop\n  jump\t// out\n    /* \"#utility.yul\":5102:5274   */\ntag_42:\n    /* \"#utility.yul\":5242:5266   */\n  0x4f776e61626c653a206f776e6572206973207a65726f00000000000000000000\n    /* \"#utility.yul\":5238:5239   */\n  0x00\n    /* \"#utility.yul\":5230:5236   */\n  dup3\n    /* \"#utility.yul\":5226:5240   */\n  add\n    /* \"#utility.yul\":5219:5267   */\n  mstore\n    /* \"#utility.yul\":5102:5274   */\n  pop\n  jump\t// out\n    /* \"#utility.yul\":5280:5646   */\ntag_43:\n    /* \"#utility.yul\":5422:5425   */\n  0x00\n    /* \"#utility.yul\":5443:5510   */\n  tag_126\n    /* \"#utility.yul\":5507:5509   */\n  0x16\n    /* \"#utility.yul\":5502:5505   */\n  dup4\n    /* \"#utility.yul\":5443:5510   */\n  tag_41\n  jump\t// in\ntag_126:\n    /* \"#utility.yul\":5436:5510   */\n  swap2\n  pop\n    /* \"#utility.yul\":5519:5612   */\n  tag_127\n    /* \"#utility.yul\":5608:5611   */\n  dup3\n    /* \"#utility.yul\":5519:5612   */\n  tag_42\n  jump\t// in\ntag_127:\n    /* \"#utility.yul\":5637:5639   */\n  0x20\n    /* \"#utility.yul\":5632:5635   */\n  dup3\n    /* \"#utility.yul\":5628:5640   */\n  add\n    /* \"#utility.yul\":5621:5640   */\n  swap1\n  pop\n    /* \"#utility.yul\":5280:5646   */\n  swap2\n  swap1\n  pop\n  jump\t// out\n    /* \"#utility.yul\":5652:6071   */\ntag_9:\n    /* \"#utility.yul\":5818:5822   */\n  0x00\n    /* \"#utility.yul\":5856:5858   */\n  0x20\n    /* \"#utility.yul\":5845:5854   */\n  dup3\n    /* \"#utility.yul\":5841:5859   */\n  add\n    /* \"#utility.yul\":5833:5859   */\n  swap1\n  pop\n    /* \"#utility.yul\":5905:5914   */\n  dup2\n    /* \"#utility.yul\":5899:5903   */\n  dup2\n    /* \"#utility.yul\":5895:5915   */\n  sub\n    /* \"#utility.yul\":5891:5892   */\n  0x00\n    /* \"#utility.yul\":5880:5889   */\n  dup4\n    /* \"#utility.yul\":5876:5893   */\n  add\n    /* \"#utility.yul\":5869:5916   */\n  mstore\n    /* \"#utility.yul\":5933:6064   */\n  tag_129\n    /* \"#utility.yul\":6059:6063   */\n  dup2\n    /* \"#utility.yul\":5933:6064   */\n  tag_43\n  jump\t// in\ntag_129:\n    /* \"#utility.yul\":5925:6064   */\n  swap1\n  pop\n    /* \"#utility.yul\":5652:6071   */\n  swap2\n  swap1\n  pop\n  jump\t// out\n    /* \"#utility.yul\":6077:6251   */\ntag_44:\n    /* \"#utility.yul\":6217:6243   */\n  0x546f6b656e3a2070726f6a6563744f776e6572207a65726f0000000000000000\n    /* \"#utility.yul\":6213:6214   */\n  0x00\n    /* \"#utility.yul\":6205:6211   */\n  dup3\n    /* \"#utility.yul\":6201:6215   */\n  add\n    /* \"#utility.yul\":6194:6244   */\n  mstore\n    /* \"#utility.yul\":6077:6251   */\n  pop\n  jump\t// out\n    /* \"#utility.yul\":6257:6623   */\ntag_45:\n    /* \"#utility.yul\":6399:6402   */\n  0x00\n    /* \"#utility.yul\":6420:6487   */\n  tag_132\n    /* \"#utility.yul\":6484:6486   */\n  0x18\n    /* \"#utility.yul\":6479:6482   */\n  dup4\n    /* \"#utility.yul\":6420:6487   */\n  tag_41\n  jump\t// in\ntag_132:\n    /* \"#utility.yul\":6413:6487   */\n  swap2\n  pop\n    /* \"#utility.yul\":6496:6589   */\n  tag_133\n    /* \"#utility.yul\":6585:6588   */\n  dup3\n    /* \"#utility.yul\":6496:6589   */\n  tag_44\n  jump\t// in\ntag_133:\n    /* \"#utility.yul\":6614:6616   */\n  0x20\n    /* \"#utility.yul\":6609:6612   */\n  dup3\n    /* \"#utility.yul\":6605:6617   */\n  add\n    /* \"#utility.yul\":6598:6617   */\n  swap1\n  pop\n    /* \"#utility.yul\":6257:6623   */\n  swap2\n  swap1\n  pop\n  jump\t// out\n    /* \"#utility.yul\":6629:7048   */\ntag_13:\n    /* \"#utility.yul\":6795:6799   */\n  0x00\n    /* \"#utility.yul\":6833:6835   */\n  0x20\n    /* \"#utility.yul\":6822:6831   */\n  dup3\n    /* \"#utility.yul\":6818:6836   */\n  add\n    /* \"#utility.yul\":6810:6836   */\n  swap1\n  pop\n    /* \"#utility.yul\":6882:6891   */\n  dup2\n    /* \"#utility.yul\":6876:6880   */\n  dup2\n    /* \"#utility.yul\":6872:6892   */\n  sub\n    /* \"#utility.yul\":6868:6869   */\n  0x00\n    /* \"#utility.yul\":6857:6866   */\n  dup4\n    /* \"#utility.yul\":6853:6870   */\n  add\n    /* \"#utility.yul\":6846:6893   */\n  mstore\n    /* \"#utility.yul\":6910:7041   */\n  tag_135\n    /* \"#utility.yul\":7036:7040   */\n  dup2\n    /* \"#utility.yul\":6910:7041   */\n  tag_45\n  jump\t// in\ntag_135:\n    /* \"#utility.yul\":6902:7041   */\n  swap1\n  pop\n    /* \"#utility.yul\":6629:7048   */\n  swap2\n  swap1\n  pop\n  jump\t// out\n    /* \"#utility.yul\":7054:7232   */\ntag_46:\n    /* \"#utility.yul\":7194:7224   */\n  0x546f6b656e3a206964656e746974795265676973747279207a65726f00000000\n    /* \"#utility.yul\":7190:7191   */\n  0x00\n    /* \"#utility.yul\":7182:7188   */\n  dup3\n    /* \"#utility.yul\":7178:7192   */\n  add\n    /* \"#utility.yul\":7171:7225   */\n  mstore\n    /* \"#utility.yul\":7054:7232   */\n  pop\n  jump\t// out\n    /* \"#utility.yul\":7238:7604   */\ntag_47:\n    /* \"#utility.yul\":7380:7383   */\n  0x00\n    /* \"#utility.yul\":7401:7468   */\n  tag_138\n    /* \"#utility.yul\":7465:7467   */\n  0x1c\n    /* \"#utility.yul\":7460:7463   */\n  dup4\n    /* \"#utility.yul\":7401:7468   */\n  tag_41\n  jump\t// in\ntag_138:\n    /* \"#utility.yul\":7394:7468   */\n  swap2\n  pop\n    /* \"#utility.yul\":7477:7570   */\n  tag_139\n    /* \"#utility.yul\":7566:7569   */\n  dup3\n    /* \"#utility.yul\":7477:7570   */\n  tag_46\n  jump\t// in\ntag_139:\n    /* \"#utility.yul\":7595:7597   */\n  0x20\n    /* \"#utility.yul\":7590:7593   */\n  dup3\n    /* \"#utility.yul\":7586:7598   */\n  add\n    /* \"#utility.yul\":7579:7598   */\n  swap1\n  pop\n    /* \"#utility.yul\":7238:7604   */\n  swap2\n  swap1\n  pop\n  jump\t// out\n    /* \"#utility.yul\":7610:8029   */\ntag_16:\n    /* \"#utility.yul\":7776:7780   */\n  0x00\n    /* \"#utility.yul\":7814:7816   */\n  0x20\n    /* \"#utility.yul\":7803:7812   */\n  dup3\n    /* \"#utility.yul\":7799:7817   */\n  add\n    /* \"#utility.yul\":7791:7817   */\n  swap1\n  pop\n    /* \"#utility.yul\":7863:7872   */\n  dup2\n    /* \"#utility.yul\":7857:7861   */\n  dup2\n    /* \"#utility.yul\":7853:7873   */\n  sub\n    /* \"#utility.yul\":7849:7850   */\n  0x00\n    /* \"#utility.yul\":7838:7847   */\n  dup4\n    /* \"#utility.yul\":7834:7851   */\n  add\n    /* \"#utility.yul\":7827:7874   */\n  mstore\n    /* \"#utility.yul\":7891:8022   */\n  tag_141\n    /* \"#utility.yul\":8017:8021   */\n  dup2\n    /* \"#utility.yul\":7891:8022   */\n  tag_47\n  jump\t// in\ntag_141:\n    /* \"#utility.yul\":7883:8022   */\n  swap1\n  pop\n    /* \"#utility.yul\":7610:8029   */\n  swap2\n  swap1\n  pop\n  jump\t// out\n    /* \"#utility.yul\":8035:8134   */\ntag_48:\n    /* \"#utility.yul\":8087:8093   */\n  0x00\n    /* \"#utility.yul\":8121:8126   */\n  dup2\n    /* \"#utility.yul\":8115:8127   */\n  mload\n    /* \"#utility.yul\":8105:8127   */\n  swap1\n  pop\n    /* \"#utility.yul\":8035:8134   */\n  swap2\n  swap1\n  pop\n  jump\t// out\n    /* \"#utility.yul\":8140:8320   */\ntag_49:\n    /* \"#utility.yul\":8188:8265   */\n  0x4e487b7100000000000000000000000000000000000000000000000000000000\n    /* \"#utility.yul\":8185:8186   */\n  0x00\n    /* \"#utility.yul\":8178:8266   */\n  mstore\n    /* \"#utility.yul\":8285:8289   */\n  0x22\n    /* \"#utility.yul\":8282:8283   */\n  0x04\n    /* \"#utility.yul\":8275:8290   */\n  mstore\n    /* \"#utility.yul\":8309:8313   */\n  0x24\n    /* \"#utility.yul\":8306:8307   */\n  0x00\n    /* \"#utility.yul\":8299:8314   */\n  revert\n    /* \"#utility.yul\":8326:8646   */\ntag_50:\n    /* \"#utility.yul\":8370:8376   */\n  0x00\n    /* \"#utility.yul\":8407:8408   */\n  0x02\n    /* \"#utility.yul\":8401:8405   */\n  dup3\n    /* \"#utility.yul\":8397:8409   */\n  div\n    /* \"#utility.yul\":8387:8409   */\n  swap1\n  pop\n    /* \"#utility.yul\":8454:8455   */\n  0x01\n    /* \"#utility.yul\":8448:8452   */\n  dup3\n    /* \"#utility.yul\":8444:8456   */\n  and\n    /* \"#utility.yul\":8475:8493   */\n  dup1\n    /* \"#utility.yul\":8465:8546   */\n  tag_145\n  jumpi\n    /* \"#utility.yul\":8531:8535   */\n  0x7f\n    /* \"#utility.yul\":8523:8529   */\n  dup3\n    /* \"#utility.yul\":8519:8536   */\n  and\n    /* \"#utility.yul\":8509:8536   */\n  swap2\n  pop\n    /* \"#utility.yul\":8465:8546   */\ntag_145:\n    /* \"#utility.yul\":8593:8595   */\n  0x20\n    /* \"#utility.yul\":8585:8591   */\n  dup3\n    /* \"#utility.yul\":8582:8596   */\n  lt\n    /* \"#utility.yul\":8562:8580   */\n  dup2\n    /* \"#utility.yul\":8559:8597   */\n  sub\n    /* \"#utility.yul\":8556:8640   */\n  tag_146\n  jumpi\n    /* \"#utility.yul\":8612:8630   */\n  tag_147\n  tag_49\n  jump\t// in\ntag_147:\n    /* \"#utility.yul\":8556:8640   */\ntag_146:\n    /* \"#utility.yul\":8377:8646   */\n  pop\n    /* \"#utility.yul\":8326:8646   */\n  swap2\n  swap1\n  pop\n  jump\t// out\n    /* \"#utility.yul\":8652:8793   */\ntag_51:\n    /* \"#utility.yul\":8701:8705   */\n  0x00\n    /* \"#utility.yul\":8724:8727   */\n  dup2\n    /* \"#utility.yul\":8716:8727   */\n  swap1\n  pop\n    /* \"#utility.yul\":8747:8750   */\n  dup2\n    /* \"#utility.yul\":8744:8745   */\n  0x00\n    /* \"#utility.yul\":8737:8751   */\n  mstore\n    /* \"#utility.yul\":8781:8785   */\n  0x20\n    /* \"#utility.yul\":8778:8779   */\n  0x00\n    /* \"#utility.yul\":8768:8786   */\n  keccak256\n    /* \"#utility.yul\":8760:8786   */\n  swap1\n  pop\n    /* \"#utility.yul\":8652:8793   */\n  swap2\n  swap1\n  pop\n  jump\t// out\n    /* \"#utility.yul\":8799:8892   */\ntag_52:\n    /* \"#utility.yul\":8836:8842   */\n  0x00\n    /* \"#utility.yul\":8883:8885   */\n  0x20\n    /* \"#utility.yul\":8878:8880   */\n  0x1f\n    /* \"#utility.yul\":8871:8876   */\n  dup4\n    /* \"#utility.yul\":8867:8881   */\n  add\n    /* \"#utility.yul\":8863:8886   */\n  div\n    /* \"#utility.yul\":8853:8886   */\n  swap1\n  pop\n    /* \"#utility.yul\":8799:8892   */\n  swap2\n  swap1\n  pop\n  jump\t// out\n    /* \"#utility.yul\":8898:9005   */\ntag_53:\n    /* \"#utility.yul\":8942:8950   */\n  0x00\n    /* \"#utility.yul\":8992:8997   */\n  dup3\n    /* \"#utility.yul\":8986:8990   */\n  dup3\n    /* \"#utility.yul\":8982:8998   */\n  shl\n    /* \"#utility.yul\":8961:8998   */\n  swap1\n  pop\n    /* \"#utility.yul\":8898:9005   */\n  swap3\n  swap2\n  pop\n  pop\n  jump\t// out\n    /* \"#utility.yul\":9011:9404   */\ntag_54:\n    /* \"#utility.yul\":9080:9086   */\n  0x00\n    /* \"#utility.yul\":9130:9131   */\n  0x08\n    /* \"#utility.yul\":9118:9128   */\n  dup4\n    /* \"#utility.yul\":9114:9132   */\n  mul\n    /* \"#utility.yul\":9153:9250   */\n  tag_152\n    /* \"#utility.yul\":9183:9249   */\n  0xffffffffffffffffffffffffffffffffffffffffffffffffffffffffffffffff\n    /* \"#utility.yul\":9172:9181   */\n  dup3\n    /* \"#utility.yul\":9153:9250   */\n  tag_53\n  jump\t// in\ntag_152:\n    /* \"#utility.yul\":9271:9310   */\n  tag_153\n    /* \"#utility.yul\":9301:9309   */\n  dup7\n    /* \"#utility.yul\":9290:9299   */\n  dup4\n    /* \"#utility.yul\":9271:9310   */\n  tag_53\n  jump\t// in\ntag_153:\n    /* \"#utility.yul\":9259:9310   */\n  swap6\n  pop\n    /* \"#utility.yul\":9343:9347   */\n  dup1\n    /* \"#utility.yul\":9339:9348   */\n  not\n    /* \"#utility.yul\":9332:9337   */\n  dup5\n    /* \"#utility.yul\":9328:9349   */\n  and\n    /* \"#utility.yul\":9319:9349   */\n  swap4\n  pop\n    /* \"#utility.yul\":9392:9396   */\n  dup1\n    /* \"#utility.yul\":9382:9390   */\n  dup7\n    /* \"#utility.yul\":9378:9397   */\n  and\n    /* \"#utility.yul\":9371:9376   */\n  dup5\n    /* \"#utility.yul\":9368:9398   */\n  or\n    /* \"#utility.yul\":9358:9398   */\n  swap3\n  pop\n    /* \"#utility.yul\":9087:9404   */\n  pop\n  pop\n    /* \"#utility.yul\":9011:9404   */\n  swap4\n  swap3\n  pop\n  pop\n  pop\n  jump\t// out\n    /* \"#utility.yul\":9410:9470   */\ntag_55:\n    /* \"#utility.yul\":9438:9441   */\n  0x00\n    /* \"#utility.yul\":9459:9464   */\n  dup2\n    /* \"#utility.yul\":9452:9464   */\n  swap1\n  pop\n    /* \"#utility.yul\":9410:9470   */\n  swap2\n  swap1\n  pop\n  jump\t// out\n    /* \"#utility.yul\":9476:9618   */\ntag_56:\n    /* \"#utility.yul\":9526:9535   */\n  0x00\n    /* \"#utility.yul\":9559:9612   */\n  tag_156\n    /* \"#utility.yul\":9577:9611   */\n  tag_157\n    /* \"#utility.yul\":9586:9610   */\n  tag_158\n    /* \"#utility.yul\":9604:9609   */\n  dup5\n    /* \"#utility.yul\":9586:9610   */\n  tag_38\n  jump\t// in\ntag_158:\n    /* \"#utility.yul\":9577:9611   */\n  tag_55\n  jump\t// in\ntag_157:\n    /* \"#utility.yul\":9559:9612   */\n  tag_38\n  jump\t// in\ntag_156:\n    /* \"#utility.yul\":9546:9612   */\n  swap1\n  pop\n    /* \"#utility.yul\":9476:9618   */\n  swap2\n  swap1\n  pop\n  jump\t// out\n    /* \"#utility.yul\":9624:9699   */\ntag_57:\n    /* \"#utility.yul\":9667:9670   */\n  0x00\n    /* \"#utility.yul\":9688:9693   */\n  dup2\n    /* \"#utility.yul\":9681:9693   */\n  swap1\n  pop\n    /* \"#utility.yul\":9624:9699   */\n  swap2\n  swap1\n  pop\n  jump\t// out\n    /* \"#utility.yul\":9705:9974   */\ntag_58:\n    /* \"#utility.yul\":9815:9854   */\n  tag_161\n    /* \"#utility.yul\":9846:9853   */\n  dup4\n    /* \"#utility.yul\":9815:9854   */\n  tag_56\n  jump\t// in\ntag_161:\n    /* \"#utility.yul\":9876:9967   */\n  tag_162\n    /* \"#utility.yul\":9925:9966   */\n  tag_163\n    /* \"#utility.yul\":9949:9965   */\n  dup3\n    /* \"#utility.yul\":9925:9966   */\n  tag_57\n  jump\t// in\ntag_163:\n    /* \"#utility.yul\":9917:9923   */\n  dup5\n    /* \"#utility.yul\":9910:9914   */\n  dup5\n    /* \"#utility.yul\":9904:9915   */\n  sload\n    /* \"#utility.yul\":9876:9967   */\n  tag_54\n  jump\t// in\ntag_162:\n    /* \"#utility.yul\":9870:9874   */\n  dup3\n    /* \"#utility.yul\":9863:9968   */\n  sstore\n    /* \"#utility.yul\":9781:9974   */\n  pop\n    /* \"#utility.yul\":9705:9974   */\n  pop\n  pop\n  pop\n  jump\t// out\n    /* \"#utility.yul\":9980:10053   */\ntag_59:\n    /* \"#utility.yul\":10025:10028   */\n  0x00\n    /* \"#utility.yul\":10046:10047   */\n  0x00\n    /* \"#utility.yul\":10039:10047   */\n  swap1\n  pop\n    /* \"#utility.yul\":9980:10053   */\n  swap1\n  jump\t// out\n    /* \"#utility.yul\":10059:10248   */\ntag_60:\n    /* \"#utility.yul\":10136:10168   */\n  tag_166\n  tag_59\n  jump\t// in\ntag_166:\n    /* \"#utility.yul\":10177:10242   */\n  tag_167\n    /* \"#utility.yul\":10235:10241   */\n  dup2\n    /* \"#utility.yul\":10227:10233   */\n  dup5\n    /* \"#utility.yul\":10221:10225   */\n  dup5\n    /* \"#utility.yul\":10177:10242   */\n  tag_58\n  jump\t// in\ntag_167:\n    /* \"#utility.yul\":10112:10248   */\n  pop\n    /* \"#utility.yul\":10059:10248   */\n  pop\n  pop\n  jump\t// out\n    /* \"#utility.yul\":10254:10440   */\ntag_61:\n    /* \"#utility.yul\":10314:10434   */\ntag_169:\n    /* \"#utility.yul\":10331:10334   */\n  dup2\n    /* \"#utility.yul\":10324:10329   */\n  dup2\n    /* \"#utility.yul\":10321:10335   */\n  lt\n    /* \"#utility.yul\":10314:10434   */\n  iszero\n  tag_171\n  jumpi\n    /* \"#utility.yul\":10385:10424   */\n  tag_172\n    /* \"#utility.yul\":10422:10423   */\n  0x00\n    /* \"#utility.yul\":10415:10420   */\n  dup3\n    /* \"#utility.yul\":10385:10424   */\n  tag_60\n  jump\t// in\ntag_172:\n    /* \"#utility.yul\":10358:10359   */\n  0x01\n    /* \"#utility.yul\":10351:10356   */\n  dup2\n    /* \"#utility.yul\":10347:10360   */\n  add\n    /* \"#utility.yul\":10338:10360   */\n  swap1\n  pop\n    /* \"#utility.yul\":10314:10434   */\n  jump(tag_169)\ntag_171:\n    /* \"#utility.yul\":10254:10440   */\n  pop\n  pop\n  jump\t// out\n    /* \"#utility.yul\":10446:10989   */\ntag_62:\n    /* \"#utility.yul\":10547:10549   */\n  0x1f\n    /* \"#utility.yul\":10542:10545   */\n  dup3\n    /* \"#utility.yul\":10539:10550   */\n  gt\n    /* \"#utility.yul\":10536:10982   */\n  iszero\n  tag_174\n  jumpi\n    /* \"#utility.yul\":10581:10619   */\n  tag_175\n    /* \"#utility.yul\":10613:10618   */\n  dup2\n    /* \"#utility.yul\":10581:10619   */\n  tag_51\n  jump\t// in\ntag_175:\n    /* \"#utility.yul\":10665:10694   */\n  tag_176\n    /* \"#utility.yul\":10683:10693   */\n  dup5\n    /* \"#utility.yul\":10665:10694   */\n  tag_52\n  jump\t// in\ntag_176:\n    /* \"#utility.yul\":10655:10663   */\n  dup2\n    /* \"#utility.yul\":10651:10695   */\n  add\n    /* \"#utility.yul\":10848:10850   */\n  0x20\n    /* \"#utility.yul\":10836:10846   */\n  dup6\n    /* \"#utility.yul\":10833:10851   */\n  lt\n    /* \"#utility.yul\":10830:10879   */\n  iszero\n  tag_177\n  jumpi\n    /* \"#utility.yul\":10869:10877   */\n  dup2\n    /* \"#utility.yul\":10854:10877   */\n  swap1\n  pop\n    /* \"#utility.yul\":10830:10879   */\ntag_177:\n    /* \"#utility.yul\":10892:10972   */\n  tag_178\n    /* \"#utility.yul\":10948:10970   */\n  tag_179\n    /* \"#utility.yul\":10966:10969   */\n  dup6\n    /* \"#utility.yul\":10948:10970   */\n  tag_52\n  jump\t// in\ntag_179:\n    /* \"#utility.yul\":10938:10946   */\n  dup4\n    /* \"#utility.yul\":10934:10971   */\n  add\n    /* \"#utility.yul\":10921:10932   */\n  dup3\n    /* \"#utility.yul\":10892:10972   */\n  tag_61\n  jump\t// in\ntag_178:\n    /* \"#utility.yul\":10551:10982   */\n  pop\n  pop\n    /* \"#utility.yul\":10536:10982   */\ntag_174:\n    /* \"#utility.yul\":10446:10989   */\n  pop\n  pop\n  pop\n  jump\t// out\n    /* \"#utility.yul\":10995:11112   */\ntag_63:\n    /* \"#utility.yul\":11049:11057   */\n  0x00\n    /* \"#utility.yul\":11099:11104   */\n  dup3\n    /* \"#utility.yul\":11093:11097   */\n  dup3\n    /* \"#utility.yul\":11089:11105   */\n  shr\n    /* \"#utility.yul\":11068:11105   */\n  swap1\n  pop\n    /* \"#utility.yul\":10995:11112   */\n  swap3\n  swap2\n  pop\n  pop\n  jump\t// out\n    /* \"#utility.yul\":11118:11287   */\ntag_64:\n    /* \"#utility.yul\":11162:11168   */\n  0x00\n    /* \"#utility.yul\":11195:11246   */\n  tag_182\n    /* \"#utility.yul\":11243:11244   */\n  0x00\n    /* \"#utility.yul\":11239:11245   */\n  not\n    /* \"#utility.yul\":11231:11236   */\n  dup5\n    /* \"#utility.yul\":11228:11229   */\n  0x08\n    /* \"#utility.yul\":11224:11237   */\n  mul\n    /* \"#utility.yul\":11195:11246   */\n  tag_63\n  jump\t// in\ntag_182:\n    /* \"#utility.yul\":11191:11247   */\n  not\n    /* \"#utility.yul\":11276:11280   */\n  dup1\n    /* \"#utility.yul\":11270:11274   */\n  dup4\n    /* \"#utility.yul\":11266:11281   */\n  and\n    /* \"#utility.yul\":11256:11281   */\n  swap2\n  pop\n    /* \"#utility.yul\":11169:11287   */\n  pop\n    /* \"#utility.yul\":11118:11287   */\n  swap3\n  swap2\n  pop\n  pop\n  jump\t// out\n    /* \"#utility.yul\":11292:11587   */\ntag_65:\n    /* \"#utility.yul\":11368:11372   */\n  0x00\n    /* \"#utility.yul\":11514:11543   */\n  tag_184\n    /* \"#utility.yul\":11539:11542   */\n  dup4\n    /* \"#utility.yul\":11533:11537   */\n  dup4\n    /* \"#utility.yul\":11514:11543   */\n  tag_64\n  jump\t// in\ntag_184:\n    /* \"#utility.yul\":11506:11543   */\n  swap2\n  pop\n    /* \"#utility.yul\":11576:11579   */\n  dup3\n    /* \"#utility.yul\":11573:11574   */\n  0x02\n    /* \"#utility.yul\":11569:11580   */\n  mul\n    /* \"#utility.yul\":11563:11567   */\n  dup3\n    /* \"#utility.yul\":11560:11581   */\n  or\n    /* \"#utility.yul\":11552:11581   */\n  swap1\n  pop\n    /* \"#utility.yul\":11292:11587   */\n  swap3\n  swap2\n  pop\n  pop\n  jump\t// out\n    /* \"#utility.yul\":11592:12987   */\ntag_18:\n    /* \"#utility.yul\":11709:11746   */\n  tag_186\n    /* \"#utility.yul\":11742:11745   */\n  dup3\n    /* \"#utility.yul\":11709:11746   */\n  tag_48\n  jump\t// in\ntag_186:\n    /* \"#utility.yul\":11811:11829   */\n  0xffffffffffffffff\n    /* \"#utility.yul\":11803:11809   */\n  dup2\n    /* \"#utility.yul\":11800:11830   */\n  gt\n    /* \"#utility.yul\":11797:11853   */\n  iszero\n  tag_187\n  jumpi\n    /* \"#utility.yul\":11833:11851   */\n  tag_188\n  tag_31\n  jump\t// in\ntag_188:\n    /* \"#utility.yul\":11797:11853   */\ntag_187:\n    /* \"#utility.yul\":11877:11915   */\n  tag_189\n    /* \"#utility.yul\":11909:11913   */\n  dup3\n    /* \"#utility.yul\":11903:11914   */\n  sload\n    /* \"#utility.yul\":11877:11915   */\n  tag_50\n  jump\t// in\ntag_189:\n    /* \"#utility.yul\":11962:12029   */\n  tag_190\n    /* \"#utility.yul\":12022:12028   */\n  dup3\n    /* \"#utility.yul\":12014:12020   */\n  dup3\n    /* \"#utility.yul\":12008:12012   */\n  dup6\n    /* \"#utility.yul\":11962:12029   */\n  tag_62\n  jump\t// in\ntag_190:\n    /* \"#utility.yul\":12056:12057   */\n  0x00\n    /* \"#utility.yul\":12080:12084   */\n  0x20\n    /* \"#utility.yul\":12067:12084   */\n  swap1\n  pop\n    /* \"#utility.yul\":12112:12114   */\n  0x1f\n    /* \"#utility.yul\":12104:12110   */\n  dup4\n    /* \"#utility.yul\":12101:12115   */\n  gt\n    /* \"#utility.yul\":12129:12130   */\n  0x01\n    /* \"#utility.yul\":12124:12742   */\n  dup2\n  eq\n  tag_192\n  jumpi\n    /* \"#utility.yul\":12786:12787   */\n  0x00\n    /* \"#utility.yul\":12803:12809   */\n  dup5\n    /* \"#utility.yul\":12800:12877   */\n  iszero\n  tag_193\n  jumpi\n    /* \"#utility.yul\":12852:12861   */\n  dup3\n    /* \"#utility.yul\":12847:12850   */\n  dup8\n    /* \"#utility.yul\":12843:12862   */\n  add\n    /* \"#utility.yul\":12837:12863   */\n  mload\n    /* \"#utility.yul\":12828:12863   */\n  swap1\n  pop\n    /* \"#utility.yul\":12800:12877   */\ntag_193:\n    /* \"#utility.yul\":12903:12970   */\n  tag_194\n    /* \"#utility.yul\":12963:12969   */\n  dup6\n    /* \"#utility.yul\":12956:12961   */\n  dup3\n    /* \"#utility.yul\":12903:12970   */\n  tag_65\n  jump\t// in\ntag_194:\n    /* \"#utility.yul\":12897:12901   */\n  dup7\n    /* \"#utility.yul\":12890:12971   */\n  sstore\n    /* \"#utility.yul\":12759:12981   */\n  pop\n    /* \"#utility.yul\":12094:12981   */\n  jump(tag_191)\n    /* \"#utility.yul\":12124:12742   */\ntag_192:\n    /* \"#utility.yul\":12176:12180   */\n  0x1f\n    /* \"#utility.yul\":12172:12181   */\n  not\n    /* \"#utility.yul\":12164:12170   */\n  dup5\n    /* \"#utility.yul\":12160:12182   */\n  and\n    /* \"#utility.yul\":12210:12247   */\n  tag_195\n    /* \"#utility.yul\":12242:12246   */\n  dup7\n    /* \"#utility.yul\":12210:12247   */\n  tag_51\n  jump\t// in\ntag_195:\n    /* \"#utility.yul\":12269:12270   */\n  0x00\n    /* \"#utility.yul\":12283:12491   */\ntag_196:\n    /* \"#utility.yul\":12297:12304   */\n  dup3\n    /* \"#utility.yul\":12294:12295   */\n  dup2\n    /* \"#utility.yul\":12291:12305   */\n  lt\n    /* \"#utility.yul\":12283:12491   */\n  iszero\n  tag_198\n  jumpi\n    /* \"#utility.yul\":12376:12385   */\n  dup5\n    /* \"#utility.yul\":12371:12374   */\n  dup10\n    /* \"#utility.yul\":12367:12386   */\n  add\n    /* \"#utility.yul\":12361:12387   */\n  mload\n    /* \"#utility.yul\":12353:12359   */\n  dup3\n    /* \"#utility.yul\":12346:12388   */\n  sstore\n    /* \"#utility.yul\":12427:12428   */\n  0x01\n    /* \"#utility.yul\":12419:12425   */\n  dup3\n    /* \"#utility.yul\":12415:12429   */\n  add\n    /* \"#utility.yul\":12405:12429   */\n  swap2\n  pop\n    /* \"#utility.yul\":12474:12476   */\n  0x20\n    /* \"#utility.yul\":12463:12472   */\n  dup6\n    /* \"#utility.yul\":12459:12477   */\n  add\n    /* \"#utility.yul\":12446:12477   */\n  swap5\n  pop\n    /* \"#utility.yul\":12320:12324   */\n  0x20\n    /* \"#utility.yul\":12317:12318   */\n  dup2\n    /* \"#utility.yul\":12313:12325   */\n  add\n    /* \"#utility.yul\":12308:12325   */\n  swap1\n  pop\n    /* \"#utility.yul\":12283:12491   */\n  jump(tag_196)\ntag_198:\n    /* \"#utility.yul\":12519:12525   */\n  dup7\n    /* \"#utility.yul\":12510:12517   */\n  dup4\n    /* \"#utility.yul\":12507:12526   */\n  lt\n    /* \"#utility.yul\":12504:12683   */\n  iszero\n  tag_199\n  jumpi\n    /* \"#utility.yul\":12577:12586   */\n  dup5\n    /* \"#utility.yul\":12572:12575   */\n  dup10\n    /* \"#utility.yul\":12568:12587   */\n  add\n    /* \"#utility.yul\":12562:12588   */\n  mload\n    /* \"#utility.yul\":12620:12668   */\n  tag_200\n    /* \"#utility.yul\":12662:12666   */\n  0x1f\n    /* \"#utility.yul\":12654:12660   */\n  dup10\n    /* \"#utility.yul\":12650:12667   */\n  and\n    /* \"#utility.yul\":12639:12648   */\n  dup3\n    /* \"#utility.yul\":12620:12668   */\n  tag_64\n  jump\t// in\ntag_200:\n    /* \"#utility.yul\":12612:12618   */\n  dup4\n    /* \"#utility.yul\":12605:12669   */\n  sstore\n    /* \"#utility.yul\":12527:12683   */\n  pop\n    /* \"#utility.yul\":12504:12683   */\ntag_199:\n    /* \"#utility.yul\":12729:12730   */\n  0x01\n    /* \"#utility.yul\":12725:12726   */\n  0x02\n    /* \"#utility.yul\":12717:12723   */\n  dup9\n    /* \"#utility.yul\":12713:12727   */\n  mul\n    /* \"#utility.yul\":12709:12731   */\n  add\n    /* \"#utility.yul\":12703:12707   */\n  dup9\n    /* \"#utility.yul\":12696:12732   */\n  sstore\n    /* \"#utility.yul\":12131:12742   */\n  pop\n  pop\n  pop\n    /* \"#utility.yul\":12094:12981   */\ntag_191:\n  pop\n    /* \"#utility.yul\":11684:12987   */\n  pop\n  pop\n  pop\n    /* \"#utility.yul\":11592:12987   */\n  pop\n  pop\n  jump\t// out\n    /* \"blockchain/contracts/HouseSecurityToken.sol\":165:5485  contract HouseSecurityToken is Ownable {... */\ntag_20:\n  dataSize(sub_0)\n  dup1\n  dataOffset(sub_0)\n  0x00\n  codecopy\n  0x00\n  return\nstop\n\nsub_0: assembly {\n        /* \"blockchain/contracts/HouseSecurityToken.sol\":165:5485  contract HouseSecurityToken is Ownable {... */\n      mstore(0x40, 0x80)\n      callvalue\n      dup1\n      iszero\n      tag_1\n      jumpi\n      revert(0x00, 0x00)\n    tag_1:\n      pop\n      jumpi(tag_2, lt(calldatasize, 0x04))\n      shr(0xe0, calldataload(0x00))\n      dup1\n      0x70a08231\n      gt\n      tag_25\n      jumpi\n      dup1\n      0xa4475ce4\n      gt\n      tag_26\n      jumpi\n      dup1\n      0xa4475ce4\n      eq\n      tag_19\n      jumpi\n      dup1\n      0xa9059cbb\n      eq\n      tag_20\n      jumpi\n      dup1\n      0xc45a0155\n      eq\n      tag_21\n      jumpi\n      dup1\n      0xd5abeb01\n      eq\n      tag_22\n      jumpi\n      dup1\n      0xdaf6ca30\n      eq\n      tag_23\n      jumpi\n      dup1\n      0xf2fde38b\n      eq\n      tag_24\n      jumpi\n      jump(tag_2)\n    tag_26:\n      dup1\n      0x70a08231\n      eq\n      tag_14\n      jumpi\n      dup1\n      0x8456cb59\n      eq\n      tag_15\n      jumpi\n      dup1\n      0x8da5cb5b\n      eq\n      tag_16\n      jumpi\n      dup1\n      0x95d89b41\n      eq\n      tag_17\n      jumpi\n      dup1\n      0x9dc29fac\n      eq\n      tag_18\n      jumpi\n      jump(tag_2)\n    tag_25:\n      dup1\n      0x1f58a309\n      gt\n      tag_27\n      jumpi\n      dup1\n      0x1f58a309\n      eq\n      tag_8\n      jumpi\n      dup1\n      0x313ce567\n      eq\n      tag_9\n      jumpi\n      dup1\n      0x3f4ba83a\n      eq\n      tag_10\n      jumpi\n      dup1\n      0x40c10f19\n      eq\n      tag_11\n      jumpi\n      dup1\n      0x5c975abb\n      eq\n      tag_12\n      jumpi\n      dup1\n      0x69fb9aaa\n      eq\n      tag_13\n      jumpi\n      jump(tag_2)\n    tag_27:\n      dup1\n      0x0593d244\n      eq\n      tag_3\n      jumpi\n      dup1\n      0x06fdde03\n      eq\n      tag_4\n      jumpi\n      dup1\n      0x134e18f4\n      eq\n      tag_5\n      jumpi\n      dup1\n      0x17de3c84\n      eq\n      tag_6\n      jumpi\n      dup1\n      0x18160ddd\n      eq\n      tag_7\n      jumpi\n    tag_2:\n      revert(0x00, 0x00)\n        /* \"blockchain/contracts/HouseSecurityToken.sol\":2796:3058  function setSaleContract(address _saleContract) external onlyOwnerOrSaleFactory {... */\n    tag_3:\n      tag_28\n      0x04\n      dup1\n      calldatasize\n      sub\n      dup2\n      add\n      swap1\n      tag_29\n      swap2\n      swap1\n      tag_30\n      jump\t// in\n    tag_29:\n      tag_31\n      jump\t// in\n    tag_28:\n      stop\n        /* \"blockchain/contracts/HouseSecurityToken.sol\":232:250  string public name */\n    tag_4:\n      tag_32\n      tag_33\n      jump\t// in\n    tag_32:\n      mload(0x40)\n      tag_34\n      swap2\n      swap1\n      tag_35\n      jump\t// in\n    tag_34:\n      mload(0x40)\n      dup1\n      swap2\n      sub\n      swap1\n      return\n        /* \"blockchain/contracts/HouseSecurityToken.sol\":674:715  IIdentityRegistry public identityRegistry */\n    tag_5:\n      tag_36\n      tag_37\n      jump\t// in\n    tag_36:\n      mload(0x40)\n      tag_38\n      swap2\n      swap1\n      tag_39\n      jump\t// in\n    tag_38:\n      mload(0x40)\n      dup1\n      swap2\n      sub\n      swap1\n      return\n        /* \"blockchain/contracts/HouseSecurityToken.sol\":622:648  address public saleFactory */\n    tag_6:\n      tag_40\n      tag_41\n      jump\t// in\n    tag_40:\n      mload(0x40)\n      tag_42\n      swap2\n      swap1\n      tag_43\n      jump\t// in\n    tag_42:\n      mload(0x40)\n      dup1\n      swap2\n      sub\n      swap1\n      return\n        /* \"blockchain/contracts/HouseSecurityToken.sol\":392:418  uint256 public totalSupply */\n    tag_7:\n      tag_44\n      tag_45\n      jump\t// in\n    tag_44:\n      mload(0x40)\n      tag_46\n      swap2\n      swap1\n      tag_47\n      jump\t// in\n    tag_46:\n      mload(0x40)\n      dup1\n      swap2\n      sub\n      swap1\n      return\n        /* \"blockchain/contracts/HouseSecurityToken.sol\":322:371  uint256 public constant MAX_INVESTOR_PERCENT = 20 */\n    tag_8:\n      tag_48\n      tag_49\n      jump\t// in\n    tag_48:\n      mload(0x40)\n      tag_50\n      swap2\n      swap1\n      tag_47\n      jump\t// in\n    tag_50:\n      mload(0x40)\n      dup1\n      swap2\n      sub\n      swap1\n      return\n        /* \"blockchain/contracts/HouseSecurityToken.sol\":282:316  uint8 public constant decimals = 0 */\n    tag_9:\n      tag_51\n      tag_52\n      jump\t// in\n    tag_51:\n      mload(0x40)\n      tag_53\n      swap2\n      swap1\n      tag_54\n      jump\t// in\n    tag_53:\n      mload(0x40)\n      dup1\n      swap2\n      sub\n      swap1\n      return\n        /* \"blockchain/contracts/HouseSecurityToken.sol\":3889:3993  function unpause() external onlyOwner {... */\n    tag_10:\n      tag_55\n      tag_56\n      jump\t// in\n    tag_55:\n      stop\n        /* \"blockchain/contracts/HouseSecurityToken.sol\":4018:4485  function mint(address to, uint256 amount)... */\n    tag_11:\n      tag_57\n      0x04\n      dup1\n      calldatasize\n      sub\n      dup2\n      add\n      swap1\n      tag_58\n      swap2\n      swap1\n      tag_59\n      jump\t// in\n    tag_58:\n      tag_60\n      jump\t// in\n    tag_57:\n      stop\n        /* \"blockchain/contracts/HouseSecurityToken.sol\":745:763  bool public paused */\n    tag_12:\n      tag_61\n      tag_62\n      jump\t// in\n    tag_61:\n      mload(0x40)\n      tag_63\n      swap2\n      swap1\n      tag_64\n      jump\t// in\n    tag_63:\n      mload(0x40)\n      dup1\n      swap2\n      sub\n      swap1\n      return\n        /* \"blockchain/contracts/HouseSecurityToken.sol\":2467:2707  function setSaleFactory(address _saleFactory) external onlyOwner {... */\n    tag_13:\n      tag_65\n      0x04\n      dup1\n      calldatasize\n      sub\n      dup2\n      add\n      swap1\n      tag_66\n      swap2\n      swap1\n      tag_30\n      jump\t// in\n    tag_66:\n      tag_67\n      jump\t// in\n    tag_65:\n      stop\n        /* \"blockchain/contracts/HouseSecurityToken.sol\":455:499  mapping(address => uint256) public balanceOf */\n    tag_14:\n      tag_68\n      0x04\n      dup1\n      calldatasize\n      sub\n      dup2\n      add\n      swap1\n      tag_69\n      swap2\n      swap1\n      tag_30\n      jump\t// in\n    tag_69:\n      tag_70\n      jump\t// in\n    tag_68:\n      mload(0x40)\n      tag_71\n      swap2\n      swap1\n      tag_47\n      jump\t// in\n    tag_71:\n      mload(0x40)\n      dup1\n      swap2\n      sub\n      swap1\n      return\n        /* \"blockchain/contracts/HouseSecurityToken.sol\":3784:3883  function pause() external onlyOwner {... */\n    tag_15:\n      tag_72\n      tag_73\n      jump\t// in\n    tag_72:\n      stop\n        /* \"blockchain/contracts/Ownable.sol\":218:238  address public owner */\n    tag_16:\n      tag_74\n      tag_75\n      jump\t// in\n    tag_74:\n      mload(0x40)\n      tag_76\n      swap2\n      swap1\n      tag_43\n      jump\t// in\n    tag_76:\n      mload(0x40)\n      dup1\n      swap2\n      sub\n      swap1\n      return\n        /* \"blockchain/contracts/HouseSecurityToken.sol\":256:276  string public symbol */\n    tag_17:\n      tag_77\n      tag_78\n      jump\t// in\n    tag_77:\n      mload(0x40)\n      tag_79\n      swap2\n      swap1\n      tag_35\n      jump\t// in\n    tag_79:\n      mload(0x40)\n      dup1\n      swap2\n      sub\n      swap1\n      return\n        /* \"blockchain/contracts/HouseSecurityToken.sol\":4491:4886  function burn(address from, uint256 amount)... */\n    tag_18:\n      tag_80\n      0x04\n      dup1\n      calldatasize\n      sub\n      dup2\n      add\n      swap1\n      tag_81\n      swap2\n      swap1\n      tag_59\n      jump\t// in\n    tag_81:\n      tag_82\n      jump\t// in\n    tag_80:\n      stop\n        /* \"blockchain/contracts/HouseSecurityToken.sol\":528:555  address public projectOwner */\n    tag_19:\n      tag_83\n      tag_84\n      jump\t// in\n    tag_83:\n      mload(0x40)\n      tag_85\n      swap2\n      swap1\n      tag_43\n      jump\t// in\n    tag_85:\n      mload(0x40)\n      dup1\n      swap2\n      sub\n      swap1\n      return\n        /* \"blockchain/contracts/HouseSecurityToken.sol\":4908:5483  function transfer(address to, uint256 amount)... */\n    tag_20:\n      tag_86\n      0x04\n      dup1\n      calldatasize\n      sub\n      dup2\n      add\n      swap1\n      tag_87\n      swap2\n      swap1\n      tag_59\n      jump\t// in\n    tag_87:\n      tag_88\n      jump\t// in\n    tag_86:\n      mload(0x40)\n      tag_89\n      swap2\n      swap1\n      tag_64\n      jump\t// in\n    tag_89:\n      mload(0x40)\n      dup1\n      swap2\n      sub\n      swap1\n      return\n        /* \"blockchain/contracts/HouseSecurityToken.sol\":561:583  address public factory */\n    tag_21:\n      tag_90\n      tag_91\n      jump\t// in\n    tag_90:\n      mload(0x40)\n      tag_92\n      swap2\n      swap1\n      tag_43\n      jump\t// in\n    tag_92:\n      mload(0x40)\n      dup1\n      swap2\n      sub\n      swap1\n      return\n        /* \"blockchain/contracts/HouseSecurityToken.sol\":424:448  uint256 public maxSupply */\n    tag_22:\n      tag_93\n      tag_94\n      jump\t// in\n    tag_93:\n      mload(0x40)\n      tag_95\n      swap2\n      swap1\n      tag_47\n      jump\t// in\n    tag_95:\n      mload(0x40)\n      dup1\n      swap2\n      sub\n      swap1\n      return\n        /* \"blockchain/contracts/HouseSecurityToken.sol\":589:616  address public saleContract */\n    tag_23:\n      tag_96\n      tag_97\n      jump\t// in\n    tag_96:\n      mload(0x40)\n      tag_98\n      swap2\n      swap1\n      tag_43\n      jump\t// in\n    tag_98:\n      mload(0x40)\n      dup1\n      swap2\n      sub\n      swap1\n      return\n        /* \"blockchain/contracts/Ownable.sol\":663:883  function transferOwnership(address newOwner) external onlyOwner {... */\n    tag_24:\n      tag_99\n      0x04\n      dup1\n      calldatasize\n      sub\n      dup2\n      add\n      swap1\n      tag_100\n      swap2\n      swap1\n      tag_30\n      jump\t// in\n    tag_100:\n      tag_101\n      jump\t// in\n    tag_99:\n      stop\n        /* \"blockchain/contracts/HouseSecurityToken.sol\":2796:3058  function setSaleContract(address _saleContract) external onlyOwnerOrSaleFactory {... */\n    tag_31:\n        /* \"blockchain/contracts/HouseSecurityToken.sol\":1685:1690  owner */\n      0x00\n      0x00\n      swap1\n      sload\n      swap1\n      0x0100\n      exp\n      swap1\n      div\n      0xffffffffffffffffffffffffffffffffffffffff\n      and\n        /* \"blockchain/contracts/HouseSecurityToken.sol\":1671:1690  msg.sender == owner */\n      0xffffffffffffffffffffffffffffffffffffffff\n      and\n        /* \"blockchain/contracts/HouseSecurityToken.sol\":1671:1681  msg.sender */\n      caller\n        /* \"blockchain/contracts/HouseSecurityToken.sol\":1671:1690  msg.sender == owner */\n      0xffffffffffffffffffffffffffffffffffffffff\n      and\n      eq\n        /* \"blockchain/contracts/HouseSecurityToken.sol\":1671:1719  msg.sender == owner || msg.sender == saleFactory */\n      dup1\n      tag_103\n      jumpi\n      pop\n        /* \"blockchain/contracts/HouseSecurityToken.sol\":1708:1719  saleFactory */\n      0x09\n      0x00\n      swap1\n      sload\n      swap1\n      0x0100\n      exp\n      swap1\n      div\n      0xffffffffffffffffffffffffffffffffffffffff\n      and\n        /* \"blockchain/contracts/HouseSecurityToken.sol\":1694:1719  msg.sender == saleFactory */\n      0xffffffffffffffffffffffffffffffffffffffff\n      and\n        /* \"blockchain/contracts/HouseSecurityToken.sol\":1694:1704  msg.sender */\n      caller\n        /* \"blockchain/contracts/HouseSecurityToken.sol\":1694:1719  msg.sender == saleFactory */\n      0xffffffffffffffffffffffffffffffffffffffff\n      and\n      eq\n        /* \"blockchain/contracts/HouseSecurityToken.sol\":1671:1719  msg.sender == owner || msg.sender == saleFactory */\n    tag_103:\n        /* \"blockchain/contracts/HouseSecurityToken.sol\":1650:1783  require(... */\n      tag_104\n      jumpi\n      mload(0x40)\n      0x08c379a000000000000000000000000000000000000000000000000000000000\n      dup2\n      mstore\n      0x04\n      add\n      tag_105\n      swap1\n      tag_106\n      jump\t// in\n    tag_105:\n      mload(0x40)\n      dup1\n      swap2\n      sub\n      swap1\n      revert\n    tag_104:\n        /* \"blockchain/contracts/HouseSecurityToken.sol\":2919:2920  0 */\n      0x00\n        /* \"blockchain/contracts/HouseSecurityToken.sol\":2894:2921  _saleContract != address(0) */\n      0xffffffffffffffffffffffffffffffffffffffff\n      and\n        /* \"blockchain/contracts/HouseSecurityToken.sol\":2894:2907  _saleContract */\n      dup2\n        /* \"blockchain/contracts/HouseSecurityToken.sol\":2894:2921  _saleContract != address(0) */\n      0xffffffffffffffffffffffffffffffffffffffff\n      and\n      sub\n        /* \"blockchain/contracts/HouseSecurityToken.sol\":2886:2950  require(_saleContract != address(0), \"Token: saleContract zero\") */\n      tag_108\n      jumpi\n      mload(0x40)\n      0x08c379a000000000000000000000000000000000000000000000000000000000\n      dup2\n      mstore\n      0x04\n      add\n      tag_109\n      swap1\n      tag_110\n      jump\t// in\n    tag_109:\n      mload(0x40)\n      dup1\n      swap2\n      sub\n      swap1\n      revert\n    tag_108:\n        /* \"blockchain/contracts/HouseSecurityToken.sol\":2999:3012  _saleContract */\n      dup1\n        /* \"blockchain/contracts/HouseSecurityToken.sol\":2965:3013  SaleContractUpdated(saleContract, _saleContract) */\n      0xffffffffffffffffffffffffffffffffffffffff\n      and\n        /* \"blockchain/contracts/HouseSecurityToken.sol\":2985:2997  saleContract */\n      0x08\n      0x00\n      swap1\n      sload\n      swap1\n      0x0100\n      exp\n      swap1\n      div\n      0xffffffffffffffffffffffffffffffffffffffff\n      and\n        /* \"blockchain/contracts/HouseSecurityToken.sol\":2965:3013  SaleContractUpdated(saleContract, _saleContract) */\n      0xffffffffffffffffffffffffffffffffffffffff\n      and\n      0x53d4126a9127dd39595defb493db8f2cc8d4eefa5ed42a7388f42ff09160c501\n      mload(0x40)\n      mload(0x40)\n      dup1\n      swap2\n      sub\n      swap1\n      log3\n        /* \"blockchain/contracts/HouseSecurityToken.sol\":3038:3051  _saleContract */\n      dup1\n        /* \"blockchain/contracts/HouseSecurityToken.sol\":3023:3035  saleContract */\n      0x08\n      0x00\n        /* \"blockchain/contracts/HouseSecurityToken.sol\":3023:3051  saleContract = _saleContract */\n      0x0100\n      exp\n      dup2\n      sload\n      dup2\n      0xffffffffffffffffffffffffffffffffffffffff\n      mul\n      not\n      and\n      swap1\n      dup4\n      0xffffffffffffffffffffffffffffffffffffffff\n      and\n      mul\n      or\n      swap1\n      sstore\n      pop\n        /* \"blockchain/contracts/HouseSecurityToken.sol\":2796:3058  function setSaleContract(address _saleContract) external onlyOwnerOrSaleFactory {... */\n      pop\n      jump\t// out\n        /* \"blockchain/contracts/HouseSecurityToken.sol\":232:250  string public name */\n    tag_33:\n      0x01\n      dup1\n      sload\n      tag_111\n      swap1\n      tag_112\n      jump\t// in\n    tag_111:\n      dup1\n      0x1f\n      add\n      0x20\n      dup1\n      swap2\n      div\n      mul\n      0x20\n      add\n      mload(0x40)\n      swap1\n      dup2\n      add\n      0x40\n      mstore\n      dup1\n      swap3\n      swap2\n      swap1\n      dup2\n      dup2\n      mstore\n      0x20\n      add\n      dup3\n      dup1\n      sload\n      tag_113\n      swap1\n      tag_112\n      jump\t// in\n    tag_113:\n      dup1\n      iszero\n      tag_114\n      jumpi\n      dup1\n      0x1f\n      lt\n      tag_115\n      jumpi\n      0x0100\n      dup1\n      dup4\n      sload\n      div\n      mul\n      dup4\n      mstore\n      swap2\n      0x20\n      add\n      swap2\n      jump(tag_114)\n    tag_115:\n      dup3\n      add\n      swap2\n      swap1\n      0x00\n      mstore\n      keccak256(0x00, 0x20)\n      swap1\n    tag_116:\n      dup2\n      sload\n      dup2\n      mstore\n      swap1\n      0x01\n      add\n      swap1\n      0x20\n      add\n      dup1\n      dup4\n      gt\n      tag_116\n      jumpi\n      dup3\n      swap1\n      sub\n      0x1f\n      and\n      dup3\n      add\n      swap2\n    tag_114:\n      pop\n      pop\n      pop\n      pop\n      pop\n      dup2\n      jump\t// out\n        /* \"blockchain/contracts/HouseSecurityToken.sol\":674:715  IIdentityRegistry public identityRegistry */\n    tag_37:\n      0x0a\n      0x00\n      swap1\n      sload\n      swap1\n      0x0100\n      exp\n      swap1\n      div\n      0xffffffffffffffffffffffffffffffffffffffff\n      and\n      dup2\n      jump\t// out\n        /* \"blockchain/contracts/HouseSecurityToken.sol\":622:648  address public saleFactory */\n    tag_41:\n      0x09\n      0x00\n      swap1\n      sload\n      swap1\n      0x0100\n      exp\n      swap1\n      div\n      0xffffffffffffffffffffffffffffffffffffffff\n      and\n      dup2\n      jump\t// out\n        /* \"blockchain/contracts/HouseSecurityToken.sol\":392:418  uint256 public totalSupply */\n    tag_45:\n      sload(0x03)\n      dup2\n      jump\t// out\n        /* \"blockchain/contracts/HouseSecurityToken.sol\":322:371  uint256 public constant MAX_INVESTOR_PERCENT = 20 */\n    tag_49:\n        /* \"blockchain/contracts/HouseSecurityToken.sol\":369:371  20 */\n      0x14\n        /* \"blockchain/contracts/HouseSecurityToken.sol\":322:371  uint256 public constant MAX_INVESTOR_PERCENT = 20 */\n      dup2\n      jump\t// out\n        /* \"blockchain/contracts/HouseSecurityToken.sol\":282:316  uint8 public constant decimals = 0 */\n    tag_52:\n        /* \"blockchain/contracts/HouseSecurityToken.sol\":315:316  0 */\n      0x00\n        /* \"blockchain/contracts/HouseSecurityToken.sol\":282:316  uint8 public constant decimals = 0 */\n      dup2\n      jump\t// out\n        /* \"blockchain/contracts/HouseSecurityToken.sol\":3889:3993  function unpause() external onlyOwner {... */\n    tag_56:\n        /* \"blockchain/contracts/Ownable.sol\":597:602  owner */\n      0x00\n      0x00\n      swap1\n      sload\n      swap1\n      0x0100\n      exp\n      swap1\n      div\n      0xffffffffffffffffffffffffffffffffffffffff\n      and\n        /* \"blockchain/contracts/Ownable.sol\":583:602  msg.sender == owner */\n      0xffffffffffffffffffffffffffffffffffffffff\n      and\n        /* \"blockchain/contracts/Ownable.sol\":583:593  msg.sender */\n      caller\n        /* \"blockchain/contracts/Ownable.sol\":583:602  msg.sender == owner */\n      0xffffffffffffffffffffffffffffffffffffffff\n      and\n      eq\n        /* \"blockchain/contracts/Ownable.sol\":575:639  require(msg.sender == owner, \"Ownable: caller is not the owner\") */\n      tag_118\n      jumpi\n      mload(0x40)\n      0x08c379a000000000000000000000000000000000000000000000000000000000\n      dup2\n      mstore\n      0x04\n      add\n      tag_119\n      swap1\n      tag_120\n      jump\t// in\n    tag_119:\n      mload(0x40)\n      dup1\n      swap2\n      sub\n      swap1\n      revert\n    tag_118:\n        /* \"blockchain/contracts/HouseSecurityToken.sol\":3946:3951  false */\n      0x00\n        /* \"blockchain/contracts/HouseSecurityToken.sol\":3937:3943  paused */\n      0x0a\n      0x14\n        /* \"blockchain/contracts/HouseSecurityToken.sol\":3937:3951  paused = false */\n      0x0100\n      exp\n      dup2\n      sload\n      dup2\n      0xff\n      mul\n      not\n      and\n      swap1\n      dup4\n      iszero\n      iszero\n      mul\n      or\n      swap1\n      sstore\n      pop\n        /* \"blockchain/contracts/HouseSecurityToken.sol\":3975:3985  msg.sender */\n      caller\n        /* \"blockchain/contracts/HouseSecurityToken.sol\":3966:3986  Unpaused(msg.sender) */\n      0xffffffffffffffffffffffffffffffffffffffff\n      and\n      0x5db9ee0a495bf2e6ff9c91a7834c1ba4fdd244a5e8aa4e537bd38aeae4b073aa\n      mload(0x40)\n      mload(0x40)\n      dup1\n      swap2\n      sub\n      swap1\n      log2\n        /* \"blockchain/contracts/HouseSecurityToken.sol\":3889:3993  function unpause() external onlyOwner {... */\n      jump\t// out\n        /* \"blockchain/contracts/HouseSecurityToken.sol\":4018:4485  function mint(address to, uint256 amount)... */\n    tag_60:\n        /* \"blockchain/contracts/HouseSecurityToken.sol\":1329:1341  projectOwner */\n      0x06\n      0x00\n      swap1\n      sload\n      swap1\n      0x0100\n      exp\n      swap1\n      div\n      0xffffffffffffffffffffffffffffffffffffffff\n      and\n        /* \"blockchain/contracts/HouseSecurityToken.sol\":1315:1341  msg.sender == projectOwner */\n      0xffffffffffffffffffffffffffffffffffffffff\n      and\n        /* \"blockchain/contracts/HouseSecurityToken.sol\":1315:1325  msg.sender */\n      caller\n        /* \"blockchain/contracts/HouseSecurityToken.sol\":1315:1341  msg.sender == projectOwner */\n      0xffffffffffffffffffffffffffffffffffffffff\n      and\n      eq\n        /* \"blockchain/contracts/HouseSecurityToken.sol\":1315:1380  msg.sender == projectOwner ||... */\n      dup1\n      tag_123\n      jumpi\n      pop\n        /* \"blockchain/contracts/HouseSecurityToken.sol\":1375:1380  owner */\n      0x00\n      0x00\n      swap1\n      sload\n      swap1\n      0x0100\n      exp\n      swap1\n      div\n      0xffffffffffffffffffffffffffffffffffffffff\n      and\n        /* \"blockchain/contracts/HouseSecurityToken.sol\":1361:1380  msg.sender == owner */\n      0xffffffffffffffffffffffffffffffffffffffff\n      and\n        /* \"blockchain/contracts/HouseSecurityToken.sol\":1361:1371  msg.sender */\n      caller\n        /* \"blockchain/contracts/HouseSecurityToken.sol\":1361:1380  msg.sender == owner */\n      0xffffffffffffffffffffffffffffffffffffffff\n      and\n      eq\n        /* \"blockchain/contracts/HouseSecurityToken.sol\":1315:1380  msg.sender == projectOwner ||... */\n    tag_123:\n        /* \"blockchain/contracts/HouseSecurityToken.sol\":1315:1426  msg.sender == projectOwner ||... */\n      dup1\n      tag_124\n      jumpi\n      pop\n        /* \"blockchain/contracts/HouseSecurityToken.sol\":1414:1426  saleContract */\n      0x08\n      0x00\n      swap1\n      sload\n      swap1\n      0x0100\n      exp\n      swap1\n      div\n      0xffffffffffffffffffffffffffffffffffffffff\n      and\n        /* \"blockchain/contracts/HouseSecurityToken.sol\":1400:1426  msg.sender == saleContract */\n      0xffffffffffffffffffffffffffffffffffffffff\n      and\n        /* \"blockchain/contracts/HouseSecurityToken.sol\":1400:1410  msg.sender */\n      caller\n        /* \"blockchain/contracts/HouseSecurityToken.sol\":1400:1426  msg.sender == saleContract */\n      0xffffffffffffffffffffffffffffffffffffffff\n      and\n      eq\n        /* \"blockchain/contracts/HouseSecurityToken.sol\":1315:1426  msg.sender == projectOwner ||... */\n    tag_124:\n        /* \"blockchain/contracts/HouseSecurityToken.sol\":1294:1480  require(... */\n      tag_125\n      jumpi\n      mload(0x40)\n      0x08c379a000000000000000000000000000000000000000000000000000000000\n      dup2\n      mstore\n      0x04\n      add\n      tag_126\n      swap1\n      tag_127\n      jump\t// in\n    tag_126:\n      mload(0x40)\n      dup1\n      swap2\n      sub\n      swap1\n      revert\n    tag_125:\n        /* \"blockchain/contracts/HouseSecurityToken.sol\":4149:4150  0 */\n      0x00\n        /* \"blockchain/contracts/HouseSecurityToken.sol\":4135:4151  to != address(0) */\n      0xffffffffffffffffffffffffffffffffffffffff\n      and\n        /* \"blockchain/contracts/HouseSecurityToken.sol\":4135:4137  to */\n      dup3\n        /* \"blockchain/contracts/HouseSecurityToken.sol\":4135:4151  to != address(0) */\n      0xffffffffffffffffffffffffffffffffffffffff\n      and\n      sub\n        /* \"blockchain/contracts/HouseSecurityToken.sol\":4127:4175  require(to != address(0), \"Token: mint to zero\") */\n      tag_129\n      jumpi\n      mload(0x40)\n      0x08c379a000000000000000000000000000000000000000000000000000000000\n      dup2\n      mstore\n      0x04\n      add\n      tag_130\n      swap1\n      tag_131\n      jump\t// in\n    tag_130:\n      mload(0x40)\n      dup1\n      swap2\n      sub\n      swap1\n      revert\n    tag_129:\n        /* \"blockchain/contracts/HouseSecurityToken.sol\":4202:4203  0 */\n      0x00\n        /* \"blockchain/contracts/HouseSecurityToken.sol\":4193:4199  amount */\n      dup2\n        /* \"blockchain/contracts/HouseSecurityToken.sol\":4193:4203  amount > 0 */\n      gt\n        /* \"blockchain/contracts/HouseSecurityToken.sol\":4185:4226  require(amount > 0, \"Token: amount zero\") */\n      tag_132\n      jumpi\n      mload(0x40)\n      0x08c379a000000000000000000000000000000000000000000000000000000000\n      dup2\n      mstore\n      0x04\n      add\n      tag_133\n      swap1\n      tag_134\n      jump\t// in\n    tag_133:\n      mload(0x40)\n      dup1\n      swap2\n      sub\n      swap1\n      revert\n    tag_132:\n        /* \"blockchain/contracts/HouseSecurityToken.sol\":4237:4250  _checkKYC(to) */\n      tag_135\n        /* \"blockchain/contracts/HouseSecurityToken.sol\":4247:4249  to */\n      dup3\n        /* \"blockchain/contracts/HouseSecurityToken.sol\":4237:4246  _checkKYC */\n      tag_136\n        /* \"blockchain/contracts/HouseSecurityToken.sol\":4237:4250  _checkKYC(to) */\n      jump\t// in\n    tag_135:\n        /* \"blockchain/contracts/HouseSecurityToken.sol\":4260:4283  _checkMaxSupply(amount) */\n      tag_137\n        /* \"blockchain/contracts/HouseSecurityToken.sol\":4276:4282  amount */\n      dup2\n        /* \"blockchain/contracts/HouseSecurityToken.sol\":4260:4275  _checkMaxSupply */\n      tag_138\n        /* \"blockchain/contracts/HouseSecurityToken.sol\":4260:4283  _checkMaxSupply(amount) */\n      jump\t// in\n    tag_137:\n        /* \"blockchain/contracts/HouseSecurityToken.sol\":4293:4334  _checkInvestorCap(balanceOf[to] + amount) */\n      tag_139\n        /* \"blockchain/contracts/HouseSecurityToken.sol\":4327:4333  amount */\n      dup2\n        /* \"blockchain/contracts/HouseSecurityToken.sol\":4311:4320  balanceOf */\n      0x05\n        /* \"blockchain/contracts/HouseSecurityToken.sol\":4311:4324  balanceOf[to] */\n      0x00\n        /* \"blockchain/contracts/HouseSecurityToken.sol\":4321:4323  to */\n      dup6\n        /* \"blockchain/contracts/HouseSecurityToken.sol\":4311:4324  balanceOf[to] */\n      0xffffffffffffffffffffffffffffffffffffffff\n      and\n      0xffffffffffffffffffffffffffffffffffffffff\n      and\n      dup2\n      mstore\n      0x20\n      add\n      swap1\n      dup2\n      mstore\n      0x20\n      add\n      0x00\n      keccak256\n      sload\n        /* \"blockchain/contracts/HouseSecurityToken.sol\":4311:4333  balanceOf[to] + amount */\n      tag_140\n      swap2\n      swap1\n      tag_141\n      jump\t// in\n    tag_140:\n        /* \"blockchain/contracts/HouseSecurityToken.sol\":4293:4310  _checkInvestorCap */\n      tag_142\n        /* \"blockchain/contracts/HouseSecurityToken.sol\":4293:4334  _checkInvestorCap(balanceOf[to] + amount) */\n      jump\t// in\n    tag_139:\n        /* \"blockchain/contracts/HouseSecurityToken.sol\":4362:4368  amount */\n      dup1\n        /* \"blockchain/contracts/HouseSecurityToken.sol\":4345:4354  balanceOf */\n      0x05\n        /* \"blockchain/contracts/HouseSecurityToken.sol\":4345:4358  balanceOf[to] */\n      0x00\n        /* \"blockchain/contracts/HouseSecurityToken.sol\":4355:4357  to */\n      dup5\n        /* \"blockchain/contracts/HouseSecurityToken.sol\":4345:4358  balanceOf[to] */\n      0xffffffffffffffffffffffffffffffffffffffff\n      and\n      0xffffffffffffffffffffffffffffffffffffffff\n      and\n      dup2\n      mstore\n      0x20\n      add\n      swap1\n      dup2\n      mstore\n      0x20\n      add\n      0x00\n      keccak256\n      0x00\n        /* \"blockchain/contracts/HouseSecurityToken.sol\":4345:4368  balanceOf[to] += amount */\n      dup3\n      dup3\n      sload\n      tag_143\n      swap2\n      swap1\n      tag_141\n      jump\t// in\n    tag_143:\n      swap3\n      pop\n      pop\n      dup2\n      swap1\n      sstore\n      pop\n        /* \"blockchain/contracts/HouseSecurityToken.sol\":4393:4399  amount */\n      dup1\n        /* \"blockchain/contracts/HouseSecurityToken.sol\":4378:4389  totalSupply */\n      0x03\n      0x00\n        /* \"blockchain/contracts/HouseSecurityToken.sol\":4378:4399  totalSupply += amount */\n      dup3\n      dup3\n      sload\n      tag_144\n      swap2\n      swap1\n      tag_141\n      jump\t// in\n    tag_144:\n      swap3\n      pop\n      pop\n      dup2\n      swap1\n      sstore\n      pop\n        /* \"blockchain/contracts/HouseSecurityToken.sol\":4420:4422  to */\n      dup2\n        /* \"blockchain/contracts/HouseSecurityToken.sol\":4415:4431  Mint(to, amount) */\n      0xffffffffffffffffffffffffffffffffffffffff\n      and\n      0x0f6798a560793a54c3bcfe86a93cde1e73087d944c0ea20544137d4121396885\n        /* \"blockchain/contracts/HouseSecurityToken.sol\":4424:4430  amount */\n      dup3\n        /* \"blockchain/contracts/HouseSecurityToken.sol\":4415:4431  Mint(to, amount) */\n      mload(0x40)\n      tag_145\n      swap2\n      swap1\n      tag_47\n      jump\t// in\n    tag_145:\n      mload(0x40)\n      dup1\n      swap2\n      sub\n      swap1\n      log2\n        /* \"blockchain/contracts/HouseSecurityToken.sol\":4467:4469  to */\n      dup2\n        /* \"blockchain/contracts/HouseSecurityToken.sol\":4446:4478  Transfer(address(0), to, amount) */\n      0xffffffffffffffffffffffffffffffffffffffff\n      and\n        /* \"blockchain/contracts/HouseSecurityToken.sol\":4463:4464  0 */\n      0x00\n        /* \"blockchain/contracts/HouseSecurityToken.sol\":4446:4478  Transfer(address(0), to, amount) */\n      0xffffffffffffffffffffffffffffffffffffffff\n      and\n      0xddf252ad1be2c89b69c2b068fc378daa952ba7f163c4a11628f55a4df523b3ef\n        /* \"blockchain/contracts/HouseSecurityToken.sol\":4471:4477  amount */\n      dup4\n        /* \"blockchain/contracts/HouseSecurityToken.sol\":4446:4478  Transfer(address(0), to, amount) */\n      mload(0x40)\n      tag_146\n      swap2\n      swap1\n      tag_47\n      jump\t// in\n    tag_146:\n      mload(0x40)\n      dup1\n      swap2\n      sub\n      swap1\n      log3\n        /* \"blockchain/contracts/HouseSecurityToken.sol\":4018:4485  function mint(address to, uint256 amount)... */\n      pop\n      pop\n      jump\t// out\n        /* \"blockchain/contracts/HouseSecurityToken.sol\":745:763  bool public paused */\n    tag_62:\n      0x0a\n      0x14\n      swap1\n      sload\n      swap1\n      0x0100\n      exp\n      swap1\n      div\n      0xff\n      and\n      dup2\n      jump\t// out\n        /* \"blockchain/contracts/HouseSecurityToken.sol\":2467:2707  function setSaleFactory(address _saleFactory) external onlyOwner {... */\n    tag_67:\n        /* \"blockchain/contracts/Ownable.sol\":597:602  owner */\n      0x00\n      0x00\n      swap1\n      sload\n      swap1\n      0x0100\n      exp\n      swap1\n      div\n      0xffffffffffffffffffffffffffffffffffffffff\n      and\n        /* \"blockchain/contracts/Ownable.sol\":583:602  msg.sender == owner */\n      0xffffffffffffffffffffffffffffffffffffffff\n      and\n        /* \"blockchain/contracts/Ownable.sol\":583:593  msg.sender */\n      caller\n        /* \"blockchain/contracts/Ownable.sol\":583:602  msg.sender == owner */\n      0xffffffffffffffffffffffffffffffffffffffff\n      and\n      eq\n        /* \"blockchain/contracts/Ownable.sol\":575:639  require(msg.sender == owner, \"Ownable: caller is not the owner\") */\n      tag_148\n      jumpi\n      mload(0x40)\n      0x08c379a000000000000000000000000000000000000000000000000000000000\n      dup2\n      mstore\n      0x04\n      add\n      tag_149\n      swap1\n      tag_120\n      jump\t// in\n    tag_149:\n      mload(0x40)\n      dup1\n      swap2\n      sub\n      swap1\n      revert\n    tag_148:\n        /* \"blockchain/contracts/HouseSecurityToken.sol\":2574:2575  0 */\n      0x00\n        /* \"blockchain/contracts/HouseSecurityToken.sol\":2550:2576  _saleFactory != address(0) */\n      0xffffffffffffffffffffffffffffffffffffffff\n      and\n        /* \"blockchain/contracts/HouseSecurityToken.sol\":2550:2562  _saleFactory */\n      dup2\n        /* \"blockchain/contracts/HouseSecurityToken.sol\":2550:2576  _saleFactory != address(0) */\n      0xffffffffffffffffffffffffffffffffffffffff\n      and\n      sub\n        /* \"blockchain/contracts/HouseSecurityToken.sol\":2542:2604  require(_saleFactory != address(0), \"Token: saleFactory zero\") */\n      tag_151\n      jumpi\n      mload(0x40)\n      0x08c379a000000000000000000000000000000000000000000000000000000000\n      dup2\n      mstore\n      0x04\n      add\n      tag_152\n      swap1\n      tag_153\n      jump\t// in\n    tag_152:\n      mload(0x40)\n      dup1\n      swap2\n      sub\n      swap1\n      revert\n    tag_151:\n        /* \"blockchain/contracts/HouseSecurityToken.sol\":2651:2663  _saleFactory */\n      dup1\n        /* \"blockchain/contracts/HouseSecurityToken.sol\":2619:2664  SaleFactoryUpdated(saleFactory, _saleFactory) */\n      0xffffffffffffffffffffffffffffffffffffffff\n      and\n        /* \"blockchain/contracts/HouseSecurityToken.sol\":2638:2649  saleFactory */\n      0x09\n      0x00\n      swap1\n      sload\n      swap1\n      0x0100\n      exp\n      swap1\n      div\n      0xffffffffffffffffffffffffffffffffffffffff\n      and\n        /* \"blockchain/contracts/HouseSecurityToken.sol\":2619:2664  SaleFactoryUpdated(saleFactory, _saleFactory) */\n      0xffffffffffffffffffffffffffffffffffffffff\n      and\n      0x9f4583ea13e020de4cb3b03f413f9bc832ca78e7af5680dfed1a8e80a6be81f7\n      mload(0x40)\n      mload(0x40)\n      dup1\n      swap2\n      sub\n      swap1\n      log3\n        /* \"blockchain/contracts/HouseSecurityToken.sol\":2688:2700  _saleFactory */\n      dup1\n        /* \"blockchain/contracts/HouseSecurityToken.sol\":2674:2685  saleFactory */\n      0x09\n      0x00\n        /* \"blockchain/contracts/HouseSecurityToken.sol\":2674:2700  saleFactory = _saleFactory */\n      0x0100\n      exp\n      dup2\n      sload\n      dup2\n      0xffffffffffffffffffffffffffffffffffffffff\n      mul\n      not\n      and\n      swap1\n      dup4\n      0xffffffffffffffffffffffffffffffffffffffff\n      and\n      mul\n      or\n      swap1\n      sstore\n      pop\n        /* \"blockchain/contracts/HouseSecurityToken.sol\":2467:2707  function setSaleFactory(address _saleFactory) external onlyOwner {... */\n      pop\n      jump\t// out\n        /* \"blockchain/contracts/HouseSecurityToken.sol\":455:499  mapping(address => uint256) public balanceOf */\n    tag_70:\n      mstore(0x20, 0x05)\n      dup1\n      0x00\n      mstore\n      keccak256(0x00, 0x40)\n      0x00\n      swap2\n      pop\n      swap1\n      pop\n      sload\n      dup2\n      jump\t// out\n        /* \"blockchain/contracts/HouseSecurityToken.sol\":3784:3883  function pause() external onlyOwner {... */\n    tag_73:\n        /* \"blockchain/contracts/Ownable.sol\":597:602  owner */\n      0x00\n      0x00\n      swap1\n      sload\n      swap1\n      0x0100\n      exp\n      swap1\n      div\n      0xffffffffffffffffffffffffffffffffffffffff\n      and\n        /* \"blockchain/contracts/Ownable.sol\":583:602  msg.sender == owner */\n      0xffffffffffffffffffffffffffffffffffffffff\n      and\n        /* \"blockchain/contracts/Ownable.sol\":583:593  msg.sender */\n      caller\n        /* \"blockchain/contracts/Ownable.sol\":583:602  msg.sender == owner */\n      0xffffffffffffffffffffffffffffffffffffffff\n      and\n      eq\n        /* \"blockchain/contracts/Ownable.sol\":575:639  require(msg.sender == owner, \"Ownable: caller is not the owner\") */\n      tag_155\n      jumpi\n      mload(0x40)\n      0x08c379a000000000000000000000000000000000000000000000000000000000\n      dup2\n      mstore\n      0x04\n      add\n      tag_156\n      swap1\n      tag_120\n      jump\t// in\n    tag_156:\n      mload(0x40)\n      dup1\n      swap2\n      sub\n      swap1\n      revert\n    tag_155:\n        /* \"blockchain/contracts/HouseSecurityToken.sol\":3839:3843  true */\n      0x01\n        /* \"blockchain/contracts/HouseSecurityToken.sol\":3830:3836  paused */\n      0x0a\n      0x14\n        /* \"blockchain/contracts/HouseSecurityToken.sol\":3830:3843  paused = true */\n      0x0100\n      exp\n      dup2\n      sload\n      dup2\n      0xff\n      mul\n      not\n      and\n      swap1\n      dup4\n      iszero\n      iszero\n      mul\n      or\n      swap1\n      sstore\n      pop\n        /* \"blockchain/contracts/HouseSecurityToken.sol\":3865:3875  msg.sender */\n      caller\n        /* \"blockchain/contracts/HouseSecurityToken.sol\":3858:3876  Paused(msg.sender) */\n      0xffffffffffffffffffffffffffffffffffffffff\n      and\n      0x62e78cea01bee320cd4e420270b5ea74000d11b0c9f74754ebdbfc544b05a258\n      mload(0x40)\n      mload(0x40)\n      dup1\n      swap2\n      sub\n      swap1\n      log2\n        /* \"blockchain/contracts/HouseSecurityToken.sol\":3784:3883  function pause() external onlyOwner {... */\n      jump\t// out\n        /* \"blockchain/contracts/Ownable.sol\":218:238  address public owner */\n    tag_75:\n      0x00\n      0x00\n      swap1\n      sload\n      swap1\n      0x0100\n      exp\n      swap1\n      div\n      0xffffffffffffffffffffffffffffffffffffffff\n      and\n      dup2\n      jump\t// out\n        /* \"blockchain/contracts/HouseSecurityToken.sol\":256:276  string public symbol */\n    tag_78:\n      0x02\n      dup1\n      sload\n      tag_158\n      swap1\n      tag_112\n      jump\t// in\n    tag_158:\n      dup1\n      0x1f\n      add\n      0x20\n      dup1\n      swap2\n      div\n      mul\n      0x20\n      add\n      mload(0x40)\n      swap1\n      dup2\n      add\n      0x40\n      mstore\n      dup1\n      swap3\n      swap2\n      swap1\n      dup2\n      dup2\n      mstore\n      0x20\n      add\n      dup3\n      dup1\n      sload\n      tag_159\n      swap1\n      tag_112\n      jump\t// in\n    tag_159:\n      dup1\n      iszero\n      tag_160\n      jumpi\n      dup1\n      0x1f\n      lt\n      tag_161\n      jumpi\n      0x0100\n      dup1\n      dup4\n      sload\n      div\n      mul\n      dup4\n      mstore\n      swap2\n      0x20\n      add\n      swap2\n      jump(tag_160)\n    tag_161:\n      dup3\n      add\n      swap2\n      swap1\n      0x00\n      mstore\n      keccak256(0x00, 0x20)\n      swap1\n    tag_162:\n      dup2\n      sload\n      dup2\n      mstore\n      swap1\n      0x01\n      add\n      swap1\n      0x20\n      add\n      dup1\n      dup4\n      gt\n      tag_162\n      jumpi\n      dup3\n      swap1\n      sub\n      0x1f\n      and\n      dup3\n      add\n      swap2\n    tag_160:\n      pop\n      pop\n      pop\n      pop\n      pop\n      dup2\n      jump\t// out\n        /* \"blockchain/contracts/HouseSecurityToken.sol\":4491:4886  function burn(address from, uint256 amount)... */\n    tag_82:\n        /* \"blockchain/contracts/HouseSecurityToken.sol\":1329:1341  projectOwner */\n      0x06\n      0x00\n      swap1\n      sload\n      swap1\n      0x0100\n      exp\n      swap1\n      div\n      0xffffffffffffffffffffffffffffffffffffffff\n      and\n        /* \"blockchain/contracts/HouseSecurityToken.sol\":1315:1341  msg.sender == projectOwner */\n      0xffffffffffffffffffffffffffffffffffffffff\n      and\n        /* \"blockchain/contracts/HouseSecurityToken.sol\":1315:1325  msg.sender */\n      caller\n        /* \"blockchain/contracts/HouseSecurityToken.sol\":1315:1341  msg.sender == projectOwner */\n      0xffffffffffffffffffffffffffffffffffffffff\n      and\n      eq\n        /* \"blockchain/contracts/HouseSecurityToken.sol\":1315:1380  msg.sender == projectOwner ||... */\n      dup1\n      tag_164\n      jumpi\n      pop\n        /* \"blockchain/contracts/HouseSecurityToken.sol\":1375:1380  owner */\n      0x00\n      0x00\n      swap1\n      sload\n      swap1\n      0x0100\n      exp\n      swap1\n      div\n      0xffffffffffffffffffffffffffffffffffffffff\n      and\n        /* \"blockchain/contracts/HouseSecurityToken.sol\":1361:1380  msg.sender == owner */\n      0xffffffffffffffffffffffffffffffffffffffff\n      and\n        /* \"blockchain/contracts/HouseSecurityToken.sol\":1361:1371  msg.sender */\n      caller\n        /* \"blockchain/contracts/HouseSecurityToken.sol\":1361:1380  msg.sender == owner */\n      0xffffffffffffffffffffffffffffffffffffffff\n      and\n      eq\n        /* \"blockchain/contracts/HouseSecurityToken.sol\":1315:1380  msg.sender == projectOwner ||... */\n    tag_164:\n        /* \"blockchain/contracts/HouseSecurityToken.sol\":1315:1426  msg.sender == projectOwner ||... */\n      dup1\n      tag_165\n      jumpi\n      pop\n        /* \"blockchain/contracts/HouseSecurityToken.sol\":1414:1426  saleContract */\n      0x08\n      0x00\n      swap1\n      sload\n      swap1\n      0x0100\n      exp\n      swap1\n      div\n      0xffffffffffffffffffffffffffffffffffffffff\n      and\n        /* \"blockchain/contracts/HouseSecurityToken.sol\":1400:1426  msg.sender == saleContract */\n      0xffffffffffffffffffffffffffffffffffffffff\n      and\n        /* \"blockchain/contracts/HouseSecurityToken.sol\":1400:1410  msg.sender */\n      caller\n        /* \"blockchain/contracts/HouseSecurityToken.sol\":1400:1426  msg.sender == saleContract */\n      0xffffffffffffffffffffffffffffffffffffffff\n      and\n      eq\n        /* \"blockchain/contracts/HouseSecurityToken.sol\":1315:1426  msg.sender == projectOwner ||... */\n    tag_165:\n        /* \"blockchain/contracts/HouseSecurityToken.sol\":1294:1480  require(... */\n      tag_166\n      jumpi\n      mload(0x40)\n      0x08c379a000000000000000000000000000000000000000000000000000000000\n      dup2\n      mstore\n      0x04\n      add\n      tag_167\n      swap1\n      tag_127\n      jump\t// in\n    tag_167:\n      mload(0x40)\n      dup1\n      swap2\n      sub\n      swap1\n      revert\n    tag_166:\n        /* \"blockchain/contracts/HouseSecurityToken.sol\":4626:4627  0 */\n      0x00\n        /* \"blockchain/contracts/HouseSecurityToken.sol\":4610:4628  from != address(0) */\n      0xffffffffffffffffffffffffffffffffffffffff\n      and\n        /* \"blockchain/contracts/HouseSecurityToken.sol\":4610:4614  from */\n      dup3\n        /* \"blockchain/contracts/HouseSecurityToken.sol\":4610:4628  from != address(0) */\n      0xffffffffffffffffffffffffffffffffffffffff\n      and\n      sub\n        /* \"blockchain/contracts/HouseSecurityToken.sol\":4602:4654  require(from != address(0), \"Token: burn from zero\") */\n      tag_169\n      jumpi\n      mload(0x40)\n      0x08c379a000000000000000000000000000000000000000000000000000000000\n      dup2\n      mstore\n      0x04\n      add\n      tag_170\n      swap1\n      tag_171\n      jump\t// in\n    tag_170:\n      mload(0x40)\n      dup1\n      swap2\n      sub\n      swap1\n      revert\n    tag_169:\n        /* \"blockchain/contracts/HouseSecurityToken.sol\":4691:4697  amount */\n      dup1\n        /* \"blockchain/contracts/HouseSecurityToken.sol\":4672:4681  balanceOf */\n      0x05\n        /* \"blockchain/contracts/HouseSecurityToken.sol\":4672:4687  balanceOf[from] */\n      0x00\n        /* \"blockchain/contracts/HouseSecurityToken.sol\":4682:4686  from */\n      dup5\n        /* \"blockchain/contracts/HouseSecurityToken.sol\":4672:4687  balanceOf[from] */\n      0xffffffffffffffffffffffffffffffffffffffff\n      and\n      0xffffffffffffffffffffffffffffffffffffffff\n      and\n      dup2\n      mstore\n      0x20\n      add\n      swap1\n      dup2\n      mstore\n      0x20\n      add\n      0x00\n      keccak256\n      sload\n        /* \"blockchain/contracts/HouseSecurityToken.sol\":4672:4697  balanceOf[from] >= amount */\n      lt\n      iszero\n        /* \"blockchain/contracts/HouseSecurityToken.sol\":4664:4729  require(balanceOf[from] >= amount, \"Token: insufficient balance\") */\n      tag_172\n      jumpi\n      mload(0x40)\n      0x08c379a000000000000000000000000000000000000000000000000000000000\n      dup2\n      mstore\n      0x04\n      add\n      tag_173\n      swap1\n      tag_174\n      jump\t// in\n    tag_173:\n      mload(0x40)\n      dup1\n      swap2\n      sub\n      swap1\n      revert\n    tag_172:\n        /* \"blockchain/contracts/HouseSecurityToken.sol\":4759:4765  amount */\n      dup1\n        /* \"blockchain/contracts/HouseSecurityToken.sol\":4740:4749  balanceOf */\n      0x05\n        /* \"blockchain/contracts/HouseSecurityToken.sol\":4740:4755  balanceOf[from] */\n      0x00\n        /* \"blockchain/contracts/HouseSecurityToken.sol\":4750:4754  from */\n      dup5\n        /* \"blockchain/contracts/HouseSecurityToken.sol\":4740:4755  balanceOf[from] */\n      0xffffffffffffffffffffffffffffffffffffffff\n      and\n      0xffffffffffffffffffffffffffffffffffffffff\n      and\n      dup2\n      mstore\n      0x20\n      add\n      swap1\n      dup2\n      mstore\n      0x20\n      add\n      0x00\n      keccak256\n      0x00\n        /* \"blockchain/contracts/HouseSecurityToken.sol\":4740:4765  balanceOf[from] -= amount */\n      dup3\n      dup3\n      sload\n      tag_175\n      swap2\n      swap1\n      tag_176\n      jump\t// in\n    tag_175:\n      swap3\n      pop\n      pop\n      dup2\n      swap1\n      sstore\n      pop\n        /* \"blockchain/contracts/HouseSecurityToken.sol\":4790:4796  amount */\n      dup1\n        /* \"blockchain/contracts/HouseSecurityToken.sol\":4775:4786  totalSupply */\n      0x03\n      0x00\n        /* \"blockchain/contracts/HouseSecurityToken.sol\":4775:4796  totalSupply -= amount */\n      dup3\n      dup3\n      sload\n      tag_177\n      swap2\n      swap1\n      tag_176\n      jump\t// in\n    tag_177:\n      swap3\n      pop\n      pop\n      dup2\n      swap1\n      sstore\n      pop\n        /* \"blockchain/contracts/HouseSecurityToken.sol\":4817:4821  from */\n      dup2\n        /* \"blockchain/contracts/HouseSecurityToken.sol\":4812:4830  Burn(from, amount) */\n      0xffffffffffffffffffffffffffffffffffffffff\n      and\n      0xcc16f5dbb4873280815c1ee09dbd06736cffcc184412cf7a71a0fdb75d397ca5\n        /* \"blockchain/contracts/HouseSecurityToken.sol\":4823:4829  amount */\n      dup3\n        /* \"blockchain/contracts/HouseSecurityToken.sol\":4812:4830  Burn(from, amount) */\n      mload(0x40)\n      tag_178\n      swap2\n      swap1\n      tag_47\n      jump\t// in\n    tag_178:\n      mload(0x40)\n      dup1\n      swap2\n      sub\n      swap1\n      log2\n        /* \"blockchain/contracts/HouseSecurityToken.sol\":4868:4869  0 */\n      0x00\n        /* \"blockchain/contracts/HouseSecurityToken.sol\":4845:4879  Transfer(from, address(0), amount) */\n      0xffffffffffffffffffffffffffffffffffffffff\n      and\n        /* \"blockchain/contracts/HouseSecurityToken.sol\":4854:4858  from */\n      dup3\n        /* \"blockchain/contracts/HouseSecurityToken.sol\":4845:4879  Transfer(from, address(0), amount) */\n      0xffffffffffffffffffffffffffffffffffffffff\n      and\n      0xddf252ad1be2c89b69c2b068fc378daa952ba7f163c4a11628f55a4df523b3ef\n        /* \"blockchain/contracts/HouseSecurityToken.sol\":4872:4878  amount */\n      dup4\n        /* \"blockchain/contracts/HouseSecurityToken.sol\":4845:4879  Transfer(from, address(0), amount) */\n      mload(0x40)\n      tag_179\n      swap2\n      swap1\n      tag_47\n      jump\t// in\n    tag_179:\n      mload(0x40)\n      dup1\n      swap2\n      sub\n      swap1\n      log3\n        /* \"blockchain/contracts/HouseSecurityToken.sol\":4491:4886  function burn(address from, uint256 amount)... */\n      pop\n      pop\n      jump\t// out\n        /* \"blockchain/contracts/HouseSecurityToken.sol\":528:555  address public projectOwner */\n    tag_84:\n      0x06\n      0x00\n      swap1\n      sload\n      swap1\n      0x0100\n      exp\n      swap1\n      div\n      0xffffffffffffffffffffffffffffffffffffffff\n      and\n      dup2\n      jump\t// out\n        /* \"blockchain/contracts/HouseSecurityToken.sol\":4908:5483  function transfer(address to, uint256 amount)... */\n    tag_88:\n        /* \"blockchain/contracts/HouseSecurityToken.sol\":5010:5014  bool */\n      0x00\n        /* \"blockchain/contracts/HouseSecurityToken.sol\":1548:1554  paused */\n      0x0a\n      0x14\n      swap1\n      sload\n      swap1\n      0x0100\n      exp\n      swap1\n      div\n      0xff\n      and\n        /* \"blockchain/contracts/HouseSecurityToken.sol\":1547:1554  !paused */\n      iszero\n        /* \"blockchain/contracts/HouseSecurityToken.sol\":1539:1582  require(!paused, \"Token: transfers paused\") */\n      tag_181\n      jumpi\n      mload(0x40)\n      0x08c379a000000000000000000000000000000000000000000000000000000000\n      dup2\n      mstore\n      0x04\n      add\n      tag_182\n      swap1\n      tag_183\n      jump\t// in\n    tag_182:\n      mload(0x40)\n      dup1\n      swap2\n      sub\n      swap1\n      revert\n    tag_181:\n        /* \"blockchain/contracts/HouseSecurityToken.sol\":5030:5042  address from */\n      0x00\n        /* \"blockchain/contracts/HouseSecurityToken.sol\":5045:5055  msg.sender */\n      caller\n        /* \"blockchain/contracts/HouseSecurityToken.sol\":5030:5055  address from = msg.sender */\n      swap1\n      pop\n        /* \"blockchain/contracts/HouseSecurityToken.sol\":5088:5089  0 */\n      0x00\n        /* \"blockchain/contracts/HouseSecurityToken.sol\":5074:5090  to != address(0) */\n      0xffffffffffffffffffffffffffffffffffffffff\n      and\n        /* \"blockchain/contracts/HouseSecurityToken.sol\":5074:5076  to */\n      dup5\n        /* \"blockchain/contracts/HouseSecurityToken.sol\":5074:5090  to != address(0) */\n      0xffffffffffffffffffffffffffffffffffffffff\n      and\n      sub\n        /* \"blockchain/contracts/HouseSecurityToken.sol\":5066:5118  require(to != address(0), \"Token: transfer to zero\") */\n      tag_185\n      jumpi\n      mload(0x40)\n      0x08c379a000000000000000000000000000000000000000000000000000000000\n      dup2\n      mstore\n      0x04\n      add\n      tag_186\n      swap1\n      tag_187\n      jump\t// in\n    tag_186:\n      mload(0x40)\n      dup1\n      swap2\n      sub\n      swap1\n      revert\n    tag_185:\n        /* \"blockchain/contracts/HouseSecurityToken.sol\":5145:5146  0 */\n      0x00\n        /* \"blockchain/contracts/HouseSecurityToken.sol\":5136:5142  amount */\n      dup4\n        /* \"blockchain/contracts/HouseSecurityToken.sol\":5136:5146  amount > 0 */\n      gt\n        /* \"blockchain/contracts/HouseSecurityToken.sol\":5128:5169  require(amount > 0, \"Token: amount zero\") */\n      tag_188\n      jumpi\n      mload(0x40)\n      0x08c379a000000000000000000000000000000000000000000000000000000000\n      dup2\n      mstore\n      0x04\n      add\n      tag_189\n      swap1\n      tag_134\n      jump\t// in\n    tag_189:\n      mload(0x40)\n      dup1\n      swap2\n      sub\n      swap1\n      revert\n    tag_188:\n        /* \"blockchain/contracts/HouseSecurityToken.sol\":5206:5212  amount */\n      dup3\n        /* \"blockchain/contracts/HouseSecurityToken.sol\":5187:5196  balanceOf */\n      0x05\n        /* \"blockchain/contracts/HouseSecurityToken.sol\":5187:5202  balanceOf[from] */\n      0x00\n        /* \"blockchain/contracts/HouseSecurityToken.sol\":5197:5201  from */\n      dup4\n        /* \"blockchain/contracts/HouseSecurityToken.sol\":5187:5202  balanceOf[from] */\n      0xffffffffffffffffffffffffffffffffffffffff\n      and\n      0xffffffffffffffffffffffffffffffffffffffff\n      and\n      dup2\n      mstore\n      0x20\n      add\n      swap1\n      dup2\n      mstore\n      0x20\n      add\n      0x00\n      keccak256\n      sload\n        /* \"blockchain/contracts/HouseSecurityToken.sol\":5187:5212  balanceOf[from] >= amount */\n      lt\n      iszero\n        /* \"blockchain/contracts/HouseSecurityToken.sol\":5179:5244  require(balanceOf[from] >= amount, \"Token: insufficient balance\") */\n      tag_190\n      jumpi\n      mload(0x40)\n      0x08c379a000000000000000000000000000000000000000000000000000000000\n      dup2\n      mstore\n      0x04\n      add\n      tag_191\n      swap1\n      tag_174\n      jump\t// in\n    tag_191:\n      mload(0x40)\n      dup1\n      swap2\n      sub\n      swap1\n      revert\n    tag_190:\n        /* \"blockchain/contracts/HouseSecurityToken.sol\":5255:5270  _checkKYC(from) */\n      tag_192\n        /* \"blockchain/contracts/HouseSecurityToken.sol\":5265:5269  from */\n      dup2\n        /* \"blockchain/contracts/HouseSecurityToken.sol\":5255:5264  _checkKYC */\n      tag_136\n        /* \"blockchain/contracts/HouseSecurityToken.sol\":5255:5270  _checkKYC(from) */\n      jump\t// in\n    tag_192:\n        /* \"blockchain/contracts/HouseSecurityToken.sol\":5280:5293  _checkKYC(to) */\n      tag_193\n        /* \"blockchain/contracts/HouseSecurityToken.sol\":5290:5292  to */\n      dup5\n        /* \"blockchain/contracts/HouseSecurityToken.sol\":5280:5289  _checkKYC */\n      tag_136\n        /* \"blockchain/contracts/HouseSecurityToken.sol\":5280:5293  _checkKYC(to) */\n      jump\t// in\n    tag_193:\n        /* \"blockchain/contracts/HouseSecurityToken.sol\":5303:5344  _checkInvestorCap(balanceOf[to] + amount) */\n      tag_194\n        /* \"blockchain/contracts/HouseSecurityToken.sol\":5337:5343  amount */\n      dup4\n        /* \"blockchain/contracts/HouseSecurityToken.sol\":5321:5330  balanceOf */\n      0x05\n        /* \"blockchain/contracts/HouseSecurityToken.sol\":5321:5334  balanceOf[to] */\n      0x00\n        /* \"blockchain/contracts/HouseSecurityToken.sol\":5331:5333  to */\n      dup8\n        /* \"blockchain/contracts/HouseSecurityToken.sol\":5321:5334  balanceOf[to] */\n      0xffffffffffffffffffffffffffffffffffffffff\n      and\n      0xffffffffffffffffffffffffffffffffffffffff\n      and\n      dup2\n      mstore\n      0x20\n      add\n      swap1\n      dup2\n      mstore\n      0x20\n      add\n      0x00\n      keccak256\n      sload\n        /* \"blockchain/contracts/HouseSecurityToken.sol\":5321:5343  balanceOf[to] + amount */\n      tag_195\n      swap2\n      swap1\n      tag_141\n      jump\t// in\n    tag_195:\n        /* \"blockchain/contracts/HouseSecurityToken.sol\":5303:5320  _checkInvestorCap */\n      tag_142\n        /* \"blockchain/contracts/HouseSecurityToken.sol\":5303:5344  _checkInvestorCap(balanceOf[to] + amount) */\n      jump\t// in\n    tag_194:\n        /* \"blockchain/contracts/HouseSecurityToken.sol\":5374:5380  amount */\n      dup3\n        /* \"blockchain/contracts/HouseSecurityToken.sol\":5355:5364  balanceOf */\n      0x05\n        /* \"blockchain/contracts/HouseSecurityToken.sol\":5355:5370  balanceOf[from] */\n      0x00\n        /* \"blockchain/contracts/HouseSecurityToken.sol\":5365:5369  from */\n      dup4\n        /* \"blockchain/contracts/HouseSecurityToken.sol\":5355:5370  balanceOf[from] */\n      0xffffffffffffffffffffffffffffffffffffffff\n      and\n      0xffffffffffffffffffffffffffffffffffffffff\n      and\n      dup2\n      mstore\n      0x20\n      add\n      swap1\n      dup2\n      mstore\n      0x20\n      add\n      0x00\n      keccak256\n      0x00\n        /* \"blockchain/contracts/HouseSecurityToken.sol\":5355:5380  balanceOf[from] -= amount */\n      dup3\n      dup3\n      sload\n      tag_196\n      swap2\n      swap1\n      tag_176\n      jump\t// in\n    tag_196:\n      swap3\n      pop\n      pop\n      dup2\n      swap1\n      sstore\n      pop\n        /* \"blockchain/contracts/HouseSecurityToken.sol\":5407:5413  amount */\n      dup3\n        /* \"blockchain/contracts/HouseSecurityToken.sol\":5390:5399  balanceOf */\n      0x05\n        /* \"blockchain/contracts/HouseSecurityToken.sol\":5390:5403  balanceOf[to] */\n      0x00\n        /* \"blockchain/contracts/HouseSecurityToken.sol\":5400:5402  to */\n      dup7\n        /* \"blockchain/contracts/HouseSecurityToken.sol\":5390:5403  balanceOf[to] */\n      0xffffffffffffffffffffffffffffffffffffffff\n      and\n      0xffffffffffffffffffffffffffffffffffffffff\n      and\n      dup2\n      mstore\n      0x20\n      add\n      swap1\n      dup2\n      mstore\n      0x20\n      add\n      0x00\n      keccak256\n      0x00\n        /* \"blockchain/contracts/HouseSecurityToken.sol\":5390:5413  balanceOf[to] += amount */\n      dup3\n      dup3\n      sload\n      tag_197\n      swap2\n      swap1\n      tag_141\n      jump\t// in\n    tag_197:\n      swap3\n      pop\n      pop\n      dup2\n      swap1\n      sstore\n      pop\n        /* \"blockchain/contracts/HouseSecurityToken.sol\":5444:5446  to */\n      dup4\n        /* \"blockchain/contracts/HouseSecurityToken.sol\":5429:5455  Transfer(from, to, amount) */\n      0xffffffffffffffffffffffffffffffffffffffff\n      and\n        /* \"blockchain/contracts/HouseSecurityToken.sol\":5438:5442  from */\n      dup2\n        /* \"blockchain/contracts/HouseSecurityToken.sol\":5429:5455  Transfer(from, to, amount) */\n      0xffffffffffffffffffffffffffffffffffffffff\n      and\n      0xddf252ad1be2c89b69c2b068fc378daa952ba7f163c4a11628f55a4df523b3ef\n        /* \"blockchain/contracts/HouseSecurityToken.sol\":5448:5454  amount */\n      dup6\n        /* \"blockchain/contracts/HouseSecurityToken.sol\":5429:5455  Transfer(from, to, amount) */\n      mload(0x40)\n      tag_198\n      swap2\n      swap1\n      tag_47\n      jump\t// in\n    tag_198:\n      mload(0x40)\n      dup1\n      swap2\n      sub\n      swap1\n      log3\n        /* \"blockchain/contracts/HouseSecurityToken.sol\":5472:5476  true */\n      0x01\n        /* \"blockchain/contracts/HouseSecurityToken.sol\":5465:5476  return true */\n      swap2\n      pop\n      pop\n        /* \"blockchain/contracts/HouseSecurityToken.sol\":4908:5483  function transfer(address to, uint256 amount)... */\n      swap3\n      swap2\n      pop\n      pop\n      jump\t// out\n        /* \"blockchain/contracts/HouseSecurityToken.sol\":561:583  address public factory */\n    tag_91:\n      0x07\n      0x00\n      swap1\n      sload\n      swap1\n      0x0100\n      exp\n      swap1\n      div\n      0xffffffffffffffffffffffffffffffffffffffff\n      and\n      dup2\n      jump\t// out\n        /* \"blockchain/contracts/HouseSecurityToken.sol\":424:448  uint256 public maxSupply */\n    tag_94:\n      sload(0x04)\n      dup2\n      jump\t// out\n        /* \"blockchain/contracts/HouseSecurityToken.sol\":589:616  address public saleContract */\n    tag_97:\n      0x08\n      0x00\n      swap1\n      sload\n      swap1\n      0x0100\n      exp\n      swap1\n      div\n      0xffffffffffffffffffffffffffffffffffffffff\n      and\n      dup2\n      jump\t// out\n        /* \"blockchain/contracts/Ownable.sol\":663:883  function transferOwnership(address newOwner) external onlyOwner {... */\n    tag_101:\n        /* \"blockchain/contracts/Ownable.sol\":597:602  owner */\n      0x00\n      0x00\n      swap1\n      sload\n      swap1\n      0x0100\n      exp\n      swap1\n      div\n      0xffffffffffffffffffffffffffffffffffffffff\n      and\n        /* \"blockchain/contracts/Ownable.sol\":583:602  msg.sender == owner */\n      0xffffffffffffffffffffffffffffffffffffffff\n      and\n        /* \"blockchain/contracts/Ownable.sol\":583:593  msg.sender */\n      caller\n        /* \"blockchain/contracts/Ownable.sol\":583:602  msg.sender == owner */\n      0xffffffffffffffffffffffffffffffffffffffff\n      and\n      eq\n        /* \"blockchain/contracts/Ownable.sol\":575:639  require(msg.sender == owner, \"Ownable: caller is not the owner\") */\n      tag_200\n      jumpi\n      mload(0x40)\n      0x08c379a000000000000000000000000000000000000000000000000000000000\n      dup2\n      mstore\n      0x04\n      add\n      tag_201\n      swap1\n      tag_120\n      jump\t// in\n    tag_201:\n      mload(0x40)\n      dup1\n      swap2\n      sub\n      swap1\n      revert\n    tag_200:\n        /* \"blockchain/contracts/Ownable.sol\":765:766  0 */\n      0x00\n        /* \"blockchain/contracts/Ownable.sol\":745:767  newOwner != address(0) */\n      0xffffffffffffffffffffffffffffffffffffffff\n      and\n        /* \"blockchain/contracts/Ownable.sol\":745:753  newOwner */\n      dup2\n        /* \"blockchain/contracts/Ownable.sol\":745:767  newOwner != address(0) */\n      0xffffffffffffffffffffffffffffffffffffffff\n      and\n      sub\n        /* \"blockchain/contracts/Ownable.sol\":737:798  require(newOwner != address(0), \"Ownable: new owner is zero\") */\n      tag_203\n      jumpi\n      mload(0x40)\n      0x08c379a000000000000000000000000000000000000000000000000000000000\n      dup2\n      mstore\n      0x04\n      add\n      tag_204\n      swap1\n      tag_205\n      jump\t// in\n    tag_204:\n      mload(0x40)\n      dup1\n      swap2\n      sub\n      swap1\n      revert\n    tag_203:\n        /* \"blockchain/contracts/Ownable.sol\":841:849  newOwner */\n      dup1\n        /* \"blockchain/contracts/Ownable.sol\":813:850  OwnershipTransferred(owner, newOwner) */\n      0xffffffffffffffffffffffffffffffffffffffff\n      and\n        /* \"blockchain/contracts/Ownable.sol\":834:839  owner */\n      0x00\n      0x00\n      swap1\n      sload\n      swap1\n      0x0100\n      exp\n      swap1\n      div\n      0xffffffffffffffffffffffffffffffffffffffff\n      and\n        /* \"blockchain/contracts/Ownable.sol\":813:850  OwnershipTransferred(owner, newOwner) */\n      0xffffffffffffffffffffffffffffffffffffffff\n      and\n      0x8be0079c531659141344cd1fd0a4f28419497f9722a3daafe3b4186f6b6457e0\n      mload(0x40)\n      mload(0x40)\n      dup1\n      swap2\n      sub\n      swap1\n      log3\n        /* \"blockchain/contracts/Ownable.sol\":868:876  newOwner */\n      dup1\n        /* \"blockchain/contracts/Ownable.sol\":860:865  owner */\n      0x00\n      0x00\n        /* \"blockchain/contracts/Ownable.sol\":860:876  owner = newOwner */\n      0x0100\n      exp\n      dup2\n      sload\n      dup2\n      0xffffffffffffffffffffffffffffffffffffffff\n      mul\n      not\n      and\n      swap1\n      dup4\n      0xffffffffffffffffffffffffffffffffffffffff\n      and\n      mul\n      or\n      swap1\n      sstore\n      pop\n        /* \"blockchain/contracts/Ownable.sol\":663:883  function transferOwnership(address newOwner) external onlyOwner {... */\n      pop\n      jump\t// out\n        /* \"blockchain/contracts/HouseSecurityToken.sol\":3087:3222  function _checkKYC(address wallet) internal view {... */\n    tag_136:\n        /* \"blockchain/contracts/HouseSecurityToken.sol\":3154:3170  identityRegistry */\n      0x0a\n      0x00\n      swap1\n      sload\n      swap1\n      0x0100\n      exp\n      swap1\n      div\n      0xffffffffffffffffffffffffffffffffffffffff\n      and\n        /* \"blockchain/contracts/HouseSecurityToken.sol\":3154:3181  identityRegistry.isVerified */\n      0xffffffffffffffffffffffffffffffffffffffff\n      and\n      0xb9209e33\n        /* \"blockchain/contracts/HouseSecurityToken.sol\":3182:3188  wallet */\n      dup3\n        /* \"blockchain/contracts/HouseSecurityToken.sol\":3154:3189  identityRegistry.isVerified(wallet) */\n      mload(0x40)\n      dup3\n      0xffffffff\n      and\n      0xe0\n      shl\n      dup2\n      mstore\n      0x04\n      add\n      tag_207\n      swap2\n      swap1\n      tag_43\n      jump\t// in\n    tag_207:\n      0x20\n      mload(0x40)\n      dup1\n      dup4\n      sub\n      dup2\n      dup7\n      gas\n      staticcall\n      iszero\n      dup1\n      iszero\n      tag_209\n      jumpi\n      returndatacopy(0x00, 0x00, returndatasize)\n      revert(0x00, returndatasize)\n    tag_209:\n      pop\n      pop\n      pop\n      pop\n      mload(0x40)\n      returndatasize\n      not(0x1f)\n      0x1f\n      dup3\n      add\n      and\n      dup3\n      add\n      dup1\n      0x40\n      mstore\n      pop\n      dup2\n      add\n      swap1\n      tag_210\n      swap2\n      swap1\n      tag_211\n      jump\t// in\n    tag_210:\n        /* \"blockchain/contracts/HouseSecurityToken.sol\":3146:3215  require(identityRegistry.isVerified(wallet), \"Token: wallet not KYC\") */\n      tag_212\n      jumpi\n      mload(0x40)\n      0x08c379a000000000000000000000000000000000000000000000000000000000\n      dup2\n      mstore\n      0x04\n      add\n      tag_213\n      swap1\n      tag_214\n      jump\t// in\n    tag_213:\n      mload(0x40)\n      dup1\n      swap2\n      sub\n      swap1\n      revert\n    tag_212:\n        /* \"blockchain/contracts/HouseSecurityToken.sol\":3087:3222  function _checkKYC(address wallet) internal view {... */\n      pop\n      jump\t// out\n        /* \"blockchain/contracts/HouseSecurityToken.sol\":3228:3461  function _checkMaxSupply(uint256 amount) internal view {... */\n    tag_138:\n        /* \"blockchain/contracts/HouseSecurityToken.sol\":3310:3311  0 */\n      0x00\n        /* \"blockchain/contracts/HouseSecurityToken.sol\":3297:3306  maxSupply */\n      sload(0x04)\n        /* \"blockchain/contracts/HouseSecurityToken.sol\":3297:3311  maxSupply != 0 */\n      eq\n        /* \"blockchain/contracts/HouseSecurityToken.sol\":3293:3455  if (maxSupply != 0) {... */\n      tag_216\n      jumpi\n        /* \"blockchain/contracts/HouseSecurityToken.sol\":3376:3385  maxSupply */\n      sload(0x04)\n        /* \"blockchain/contracts/HouseSecurityToken.sol\":3366:3372  amount */\n      dup2\n        /* \"blockchain/contracts/HouseSecurityToken.sol\":3352:3363  totalSupply */\n      sload(0x03)\n        /* \"blockchain/contracts/HouseSecurityToken.sol\":3352:3372  totalSupply + amount */\n      tag_217\n      swap2\n      swap1\n      tag_141\n      jump\t// in\n    tag_217:\n        /* \"blockchain/contracts/HouseSecurityToken.sol\":3352:3385  totalSupply + amount <= maxSupply */\n      gt\n      iszero\n        /* \"blockchain/contracts/HouseSecurityToken.sol\":3327:3444  require(... */\n      tag_218\n      jumpi\n      mload(0x40)\n      0x08c379a000000000000000000000000000000000000000000000000000000000\n      dup2\n      mstore\n      0x04\n      add\n      tag_219\n      swap1\n      tag_220\n      jump\t// in\n    tag_219:\n      mload(0x40)\n      dup1\n      swap2\n      sub\n      swap1\n      revert\n    tag_218:\n        /* \"blockchain/contracts/HouseSecurityToken.sol\":3293:3455  if (maxSupply != 0) {... */\n    tag_216:\n        /* \"blockchain/contracts/HouseSecurityToken.sol\":3228:3461  function _checkMaxSupply(uint256 amount) internal view {... */\n      pop\n      jump\t// out\n        /* \"blockchain/contracts/HouseSecurityToken.sol\":3467:3755  function _checkInvestorCap(uint256 newBalance) internal view {... */\n    tag_142:\n        /* \"blockchain/contracts/HouseSecurityToken.sol\":3555:3556  0 */\n      0x00\n        /* \"blockchain/contracts/HouseSecurityToken.sol\":3542:3551  maxSupply */\n      sload(0x04)\n        /* \"blockchain/contracts/HouseSecurityToken.sol\":3542:3556  maxSupply == 0 */\n      sub\n        /* \"blockchain/contracts/HouseSecurityToken.sol\":3538:3565  if (maxSupply == 0) return; */\n      iszero\n        /* \"blockchain/contracts/HouseSecurityToken.sol\":3558:3565  return; */\n      tag_221\n        /* \"blockchain/contracts/HouseSecurityToken.sol\":3538:3565  if (maxSupply == 0) return; */\n      jumpi\n        /* \"blockchain/contracts/HouseSecurityToken.sol\":3574:3592  uint256 maxAllowed */\n      0x00\n        /* \"blockchain/contracts/HouseSecurityToken.sol\":3632:3635  100 */\n      0x64\n        /* \"blockchain/contracts/HouseSecurityToken.sol\":369:371  20 */\n      0x14\n        /* \"blockchain/contracts/HouseSecurityToken.sol\":3596:3605  maxSupply */\n      sload(0x04)\n        /* \"blockchain/contracts/HouseSecurityToken.sol\":3596:3628  maxSupply * MAX_INVESTOR_PERCENT */\n      tag_223\n      swap2\n      swap1\n      tag_224\n      jump\t// in\n    tag_223:\n        /* \"blockchain/contracts/HouseSecurityToken.sol\":3595:3635  (maxSupply * MAX_INVESTOR_PERCENT) / 100 */\n      tag_225\n      swap2\n      swap1\n      tag_226\n      jump\t// in\n    tag_225:\n        /* \"blockchain/contracts/HouseSecurityToken.sol\":3574:3635  uint256 maxAllowed = (maxSupply * MAX_INVESTOR_PERCENT) / 100 */\n      swap1\n      pop\n        /* \"blockchain/contracts/HouseSecurityToken.sol\":3681:3691  maxAllowed */\n      dup1\n        /* \"blockchain/contracts/HouseSecurityToken.sol\":3667:3677  newBalance */\n      dup3\n        /* \"blockchain/contracts/HouseSecurityToken.sol\":3667:3691  newBalance <= maxAllowed */\n      gt\n      iszero\n        /* \"blockchain/contracts/HouseSecurityToken.sol\":3646:3748  require(... */\n      tag_227\n      jumpi\n      mload(0x40)\n      0x08c379a000000000000000000000000000000000000000000000000000000000\n      dup2\n      mstore\n      0x04\n      add\n      tag_228\n      swap1\n      tag_229\n      jump\t// in\n    tag_228:\n      mload(0x40)\n      dup1\n      swap2\n      sub\n      swap1\n      revert\n    tag_227:\n        /* \"blockchain/contracts/HouseSecurityToken.sol\":3528:3755  {... */\n      pop\n        /* \"blockchain/contracts/HouseSecurityToken.sol\":3467:3755  function _checkInvestorCap(uint256 newBalance) internal view {... */\n    tag_221:\n      pop\n      jump\t// out\n        /* \"#utility.yul\":88:205   */\n    tag_231:\n        /* \"#utility.yul\":197:198   */\n      0x00\n        /* \"#utility.yul\":194:195   */\n      0x00\n        /* \"#utility.yul\":187:199   */\n      revert\n        /* \"#utility.yul\":334:460   */\n    tag_233:\n        /* \"#utility.yul\":371:378   */\n      0x00\n        /* \"#utility.yul\":411:453   */\n      0xffffffffffffffffffffffffffffffffffffffff\n        /* \"#utility.yul\":404:409   */\n      dup3\n        /* \"#utility.yul\":400:454   */\n      and\n        /* \"#utility.yul\":389:454   */\n      swap1\n      pop\n        /* \"#utility.yul\":334:460   */\n      swap2\n      swap1\n      pop\n      jump\t// out\n        /* \"#utility.yul\":466:562   */\n    tag_234:\n        /* \"#utility.yul\":503:510   */\n      0x00\n        /* \"#utility.yul\":532:556   */\n      tag_297\n        /* \"#utility.yul\":550:555   */\n      dup3\n        /* \"#utility.yul\":532:556   */\n      tag_233\n      jump\t// in\n    tag_297:\n        /* \"#utility.yul\":521:556   */\n      swap1\n      pop\n        /* \"#utility.yul\":466:562   */\n      swap2\n      swap1\n      pop\n      jump\t// out\n        /* \"#utility.yul\":568:690   */\n    tag_235:\n        /* \"#utility.yul\":641:665   */\n      tag_299\n        /* \"#utility.yul\":659:664   */\n      dup2\n        /* \"#utility.yul\":641:665   */\n      tag_234\n      jump\t// in\n    tag_299:\n        /* \"#utility.yul\":634:639   */\n      dup2\n        /* \"#utility.yul\":631:666   */\n      eq\n        /* \"#utility.yul\":621:684   */\n      tag_300\n      jumpi\n        /* \"#utility.yul\":680:681   */\n      0x00\n        /* \"#utility.yul\":677:678   */\n      0x00\n        /* \"#utility.yul\":670:682   */\n      revert\n        /* \"#utility.yul\":621:684   */\n    tag_300:\n        /* \"#utility.yul\":568:690   */\n      pop\n      jump\t// out\n        /* \"#utility.yul\":696:835   */\n    tag_236:\n        /* \"#utility.yul\":742:747   */\n      0x00\n        /* \"#utility.yul\":780:786   */\n      dup2\n        /* \"#utility.yul\":767:787   */\n      calldataload\n        /* \"#utility.yul\":758:787   */\n      swap1\n      pop\n        /* \"#utility.yul\":796:829   */\n      tag_302\n        /* \"#utility.yul\":823:828   */\n      dup2\n        /* \"#utility.yul\":796:829   */\n      tag_235\n      jump\t// in\n    tag_302:\n        /* \"#utility.yul\":696:835   */\n      swap3\n      swap2\n      pop\n      pop\n      jump\t// out\n        /* \"#utility.yul\":841:1170   */\n    tag_30:\n        /* \"#utility.yul\":900:906   */\n      0x00\n        /* \"#utility.yul\":949:951   */\n      0x20\n        /* \"#utility.yul\":937:946   */\n      dup3\n        /* \"#utility.yul\":928:935   */\n      dup5\n        /* \"#utility.yul\":924:947   */\n      sub\n        /* \"#utility.yul\":920:952   */\n      slt\n        /* \"#utility.yul\":917:1036   */\n      iszero\n      tag_304\n      jumpi\n        /* \"#utility.yul\":955:1034   */\n      tag_305\n      tag_231\n      jump\t// in\n    tag_305:\n        /* \"#utility.yul\":917:1036   */\n    tag_304:\n        /* \"#utility.yul\":1075:1076   */\n      0x00\n        /* \"#utility.yul\":1100:1153   */\n      tag_306\n        /* \"#utility.yul\":1145:1152   */\n      dup5\n        /* \"#utility.yul\":1136:1142   */\n      dup3\n        /* \"#utility.yul\":1125:1134   */\n      dup6\n        /* \"#utility.yul\":1121:1143   */\n      add\n        /* \"#utility.yul\":1100:1153   */\n      tag_236\n      jump\t// in\n    tag_306:\n        /* \"#utility.yul\":1090:1153   */\n      swap2\n      pop\n        /* \"#utility.yul\":1046:1163   */\n      pop\n        /* \"#utility.yul\":841:1170   */\n      swap3\n      swap2\n      pop\n      pop\n      jump\t// out\n        /* \"#utility.yul\":1176:1275   */\n    tag_237:\n        /* \"#utility.yul\":1228:1234   */\n      0x00\n        /* \"#utility.yul\":1262:1267   */\n      dup2\n        /* \"#utility.yul\":1256:1268   */\n      mload\n        /* \"#utility.yul\":1246:1268   */\n      swap1\n      pop\n        /* \"#utility.yul\":1176:1275   */\n      swap2\n      swap1\n      pop\n      jump\t// out\n        /* \"#utility.yul\":1281:1450   */\n    tag_238:\n        /* \"#utility.yul\":1365:1376   */\n      0x00\n        /* \"#utility.yul\":1399:1405   */\n      dup3\n        /* \"#utility.yul\":1394:1397   */\n      dup3\n        /* \"#utility.yul\":1387:1406   */\n      mstore\n        /* \"#utility.yul\":1439:1443   */\n      0x20\n        /* \"#utility.yul\":1434:1437   */\n      dup3\n        /* \"#utility.yul\":1430:1444   */\n      add\n        /* \"#utility.yul\":1415:1444   */\n      swap1\n      pop\n        /* \"#utility.yul\":1281:1450   */\n      swap3\n      swap2\n      pop\n      pop\n      jump\t// out\n        /* \"#utility.yul\":1456:1595   */\n    tag_239:\n        /* \"#utility.yul\":1545:1551   */\n      dup3\n        /* \"#utility.yul\":1540:1543   */\n      dup2\n        /* \"#utility.yul\":1535:1538   */\n      dup4\n        /* \"#utility.yul\":1529:1552   */\n      mcopy\n        /* \"#utility.yul\":1586:1587   */\n      0x00\n        /* \"#utility.yul\":1577:1583   */\n      dup4\n        /* \"#utility.yul\":1572:1575   */\n      dup4\n        /* \"#utility.yul\":1568:1584   */\n      add\n        /* \"#utility.yul\":1561:1588   */\n      mstore\n        /* \"#utility.yul\":1456:1595   */\n      pop\n      pop\n      pop\n      jump\t// out\n        /* \"#utility.yul\":1601:1703   */\n    tag_240:\n        /* \"#utility.yul\":1642:1648   */\n      0x00\n        /* \"#utility.yul\":1693:1695   */\n      0x1f\n        /* \"#utility.yul\":1689:1696   */\n      not\n        /* \"#utility.yul\":1684:1686   */\n      0x1f\n        /* \"#utility.yul\":1677:1682   */\n      dup4\n        /* \"#utility.yul\":1673:1687   */\n      add\n        /* \"#utility.yul\":1669:1697   */\n      and\n        /* \"#utility.yul\":1659:1697   */\n      swap1\n      pop\n        /* \"#utility.yul\":1601:1703   */\n      swap2\n      swap1\n      pop\n      jump\t// out\n        /* \"#utility.yul\":1709:2086   */\n    tag_241:\n        /* \"#utility.yul\":1797:1800   */\n      0x00\n        /* \"#utility.yul\":1825:1864   */\n      tag_312\n        /* \"#utility.yul\":1858:1863   */\n      dup3\n        /* \"#utility.yul\":1825:1864   */\n      tag_237\n      jump\t// in\n    tag_312:\n        /* \"#utility.yul\":1880:1951   */\n      tag_313\n        /* \"#utility.yul\":1944:1950   */\n      dup2\n        /* \"#utility.yul\":1939:1942   */\n      dup6\n        /* \"#utility.yul\":1880:1951   */\n      tag_238\n      jump\t// in\n    tag_313:\n        /* \"#utility.yul\":1873:1951   */\n      swap4\n      pop\n        /* \"#utility.yul\":1960:2025   */\n      tag_314\n        /* \"#utility.yul\":2018:2024   */\n      dup2\n        /* \"#utility.yul\":2013:2016   */\n      dup6\n        /* \"#utility.yul\":2006:2010   */\n      0x20\n        /* \"#utility.yul\":1999:2004   */\n      dup7\n        /* \"#utility.yul\":1995:2011   */\n      add\n        /* \"#utility.yul\":1960:2025   */\n      tag_239\n      jump\t// in\n    tag_314:\n        /* \"#utility.yul\":2050:2079   */\n      tag_315\n        /* \"#utility.yul\":2072:2078   */\n      dup2\n        /* \"#utility.yul\":2050:2079   */\n      tag_240\n      jump\t// in\n    tag_315:\n        /* \"#utility.yul\":2045:2048   */\n      dup5\n        /* \"#utility.yul\":2041:2080   */\n      add\n        /* \"#utility.yul\":2034:2080   */\n      swap2\n      pop\n        /* \"#utility.yul\":1801:2086   */\n      pop\n        /* \"#utility.yul\":1709:2086   */\n      swap3\n      swap2\n      pop\n      pop\n      jump\t// out\n        /* \"#utility.yul\":2092:2405   */\n    tag_35:\n        /* \"#utility.yul\":2205:2209   */\n      0x00\n        /* \"#utility.yul\":2243:2245   */\n      0x20\n        /* \"#utility.yul\":2232:2241   */\n      dup3\n        /* \"#utility.yul\":2228:2246   */\n      add\n        /* \"#utility.yul\":2220:2246   */\n      swap1\n      pop\n        /* \"#utility.yul\":2292:2301   */\n      dup2\n        /* \"#utility.yul\":2286:2290   */\n      dup2\n        /* \"#utility.yul\":2282:2302   */\n      sub\n        /* \"#utility.yul\":2278:2279   */\n      0x00\n        /* \"#utility.yul\":2267:2276   */\n      dup4\n        /* \"#utility.yul\":2263:2280   */\n      add\n        /* \"#utility.yul\":2256:2303   */\n      mstore\n        /* \"#utility.yul\":2320:2398   */\n      tag_317\n        /* \"#utility.yul\":2393:2397   */\n      dup2\n        /* \"#utility.yul\":2384:2390   */\n      dup5\n        /* \"#utility.yul\":2320:2398   */\n      tag_241\n      jump\t// in\n    tag_317:\n        /* \"#utility.yul\":2312:2398   */\n      swap1\n      pop\n        /* \"#utility.yul\":2092:2405   */\n      swap3\n      swap2\n      pop\n      pop\n      jump\t// out\n        /* \"#utility.yul\":2411:2471   */\n    tag_242:\n        /* \"#utility.yul\":2439:2442   */\n      0x00\n        /* \"#utility.yul\":2460:2465   */\n      dup2\n        /* \"#utility.yul\":2453:2465   */\n      swap1\n      pop\n        /* \"#utility.yul\":2411:2471   */\n      swap2\n      swap1\n      pop\n      jump\t// out\n        /* \"#utility.yul\":2477:2619   */\n    tag_243:\n        /* \"#utility.yul\":2527:2536   */\n      0x00\n        /* \"#utility.yul\":2560:2613   */\n      tag_320\n        /* \"#utility.yul\":2578:2612   */\n      tag_321\n        /* \"#utility.yul\":2587:2611   */\n      tag_322\n        /* \"#utility.yul\":2605:2610   */\n      dup5\n        /* \"#utility.yul\":2587:2611   */\n      tag_233\n      jump\t// in\n    tag_322:\n        /* \"#utility.yul\":2578:2612   */\n      tag_242\n      jump\t// in\n    tag_321:\n        /* \"#utility.yul\":2560:2613   */\n      tag_233\n      jump\t// in\n    tag_320:\n        /* \"#utility.yul\":2547:2613   */\n      swap1\n      pop\n        /* \"#utility.yul\":2477:2619   */\n      swap2\n      swap1\n      pop\n      jump\t// out\n        /* \"#utility.yul\":2625:2751   */\n    tag_244:\n        /* \"#utility.yul\":2675:2684   */\n      0x00\n        /* \"#utility.yul\":2708:2745   */\n      tag_324\n        /* \"#utility.yul\":2739:2744   */\n      dup3\n        /* \"#utility.yul\":2708:2745   */\n      tag_243\n      jump\t// in\n    tag_324:\n        /* \"#utility.yul\":2695:2745   */\n      swap1\n      pop\n        /* \"#utility.yul\":2625:2751   */\n      swap2\n      swap1\n      pop\n      jump\t// out\n        /* \"#utility.yul\":2757:2908   */\n    tag_245:\n        /* \"#utility.yul\":2832:2841   */\n      0x00\n        /* \"#utility.yul\":2865:2902   */\n      tag_326\n        /* \"#utility.yul\":2896:2901   */\n      dup3\n        /* \"#utility.yul\":2865:2902   */\n      tag_244\n      jump\t// in\n    tag_326:\n        /* \"#utility.yul\":2852:2902   */\n      swap1\n      pop\n        /* \"#utility.yul\":2757:2908   */\n      swap2\n      swap1\n      pop\n      jump\t// out\n        /* \"#utility.yul\":2914:3095   */\n    tag_246:\n        /* \"#utility.yul\":3026:3088   */\n      tag_328\n        /* \"#utility.yul\":3082:3087   */\n      dup2\n        /* \"#utility.yul\":3026:3088   */\n      tag_245\n      jump\t// in\n    tag_328:\n        /* \"#utility.yul\":3021:3024   */\n      dup3\n        /* \"#utility.yul\":3014:3089   */\n      mstore\n        /* \"#utility.yul\":2914:3095   */\n      pop\n      pop\n      jump\t// out\n        /* \"#utility.yul\":3101:3373   */\n    tag_39:\n        /* \"#utility.yul\":3219:3223   */\n      0x00\n        /* \"#utility.yul\":3257:3259   */\n      0x20\n        /* \"#utility.yul\":3246:3255   */\n      dup3\n        /* \"#utility.yul\":3242:3260   */\n      add\n        /* \"#utility.yul\":3234:3260   */\n      swap1\n      pop\n        /* \"#utility.yul\":3270:3366   */\n      tag_330\n        /* \"#utility.yul\":3363:3364   */\n      0x00\n        /* \"#utility.yul\":3352:3361   */\n      dup4\n        /* \"#utility.yul\":3348:3365   */\n      add\n        /* \"#utility.yul\":3339:3345   */\n      dup5\n        /* \"#utility.yul\":3270:3366   */\n      tag_246\n      jump\t// in\n    tag_330:\n        /* \"#utility.yul\":3101:3373   */\n      swap3\n      swap2\n      pop\n      pop\n      jump\t// out\n        /* \"#utility.yul\":3379:3497   */\n    tag_247:\n        /* \"#utility.yul\":3466:3490   */\n      tag_332\n        /* \"#utility.yul\":3484:3489   */\n      dup2\n        /* \"#utility.yul\":3466:3490   */\n      tag_234\n      jump\t// in\n    tag_332:\n        /* \"#utility.yul\":3461:3464   */\n      dup3\n        /* \"#utility.yul\":3454:3491   */\n      mstore\n        /* \"#utility.yul\":3379:3497   */\n      pop\n      pop\n      jump\t// out\n        /* \"#utility.yul\":3503:3725   */\n    tag_43:\n        /* \"#utility.yul\":3596:3600   */\n      0x00\n        /* \"#utility.yul\":3634:3636   */\n      0x20\n        /* \"#utility.yul\":3623:3632   */\n      dup3\n        /* \"#utility.yul\":3619:3637   */\n      add\n        /* \"#utility.yul\":3611:3637   */\n      swap1\n      pop\n        /* \"#utility.yul\":3647:3718   */\n      tag_334\n        /* \"#utility.yul\":3715:3716   */\n      0x00\n        /* \"#utility.yul\":3704:3713   */\n      dup4\n        /* \"#utility.yul\":3700:3717   */\n      add\n        /* \"#utility.yul\":3691:3697   */\n      dup5\n        /* \"#utility.yul\":3647:3718   */\n      tag_247\n      jump\t// in\n    tag_334:\n        /* \"#utility.yul\":3503:3725   */\n      swap3\n      swap2\n      pop\n      pop\n      jump\t// out\n        /* \"#utility.yul\":3731:3808   */\n    tag_248:\n        /* \"#utility.yul\":3768:3775   */\n      0x00\n        /* \"#utility.yul\":3797:3802   */\n      dup2\n        /* \"#utility.yul\":3786:3802   */\n      swap1\n      pop\n        /* \"#utility.yul\":3731:3808   */\n      swap2\n      swap1\n      pop\n      jump\t// out\n        /* \"#utility.yul\":3814:3932   */\n    tag_249:\n        /* \"#utility.yul\":3901:3925   */\n      tag_337\n        /* \"#utility.yul\":3919:3924   */\n      dup2\n        /* \"#utility.yul\":3901:3925   */\n      tag_248\n      jump\t// in\n    tag_337:\n        /* \"#utility.yul\":3896:3899   */\n      dup3\n        /* \"#utility.yul\":3889:3926   */\n      mstore\n        /* \"#utility.yul\":3814:3932   */\n      pop\n      pop\n      jump\t// out\n        /* \"#utility.yul\":3938:4160   */\n    tag_47:\n        /* \"#utility.yul\":4031:4035   */\n      0x00\n        /* \"#utility.yul\":4069:4071   */\n      0x20\n        /* \"#utility.yul\":4058:4067   */\n      dup3\n        /* \"#utility.yul\":4054:4072   */\n      add\n        /* \"#utility.yul\":4046:4072   */\n      swap1\n      pop\n        /* \"#utility.yul\":4082:4153   */\n      tag_339\n        /* \"#utility.yul\":4150:4151   */\n      0x00\n        /* \"#utility.yul\":4139:4148   */\n      dup4\n        /* \"#utility.yul\":4135:4152   */\n      add\n        /* \"#utility.yul\":4126:4132   */\n      dup5\n        /* \"#utility.yul\":4082:4153   */\n      tag_249\n      jump\t// in\n    tag_339:\n        /* \"#utility.yul\":3938:4160   */\n      swap3\n      swap2\n      pop\n      pop\n      jump\t// out\n        /* \"#utility.yul\":4166:4252   */\n    tag_250:\n        /* \"#utility.yul\":4201:4208   */\n      0x00\n        /* \"#utility.yul\":4241:4245   */\n      0xff\n        /* \"#utility.yul\":4234:4239   */\n      dup3\n        /* \"#utility.yul\":4230:4246   */\n      and\n        /* \"#utility.yul\":4219:4246   */\n      swap1\n      pop\n        /* \"#utility.yul\":4166:4252   */\n      swap2\n      swap1\n      pop\n      jump\t// out\n        /* \"#utility.yul\":4258:4370   */\n    tag_251:\n        /* \"#utility.yul\":4341:4363   */\n      tag_342\n        /* \"#utility.yul\":4357:4362   */\n      dup2\n        /* \"#utility.yul\":4341:4363   */\n      tag_250\n      jump\t// in\n    tag_342:\n        /* \"#utility.yul\":4336:4339   */\n      dup3\n        /* \"#utility.yul\":4329:4364   */\n      mstore\n        /* \"#utility.yul\":4258:4370   */\n      pop\n      pop\n      jump\t// out\n        /* \"#utility.yul\":4376:4590   */\n    tag_54:\n        /* \"#utility.yul\":4465:4469   */\n      0x00\n        /* \"#utility.yul\":4503:4505   */\n      0x20\n        /* \"#utility.yul\":4492:4501   */\n      dup3\n        /* \"#utility.yul\":4488:4506   */\n      add\n        /* \"#utility.yul\":4480:4506   */\n      swap1\n      pop\n        /* \"#utility.yul\":4516:4583   */\n      tag_344\n        /* \"#utility.yul\":4580:4581   */\n      0x00\n        /* \"#utility.yul\":4569:4578   */\n      dup4\n        /* \"#utility.yul\":4565:4582   */\n      add\n        /* \"#utility.yul\":4556:4562   */\n      dup5\n        /* \"#utility.yul\":4516:4583   */\n      tag_251\n      jump\t// in\n    tag_344:\n        /* \"#utility.yul\":4376:4590   */\n      swap3\n      swap2\n      pop\n      pop\n      jump\t// out\n        /* \"#utility.yul\":4596:4718   */\n    tag_252:\n        /* \"#utility.yul\":4669:4693   */\n      tag_346\n        /* \"#utility.yul\":4687:4692   */\n      dup2\n        /* \"#utility.yul\":4669:4693   */\n      tag_248\n      jump\t// in\n    tag_346:\n        /* \"#utility.yul\":4662:4667   */\n      dup2\n        /* \"#utility.yul\":4659:4694   */\n      eq\n        /* \"#utility.yul\":4649:4712   */\n      tag_347\n      jumpi\n        /* \"#utility.yul\":4708:4709   */\n      0x00\n        /* \"#utility.yul\":4705:4706   */\n      0x00\n        /* \"#utility.yul\":4698:4710   */\n      revert\n        /* \"#utility.yul\":4649:4712   */\n    tag_347:\n        /* \"#utility.yul\":4596:4718   */\n      pop\n      jump\t// out\n        /* \"#utility.yul\":4724:4863   */\n    tag_253:\n        /* \"#utility.yul\":4770:4775   */\n      0x00\n        /* \"#utility.yul\":4808:4814   */\n      dup2\n        /* \"#utility.yul\":4795:4815   */\n      calldataload\n        /* \"#utility.yul\":4786:4815   */\n      swap1\n      pop\n        /* \"#utility.yul\":4824:4857   */\n      tag_349\n        /* \"#utility.yul\":4851:4856   */\n      dup2\n        /* \"#utility.yul\":4824:4857   */\n      tag_252\n      jump\t// in\n    tag_349:\n        /* \"#utility.yul\":4724:4863   */\n      swap3\n      swap2\n      pop\n      pop\n      jump\t// out\n        /* \"#utility.yul\":4869:5343   */\n    tag_59:\n        /* \"#utility.yul\":4937:4943   */\n      0x00\n        /* \"#utility.yul\":4945:4951   */\n      0x00\n        /* \"#utility.yul\":4994:4996   */\n      0x40\n        /* \"#utility.yul\":4982:4991   */\n      dup4\n        /* \"#utility.yul\":4973:4980   */\n      dup6\n        /* \"#utility.yul\":4969:4992   */\n      sub\n        /* \"#utility.yul\":4965:4997   */\n      slt\n        /* \"#utility.yul\":4962:5081   */\n      iszero\n      tag_351\n      jumpi\n        /* \"#utility.yul\":5000:5079   */\n      tag_352\n      tag_231\n      jump\t// in\n    tag_352:\n        /* \"#utility.yul\":4962:5081   */\n    tag_351:\n        /* \"#utility.yul\":5120:5121   */\n      0x00\n        /* \"#utility.yul\":5145:5198   */\n      tag_353\n        /* \"#utility.yul\":5190:5197   */\n      dup6\n        /* \"#utility.yul\":5181:5187   */\n      dup3\n        /* \"#utility.yul\":5170:5179   */\n      dup7\n        /* \"#utility.yul\":5166:5188   */\n      add\n        /* \"#utility.yul\":5145:5198   */\n      tag_236\n      jump\t// in\n    tag_353:\n        /* \"#utility.yul\":5135:5198   */\n      swap3\n      pop\n        /* \"#utility.yul\":5091:5208   */\n      pop\n        /* \"#utility.yul\":5247:5249   */\n      0x20\n        /* \"#utility.yul\":5273:5326   */\n      tag_354\n        /* \"#utility.yul\":5318:5325   */\n      dup6\n        /* \"#utility.yul\":5309:5315   */\n      dup3\n        /* \"#utility.yul\":5298:5307   */\n      dup7\n        /* \"#utility.yul\":5294:5316   */\n      add\n        /* \"#utility.yul\":5273:5326   */\n      tag_253\n      jump\t// in\n    tag_354:\n        /* \"#utility.yul\":5263:5326   */\n      swap2\n      pop\n        /* \"#utility.yul\":5218:5336   */\n      pop\n        /* \"#utility.yul\":4869:5343   */\n      swap3\n      pop\n      swap3\n      swap1\n      pop\n      jump\t// out\n        /* \"#utility.yul\":5349:5439   */\n    tag_254:\n        /* \"#utility.yul\":5383:5390   */\n      0x00\n        /* \"#utility.yul\":5426:5431   */\n      dup2\n        /* \"#utility.yul\":5419:5432   */\n      iszero\n        /* \"#utility.yul\":5412:5433   */\n      iszero\n        /* \"#utility.yul\":5401:5433   */\n      swap1\n      pop\n        /* \"#utility.yul\":5349:5439   */\n      swap2\n      swap1\n      pop\n      jump\t// out\n        /* \"#utility.yul\":5445:5554   */\n    tag_255:\n        /* \"#utility.yul\":5526:5547   */\n      tag_357\n        /* \"#utility.yul\":5541:5546   */\n      dup2\n        /* \"#utility.yul\":5526:5547   */\n      tag_254\n      jump\t// in\n    tag_357:\n        /* \"#utility.yul\":5521:5524   */\n      dup3\n        /* \"#utility.yul\":5514:5548   */\n      mstore\n        /* \"#utility.yul\":5445:5554   */\n      pop\n      pop\n      jump\t// out\n        /* \"#utility.yul\":5560:5770   */\n    tag_64:\n        /* \"#utility.yul\":5647:5651   */\n      0x00\n        /* \"#utility.yul\":5685:5687   */\n      0x20\n        /* \"#utility.yul\":5674:5683   */\n      dup3\n        /* \"#utility.yul\":5670:5688   */\n      add\n        /* \"#utility.yul\":5662:5688   */\n      swap1\n      pop\n        /* \"#utility.yul\":5698:5763   */\n      tag_359\n        /* \"#utility.yul\":5760:5761   */\n      0x00\n        /* \"#utility.yul\":5749:5758   */\n      dup4\n        /* \"#utility.yul\":5745:5762   */\n      add\n        /* \"#utility.yul\":5736:5742   */\n      dup5\n        /* \"#utility.yul\":5698:5763   */\n      tag_255\n      jump\t// in\n    tag_359:\n        /* \"#utility.yul\":5560:5770   */\n      swap3\n      swap2\n      pop\n      pop\n      jump\t// out\n        /* \"#utility.yul\":5776:6001   */\n    tag_256:\n        /* \"#utility.yul\":5916:5950   */\n      0x546f6b656e3a2063616c6c6572206e6f74206f776e6572206f722073616c6546\n        /* \"#utility.yul\":5912:5913   */\n      0x00\n        /* \"#utility.yul\":5904:5910   */\n      dup3\n        /* \"#utility.yul\":5900:5914   */\n      add\n        /* \"#utility.yul\":5893:5951   */\n      mstore\n        /* \"#utility.yul\":5985:5993   */\n      0x6163746f72790000000000000000000000000000000000000000000000000000\n        /* \"#utility.yul\":5980:5982   */\n      0x20\n        /* \"#utility.yul\":5972:5978   */\n      dup3\n        /* \"#utility.yul\":5968:5983   */\n      add\n        /* \"#utility.yul\":5961:5994   */\n      mstore\n        /* \"#utility.yul\":5776:6001   */\n      pop\n      jump\t// out\n        /* \"#utility.yul\":6007:6373   */\n    tag_257:\n        /* \"#utility.yul\":6149:6152   */\n      0x00\n        /* \"#utility.yul\":6170:6237   */\n      tag_362\n        /* \"#utility.yul\":6234:6236   */\n      0x26\n        /* \"#utility.yul\":6229:6232   */\n      dup4\n        /* \"#utility.yul\":6170:6237   */\n      tag_238\n      jump\t// in\n    tag_362:\n        /* \"#utility.yul\":6163:6237   */\n      swap2\n      pop\n        /* \"#utility.yul\":6246:6339   */\n      tag_363\n        /* \"#utility.yul\":6335:6338   */\n      dup3\n        /* \"#utility.yul\":6246:6339   */\n      tag_256\n      jump\t// in\n    tag_363:\n        /* \"#utility.yul\":6364:6366   */\n      0x40\n        /* \"#utility.yul\":6359:6362   */\n      dup3\n        /* \"#utility.yul\":6355:6367   */\n      add\n        /* \"#utility.yul\":6348:6367   */\n      swap1\n      pop\n        /* \"#utility.yul\":6007:6373   */\n      swap2\n      swap1\n      pop\n      jump\t// out\n        /* \"#utility.yul\":6379:6798   */\n    tag_106:\n        /* \"#utility.yul\":6545:6549   */\n      0x00\n        /* \"#utility.yul\":6583:6585   */\n      0x20\n        /* \"#utility.yul\":6572:6581   */\n      dup3\n        /* \"#utility.yul\":6568:6586   */\n      add\n        /* \"#utility.yul\":6560:6586   */\n      swap1\n      pop\n        /* \"#utility.yul\":6632:6641   */\n      dup2\n        /* \"#utility.yul\":6626:6630   */\n      dup2\n        /* \"#utility.yul\":6622:6642   */\n      sub\n        /* \"#utility.yul\":6618:6619   */\n      0x00\n        /* \"#utility.yul\":6607:6616   */\n      dup4\n        /* \"#utility.yul\":6603:6620   */\n      add\n        /* \"#utility.yul\":6596:6643   */\n      mstore\n        /* \"#utility.yul\":6660:6791   */\n      tag_365\n        /* \"#utility.yul\":6786:6790   */\n      dup2\n        /* \"#utility.yul\":6660:6791   */\n      tag_257\n      jump\t// in\n    tag_365:\n        /* \"#utility.yul\":6652:6791   */\n      swap1\n      pop\n        /* \"#utility.yul\":6379:6798   */\n      swap2\n      swap1\n      pop\n      jump\t// out\n        /* \"#utility.yul\":6804:6978   */\n    tag_258:\n        /* \"#utility.yul\":6944:6970   */\n      0x546f6b656e3a2073616c65436f6e7472616374207a65726f0000000000000000\n        /* \"#utility.yul\":6940:6941   */\n      0x00\n        /* \"#utility.yul\":6932:6938   */\n      dup3\n        /* \"#utility.yul\":6928:6942   */\n      add\n        /* \"#utility.yul\":6921:6971   */\n      mstore\n        /* \"#utility.yul\":6804:6978   */\n      pop\n      jump\t// out\n        /* \"#utility.yul\":6984:7350   */\n    tag_259:\n        /* \"#utility.yul\":7126:7129   */\n      0x00\n        /* \"#utility.yul\":7147:7214   */\n      tag_368\n        /* \"#utility.yul\":7211:7213   */\n      0x18\n        /* \"#utility.yul\":7206:7209   */\n      dup4\n        /* \"#utility.yul\":7147:7214   */\n      tag_238\n      jump\t// in\n    tag_368:\n        /* \"#utility.yul\":7140:7214   */\n      swap2\n      pop\n        /* \"#utility.yul\":7223:7316   */\n      tag_369\n        /* \"#utility.yul\":7312:7315   */\n      dup3\n        /* \"#utility.yul\":7223:7316   */\n      tag_258\n      jump\t// in\n    tag_369:\n        /* \"#utility.yul\":7341:7343   */\n      0x20\n        /* \"#utility.yul\":7336:7339   */\n      dup3\n        /* \"#utility.yul\":7332:7344   */\n      add\n        /* \"#utility.yul\":7325:7344   */\n      swap1\n      pop\n        /* \"#utility.yul\":6984:7350   */\n      swap2\n      swap1\n      pop\n      jump\t// out\n        /* \"#utility.yul\":7356:7775   */\n    tag_110:\n        /* \"#utility.yul\":7522:7526   */\n      0x00\n        /* \"#utility.yul\":7560:7562   */\n      0x20\n        /* \"#utility.yul\":7549:7558   */\n      dup3\n        /* \"#utility.yul\":7545:7563   */\n      add\n        /* \"#utility.yul\":7537:7563   */\n      swap1\n      pop\n        /* \"#utility.yul\":7609:7618   */\n      dup2\n        /* \"#utility.yul\":7603:7607   */\n      dup2\n        /* \"#utility.yul\":7599:7619   */\n      sub\n        /* \"#utility.yul\":7595:7596   */\n      0x00\n        /* \"#utility.yul\":7584:7593   */\n      dup4\n        /* \"#utility.yul\":7580:7597   */\n      add\n        /* \"#utility.yul\":7573:7620   */\n      mstore\n        /* \"#utility.yul\":7637:7768   */\n      tag_371\n        /* \"#utility.yul\":7763:7767   */\n      dup2\n        /* \"#utility.yul\":7637:7768   */\n      tag_259\n      jump\t// in\n    tag_371:\n        /* \"#utility.yul\":7629:7768   */\n      swap1\n      pop\n        /* \"#utility.yul\":7356:7775   */\n      swap2\n      swap1\n      pop\n      jump\t// out\n        /* \"#utility.yul\":7781:7961   */\n    tag_260:\n        /* \"#utility.yul\":7829:7906   */\n      0x4e487b7100000000000000000000000000000000000000000000000000000000\n        /* \"#utility.yul\":7826:7827   */\n      0x00\n        /* \"#utility.yul\":7819:7907   */\n      mstore\n        /* \"#utility.yul\":7926:7930   */\n      0x22\n        /* \"#utility.yul\":7923:7924   */\n      0x04\n        /* \"#utility.yul\":7916:7931   */\n      mstore\n        /* \"#utility.yul\":7950:7954   */\n      0x24\n        /* \"#utility.yul\":7947:7948   */\n      0x00\n        /* \"#utility.yul\":7940:7955   */\n      revert\n        /* \"#utility.yul\":7967:8287   */\n    tag_112:\n        /* \"#utility.yul\":8011:8017   */\n      0x00\n        /* \"#utility.yul\":8048:8049   */\n      0x02\n        /* \"#utility.yul\":8042:8046   */\n      dup3\n        /* \"#utility.yul\":8038:8050   */\n      div\n        /* \"#utility.yul\":8028:8050   */\n      swap1\n      pop\n        /* \"#utility.yul\":8095:8096   */\n      0x01\n        /* \"#utility.yul\":8089:8093   */\n      dup3\n        /* \"#utility.yul\":8085:8097   */\n      and\n        /* \"#utility.yul\":8116:8134   */\n      dup1\n        /* \"#utility.yul\":8106:8187   */\n      tag_374\n      jumpi\n        /* \"#utility.yul\":8172:8176   */\n      0x7f\n        /* \"#utility.yul\":8164:8170   */\n      dup3\n        /* \"#utility.yul\":8160:8177   */\n      and\n        /* \"#utility.yul\":8150:8177   */\n      swap2\n      pop\n        /* \"#utility.yul\":8106:8187   */\n    tag_374:\n        /* \"#utility.yul\":8234:8236   */\n      0x20\n        /* \"#utility.yul\":8226:8232   */\n      dup3\n        /* \"#utility.yul\":8223:8237   */\n      lt\n        /* \"#utility.yul\":8203:8221   */\n      dup2\n        /* \"#utility.yul\":8200:8238   */\n      sub\n        /* \"#utility.yul\":8197:8281   */\n      tag_375\n      jumpi\n        /* \"#utility.yul\":8253:8271   */\n      tag_376\n      tag_260\n      jump\t// in\n    tag_376:\n        /* \"#utility.yul\":8197:8281   */\n    tag_375:\n        /* \"#utility.yul\":8018:8287   */\n      pop\n        /* \"#utility.yul\":7967:8287   */\n      swap2\n      swap1\n      pop\n      jump\t// out\n        /* \"#utility.yul\":8293:8475   */\n    tag_261:\n        /* \"#utility.yul\":8433:8467   */\n      0x4f776e61626c653a2063616c6c6572206973206e6f7420746865206f776e6572\n        /* \"#utility.yul\":8429:8430   */\n      0x00\n        /* \"#utility.yul\":8421:8427   */\n      dup3\n        /* \"#utility.yul\":8417:8431   */\n      add\n        /* \"#utility.yul\":8410:8468   */\n      mstore\n        /* \"#utility.yul\":8293:8475   */\n      pop\n      jump\t// out\n        /* \"#utility.yul\":8481:8847   */\n    tag_262:\n        /* \"#utility.yul\":8623:8626   */\n      0x00\n        /* \"#utility.yul\":8644:8711   */\n      tag_379\n        /* \"#utility.yul\":8708:8710   */\n      0x20\n        /* \"#utility.yul\":8703:8706   */\n      dup4\n        /* \"#utility.yul\":8644:8711   */\n      tag_238\n      jump\t// in\n    tag_379:\n        /* \"#utility.yul\":8637:8711   */\n      swap2\n      pop\n        /* \"#utility.yul\":8720:8813   */\n      tag_380\n        /* \"#utility.yul\":8809:8812   */\n      dup3\n        /* \"#utility.yul\":8720:8813   */\n      tag_261\n      jump\t// in\n    tag_380:\n        /* \"#utility.yul\":8838:8840   */\n      0x20\n        /* \"#utility.yul\":8833:8836   */\n      dup3\n        /* \"#utility.yul\":8829:8841   */\n      add\n        /* \"#utility.yul\":8822:8841   */\n      swap1\n      pop\n        /* \"#utility.yul\":8481:8847   */\n      swap2\n      swap1\n      pop\n      jump\t// out\n        /* \"#utility.yul\":8853:9272   */\n    tag_120:\n        /* \"#utility.yul\":9019:9023   */\n      0x00\n        /* \"#utility.yul\":9057:9059   */\n      0x20\n        /* \"#utility.yul\":9046:9055   */\n      dup3\n        /* \"#utility.yul\":9042:9060   */\n      add\n        /* \"#utility.yul\":9034:9060   */\n      swap1\n      pop\n        /* \"#utility.yul\":9106:9115   */\n      dup2\n        /* \"#utility.yul\":9100:9104   */\n      dup2\n        /* \"#utility.yul\":9096:9116   */\n      sub\n        /* \"#utility.yul\":9092:9093   */\n      0x00\n        /* \"#utility.yul\":9081:9090   */\n      dup4\n        /* \"#utility.yul\":9077:9094   */\n      add\n        /* \"#utility.yul\":9070:9117   */\n      mstore\n        /* \"#utility.yul\":9134:9265   */\n      tag_382\n        /* \"#utility.yul\":9260:9264   */\n      dup2\n        /* \"#utility.yul\":9134:9265   */\n      tag_262\n      jump\t// in\n    tag_382:\n        /* \"#utility.yul\":9126:9265   */\n      swap1\n      pop\n        /* \"#utility.yul\":8853:9272   */\n      swap2\n      swap1\n      pop\n      jump\t// out\n        /* \"#utility.yul\":9278:9456   */\n    tag_263:\n        /* \"#utility.yul\":9418:9448   */\n      0x546f6b656e3a2063616c6c6572206e6f7420617574686f72697a656400000000\n        /* \"#utility.yul\":9414:9415   */\n      0x00\n        /* \"#utility.yul\":9406:9412   */\n      dup3\n        /* \"#utility.yul\":9402:9416   */\n      add\n        /* \"#utility.yul\":9395:9449   */\n      mstore\n        /* \"#utility.yul\":9278:9456   */\n      pop\n      jump\t// out\n        /* \"#utility.yul\":9462:9828   */\n    tag_264:\n        /* \"#utility.yul\":9604:9607   */\n      0x00\n        /* \"#utility.yul\":9625:9692   */\n      tag_385\n        /* \"#utility.yul\":9689:9691   */\n      0x1c\n        /* \"#utility.yul\":9684:9687   */\n      dup4\n        /* \"#utility.yul\":9625:9692   */\n      tag_238\n      jump\t// in\n    tag_385:\n        /* \"#utility.yul\":9618:9692   */\n      swap2\n      pop\n        /* \"#utility.yul\":9701:9794   */\n      tag_386\n        /* \"#utility.yul\":9790:9793   */\n      dup3\n        /* \"#utility.yul\":9701:9794   */\n      tag_263\n      jump\t// in\n    tag_386:\n        /* \"#utility.yul\":9819:9821   */\n      0x20\n        /* \"#utility.yul\":9814:9817   */\n      dup3\n        /* \"#utility.yul\":9810:9822   */\n      add\n        /* \"#utility.yul\":9803:9822   */\n      swap1\n      pop\n        /* \"#utility.yul\":9462:9828   */\n      swap2\n      swap1\n      pop\n      jump\t// out\n        /* \"#utility.yul\":9834:10253   */\n    tag_127:\n        /* \"#utility.yul\":10000:10004   */\n      0x00\n        /* \"#utility.yul\":10038:10040   */\n      0x20\n        /* \"#utility.yul\":10027:10036   */\n      dup3\n        /* \"#utility.yul\":10023:10041   */\n      add\n        /* \"#utility.yul\":10015:10041   */\n      swap1\n      pop\n        /* \"#utility.yul\":10087:10096   */\n      dup2\n        /* \"#utility.yul\":10081:10085   */\n      dup2\n        /* \"#utility.yul\":10077:10097   */\n      sub\n        /* \"#utility.yul\":10073:10074   */\n      0x00\n        /* \"#utility.yul\":10062:10071   */\n      dup4\n        /* \"#utility.yul\":10058:10075   */\n      add\n        /* \"#utility.yul\":10051:10098   */\n      mstore\n        /* \"#utility.yul\":10115:10246   */\n      tag_388\n        /* \"#utility.yul\":10241:10245   */\n      dup2\n        /* \"#utility.yul\":10115:10246   */\n      tag_264\n      jump\t// in\n    tag_388:\n        /* \"#utility.yul\":10107:10246   */\n      swap1\n      pop\n        /* \"#utility.yul\":9834:10253   */\n      swap2\n      swap1\n      pop\n      jump\t// out\n        /* \"#utility.yul\":10259:10428   */\n    tag_265:\n        /* \"#utility.yul\":10399:10420   */\n      0x546f6b656e3a206d696e7420746f207a65726f00000000000000000000000000\n        /* \"#utility.yul\":10395:10396   */\n      0x00\n        /* \"#utility.yul\":10387:10393   */\n      dup3\n        /* \"#utility.yul\":10383:10397   */\n      add\n        /* \"#utility.yul\":10376:10421   */\n      mstore\n        /* \"#utility.yul\":10259:10428   */\n      pop\n      jump\t// out\n        /* \"#utility.yul\":10434:10800   */\n    tag_266:\n        /* \"#utility.yul\":10576:10579   */\n      0x00\n        /* \"#utility.yul\":10597:10664   */\n      tag_391\n        /* \"#utility.yul\":10661:10663   */\n      0x13\n        /* \"#utility.yul\":10656:10659   */\n      dup4\n        /* \"#utility.yul\":10597:10664   */\n      tag_238\n      jump\t// in\n    tag_391:\n        /* \"#utility.yul\":10590:10664   */\n      swap2\n      pop\n        /* \"#utility.yul\":10673:10766   */\n      tag_392\n        /* \"#utility.yul\":10762:10765   */\n      dup3\n        /* \"#utility.yul\":10673:10766   */\n      tag_265\n      jump\t// in\n    tag_392:\n        /* \"#utility.yul\":10791:10793   */\n      0x20\n        /* \"#utility.yul\":10786:10789   */\n      dup3\n        /* \"#utility.yul\":10782:10794   */\n      add\n        /* \"#utility.yul\":10775:10794   */\n      swap1\n      pop\n        /* \"#utility.yul\":10434:10800   */\n      swap2\n      swap1\n      pop\n      jump\t// out\n        /* \"#utility.yul\":10806:11225   */\n    tag_131:\n        /* \"#utility.yul\":10972:10976   */\n      0x00\n        /* \"#utility.yul\":11010:11012   */\n      0x20\n        /* \"#utility.yul\":10999:11008   */\n      dup3\n        /* \"#utility.yul\":10995:11013   */\n      add\n        /* \"#utility.yul\":10987:11013   */\n      swap1\n      pop\n        /* \"#utility.yul\":11059:11068   */\n      dup2\n        /* \"#utility.yul\":11053:11057   */\n      dup2\n        /* \"#utility.yul\":11049:11069   */\n      sub\n        /* \"#utility.yul\":11045:11046   */\n      0x00\n        /* \"#utility.yul\":11034:11043   */\n      dup4\n        /* \"#utility.yul\":11030:11047   */\n      add\n        /* \"#utility.yul\":11023:11070   */\n      mstore\n        /* \"#utility.yul\":11087:11218   */\n      tag_394\n        /* \"#utility.yul\":11213:11217   */\n      dup2\n        /* \"#utility.yul\":11087:11218   */\n      tag_266\n      jump\t// in\n    tag_394:\n        /* \"#utility.yul\":11079:11218   */\n      swap1\n      pop\n        /* \"#utility.yul\":10806:11225   */\n      swap2\n      swap1\n      pop\n      jump\t// out\n        /* \"#utility.yul\":11231:11399   */\n    tag_267:\n        /* \"#utility.yul\":11371:11391   */\n      0x546f6b656e3a20616d6f756e74207a65726f0000000000000000000000000000\n        /* \"#utility.yul\":11367:11368   */\n      0x00\n        /* \"#utility.yul\":11359:11365   */\n      dup3\n        /* \"#utility.yul\":11355:11369   */\n      add\n        /* \"#utility.yul\":11348:11392   */\n      mstore\n        /* \"#utility.yul\":11231:11399   */\n      pop\n      jump\t// out\n        /* \"#utility.yul\":11405:11771   */\n    tag_268:\n        /* \"#utility.yul\":11547:11550   */\n      0x00\n        /* \"#utility.yul\":11568:11635   */\n      tag_397\n        /* \"#utility.yul\":11632:11634   */\n      0x12\n        /* \"#utility.yul\":11627:11630   */\n      dup4\n        /* \"#utility.yul\":11568:11635   */\n      tag_238\n      jump\t// in\n    tag_397:\n        /* \"#utility.yul\":11561:11635   */\n      swap2\n      pop\n        /* \"#utility.yul\":11644:11737   */\n      tag_398\n        /* \"#utility.yul\":11733:11736   */\n      dup3\n        /* \"#utility.yul\":11644:11737   */\n      tag_267\n      jump\t// in\n    tag_398:\n        /* \"#utility.yul\":11762:11764   */\n      0x20\n        /* \"#utility.yul\":11757:11760   */\n      dup3\n        /* \"#utility.yul\":11753:11765   */\n      add\n        /* \"#utility.yul\":11746:11765   */\n      swap1\n      pop\n        /* \"#utility.yul\":11405:11771   */\n      swap2\n      swap1\n      pop\n      jump\t// out\n        /* \"#utility.yul\":11777:12196   */\n    tag_134:\n        /* \"#utility.yul\":11943:11947   */\n      0x00\n        /* \"#utility.yul\":11981:11983   */\n      0x20\n        /* \"#utility.yul\":11970:11979   */\n      dup3\n        /* \"#utility.yul\":11966:11984   */\n      add\n        /* \"#utility.yul\":11958:11984   */\n      swap1\n      pop\n        /* \"#utility.yul\":12030:12039   */\n      dup2\n        /* \"#utility.yul\":12024:12028   */\n      dup2\n        /* \"#utility.yul\":12020:12040   */\n      sub\n        /* \"#utility.yul\":12016:12017   */\n      0x00\n        /* \"#utility.yul\":12005:12014   */\n      dup4\n        /* \"#utility.yul\":12001:12018   */\n      add\n        /* \"#utility.yul\":11994:12041   */\n      mstore\n        /* \"#utility.yul\":12058:12189   */\n      tag_400\n        /* \"#utility.yul\":12184:12188   */\n      dup2\n        /* \"#utility.yul\":12058:12189   */\n      tag_268\n      jump\t// in\n    tag_400:\n        /* \"#utility.yul\":12050:12189   */\n      swap1\n      pop\n        /* \"#utility.yul\":11777:12196   */\n      swap2\n      swap1\n      pop\n      jump\t// out\n        /* \"#utility.yul\":12202:12382   */\n    tag_269:\n        /* \"#utility.yul\":12250:12327   */\n      0x4e487b7100000000000000000000000000000000000000000000000000000000\n        /* \"#utility.yul\":12247:12248   */\n      0x00\n        /* \"#utility.yul\":12240:12328   */\n      mstore\n        /* \"#utility.yul\":12347:12351   */\n      0x11\n        /* \"#utility.yul\":12344:12345   */\n      0x04\n        /* \"#utility.yul\":12337:12352   */\n      mstore\n        /* \"#utility.yul\":12371:12375   */\n      0x24\n        /* \"#utility.yul\":12368:12369   */\n      0x00\n        /* \"#utility.yul\":12361:12376   */\n      revert\n        /* \"#utility.yul\":12388:12579   */\n    tag_141:\n        /* \"#utility.yul\":12428:12431   */\n      0x00\n        /* \"#utility.yul\":12447:12467   */\n      tag_403\n        /* \"#utility.yul\":12465:12466   */\n      dup3\n        /* \"#utility.yul\":12447:12467   */\n      tag_248\n      jump\t// in\n    tag_403:\n        /* \"#utility.yul\":12442:12467   */\n      swap2\n      pop\n        /* \"#utility.yul\":12481:12501   */\n      tag_404\n        /* \"#utility.yul\":12499:12500   */\n      dup4\n        /* \"#utility.yul\":12481:12501   */\n      tag_248\n      jump\t// in\n    tag_404:\n        /* \"#utility.yul\":12476:12501   */\n      swap3\n      pop\n        /* \"#utility.yul\":12524:12525   */\n      dup3\n        /* \"#utility.yul\":12521:12522   */\n      dup3\n        /* \"#utility.yul\":12517:12526   */\n      add\n        /* \"#utility.yul\":12510:12526   */\n      swap1\n      pop\n        /* \"#utility.yul\":12545:12548   */\n      dup1\n        /* \"#utility.yul\":12542:12543   */\n      dup3\n        /* \"#utility.yul\":12539:12549   */\n      gt\n        /* \"#utility.yul\":12536:12572   */\n      iszero\n      tag_405\n      jumpi\n        /* \"#utility.yul\":12552:12570   */\n      tag_406\n      tag_269\n      jump\t// in\n    tag_406:\n        /* \"#utility.yul\":12536:12572   */\n    tag_405:\n        /* \"#utility.yul\":12388:12579   */\n      swap3\n      swap2\n      pop\n      pop\n      jump\t// out\n        /* \"#utility.yul\":12585:12758   */\n    tag_270:\n        /* \"#utility.yul\":12725:12750   */\n      0x546f6b656e3a2073616c65466163746f7279207a65726f000000000000000000\n        /* \"#utility.yul\":12721:12722   */\n      0x00\n        /* \"#utility.yul\":12713:12719   */\n      dup3\n        /* \"#utility.yul\":12709:12723   */\n      add\n        /* \"#utility.yul\":12702:12751   */\n      mstore\n        /* \"#utility.yul\":12585:12758   */\n      pop\n      jump\t// out\n        /* \"#utility.yul\":12764:13130   */\n    tag_271:\n        /* \"#utility.yul\":12906:12909   */\n      0x00\n        /* \"#utility.yul\":12927:12994   */\n      tag_409\n        /* \"#utility.yul\":12991:12993   */\n      0x17\n        /* \"#utility.yul\":12986:12989   */\n      dup4\n        /* \"#utility.yul\":12927:12994   */\n      tag_238\n      jump\t// in\n    tag_409:\n        /* \"#utility.yul\":12920:12994   */\n      swap2\n      pop\n        /* \"#utility.yul\":13003:13096   */\n      tag_410\n        /* \"#utility.yul\":13092:13095   */\n      dup3\n        /* \"#utility.yul\":13003:13096   */\n      tag_270\n      jump\t// in\n    tag_410:\n        /* \"#utility.yul\":13121:13123   */\n      0x20\n        /* \"#utility.yul\":13116:13119   */\n      dup3\n        /* \"#utility.yul\":13112:13124   */\n      add\n        /* \"#utility.yul\":13105:13124   */\n      swap1\n      pop\n        /* \"#utility.yul\":12764:13130   */\n      swap2\n      swap1\n      pop\n      jump\t// out\n        /* \"#utility.yul\":13136:13555   */\n    tag_153:\n        /* \"#utility.yul\":13302:13306   */\n      0x00\n        /* \"#utility.yul\":13340:13342   */\n      0x20\n        /* \"#utility.yul\":13329:13338   */\n      dup3\n        /* \"#utility.yul\":13325:13343   */\n      add\n        /* \"#utility.yul\":13317:13343   */\n      swap1\n      pop\n        /* \"#utility.yul\":13389:13398   */\n      dup2\n        /* \"#utility.yul\":13383:13387   */\n      dup2\n        /* \"#utility.yul\":13379:13399   */\n      sub\n        /* \"#utility.yul\":13375:13376   */\n      0x00\n        /* \"#utility.yul\":13364:13373   */\n      dup4\n        /* \"#utility.yul\":13360:13377   */\n      add\n        /* \"#utility.yul\":13353:13400   */\n      mstore\n        /* \"#utility.yul\":13417:13548   */\n      tag_412\n        /* \"#utility.yul\":13543:13547   */\n      dup2\n        /* \"#utility.yul\":13417:13548   */\n      tag_271\n      jump\t// in\n    tag_412:\n        /* \"#utility.yul\":13409:13548   */\n      swap1\n      pop\n        /* \"#utility.yul\":13136:13555   */\n      swap2\n      swap1\n      pop\n      jump\t// out\n        /* \"#utility.yul\":13561:13732   */\n    tag_272:\n        /* \"#utility.yul\":13701:13724   */\n      0x546f6b656e3a206275726e2066726f6d207a65726f0000000000000000000000\n        /* \"#utility.yul\":13697:13698   */\n      0x00\n        /* \"#utility.yul\":13689:13695   */\n      dup3\n        /* \"#utility.yul\":13685:13699   */\n      add\n        /* \"#utility.yul\":13678:13725   */\n      mstore\n        /* \"#utility.yul\":13561:13732   */\n      pop\n      jump\t// out\n        /* \"#utility.yul\":13738:14104   */\n    tag_273:\n        /* \"#utility.yul\":13880:13883   */\n      0x00\n        /* \"#utility.yul\":13901:13968   */\n      tag_415\n        /* \"#utility.yul\":13965:13967   */\n      0x15\n        /* \"#utility.yul\":13960:13963   */\n      dup4\n        /* \"#utility.yul\":13901:13968   */\n      tag_238\n      jump\t// in\n    tag_415:\n        /* \"#utility.yul\":13894:13968   */\n      swap2\n      pop\n        /* \"#utility.yul\":13977:14070   */\n      tag_416\n        /* \"#utility.yul\":14066:14069   */\n      dup3\n        /* \"#utility.yul\":13977:14070   */\n      tag_272\n      jump\t// in\n    tag_416:\n        /* \"#utility.yul\":14095:14097   */\n      0x20\n        /* \"#utility.yul\":14090:14093   */\n      dup3\n        /* \"#utility.yul\":14086:14098   */\n      add\n        /* \"#utility.yul\":14079:14098   */\n      swap1\n      pop\n        /* \"#utility.yul\":13738:14104   */\n      swap2\n      swap1\n      pop\n      jump\t// out\n        /* \"#utility.yul\":14110:14529   */\n    tag_171:\n        /* \"#utility.yul\":14276:14280   */\n      0x00\n        /* \"#utility.yul\":14314:14316   */\n      0x20\n        /* \"#utility.yul\":14303:14312   */\n      dup3\n        /* \"#utility.yul\":14299:14317   */\n      add\n        /* \"#utility.yul\":14291:14317   */\n      swap1\n      pop\n        /* \"#utility.yul\":14363:14372   */\n      dup2\n        /* \"#utility.yul\":14357:14361   */\n      dup2\n        /* \"#utility.yul\":14353:14373   */\n      sub\n        /* \"#utility.yul\":14349:14350   */\n      0x00\n        /* \"#utility.yul\":14338:14347   */\n      dup4\n        /* \"#utility.yul\":14334:14351   */\n      add\n        /* \"#utility.yul\":14327:14374   */\n      mstore\n        /* \"#utility.yul\":14391:14522   */\n      tag_418\n        /* \"#utility.yul\":14517:14521   */\n      dup2\n        /* \"#utility.yul\":14391:14522   */\n      tag_273\n      jump\t// in\n    tag_418:\n        /* \"#utility.yul\":14383:14522   */\n      swap1\n      pop\n        /* \"#utility.yul\":14110:14529   */\n      swap2\n      swap1\n      pop\n      jump\t// out\n        /* \"#utility.yul\":14535:14712   */\n    tag_274:\n        /* \"#utility.yul\":14675:14704   */\n      0x546f6b656e3a20696e73756666696369656e742062616c616e63650000000000\n        /* \"#utility.yul\":14671:14672   */\n      0x00\n        /* \"#utility.yul\":14663:14669   */\n      dup3\n        /* \"#utility.yul\":14659:14673   */\n      add\n        /* \"#utility.yul\":14652:14705   */\n      mstore\n        /* \"#utility.yul\":14535:14712   */\n      pop\n      jump\t// out\n        /* \"#utility.yul\":14718:15084   */\n    tag_275:\n        /* \"#utility.yul\":14860:14863   */\n      0x00\n        /* \"#utility.yul\":14881:14948   */\n      tag_421\n        /* \"#utility.yul\":14945:14947   */\n      0x1b\n        /* \"#utility.yul\":14940:14943   */\n      dup4\n        /* \"#utility.yul\":14881:14948   */\n      tag_238\n      jump\t// in\n    tag_421:\n        /* \"#utility.yul\":14874:14948   */\n      swap2\n      pop\n        /* \"#utility.yul\":14957:15050   */\n      tag_422\n        /* \"#utility.yul\":15046:15049   */\n      dup3\n        /* \"#utility.yul\":14957:15050   */\n      tag_274\n      jump\t// in\n    tag_422:\n        /* \"#utility.yul\":15075:15077   */\n      0x20\n        /* \"#utility.yul\":15070:15073   */\n      dup3\n        /* \"#utility.yul\":15066:15078   */\n      add\n        /* \"#utility.yul\":15059:15078   */\n      swap1\n      pop\n        /* \"#utility.yul\":14718:15084   */\n      swap2\n      swap1\n      pop\n      jump\t// out\n        /* \"#utility.yul\":15090:15509   */\n    tag_174:\n        /* \"#utility.yul\":15256:15260   */\n      0x00\n        /* \"#utility.yul\":15294:15296   */\n      0x20\n        /* \"#utility.yul\":15283:15292   */\n      dup3\n        /* \"#utility.yul\":15279:15297   */\n      add\n        /* \"#utility.yul\":15271:15297   */\n      swap1\n      pop\n        /* \"#utility.yul\":15343:15352   */\n      dup2\n        /* \"#utility.yul\":15337:15341   */\n      dup2\n        /* \"#utility.yul\":15333:15353   */\n      sub\n        /* \"#utility.yul\":15329:15330   */\n      0x00\n        /* \"#utility.yul\":15318:15327   */\n      dup4\n        /* \"#utility.yul\":15314:15331   */\n      add\n        /* \"#utility.yul\":15307:15354   */\n      mstore\n        /* \"#utility.yul\":15371:15502   */\n      tag_424\n        /* \"#utility.yul\":15497:15501   */\n      dup2\n        /* \"#utility.yul\":15371:15502   */\n      tag_275\n      jump\t// in\n    tag_424:\n        /* \"#utility.yul\":15363:15502   */\n      swap1\n      pop\n        /* \"#utility.yul\":15090:15509   */\n      swap2\n      swap1\n      pop\n      jump\t// out\n        /* \"#utility.yul\":15515:15709   */\n    tag_176:\n        /* \"#utility.yul\":15555:15559   */\n      0x00\n        /* \"#utility.yul\":15575:15595   */\n      tag_426\n        /* \"#utility.yul\":15593:15594   */\n      dup3\n        /* \"#utility.yul\":15575:15595   */\n      tag_248\n      jump\t// in\n    tag_426:\n        /* \"#utility.yul\":15570:15595   */\n      swap2\n      pop\n        /* \"#utility.yul\":15609:15629   */\n      tag_427\n        /* \"#utility.yul\":15627:15628   */\n      dup4\n        /* \"#utility.yul\":15609:15629   */\n      tag_248\n      jump\t// in\n    tag_427:\n        /* \"#utility.yul\":15604:15629   */\n      swap3\n      pop\n        /* \"#utility.yul\":15653:15654   */\n      dup3\n        /* \"#utility.yul\":15650:15651   */\n      dup3\n        /* \"#utility.yul\":15646:15655   */\n      sub\n        /* \"#utility.yul\":15638:15655   */\n      swap1\n      pop\n        /* \"#utility.yul\":15677:15678   */\n      dup2\n        /* \"#utility.yul\":15671:15675   */\n      dup2\n        /* \"#utility.yul\":15668:15679   */\n      gt\n        /* \"#utility.yul\":15665:15702   */\n      iszero\n      tag_428\n      jumpi\n        /* \"#utility.yul\":15682:15700   */\n      tag_429\n      tag_269\n      jump\t// in\n    tag_429:\n        /* \"#utility.yul\":15665:15702   */\n    tag_428:\n        /* \"#utility.yul\":15515:15709   */\n      swap3\n      swap2\n      pop\n      pop\n      jump\t// out\n        /* \"#utility.yul\":15715:15888   */\n    tag_276:\n        /* \"#utility.yul\":15855:15880   */\n      0x546f6b656e3a207472616e736665727320706175736564000000000000000000\n        /* \"#utility.yul\":15851:15852   */\n      0x00\n        /* \"#utility.yul\":15843:15849   */\n      dup3\n        /* \"#utility.yul\":15839:15853   */\n      add\n        /* \"#utility.yul\":15832:15881   */\n      mstore\n        /* \"#utility.yul\":15715:15888   */\n      pop\n      jump\t// out\n        /* \"#utility.yul\":15894:16260   */\n    tag_277:\n        /* \"#utility.yul\":16036:16039   */\n      0x00\n        /* \"#utility.yul\":16057:16124   */\n      tag_432\n        /* \"#utility.yul\":16121:16123   */\n      0x17\n        /* \"#utility.yul\":16116:16119   */\n      dup4\n        /* \"#utility.yul\":16057:16124   */\n      tag_238\n      jump\t// in\n    tag_432:\n        /* \"#utility.yul\":16050:16124   */\n      swap2\n      pop\n        /* \"#utility.yul\":16133:16226   */\n      tag_433\n        /* \"#utility.yul\":16222:16225   */\n      dup3\n        /* \"#utility.yul\":16133:16226   */\n      tag_276\n      jump\t// in\n    tag_433:\n        /* \"#utility.yul\":16251:16253   */\n      0x20\n        /* \"#utility.yul\":16246:16249   */\n      dup3\n        /* \"#utility.yul\":16242:16254   */\n      add\n        /* \"#utility.yul\":16235:16254   */\n      swap1\n      pop\n        /* \"#utility.yul\":15894:16260   */\n      swap2\n      swap1\n      pop\n      jump\t// out\n        /* \"#utility.yul\":16266:16685   */\n    tag_183:\n        /* \"#utility.yul\":16432:16436   */\n      0x00\n        /* \"#utility.yul\":16470:16472   */\n      0x20\n        /* \"#utility.yul\":16459:16468   */\n      dup3\n        /* \"#utility.yul\":16455:16473   */\n      add\n        /* \"#utility.yul\":16447:16473   */\n      swap1\n      pop\n        /* \"#utility.yul\":16519:16528   */\n      dup2\n        /* \"#utility.yul\":16513:16517   */\n      dup2\n        /* \"#utility.yul\":16509:16529   */\n      sub\n        /* \"#utility.yul\":16505:16506   */\n      0x00\n        /* \"#utility.yul\":16494:16503   */\n      dup4\n        /* \"#utility.yul\":16490:16507   */\n      add\n        /* \"#utility.yul\":16483:16530   */\n      mstore\n        /* \"#utility.yul\":16547:16678   */\n      tag_435\n        /* \"#utility.yul\":16673:16677   */\n      dup2\n        /* \"#utility.yul\":16547:16678   */\n      tag_277\n      jump\t// in\n    tag_435:\n        /* \"#utility.yul\":16539:16678   */\n      swap1\n      pop\n        /* \"#utility.yul\":16266:16685   */\n      swap2\n      swap1\n      pop\n      jump\t// out\n        /* \"#utility.yul\":16691:16864   */\n    tag_278:\n        /* \"#utility.yul\":16831:16856   */\n      0x546f6b656e3a207472616e7366657220746f207a65726f000000000000000000\n        /* \"#utility.yul\":16827:16828   */\n      0x00\n        /* \"#utility.yul\":16819:16825   */\n      dup3\n        /* \"#utility.yul\":16815:16829   */\n      add\n        /* \"#utility.yul\":16808:16857   */\n      mstore\n        /* \"#utility.yul\":16691:16864   */\n      pop\n      jump\t// out\n        /* \"#utility.yul\":16870:17236   */\n    tag_279:\n        /* \"#utility.yul\":17012:17015   */\n      0x00\n        /* \"#utility.yul\":17033:17100   */\n      tag_438\n        /* \"#utility.yul\":17097:17099   */\n      0x17\n        /* \"#utility.yul\":17092:17095   */\n      dup4\n        /* \"#utility.yul\":17033:17100   */\n      tag_238\n      jump\t// in\n    tag_438:\n        /* \"#utility.yul\":17026:17100   */\n      swap2\n      pop\n        /* \"#utility.yul\":17109:17202   */\n      tag_439\n        /* \"#utility.yul\":17198:17201   */\n      dup3\n        /* \"#utility.yul\":17109:17202   */\n      tag_278\n      jump\t// in\n    tag_439:\n        /* \"#utility.yul\":17227:17229   */\n      0x20\n        /* \"#utility.yul\":17222:17225   */\n      dup3\n        /* \"#utility.yul\":17218:17230   */\n      add\n        /* \"#utility.yul\":17211:17230   */\n      swap1\n      pop\n        /* \"#utility.yul\":16870:17236   */\n      swap2\n      swap1\n      pop\n      jump\t// out\n        /* \"#utility.yul\":17242:17661   */\n    tag_187:\n        /* \"#utility.yul\":17408:17412   */\n      0x00\n        /* \"#utility.yul\":17446:17448   */\n      0x20\n        /* \"#utility.yul\":17435:17444   */\n      dup3\n        /* \"#utility.yul\":17431:17449   */\n      add\n        /* \"#utility.yul\":17423:17449   */\n      swap1\n      pop\n        /* \"#utility.yul\":17495:17504   */\n      dup2\n        /* \"#utility.yul\":17489:17493   */\n      dup2\n        /* \"#utility.yul\":17485:17505   */\n      sub\n        /* \"#utility.yul\":17481:17482   */\n      0x00\n        /* \"#utility.yul\":17470:17479   */\n      dup4\n        /* \"#utility.yul\":17466:17483   */\n      add\n        /* \"#utility.yul\":17459:17506   */\n      mstore\n        /* \"#utility.yul\":17523:17654   */\n      tag_441\n        /* \"#utility.yul\":17649:17653   */\n      dup2\n        /* \"#utility.yul\":17523:17654   */\n      tag_279\n      jump\t// in\n    tag_441:\n        /* \"#utility.yul\":17515:17654   */\n      swap1\n      pop\n        /* \"#utility.yul\":17242:17661   */\n      swap2\n      swap1\n      pop\n      jump\t// out\n        /* \"#utility.yul\":17667:17843   */\n    tag_280:\n        /* \"#utility.yul\":17807:17835   */\n      0x4f776e61626c653a206e6577206f776e6572206973207a65726f000000000000\n        /* \"#utility.yul\":17803:17804   */\n      0x00\n        /* \"#utility.yul\":17795:17801   */\n      dup3\n        /* \"#utility.yul\":17791:17805   */\n      add\n        /* \"#utility.yul\":17784:17836   */\n      mstore\n        /* \"#utility.yul\":17667:17843   */\n      pop\n      jump\t// out\n        /* \"#utility.yul\":17849:18215   */\n    tag_281:\n        /* \"#utility.yul\":17991:17994   */\n      0x00\n        /* \"#utility.yul\":18012:18079   */\n      tag_444\n        /* \"#utility.yul\":18076:18078   */\n      0x1a\n        /* \"#utility.yul\":18071:18074   */\n      dup4\n        /* \"#utility.yul\":18012:18079   */\n      tag_238\n      jump\t// in\n    tag_444:\n        /* \"#utility.yul\":18005:18079   */\n      swap2\n      pop\n        /* \"#utility.yul\":18088:18181   */\n      tag_445\n        /* \"#utility.yul\":18177:18180   */\n      dup3\n        /* \"#utility.yul\":18088:18181   */\n      tag_280\n      jump\t// in\n    tag_445:\n        /* \"#utility.yul\":18206:18208   */\n      0x20\n        /* \"#utility.yul\":18201:18204   */\n      dup3\n        /* \"#utility.yul\":18197:18209   */\n      add\n        /* \"#utility.yul\":18190:18209   */\n      swap1\n      pop\n        /* \"#utility.yul\":17849:18215   */\n      swap2\n      swap1\n      pop\n      jump\t// out\n        /* \"#utility.yul\":18221:18640   */\n    tag_205:\n        /* \"#utility.yul\":18387:18391   */\n      0x00\n        /* \"#utility.yul\":18425:18427   */\n      0x20\n        /* \"#utility.yul\":18414:18423   */\n      dup3\n        /* \"#utility.yul\":18410:18428   */\n      add\n        /* \"#utility.yul\":18402:18428   */\n      swap1\n      pop\n        /* \"#utility.yul\":18474:18483   */\n      dup2\n        /* \"#utility.yul\":18468:18472   */\n      dup2\n        /* \"#utility.yul\":18464:18484   */\n      sub\n        /* \"#utility.yul\":18460:18461   */\n      0x00\n        /* \"#utility.yul\":18449:18458   */\n      dup4\n        /* \"#utility.yul\":18445:18462   */\n      add\n        /* \"#utility.yul\":18438:18485   */\n      mstore\n        /* \"#utility.yul\":18502:18633   */\n      tag_447\n        /* \"#utility.yul\":18628:18632   */\n      dup2\n        /* \"#utility.yul\":18502:18633   */\n      tag_281\n      jump\t// in\n    tag_447:\n        /* \"#utility.yul\":18494:18633   */\n      swap1\n      pop\n        /* \"#utility.yul\":18221:18640   */\n      swap2\n      swap1\n      pop\n      jump\t// out\n        /* \"#utility.yul\":18646:18762   */\n    tag_282:\n        /* \"#utility.yul\":18716:18737   */\n      tag_449\n        /* \"#utility.yul\":18731:18736   */\n      dup2\n        /* \"#utility.yul\":18716:18737   */\n      tag_254\n      jump\t// in\n    tag_449:\n        /* \"#utility.yul\":18709:18714   */\n      dup2\n        /* \"#utility.yul\":18706:18738   */\n      eq\n        /* \"#utility.yul\":18696:18756   */\n      tag_450\n      jumpi\n        /* \"#utility.yul\":18752:18753   */\n      0x00\n        /* \"#utility.yul\":18749:18750   */\n      0x00\n        /* \"#utility.yul\":18742:18754   */\n      revert\n        /* \"#utility.yul\":18696:18756   */\n    tag_450:\n        /* \"#utility.yul\":18646:18762   */\n      pop\n      jump\t// out\n        /* \"#utility.yul\":18768:18905   */\n    tag_283:\n        /* \"#utility.yul\":18822:18827   */\n      0x00\n        /* \"#utility.yul\":18853:18859   */\n      dup2\n        /* \"#utility.yul\":18847:18860   */\n      mload\n        /* \"#utility.yul\":18838:18860   */\n      swap1\n      pop\n        /* \"#utility.yul\":18869:18899   */\n      tag_452\n        /* \"#utility.yul\":18893:18898   */\n      dup2\n        /* \"#utility.yul\":18869:18899   */\n      tag_282\n      jump\t// in\n    tag_452:\n        /* \"#utility.yul\":18768:18905   */\n      swap3\n      swap2\n      pop\n      pop\n      jump\t// out\n        /* \"#utility.yul\":18911:19256   */\n    tag_211:\n        /* \"#utility.yul\":18978:18984   */\n      0x00\n        /* \"#utility.yul\":19027:19029   */\n      0x20\n        /* \"#utility.yul\":19015:19024   */\n      dup3\n        /* \"#utility.yul\":19006:19013   */\n      dup5\n        /* \"#utility.yul\":19002:19025   */\n      sub\n        /* \"#utility.yul\":18998:19030   */\n      slt\n        /* \"#utility.yul\":18995:19114   */\n      iszero\n      tag_454\n      jumpi\n        /* \"#utility.yul\":19033:19112   */\n      tag_455\n      tag_231\n      jump\t// in\n    tag_455:\n        /* \"#utility.yul\":18995:19114   */\n    tag_454:\n        /* \"#utility.yul\":19153:19154   */\n      0x00\n        /* \"#utility.yul\":19178:19239   */\n      tag_456\n        /* \"#utility.yul\":19231:19238   */\n      dup5\n        /* \"#utility.yul\":19222:19228   */\n      dup3\n        /* \"#utility.yul\":19211:19220   */\n      dup6\n        /* \"#utility.yul\":19207:19229   */\n      add\n        /* \"#utility.yul\":19178:19239   */\n      tag_283\n      jump\t// in\n    tag_456:\n        /* \"#utility.yul\":19168:19239   */\n      swap2\n      pop\n        /* \"#utility.yul\":19124:19249   */\n      pop\n        /* \"#utility.yul\":18911:19256   */\n      swap3\n      swap2\n      pop\n      pop\n      jump\t// out\n        /* \"#utility.yul\":19262:19433   */\n    tag_284:\n        /* \"#utility.yul\":19402:19425   */\n      0x546f6b656e3a2077616c6c6574206e6f74204b59430000000000000000000000\n        /* \"#utility.yul\":19398:19399   */\n      0x00\n        /* \"#utility.yul\":19390:19396   */\n      dup3\n        /* \"#utility.yul\":19386:19400   */\n      add\n        /* \"#utility.yul\":19379:19426   */\n      mstore\n        /* \"#utility.yul\":19262:19433   */\n      pop\n      jump\t// out\n        /* \"#utility.yul\":19439:19805   */\n    tag_285:\n        /* \"#utility.yul\":19581:19584   */\n      0x00\n        /* \"#utility.yul\":19602:19669   */\n      tag_459\n        /* \"#utility.yul\":19666:19668   */\n      0x15\n        /* \"#utility.yul\":19661:19664   */\n      dup4\n        /* \"#utility.yul\":19602:19669   */\n      tag_238\n      jump\t// in\n    tag_459:\n        /* \"#utility.yul\":19595:19669   */\n      swap2\n      pop\n        /* \"#utility.yul\":19678:19771   */\n      tag_460\n        /* \"#utility.yul\":19767:19770   */\n      dup3\n        /* \"#utility.yul\":19678:19771   */\n      tag_284\n      jump\t// in\n    tag_460:\n        /* \"#utility.yul\":19796:19798   */\n      0x20\n        /* \"#utility.yul\":19791:19794   */\n      dup3\n        /* \"#utility.yul\":19787:19799   */\n      add\n        /* \"#utility.yul\":19780:19799   */\n      swap1\n      pop\n        /* \"#utility.yul\":19439:19805   */\n      swap2\n      swap1\n      pop\n      jump\t// out\n        /* \"#utility.yul\":19811:20230   */\n    tag_214:\n        /* \"#utility.yul\":19977:19981   */\n      0x00\n        /* \"#utility.yul\":20015:20017   */\n      0x20\n        /* \"#utility.yul\":20004:20013   */\n      dup3\n        /* \"#utility.yul\":20000:20018   */\n      add\n        /* \"#utility.yul\":19992:20018   */\n      swap1\n      pop\n        /* \"#utility.yul\":20064:20073   */\n      dup2\n        /* \"#utility.yul\":20058:20062   */\n      dup2\n        /* \"#utility.yul\":20054:20074   */\n      sub\n        /* \"#utility.yul\":20050:20051   */\n      0x00\n        /* \"#utility.yul\":20039:20048   */\n      dup4\n        /* \"#utility.yul\":20035:20052   */\n      add\n        /* \"#utility.yul\":20028:20075   */\n      mstore\n        /* \"#utility.yul\":20092:20223   */\n      tag_462\n        /* \"#utility.yul\":20218:20222   */\n      dup2\n        /* \"#utility.yul\":20092:20223   */\n      tag_285\n      jump\t// in\n    tag_462:\n        /* \"#utility.yul\":20084:20223   */\n      swap1\n      pop\n        /* \"#utility.yul\":19811:20230   */\n      swap2\n      swap1\n      pop\n      jump\t// out\n        /* \"#utility.yul\":20236:20411   */\n    tag_286:\n        /* \"#utility.yul\":20376:20403   */\n      0x546f6b656e3a206d6178537570706c7920657863656564656400000000000000\n        /* \"#utility.yul\":20372:20373   */\n      0x00\n        /* \"#utility.yul\":20364:20370   */\n      dup3\n        /* \"#utility.yul\":20360:20374   */\n      add\n        /* \"#utility.yul\":20353:20404   */\n      mstore\n        /* \"#utility.yul\":20236:20411   */\n      pop\n      jump\t// out\n        /* \"#utility.yul\":20417:20783   */\n    tag_287:\n        /* \"#utility.yul\":20559:20562   */\n      0x00\n        /* \"#utility.yul\":20580:20647   */\n      tag_465\n        /* \"#utility.yul\":20644:20646   */\n      0x19\n        /* \"#utility.yul\":20639:20642   */\n      dup4\n        /* \"#utility.yul\":20580:20647   */\n      tag_238\n      jump\t// in\n    tag_465:\n        /* \"#utility.yul\":20573:20647   */\n      swap2\n      pop\n        /* \"#utility.yul\":20656:20749   */\n      tag_466\n        /* \"#utility.yul\":20745:20748   */\n      dup3\n        /* \"#utility.yul\":20656:20749   */\n      tag_286\n      jump\t// in\n    tag_466:\n        /* \"#utility.yul\":20774:20776   */\n      0x20\n        /* \"#utility.yul\":20769:20772   */\n      dup3\n        /* \"#utility.yul\":20765:20777   */\n      add\n        /* \"#utility.yul\":20758:20777   */\n      swap1\n      pop\n        /* \"#utility.yul\":20417:20783   */\n      swap2\n      swap1\n      pop\n      jump\t// out\n        /* \"#utility.yul\":20789:21208   */\n    tag_220:\n        /* \"#utility.yul\":20955:20959   */\n      0x00\n        /* \"#utility.yul\":20993:20995   */\n      0x20\n        /* \"#utility.yul\":20982:20991   */\n      dup3\n        /* \"#utility.yul\":20978:20996   */\n      add\n        /* \"#utility.yul\":20970:20996   */\n      swap1\n      pop\n        /* \"#utility.yul\":21042:21051   */\n      dup2\n        /* \"#utility.yul\":21036:21040   */\n      dup2\n        /* \"#utility.yul\":21032:21052   */\n      sub\n        /* \"#utility.yul\":21028:21029   */\n      0x00\n        /* \"#utility.yul\":21017:21026   */\n      dup4\n        /* \"#utility.yul\":21013:21030   */\n      add\n        /* \"#utility.yul\":21006:21053   */\n      mstore\n        /* \"#utility.yul\":21070:21201   */\n      tag_468\n        /* \"#utility.yul\":21196:21200   */\n      dup2\n        /* \"#utility.yul\":21070:21201   */\n      tag_287\n      jump\t// in\n    tag_468:\n        /* \"#utility.yul\":21062:21201   */\n      swap1\n      pop\n        /* \"#utility.yul\":20789:21208   */\n      swap2\n      swap1\n      pop\n      jump\t// out\n        /* \"#utility.yul\":21214:21624   */\n    tag_224:\n        /* \"#utility.yul\":21254:21261   */\n      0x00\n        /* \"#utility.yul\":21277:21297   */\n      tag_470\n        /* \"#utility.yul\":21295:21296   */\n      dup3\n        /* \"#utility.yul\":21277:21297   */\n      tag_248\n      jump\t// in\n    tag_470:\n        /* \"#utility.yul\":21272:21297   */\n      swap2\n      pop\n        /* \"#utility.yul\":21311:21331   */\n      tag_471\n        /* \"#utility.yul\":21329:21330   */\n      dup4\n        /* \"#utility.yul\":21311:21331   */\n      tag_248\n      jump\t// in\n    tag_471:\n        /* \"#utility.yul\":21306:21331   */\n      swap3\n      pop\n        /* \"#utility.yul\":21366:21367   */\n      dup3\n        /* \"#utility.yul\":21363:21364   */\n      dup3\n        /* \"#utility.yul\":21359:21368   */\n      mul\n        /* \"#utility.yul\":21388:21418   */\n      tag_472\n        /* \"#utility.yul\":21406:21417   */\n      dup2\n        /* \"#utility.yul\":21388:21418   */\n      tag_248\n      jump\t// in\n    tag_472:\n        /* \"#utility.yul\":21377:21418   */\n      swap2\n      pop\n        /* \"#utility.yul\":21567:21568   */\n      dup3\n        /* \"#utility.yul\":21558:21565   */\n      dup3\n        /* \"#utility.yul\":21554:21569   */\n      div\n        /* \"#utility.yul\":21551:21552   */\n      dup5\n        /* \"#utility.yul\":21548:21570   */\n      eq\n        /* \"#utility.yul\":21528:21529   */\n      dup4\n        /* \"#utility.yul\":21521:21530   */\n      iszero\n        /* \"#utility.yul\":21501:21584   */\n      or\n        /* \"#utility.yul\":21478:21617   */\n      tag_473\n      jumpi\n        /* \"#utility.yul\":21597:21615   */\n      tag_474\n      tag_269\n      jump\t// in\n    tag_474:\n        /* \"#utility.yul\":21478:21617   */\n    tag_473:\n        /* \"#utility.yul\":21262:21624   */\n      pop\n        /* \"#utility.yul\":21214:21624   */\n      swap3\n      swap2\n      pop\n      pop\n      jump\t// out\n        /* \"#utility.yul\":21630:21810   */\n    tag_288:\n        /* \"#utility.yul\":21678:21755   */\n      0x4e487b7100000000000000000000000000000000000000000000000000000000\n        /* \"#utility.yul\":21675:21676   */\n      0x00\n        /* \"#utility.yul\":21668:21756   */\n      mstore\n        /* \"#utility.yul\":21775:21779   */\n      0x12\n        /* \"#utility.yul\":21772:21773   */\n      0x04\n        /* \"#utility.yul\":21765:21780   */\n      mstore\n        /* \"#utility.yul\":21799:21803   */\n      0x24\n        /* \"#utility.yul\":21796:21797   */\n      0x00\n        /* \"#utility.yul\":21789:21804   */\n      revert\n        /* \"#utility.yul\":21816:22001   */\n    tag_226:\n        /* \"#utility.yul\":21856:21857   */\n      0x00\n        /* \"#utility.yul\":21873:21893   */\n      tag_477\n        /* \"#utility.yul\":21891:21892   */\n      dup3\n        /* \"#utility.yul\":21873:21893   */\n      tag_248\n      jump\t// in\n    tag_477:\n        /* \"#utility.yul\":21868:21893   */\n      swap2\n      pop\n        /* \"#utility.yul\":21907:21927   */\n      tag_478\n        /* \"#utility.yul\":21925:21926   */\n      dup4\n        /* \"#utility.yul\":21907:21927   */\n      tag_248\n      jump\t// in\n    tag_478:\n        /* \"#utility.yul\":21902:21927   */\n      swap3\n      pop\n        /* \"#utility.yul\":21946:21947   */\n      dup3\n        /* \"#utility.yul\":21936:21971   */\n      tag_479\n      jumpi\n        /* \"#utility.yul\":21951:21969   */\n      tag_480\n      tag_288\n      jump\t// in\n    tag_480:\n        /* \"#utility.yul\":21936:21971   */\n    tag_479:\n        /* \"#utility.yul\":21993:21994   */\n      dup3\n        /* \"#utility.yul\":21990:21991   */\n      dup3\n        /* \"#utility.yul\":21986:21995   */\n      div\n        /* \"#utility.yul\":21981:21995   */\n      swap1\n      pop\n        /* \"#utility.yul\":21816:22001   */\n      swap3\n      swap2\n      pop\n      pop\n      jump\t// out\n        /* \"#utility.yul\":22007:22188   */\n    tag_289:\n        /* \"#utility.yul\":22147:22180   */\n      0x546f6b656e3a20657863656564732032302520696e766573746f722063617000\n        /* \"#utility.yul\":22143:22144   */\n      0x00\n        /* \"#utility.yul\":22135:22141   */\n      dup3\n        /* \"#utility.yul\":22131:22145   */\n      add\n        /* \"#utility.yul\":22124:22181   */\n      mstore\n        /* \"#utility.yul\":22007:22188   */\n      pop\n      jump\t// out\n        /* \"#utility.yul\":22194:22560   */\n    tag_290:\n        /* \"#utility.yul\":22336:22339   */\n      0x00\n        /* \"#utility.yul\":22357:22424   */\n      tag_483\n        /* \"#utility.yul\":22421:22423   */\n      0x1f\n        /* \"#utility.yul\":22416:22419   */\n      dup4\n        /* \"#utility.yul\":22357:22424   */\n      tag_238\n      jump\t// in\n    tag_483:\n        /* \"#utility.yul\":22350:22424   */\n      swap2\n      pop\n        /* \"#utility.yul\":22433:22526   */\n      tag_484\n        /* \"#utility.yul\":22522:22525   */\n      dup3\n        /* \"#utility.yul\":22433:22526   */\n      tag_289\n      jump\t// in\n    tag_484:\n        /* \"#utility.yul\":22551:22553   */\n      0x20\n        /* \"#utility.yul\":22546:22549   */\n      dup3\n        /* \"#utility.yul\":22542:22554   */\n      add\n        /* \"#utility.yul\":22535:22554   */\n      swap1\n      pop\n        /* \"#utility.yul\":22194:22560   */\n      swap2\n      swap1\n      pop\n      jump\t// out\n        /* \"#utility.yul\":22566:22985   */\n    tag_229:\n        /* \"#utility.yul\":22732:22736   */\n      0x00\n        /* \"#utility.yul\":22770:22772   */\n      0x20\n        /* \"#utility.yul\":22759:22768   */\n      dup3\n        /* \"#utility.yul\":22755:22773   */\n      add\n        /* \"#utility.yul\":22747:22773   */\n      swap1\n      pop\n        /* \"#utility.yul\":22819:22828   */\n      dup2\n        /* \"#utility.yul\":22813:22817   */\n      dup2\n        /* \"#utility.yul\":22809:22829   */\n      sub\n        /* \"#utility.yul\":22805:22806   */\n      0x00\n        /* \"#utility.yul\":22794:22803   */\n      dup4\n        /* \"#utility.yul\":22790:22807   */\n      add\n        /* \"#utility.yul\":22783:22830   */\n      mstore\n        /* \"#utility.yul\":22847:22978   */\n      tag_486\n        /* \"#utility.yul\":22973:22977   */\n      dup2\n        /* \"#utility.yul\":22847:22978   */\n      tag_290\n      jump\t// in\n    tag_486:\n        /* \"#utility.yul\":22839:22978   */\n      swap1\n      pop\n        /* \"#utility.yul\":22566:22985   */\n      swap2\n      swap1\n      pop\n      jump\t// out\n\n    auxdata: 0xa26469706673582212207db1cb2eb63f174856f4e6728c5c3bb458039b8655c26b9bc0efccb19eb7852364736f6c634300081e0033\n}\n",
				"bytecode": {
					"linkReferences": {},
					"object": "608060405234801561000f575f5ffd5b50604051612d99380380612d99833981810160405281019061003191906104e2565b855f73ffffffffffffffffffffffffffffffffffffffff168173ffffffffffffffffffffffffffffffffffffffff16036100a0576040517f08c379a0000000000000000000000000000000000000000000000000000000008152600401610097906105fd565b60405180910390fd5b805f5f6101000a81548173ffffffffffffffffffffffffffffffffffffffff021916908373ffffffffffffffffffffffffffffffffffffffff1602179055508073ffffffffffffffffffffffffffffffffffffffff165f73ffffffffffffffffffffffffffffffffffffffff167f8be0079c531659141344cd1fd0a4f28419497f9722a3daafe3b4186f6b6457e060405160405180910390a3505f73ffffffffffffffffffffffffffffffffffffffff168573ffffffffffffffffffffffffffffffffffffffff16036101a8576040517f08c379a000000000000000000000000000000000000000000000000000000000815260040161019f90610665565b60405180910390fd5b5f73ffffffffffffffffffffffffffffffffffffffff168173ffffffffffffffffffffffffffffffffffffffff1603610216576040517f08c379a000000000000000000000000000000000000000000000000000000000815260040161020d906106cd565b60405180910390fd5b8460065f6101000a81548173ffffffffffffffffffffffffffffffffffffffff021916908373ffffffffffffffffffffffffffffffffffffffff160217905550836001908161026591906108f2565b50826002908161027591906108f2565b508160048190555080600a5f6101000a81548173ffffffffffffffffffffffffffffffffffffffff021916908373ffffffffffffffffffffffffffffffffffffffff1602179055503360075f6101000a81548173ffffffffffffffffffffffffffffffffffffffff021916908373ffffffffffffffffffffffffffffffffffffffff1602179055505050505050506109c1565b5f604051905090565b5f5ffd5b5f5ffd5b5f73ffffffffffffffffffffffffffffffffffffffff82169050919050565b5f61034282610319565b9050919050565b61035281610338565b811461035c575f5ffd5b50565b5f8151905061036d81610349565b92915050565b5f5ffd5b5f5ffd5b5f601f19601f8301169050919050565b7f4e487b71000000000000000000000000000000000000000000000000000000005f52604160045260245ffd5b6103c18261037b565b810181811067ffffffffffffffff821117156103e0576103df61038b565b5b80604052505050565b5f6103f2610308565b90506103fe82826103b8565b919050565b5f67ffffffffffffffff82111561041d5761041c61038b565b5b6104268261037b565b9050602081019050919050565b8281835e5f83830152505050565b5f61045361044e84610403565b6103e9565b90508281526020810184848401111561046f5761046e610377565b5b61047a848285610433565b509392505050565b5f82601f83011261049657610495610373565b5b81516104a6848260208601610441565b91505092915050565b5f819050919050565b6104c1816104af565b81146104cb575f5ffd5b50565b5f815190506104dc816104b8565b92915050565b5f5f5f5f5f5f60c087890312156104fc576104fb610311565b5b5f61050989828a0161035f565b965050602061051a89828a0161035f565b955050604087015167ffffffffffffffff81111561053b5761053a610315565b5b61054789828a01610482565b945050606087015167ffffffffffffffff81111561056857610567610315565b5b61057489828a01610482565b935050608061058589828a016104ce565b92505060a061059689828a0161035f565b9150509295509295509295565b5f82825260208201905092915050565b7f4f776e61626c653a206f776e6572206973207a65726f000000000000000000005f82015250565b5f6105e76016836105a3565b91506105f2826105b3565b602082019050919050565b5f6020820190508181035f830152610614816105db565b9050919050565b7f546f6b656e3a2070726f6a6563744f776e6572207a65726f00000000000000005f82015250565b5f61064f6018836105a3565b915061065a8261061b565b602082019050919050565b5f6020820190508181035f83015261067c81610643565b9050919050565b7f546f6b656e3a206964656e746974795265676973747279207a65726f000000005f82015250565b5f6106b7601c836105a3565b91506106c282610683565b602082019050919050565b5f6020820190508181035f8301526106e4816106ab565b9050919050565b5f81519050919050565b7f4e487b71000000000000000000000000000000000000000000000000000000005f52602260045260245ffd5b5f600282049050600182168061073957607f821691505b60208210810361074c5761074b6106f5565b5b50919050565b5f819050815f5260205f209050919050565b5f6020601f8301049050919050565b5f82821b905092915050565b5f600883026107ae7fffffffffffffffffffffffffffffffffffffffffffffffffffffffffffffffff82610773565b6107b88683610773565b95508019841693508086168417925050509392505050565b5f819050919050565b5f6107f36107ee6107e9846104af565b6107d0565b6104af565b9050919050565b5f819050919050565b61080c836107d9565b610820610818826107fa565b84845461077f565b825550505050565b5f5f905090565b610837610828565b610842818484610803565b505050565b5b818110156108655761085a5f8261082f565b600181019050610848565b5050565b601f8211156108aa5761087b81610752565b61088484610764565b81016020851015610893578190505b6108a761089f85610764565b830182610847565b50505b505050565b5f82821c905092915050565b5f6108ca5f19846008026108af565b1980831691505092915050565b5f6108e283836108bb565b9150826002028217905092915050565b6108fb826106eb565b67ffffffffffffffff8111156109145761091361038b565b5b61091e8254610722565b610929828285610869565b5f60209050601f83116001811461095a575f8415610948578287015190505b61095285826108d7565b8655506109b9565b601f19841661096886610752565b5f5b8281101561098f5784890151825560018201915060208501945060208101905061096a565b868310156109ac57848901516109a8601f8916826108bb565b8355505b6001600288020188555050505b505050505050565b6123cb806109ce5f395ff3fe608060405234801561000f575f5ffd5b5060043610610140575f3560e01c806370a08231116100b6578063a4475ce41161007a578063a4475ce414610306578063a9059cbb14610324578063c45a015514610354578063d5abeb0114610372578063daf6ca3014610390578063f2fde38b146103ae57610140565b806370a08231146102745780638456cb59146102a45780638da5cb5b146102ae57806395d89b41146102cc5780639dc29fac146102ea57610140565b80631f58a309116101085780631f58a309146101d8578063313ce567146101f65780633f4ba83a1461021457806340c10f191461021e5780635c975abb1461023a57806369fb9aaa1461025857610140565b80630593d2441461014457806306fdde0314610160578063134e18f41461017e57806317de3c841461019c57806318160ddd146101ba575b5f5ffd5b61015e6004803603810190610159919061191d565b6103ca565b005b6101686105db565b60405161017591906119b8565b60405180910390f35b610186610667565b6040516101939190611a33565b60405180910390f35b6101a461068c565b6040516101b19190611a5b565b60405180910390f35b6101c26106b1565b6040516101cf9190611a8c565b60405180910390f35b6101e06106b7565b6040516101ed9190611a8c565b60405180910390f35b6101fe6106bc565b60405161020b9190611ac0565b60405180910390f35b61021c6106c0565b005b61023860048036038101906102339190611b03565b6107ad565b005b610242610b1e565b60405161024f9190611b5b565b60405180910390f35b610272600480360381019061026d919061191d565b610b31565b005b61028e6004803603810190610289919061191d565b610ceb565b60405161029b9190611a8c565b60405180910390f35b6102ac610d00565b005b6102b6610dee565b6040516102c39190611a5b565b60405180910390f35b6102d4610e12565b6040516102e191906119b8565b60405180910390f35b61030460048036038101906102ff9190611b03565b610e9e565b005b61030e6111ea565b60405161031b9190611a5b565b60405180910390f35b61033e60048036038101906103399190611b03565b61120f565b60405161034b9190611b5b565b60405180910390f35b61035c61150d565b6040516103699190611a5b565b60405180910390f35b61037a611532565b6040516103879190611a8c565b60405180910390f35b610398611538565b6040516103a59190611a5b565b60405180910390f35b6103c860048036038101906103c3919061191d565b61155d565b005b5f5f9054906101000a900473ffffffffffffffffffffffffffffffffffffffff1673ffffffffffffffffffffffffffffffffffffffff163373ffffffffffffffffffffffffffffffffffffffff161480610470575060095f9054906101000a900473ffffffffffffffffffffffffffffffffffffffff1673ffffffffffffffffffffffffffffffffffffffff163373ffffffffffffffffffffffffffffffffffffffff16145b6104af576040517f08c379a00000000000000000000000000000000000000000000000000000000081526004016104a690611be4565b60405180910390fd5b5f73ffffffffffffffffffffffffffffffffffffffff168173ffffffffffffffffffffffffffffffffffffffff160361051d576040517f08c379a000000000000000000000000000000000000000000000000000000000815260040161051490611c4c565b60405180910390fd5b8073ffffffffffffffffffffffffffffffffffffffff1660085f9054906101000a900473ffffffffffffffffffffffffffffffffffffffff1673ffffffffffffffffffffffffffffffffffffffff167f53d4126a9127dd39595defb493db8f2cc8d4eefa5ed42a7388f42ff09160c50160405160405180910390a38060085f6101000a81548173ffffffffffffffffffffffffffffffffffffffff021916908373ffffffffffffffffffffffffffffffffffffffff16021790555050565b600180546105e890611c97565b80601f016020809104026020016040519081016040528092919081815260200182805461061490611c97565b801561065f5780601f106106365761010080835404028352916020019161065f565b820191905f5260205f20905b81548152906001019060200180831161064257829003601f168201915b505050505081565b600a5f9054906101000a900473ffffffffffffffffffffffffffffffffffffffff1681565b60095f9054906101000a900473ffffffffffffffffffffffffffffffffffffffff1681565b60035481565b601481565b5f81565b5f5f9054906101000a900473ffffffffffffffffffffffffffffffffffffffff1673ffffffffffffffffffffffffffffffffffffffff163373ffffffffffffffffffffffffffffffffffffffff161461074e576040517f08c379a000000000000000000000000000000000000000000000000000000000815260040161074590611d11565b60405180910390fd5b5f600a60146101000a81548160ff0219169083151502179055503373ffffffffffffffffffffffffffffffffffffffff167f5db9ee0a495bf2e6ff9c91a7834c1ba4fdd244a5e8aa4e537bd38aeae4b073aa60405160405180910390a2565b60065f9054906101000a900473ffffffffffffffffffffffffffffffffffffffff1673ffffffffffffffffffffffffffffffffffffffff163373ffffffffffffffffffffffffffffffffffffffff16148061085357505f5f9054906101000a900473ffffffffffffffffffffffffffffffffffffffff1673ffffffffffffffffffffffffffffffffffffffff163373ffffffffffffffffffffffffffffffffffffffff16145b806108aa575060085f9054906101000a900473ffffffffffffffffffffffffffffffffffffffff1673ffffffffffffffffffffffffffffffffffffffff163373ffffffffffffffffffffffffffffffffffffffff16145b6108e9576040517f08c379a00000000000000000000000000000000000000000000000000000000081526004016108e090611d79565b60405180910390fd5b5f73ffffffffffffffffffffffffffffffffffffffff168273ffffffffffffffffffffffffffffffffffffffff1603610957576040517f08c379a000000000000000000000000000000000000000000000000000000000815260040161094e90611de1565b60405180910390fd5b5f8111610999576040517f08c379a000000000000000000000000000000000000000000000000000000000815260040161099090611e49565b60405180910390fd5b6109a282611715565b6109ab816117f0565b6109fc8160055f8573ffffffffffffffffffffffffffffffffffffffff1673ffffffffffffffffffffffffffffffffffffffff1681526020019081526020015f20546109f79190611e94565b61184f565b8060055f8473ffffffffffffffffffffffffffffffffffffffff1673ffffffffffffffffffffffffffffffffffffffff1681526020019081526020015f205f828254610a489190611e94565b925050819055508060035f828254610a609190611e94565b925050819055508173ffffffffffffffffffffffffffffffffffffffff167f0f6798a560793a54c3bcfe86a93cde1e73087d944c0ea20544137d412139688582604051610aad9190611a8c565b60405180910390a28173ffffffffffffffffffffffffffffffffffffffff165f73ffffffffffffffffffffffffffffffffffffffff167fddf252ad1be2c89b69c2b068fc378daa952ba7f163c4a11628f55a4df523b3ef83604051610b129190611a8c565b60405180910390a35050565b600a60149054906101000a900460ff1681565b5f5f9054906101000a900473ffffffffffffffffffffffffffffffffffffffff1673ffffffffffffffffffffffffffffffffffffffff163373ffffffffffffffffffffffffffffffffffffffff1614610bbf576040517f08c379a0000000000000000000000000000000000000000000000000000000008152600401610bb690611d11565b60405180910390fd5b5f73ffffffffffffffffffffffffffffffffffffffff168173ffffffffffffffffffffffffffffffffffffffff1603610c2d576040517f08c379a0000000000000000000000000000000000000000000000000000000008152600401610c2490611f11565b60405180910390fd5b8073ffffffffffffffffffffffffffffffffffffffff1660095f9054906101000a900473ffffffffffffffffffffffffffffffffffffffff1673ffffffffffffffffffffffffffffffffffffffff167f9f4583ea13e020de4cb3b03f413f9bc832ca78e7af5680dfed1a8e80a6be81f760405160405180910390a38060095f6101000a81548173ffffffffffffffffffffffffffffffffffffffff021916908373ffffffffffffffffffffffffffffffffffffffff16021790555050565b6005602052805f5260405f205f915090505481565b5f5f9054906101000a900473ffffffffffffffffffffffffffffffffffffffff1673ffffffffffffffffffffffffffffffffffffffff163373ffffffffffffffffffffffffffffffffffffffff1614610d8e576040517f08c379a0000000000000000000000000000000000000000000000000000000008152600401610d8590611d11565b60405180910390fd5b6001600a60146101000a81548160ff0219169083151502179055503373ffffffffffffffffffffffffffffffffffffffff167f62e78cea01bee320cd4e420270b5ea74000d11b0c9f74754ebdbfc544b05a25860405160405180910390a2565b5f5f9054906101000a900473ffffffffffffffffffffffffffffffffffffffff1681565b60028054610e1f90611c97565b80601f0160208091040260200160405190810160405280929190818152602001828054610e4b90611c97565b8015610e965780601f10610e6d57610100808354040283529160200191610e96565b820191905f5260205f20905b815481529060010190602001808311610e7957829003601f168201915b505050505081565b60065f9054906101000a900473ffffffffffffffffffffffffffffffffffffffff1673ffffffffffffffffffffffffffffffffffffffff163373ffffffffffffffffffffffffffffffffffffffff161480610f4457505f5f9054906101000a900473ffffffffffffffffffffffffffffffffffffffff1673ffffffffffffffffffffffffffffffffffffffff163373ffffffffffffffffffffffffffffffffffffffff16145b80610f9b575060085f9054906101000a900473ffffffffffffffffffffffffffffffffffffffff1673ffffffffffffffffffffffffffffffffffffffff163373ffffffffffffffffffffffffffffffffffffffff16145b610fda576040517f08c379a0000000000000000000000000000000000000000000000000000000008152600401610fd190611d79565b60405180910390fd5b5f73ffffffffffffffffffffffffffffffffffffffff168273ffffffffffffffffffffffffffffffffffffffff1603611048576040517f08c379a000000000000000000000000000000000000000000000000000000000815260040161103f90611f79565b60405180910390fd5b8060055f8473ffffffffffffffffffffffffffffffffffffffff1673ffffffffffffffffffffffffffffffffffffffff1681526020019081526020015f205410156110c8576040517f08c379a00000000000000000000000000000000000000000000000000000000081526004016110bf90611fe1565b60405180910390fd5b8060055f8473ffffffffffffffffffffffffffffffffffffffff1673ffffffffffffffffffffffffffffffffffffffff1681526020019081526020015f205f8282546111149190611fff565b925050819055508060035f82825461112c9190611fff565b925050819055508173ffffffffffffffffffffffffffffffffffffffff167fcc16f5dbb4873280815c1ee09dbd06736cffcc184412cf7a71a0fdb75d397ca5826040516111799190611a8c565b60405180910390a25f73ffffffffffffffffffffffffffffffffffffffff168273ffffffffffffffffffffffffffffffffffffffff167fddf252ad1be2c89b69c2b068fc378daa952ba7f163c4a11628f55a4df523b3ef836040516111de9190611a8c565b60405180910390a35050565b60065f9054906101000a900473ffffffffffffffffffffffffffffffffffffffff1681565b5f600a60149054906101000a900460ff1615611260576040517f08c379a00000000000000000000000000000000000000000000000000000000081526004016112579061207c565b60405180910390fd5b5f3390505f73ffffffffffffffffffffffffffffffffffffffff168473ffffffffffffffffffffffffffffffffffffffff16036112d2576040517f08c379a00000000000000000000000000000000000000000000000000000000081526004016112c9906120e4565b60405180910390fd5b5f8311611314576040517f08c379a000000000000000000000000000000000000000000000000000000000815260040161130b90611e49565b60405180910390fd5b8260055f8373ffffffffffffffffffffffffffffffffffffffff1673ffffffffffffffffffffffffffffffffffffffff1681526020019081526020015f20541015611394576040517f08c379a000000000000000000000000000000000000000000000000000000000815260040161138b90611fe1565b60405180910390fd5b61139d81611715565b6113a684611715565b6113f78360055f8773ffffffffffffffffffffffffffffffffffffffff1673ffffffffffffffffffffffffffffffffffffffff1681526020019081526020015f20546113f29190611e94565b61184f565b8260055f8373ffffffffffffffffffffffffffffffffffffffff1673ffffffffffffffffffffffffffffffffffffffff1681526020019081526020015f205f8282546114439190611fff565b925050819055508260055f8673ffffffffffffffffffffffffffffffffffffffff1673ffffffffffffffffffffffffffffffffffffffff1681526020019081526020015f205f8282546114969190611e94565b925050819055508373ffffffffffffffffffffffffffffffffffffffff168173ffffffffffffffffffffffffffffffffffffffff167fddf252ad1be2c89b69c2b068fc378daa952ba7f163c4a11628f55a4df523b3ef856040516114fa9190611a8c565b60405180910390a3600191505092915050565b60075f9054906101000a900473ffffffffffffffffffffffffffffffffffffffff1681565b60045481565b60085f9054906101000a900473ffffffffffffffffffffffffffffffffffffffff1681565b5f5f9054906101000a900473ffffffffffffffffffffffffffffffffffffffff1673ffffffffffffffffffffffffffffffffffffffff163373ffffffffffffffffffffffffffffffffffffffff16146115eb576040517f08c379a00000000000000000000000000000000000000000000000000000000081526004016115e290611d11565b60405180910390fd5b5f73ffffffffffffffffffffffffffffffffffffffff168173ffffffffffffffffffffffffffffffffffffffff1603611659576040517f08c379a00000000000000000000000000000000000000000000000000000000081526004016116509061214c565b60405180910390fd5b8073ffffffffffffffffffffffffffffffffffffffff165f5f9054906101000a900473ffffffffffffffffffffffffffffffffffffffff1673ffffffffffffffffffffffffffffffffffffffff167f8be0079c531659141344cd1fd0a4f28419497f9722a3daafe3b4186f6b6457e060405160405180910390a3805f5f6101000a81548173ffffffffffffffffffffffffffffffffffffffff021916908373ffffffffffffffffffffffffffffffffffffffff16021790555050565b600a5f9054906101000a900473ffffffffffffffffffffffffffffffffffffffff1673ffffffffffffffffffffffffffffffffffffffff1663b9209e33826040518263ffffffff1660e01b815260040161176f9190611a5b565b602060405180830381865afa15801561178a573d5f5f3e3d5ffd5b505050506040513d601f19601f820116820180604052508101906117ae9190612194565b6117ed576040517f08c379a00000000000000000000000000000000000000000000000000000000081526004016117e490612209565b60405180910390fd5b50565b5f6004541461184c576004548160035461180a9190611e94565b111561184b576040517f08c379a000000000000000000000000000000000000000000000000000000000815260040161184290612271565b60405180910390fd5b5b50565b5f60045403156118bc575f6064601460045461186b919061228f565b61187591906122fd565b9050808211156118ba576040517f08c379a00000000000000000000000000000000000000000000000000000000081526004016118b190612377565b60405180910390fd5b505b50565b5f5ffd5b5f73ffffffffffffffffffffffffffffffffffffffff82169050919050565b5f6118ec826118c3565b9050919050565b6118fc816118e2565b8114611906575f5ffd5b50565b5f81359050611917816118f3565b92915050565b5f60208284031215611932576119316118bf565b5b5f61193f84828501611909565b91505092915050565b5f81519050919050565b5f82825260208201905092915050565b8281835e5f83830152505050565b5f601f19601f8301169050919050565b5f61198a82611948565b6119948185611952565b93506119a4818560208601611962565b6119ad81611970565b840191505092915050565b5f6020820190508181035f8301526119d08184611980565b905092915050565b5f819050919050565b5f6119fb6119f66119f1846118c3565b6119d8565b6118c3565b9050919050565b5f611a0c826119e1565b9050919050565b5f611a1d82611a02565b9050919050565b611a2d81611a13565b82525050565b5f602082019050611a465f830184611a24565b92915050565b611a55816118e2565b82525050565b5f602082019050611a6e5f830184611a4c565b92915050565b5f819050919050565b611a8681611a74565b82525050565b5f602082019050611a9f5f830184611a7d565b92915050565b5f60ff82169050919050565b611aba81611aa5565b82525050565b5f602082019050611ad35f830184611ab1565b92915050565b611ae281611a74565b8114611aec575f5ffd5b50565b5f81359050611afd81611ad9565b92915050565b5f5f60408385031215611b1957611b186118bf565b5b5f611b2685828601611909565b9250506020611b3785828601611aef565b9150509250929050565b5f8115159050919050565b611b5581611b41565b82525050565b5f602082019050611b6e5f830184611b4c565b92915050565b7f546f6b656e3a2063616c6c6572206e6f74206f776e6572206f722073616c65465f8201527f6163746f72790000000000000000000000000000000000000000000000000000602082015250565b5f611bce602683611952565b9150611bd982611b74565b604082019050919050565b5f6020820190508181035f830152611bfb81611bc2565b9050919050565b7f546f6b656e3a2073616c65436f6e7472616374207a65726f00000000000000005f82015250565b5f611c36601883611952565b9150611c4182611c02565b602082019050919050565b5f6020820190508181035f830152611c6381611c2a565b9050919050565b7f4e487b71000000000000000000000000000000000000000000000000000000005f52602260045260245ffd5b5f6002820490506001821680611cae57607f821691505b602082108103611cc157611cc0611c6a565b5b50919050565b7f4f776e61626c653a2063616c6c6572206973206e6f7420746865206f776e65725f82015250565b5f611cfb602083611952565b9150611d0682611cc7565b602082019050919050565b5f6020820190508181035f830152611d2881611cef565b9050919050565b7f546f6b656e3a2063616c6c6572206e6f7420617574686f72697a6564000000005f82015250565b5f611d63601c83611952565b9150611d6e82611d2f565b602082019050919050565b5f6020820190508181035f830152611d9081611d57565b9050919050565b7f546f6b656e3a206d696e7420746f207a65726f000000000000000000000000005f82015250565b5f611dcb601383611952565b9150611dd682611d97565b602082019050919050565b5f6020820190508181035f830152611df881611dbf565b9050919050565b7f546f6b656e3a20616d6f756e74207a65726f00000000000000000000000000005f82015250565b5f611e33601283611952565b9150611e3e82611dff565b602082019050919050565b5f6020820190508181035f830152611e6081611e27565b9050919050565b7f4e487b71000000000000000000000000000000000000000000000000000000005f52601160045260245ffd5b5f611e9e82611a74565b9150611ea983611a74565b9250828201905080821115611ec157611ec0611e67565b5b92915050565b7f546f6b656e3a2073616c65466163746f7279207a65726f0000000000000000005f82015250565b5f611efb601783611952565b9150611f0682611ec7565b602082019050919050565b5f6020820190508181035f830152611f2881611eef565b9050919050565b7f546f6b656e3a206275726e2066726f6d207a65726f00000000000000000000005f82015250565b5f611f63601583611952565b9150611f6e82611f2f565b602082019050919050565b5f6020820190508181035f830152611f9081611f57565b9050919050565b7f546f6b656e3a20696e73756666696369656e742062616c616e636500000000005f82015250565b5f611fcb601b83611952565b9150611fd682611f97565b602082019050919050565b5f6020820190508181035f830152611ff881611fbf565b9050919050565b5f61200982611a74565b915061201483611a74565b925082820390508181111561202c5761202b611e67565b5b92915050565b7f546f6b656e3a207472616e7366657273207061757365640000000000000000005f82015250565b5f612066601783611952565b915061207182612032565b602082019050919050565b5f6020820190508181035f8301526120938161205a565b9050919050565b7f546f6b656e3a207472616e7366657220746f207a65726f0000000000000000005f82015250565b5f6120ce601783611952565b91506120d98261209a565b602082019050919050565b5f6020820190508181035f8301526120fb816120c2565b9050919050565b7f4f776e61626c653a206e6577206f776e6572206973207a65726f0000000000005f82015250565b5f612136601a83611952565b915061214182612102565b602082019050919050565b5f6020820190508181035f8301526121638161212a565b9050919050565b61217381611b41565b811461217d575f5ffd5b50565b5f8151905061218e8161216a565b92915050565b5f602082840312156121a9576121a86118bf565b5b5f6121b684828501612180565b91505092915050565b7f546f6b656e3a2077616c6c6574206e6f74204b594300000000000000000000005f82015250565b5f6121f3601583611952565b91506121fe826121bf565b602082019050919050565b5f6020820190508181035f830152612220816121e7565b9050919050565b7f546f6b656e3a206d6178537570706c79206578636565646564000000000000005f82015250565b5f61225b601983611952565b915061226682612227565b602082019050919050565b5f6020820190508181035f8301526122888161224f565b9050919050565b5f61229982611a74565b91506122a483611a74565b92508282026122b281611a74565b915082820484148315176122c9576122c8611e67565b5b5092915050565b7f4e487b71000000000000000000000000000000000000000000000000000000005f52601260045260245ffd5b5f61230782611a74565b915061231283611a74565b925082612322576123216122d0565b5b828204905092915050565b7f546f6b656e3a20657863656564732032302520696e766573746f7220636170005f82015250565b5f612361601f83611952565b915061236c8261232d565b602082019050919050565b5f6020820190508181035f83015261238e81612355565b905091905056fea26469706673582212207db1cb2eb63f174856f4e6728c5c3bb458039b8655c26b9bc0efccb19eb7852364736f6c634300081e0033",
					"opcodes": "PUSH1 0x80 PUSH1 0x40 MSTORE CALLVALUE DUP1 ISZERO PUSH2 0xF JUMPI PUSH0 PUSH0 REVERT JUMPDEST POP PUSH1 0x40 MLOAD PUSH2 0x2D99 CODESIZE SUB DUP1 PUSH2 0x2D99 DUP4 CODECOPY DUP2 DUP2 ADD PUSH1 0x40 MSTORE DUP2 ADD SWAP1 PUSH2 0x31 SWAP2 SWAP1 PUSH2 0x4E2 JUMP JUMPDEST DUP6 PUSH0 PUSH20 0xFFFFFFFFFFFFFFFFFFFFFFFFFFFFFFFFFFFFFFFF AND DUP2 PUSH20 0xFFFFFFFFFFFFFFFFFFFFFFFFFFFFFFFFFFFFFFFF AND SUB PUSH2 0xA0 JUMPI PUSH1 0x40 MLOAD PUSH32 0x8C379A000000000000000000000000000000000000000000000000000000000 DUP2 MSTORE PUSH1 0x4 ADD PUSH2 0x97 SWAP1 PUSH2 0x5FD JUMP JUMPDEST PUSH1 0x40 MLOAD DUP1 SWAP2 SUB SWAP1 REVERT JUMPDEST DUP1 PUSH0 PUSH0 PUSH2 0x100 EXP DUP2 SLOAD DUP2 PUSH20 0xFFFFFFFFFFFFFFFFFFFFFFFFFFFFFFFFFFFFFFFF MUL NOT AND SWAP1 DUP4 PUSH20 0xFFFFFFFFFFFFFFFFFFFFFFFFFFFFFFFFFFFFFFFF AND MUL OR SWAP1 SSTORE POP DUP1 PUSH20 0xFFFFFFFFFFFFFFFFFFFFFFFFFFFFFFFFFFFFFFFF AND PUSH0 PUSH20 0xFFFFFFFFFFFFFFFFFFFFFFFFFFFFFFFFFFFFFFFF AND PUSH32 0x8BE0079C531659141344CD1FD0A4F28419497F9722A3DAAFE3B4186F6B6457E0 PUSH1 0x40 MLOAD PUSH1 0x40 MLOAD DUP1 SWAP2 SUB SWAP1 LOG3 POP PUSH0 PUSH20 0xFFFFFFFFFFFFFFFFFFFFFFFFFFFFFFFFFFFFFFFF AND DUP6 PUSH20 0xFFFFFFFFFFFFFFFFFFFFFFFFFFFFFFFFFFFFFFFF AND SUB PUSH2 0x1A8 JUMPI PUSH1 0x40 MLOAD PUSH32 0x8C379A000000000000000000000000000000000000000000000000000000000 DUP2 MSTORE PUSH1 0x4 ADD PUSH2 0x19F SWAP1 PUSH2 0x665 JUMP JUMPDEST PUSH1 0x40 MLOAD DUP1 SWAP2 SUB SWAP1 REVERT JUMPDEST PUSH0 PUSH20 0xFFFFFFFFFFFFFFFFFFFFFFFFFFFFFFFFFFFFFFFF AND DUP2 PUSH20 0xFFFFFFFFFFFFFFFFFFFFFFFFFFFFFFFFFFFFFFFF AND SUB PUSH2 0x216 JUMPI PUSH1 0x40 MLOAD PUSH32 0x8C379A000000000000000000000000000000000000000000000000000000000 DUP2 MSTORE PUSH1 0x4 ADD PUSH2 0x20D SWAP1 PUSH2 0x6CD JUMP JUMPDEST PUSH1 0x40 MLOAD DUP1 SWAP2 SUB SWAP1 REVERT JUMPDEST DUP5 PUSH1 0x6 PUSH0 PUSH2 0x100 EXP DUP2 SLOAD DUP2 PUSH20 0xFFFFFFFFFFFFFFFFFFFFFFFFFFFFFFFFFFFFFFFF MUL NOT AND SWAP1 DUP4 PUSH20 0xFFFFFFFFFFFFFFFFFFFFFFFFFFFFFFFFFFFFFFFF AND MUL OR SWAP1 SSTORE POP DUP4 PUSH1 0x1 SWAP1 DUP2 PUSH2 0x265 SWAP2 SWAP1 PUSH2 0x8F2 JUMP JUMPDEST POP DUP3 PUSH1 0x2 SWAP1 DUP2 PUSH2 0x275 SWAP2 SWAP1 PUSH2 0x8F2 JUMP JUMPDEST POP DUP2 PUSH1 0x4 DUP2 SWAP1 SSTORE POP DUP1 PUSH1 0xA PUSH0 PUSH2 0x100 EXP DUP2 SLOAD DUP2 PUSH20 0xFFFFFFFFFFFFFFFFFFFFFFFFFFFFFFFFFFFFFFFF MUL NOT AND SWAP1 DUP4 PUSH20 0xFFFFFFFFFFFFFFFFFFFFFFFFFFFFFFFFFFFFFFFF AND MUL OR SWAP1 SSTORE POP CALLER PUSH1 0x7 PUSH0 PUSH2 0x100 EXP DUP2 SLOAD DUP2 PUSH20 0xFFFFFFFFFFFFFFFFFFFFFFFFFFFFFFFFFFFFFFFF MUL NOT AND SWAP1 DUP4 PUSH20 0xFFFFFFFFFFFFFFFFFFFFFFFFFFFFFFFFFFFFFFFF AND MUL OR SWAP1 SSTORE POP POP POP POP POP POP POP PUSH2 0x9C1 JUMP JUMPDEST PUSH0 PUSH1 0x40 MLOAD SWAP1 POP SWAP1 JUMP JUMPDEST PUSH0 PUSH0 REVERT JUMPDEST PUSH0 PUSH0 REVERT JUMPDEST PUSH0 PUSH20 0xFFFFFFFFFFFFFFFFFFFFFFFFFFFFFFFFFFFFFFFF DUP3 AND SWAP1 POP SWAP2 SWAP1 POP JUMP JUMPDEST PUSH0 PUSH2 0x342 DUP3 PUSH2 0x319 JUMP JUMPDEST SWAP1 POP SWAP2 SWAP1 POP JUMP JUMPDEST PUSH2 0x352 DUP2 PUSH2 0x338 JUMP JUMPDEST DUP2 EQ PUSH2 0x35C JUMPI PUSH0 PUSH0 REVERT JUMPDEST POP JUMP JUMPDEST PUSH0 DUP2 MLOAD SWAP1 POP PUSH2 0x36D DUP2 PUSH2 0x349 JUMP JUMPDEST SWAP3 SWAP2 POP POP JUMP JUMPDEST PUSH0 PUSH0 REVERT JUMPDEST PUSH0 PUSH0 REVERT JUMPDEST PUSH0 PUSH1 0x1F NOT PUSH1 0x1F DUP4 ADD AND SWAP1 POP SWAP2 SWAP1 POP JUMP JUMPDEST PUSH32 0x4E487B7100000000000000000000000000000000000000000000000000000000 PUSH0 MSTORE PUSH1 0x41 PUSH1 0x4 MSTORE PUSH1 0x24 PUSH0 REVERT JUMPDEST PUSH2 0x3C1 DUP3 PUSH2 0x37B JUMP JUMPDEST DUP2 ADD DUP2 DUP2 LT PUSH8 0xFFFFFFFFFFFFFFFF DUP3 GT OR ISZERO PUSH2 0x3E0 JUMPI PUSH2 0x3DF PUSH2 0x38B JUMP JUMPDEST JUMPDEST DUP1 PUSH1 0x40 MSTORE POP POP POP JUMP JUMPDEST PUSH0 PUSH2 0x3F2 PUSH2 0x308 JUMP JUMPDEST SWAP1 POP PUSH2 0x3FE DUP3 DUP3 PUSH2 0x3B8 JUMP JUMPDEST SWAP2 SWAP1 POP JUMP JUMPDEST PUSH0 PUSH8 0xFFFFFFFFFFFFFFFF DUP3 GT ISZERO PUSH2 0x41D JUMPI PUSH2 0x41C PUSH2 0x38B JUMP JUMPDEST JUMPDEST PUSH2 0x426 DUP3 PUSH2 0x37B JUMP JUMPDEST SWAP1 POP PUSH1 0x20 DUP2 ADD SWAP1 POP SWAP2 SWAP1 POP JUMP JUMPDEST DUP3 DUP2 DUP4 MCOPY PUSH0 DUP4 DUP4 ADD MSTORE POP POP POP JUMP JUMPDEST PUSH0 PUSH2 0x453 PUSH2 0x44E DUP5 PUSH2 0x403 JUMP JUMPDEST PUSH2 0x3E9 JUMP JUMPDEST SWAP1 POP DUP3 DUP2 MSTORE PUSH1 0x20 DUP2 ADD DUP5 DUP5 DUP5 ADD GT ISZERO PUSH2 0x46F JUMPI PUSH2 0x46E PUSH2 0x377 JUMP JUMPDEST JUMPDEST PUSH2 0x47A DUP5 DUP3 DUP6 PUSH2 0x433 JUMP JUMPDEST POP SWAP4 SWAP3 POP POP POP JUMP JUMPDEST PUSH0 DUP3 PUSH1 0x1F DUP4 ADD SLT PUSH2 0x496 JUMPI PUSH2 0x495 PUSH2 0x373 JUMP JUMPDEST JUMPDEST DUP2 MLOAD PUSH2 0x4A6 DUP5 DUP3 PUSH1 0x20 DUP7 ADD PUSH2 0x441 JUMP JUMPDEST SWAP2 POP POP SWAP3 SWAP2 POP POP JUMP JUMPDEST PUSH0 DUP2 SWAP1 POP SWAP2 SWAP1 POP JUMP JUMPDEST PUSH2 0x4C1 DUP2 PUSH2 0x4AF JUMP JUMPDEST DUP2 EQ PUSH2 0x4CB JUMPI PUSH0 PUSH0 REVERT JUMPDEST POP JUMP JUMPDEST PUSH0 DUP2 MLOAD SWAP1 POP PUSH2 0x4DC DUP2 PUSH2 0x4B8 JUMP JUMPDEST SWAP3 SWAP2 POP POP JUMP JUMPDEST PUSH0 PUSH0 PUSH0 PUSH0 PUSH0 PUSH0 PUSH1 0xC0 DUP8 DUP10 SUB SLT ISZERO PUSH2 0x4FC JUMPI PUSH2 0x4FB PUSH2 0x311 JUMP JUMPDEST JUMPDEST PUSH0 PUSH2 0x509 DUP10 DUP3 DUP11 ADD PUSH2 0x35F JUMP JUMPDEST SWAP7 POP POP PUSH1 0x20 PUSH2 0x51A DUP10 DUP3 DUP11 ADD PUSH2 0x35F JUMP JUMPDEST SWAP6 POP POP PUSH1 0x40 DUP8 ADD MLOAD PUSH8 0xFFFFFFFFFFFFFFFF DUP2 GT ISZERO PUSH2 0x53B JUMPI PUSH2 0x53A PUSH2 0x315 JUMP JUMPDEST JUMPDEST PUSH2 0x547 DUP10 DUP3 DUP11 ADD PUSH2 0x482 JUMP JUMPDEST SWAP5 POP POP PUSH1 0x60 DUP8 ADD MLOAD PUSH8 0xFFFFFFFFFFFFFFFF DUP2 GT ISZERO PUSH2 0x568 JUMPI PUSH2 0x567 PUSH2 0x315 JUMP JUMPDEST JUMPDEST PUSH2 0x574 DUP10 DUP3 DUP11 ADD PUSH2 0x482 JUMP JUMPDEST SWAP4 POP POP PUSH1 0x80 PUSH2 0x585 DUP10 DUP3 DUP11 ADD PUSH2 0x4CE JUMP JUMPDEST SWAP3 POP POP PUSH1 0xA0 PUSH2 0x596 DUP10 DUP3 DUP11 ADD PUSH2 0x35F JUMP JUMPDEST SWAP2 POP POP SWAP3 SWAP6 POP SWAP3 SWAP6 POP SWAP3 SWAP6 JUMP JUMPDEST PUSH0 DUP3 DUP3 MSTORE PUSH1 0x20 DUP3 ADD SWAP1 POP SWAP3 SWAP2 POP POP JUMP JUMPDEST PUSH32 0x4F776E61626C653A206F776E6572206973207A65726F00000000000000000000 PUSH0 DUP3 ADD MSTORE POP JUMP JUMPDEST PUSH0 PUSH2 0x5E7 PUSH1 0x16 DUP4 PUSH2 0x5A3 JUMP JUMPDEST SWAP2 POP PUSH2 0x5F2 DUP3 PUSH2 0x5B3 JUMP JUMPDEST PUSH1 0x20 DUP3 ADD SWAP1 POP SWAP2 SWAP1 POP JUMP JUMPDEST PUSH0 PUSH1 0x20 DUP3 ADD SWAP1 POP DUP2 DUP2 SUB PUSH0 DUP4 ADD MSTORE PUSH2 0x614 DUP2 PUSH2 0x5DB JUMP JUMPDEST SWAP1 POP SWAP2 SWAP1 POP JUMP JUMPDEST PUSH32 0x546F6B656E3A2070726F6A6563744F776E6572207A65726F0000000000000000 PUSH0 DUP3 ADD MSTORE POP JUMP JUMPDEST PUSH0 PUSH2 0x64F PUSH1 0x18 DUP4 PUSH2 0x5A3 JUMP JUMPDEST SWAP2 POP PUSH2 0x65A DUP3 PUSH2 0x61B JUMP JUMPDEST PUSH1 0x20 DUP3 ADD SWAP1 POP SWAP2 SWAP1 POP JUMP JUMPDEST PUSH0 PUSH1 0x20 DUP3 ADD SWAP1 POP DUP2 DUP2 SUB PUSH0 DUP4 ADD MSTORE PUSH2 0x67C DUP2 PUSH2 0x643 JUMP JUMPDEST SWAP1 POP SWAP2 SWAP1 POP JUMP JUMPDEST PUSH32 0x546F6B656E3A206964656E746974795265676973747279207A65726F00000000 PUSH0 DUP3 ADD MSTORE POP JUMP JUMPDEST PUSH0 PUSH2 0x6B7 PUSH1 0x1C DUP4 PUSH2 0x5A3 JUMP JUMPDEST SWAP2 POP PUSH2 0x6C2 DUP3 PUSH2 0x683 JUMP JUMPDEST PUSH1 0x20 DUP3 ADD SWAP1 POP SWAP2 SWAP1 POP JUMP JUMPDEST PUSH0 PUSH1 0x20 DUP3 ADD SWAP1 POP DUP2 DUP2 SUB PUSH0 DUP4 ADD MSTORE PUSH2 0x6E4 DUP2 PUSH2 0x6AB JUMP JUMPDEST SWAP1 POP SWAP2 SWAP1 POP JUMP JUMPDEST PUSH0 DUP2 MLOAD SWAP1 POP SWAP2 SWAP1 POP JUMP JUMPDEST PUSH32 0x4E487B7100000000000000000000000000000000000000000000000000000000 PUSH0 MSTORE PUSH1 0x22 PUSH1 0x4 MSTORE PUSH1 0x24 PUSH0 REVERT JUMPDEST PUSH0 PUSH1 0x2 DUP3 DIV SWAP1 POP PUSH1 0x1 DUP3 AND DUP1 PUSH2 0x739 JUMPI PUSH1 0x7F DUP3 AND SWAP2 POP JUMPDEST PUSH1 0x20 DUP3 LT DUP2 SUB PUSH2 0x74C JUMPI PUSH2 0x74B PUSH2 0x6F5 JUMP JUMPDEST JUMPDEST POP SWAP2 SWAP1 POP JUMP JUMPDEST PUSH0 DUP2 SWAP1 POP DUP2 PUSH0 MSTORE PUSH1 0x20 PUSH0 KECCAK256 SWAP1 POP SWAP2 SWAP1 POP JUMP JUMPDEST PUSH0 PUSH1 0x20 PUSH1 0x1F DUP4 ADD DIV SWAP1 POP SWAP2 SWAP1 POP JUMP JUMPDEST PUSH0 DUP3 DUP3 SHL SWAP1 POP SWAP3 SWAP2 POP POP JUMP JUMPDEST PUSH0 PUSH1 0x8 DUP4 MUL PUSH2 0x7AE PUSH32 0xFFFFFFFFFFFFFFFFFFFFFFFFFFFFFFFFFFFFFFFFFFFFFFFFFFFFFFFFFFFFFFFF DUP3 PUSH2 0x773 JUMP JUMPDEST PUSH2 0x7B8 DUP7 DUP4 PUSH2 0x773 JUMP JUMPDEST SWAP6 POP DUP1 NOT DUP5 AND SWAP4 POP DUP1 DUP7 AND DUP5 OR SWAP3 POP POP POP SWAP4 SWAP3 POP POP POP JUMP JUMPDEST PUSH0 DUP2 SWAP1 POP SWAP2 SWAP1 POP JUMP JUMPDEST PUSH0 PUSH2 0x7F3 PUSH2 0x7EE PUSH2 0x7E9 DUP5 PUSH2 0x4AF JUMP JUMPDEST PUSH2 0x7D0 JUMP JUMPDEST PUSH2 0x4AF JUMP JUMPDEST SWAP1 POP SWAP2 SWAP1 POP JUMP JUMPDEST PUSH0 DUP2 SWAP1 POP SWAP2 SWAP1 POP JUMP JUMPDEST PUSH2 0x80C DUP4 PUSH2 0x7D9 JUMP JUMPDEST PUSH2 0x820 PUSH2 0x818 DUP3 PUSH2 0x7FA JUMP JUMPDEST DUP5 DUP5 SLOAD PUSH2 0x77F JUMP JUMPDEST DUP3 SSTORE POP POP POP POP JUMP JUMPDEST PUSH0 PUSH0 SWAP1 POP SWAP1 JUMP JUMPDEST PUSH2 0x837 PUSH2 0x828 JUMP JUMPDEST PUSH2 0x842 DUP2 DUP5 DUP5 PUSH2 0x803 JUMP JUMPDEST POP POP POP JUMP JUMPDEST JUMPDEST DUP2 DUP2 LT ISZERO PUSH2 0x865 JUMPI PUSH2 0x85A PUSH0 DUP3 PUSH2 0x82F JUMP JUMPDEST PUSH1 0x1 DUP2 ADD SWAP1 POP PUSH2 0x848 JUMP JUMPDEST POP POP JUMP JUMPDEST PUSH1 0x1F DUP3 GT ISZERO PUSH2 0x8AA JUMPI PUSH2 0x87B DUP2 PUSH2 0x752 JUMP JUMPDEST PUSH2 0x884 DUP5 PUSH2 0x764 JUMP JUMPDEST DUP2 ADD PUSH1 0x20 DUP6 LT ISZERO PUSH2 0x893 JUMPI DUP2 SWAP1 POP JUMPDEST PUSH2 0x8A7 PUSH2 0x89F DUP6 PUSH2 0x764 JUMP JUMPDEST DUP4 ADD DUP3 PUSH2 0x847 JUMP JUMPDEST POP POP JUMPDEST POP POP POP JUMP JUMPDEST PUSH0 DUP3 DUP3 SHR SWAP1 POP SWAP3 SWAP2 POP POP JUMP JUMPDEST PUSH0 PUSH2 0x8CA PUSH0 NOT DUP5 PUSH1 0x8 MUL PUSH2 0x8AF JUMP JUMPDEST NOT DUP1 DUP4 AND SWAP2 POP POP SWAP3 SWAP2 POP POP JUMP JUMPDEST PUSH0 PUSH2 0x8E2 DUP4 DUP4 PUSH2 0x8BB JUMP JUMPDEST SWAP2 POP DUP3 PUSH1 0x2 MUL DUP3 OR SWAP1 POP SWAP3 SWAP2 POP POP JUMP JUMPDEST PUSH2 0x8FB DUP3 PUSH2 0x6EB JUMP JUMPDEST PUSH8 0xFFFFFFFFFFFFFFFF DUP2 GT ISZERO PUSH2 0x914 JUMPI PUSH2 0x913 PUSH2 0x38B JUMP JUMPDEST JUMPDEST PUSH2 0x91E DUP3 SLOAD PUSH2 0x722 JUMP JUMPDEST PUSH2 0x929 DUP3 DUP3 DUP6 PUSH2 0x869 JUMP JUMPDEST PUSH0 PUSH1 0x20 SWAP1 POP PUSH1 0x1F DUP4 GT PUSH1 0x1 DUP2 EQ PUSH2 0x95A JUMPI PUSH0 DUP5 ISZERO PUSH2 0x948 JUMPI DUP3 DUP8 ADD MLOAD SWAP1 POP JUMPDEST PUSH2 0x952 DUP6 DUP3 PUSH2 0x8D7 JUMP JUMPDEST DUP7 SSTORE POP PUSH2 0x9B9 JUMP JUMPDEST PUSH1 0x1F NOT DUP5 AND PUSH2 0x968 DUP7 PUSH2 0x752 JUMP JUMPDEST PUSH0 JUMPDEST DUP3 DUP2 LT ISZERO PUSH2 0x98F JUMPI DUP5 DUP10 ADD MLOAD DUP3 SSTORE PUSH1 0x1 DUP3 ADD SWAP2 POP PUSH1 0x20 DUP6 ADD SWAP5 POP PUSH1 0x20 DUP2 ADD SWAP1 POP PUSH2 0x96A JUMP JUMPDEST DUP7 DUP4 LT ISZERO PUSH2 0x9AC JUMPI DUP5 DUP10 ADD MLOAD PUSH2 0x9A8 PUSH1 0x1F DUP10 AND DUP3 PUSH2 0x8BB JUMP JUMPDEST DUP4 SSTORE POP JUMPDEST PUSH1 0x1 PUSH1 0x2 DUP9 MUL ADD DUP9 SSTORE POP POP POP JUMPDEST POP POP POP POP POP POP JUMP JUMPDEST PUSH2 0x23CB DUP1 PUSH2 0x9CE PUSH0 CODECOPY PUSH0 RETURN INVALID PUSH1 0x80 PUSH1 0x40 MSTORE CALLVALUE DUP1 ISZERO PUSH2 0xF JUMPI PUSH0 PUSH0 REVERT JUMPDEST POP PUSH1 0x4 CALLDATASIZE LT PUSH2 0x140 JUMPI PUSH0 CALLDATALOAD PUSH1 0xE0 SHR DUP1 PUSH4 0x70A08231 GT PUSH2 0xB6 JUMPI DUP1 PUSH4 0xA4475CE4 GT PUSH2 0x7A JUMPI DUP1 PUSH4 0xA4475CE4 EQ PUSH2 0x306 JUMPI DUP1 PUSH4 0xA9059CBB EQ PUSH2 0x324 JUMPI DUP1 PUSH4 0xC45A0155 EQ PUSH2 0x354 JUMPI DUP1 PUSH4 0xD5ABEB01 EQ PUSH2 0x372 JUMPI DUP1 PUSH4 0xDAF6CA30 EQ PUSH2 0x390 JUMPI DUP1 PUSH4 0xF2FDE38B EQ PUSH2 0x3AE JUMPI PUSH2 0x140 JUMP JUMPDEST DUP1 PUSH4 0x70A08231 EQ PUSH2 0x274 JUMPI DUP1 PUSH4 0x8456CB59 EQ PUSH2 0x2A4 JUMPI DUP1 PUSH4 0x8DA5CB5B EQ PUSH2 0x2AE JUMPI DUP1 PUSH4 0x95D89B41 EQ PUSH2 0x2CC JUMPI DUP1 PUSH4 0x9DC29FAC EQ PUSH2 0x2EA JUMPI PUSH2 0x140 JUMP JUMPDEST DUP1 PUSH4 0x1F58A309 GT PUSH2 0x108 JUMPI DUP1 PUSH4 0x1F58A309 EQ PUSH2 0x1D8 JUMPI DUP1 PUSH4 0x313CE567 EQ PUSH2 0x1F6 JUMPI DUP1 PUSH4 0x3F4BA83A EQ PUSH2 0x214 JUMPI DUP1 PUSH4 0x40C10F19 EQ PUSH2 0x21E JUMPI DUP1 PUSH4 0x5C975ABB EQ PUSH2 0x23A JUMPI DUP1 PUSH4 0x69FB9AAA EQ PUSH2 0x258 JUMPI PUSH2 0x140 JUMP JUMPDEST DUP1 PUSH4 0x593D244 EQ PUSH2 0x144 JUMPI DUP1 PUSH4 0x6FDDE03 EQ PUSH2 0x160 JUMPI DUP1 PUSH4 0x134E18F4 EQ PUSH2 0x17E JUMPI DUP1 PUSH4 0x17DE3C84 EQ PUSH2 0x19C JUMPI DUP1 PUSH4 0x18160DDD EQ PUSH2 0x1BA JUMPI JUMPDEST PUSH0 PUSH0 REVERT JUMPDEST PUSH2 0x15E PUSH1 0x4 DUP1 CALLDATASIZE SUB DUP2 ADD SWAP1 PUSH2 0x159 SWAP2 SWAP1 PUSH2 0x191D JUMP JUMPDEST PUSH2 0x3CA JUMP JUMPDEST STOP JUMPDEST PUSH2 0x168 PUSH2 0x5DB JUMP JUMPDEST PUSH1 0x40 MLOAD PUSH2 0x175 SWAP2 SWAP1 PUSH2 0x19B8 JUMP JUMPDEST PUSH1 0x40 MLOAD DUP1 SWAP2 SUB SWAP1 RETURN JUMPDEST PUSH2 0x186 PUSH2 0x667 JUMP JUMPDEST PUSH1 0x40 MLOAD PUSH2 0x193 SWAP2 SWAP1 PUSH2 0x1A33 JUMP JUMPDEST PUSH1 0x40 MLOAD DUP1 SWAP2 SUB SWAP1 RETURN JUMPDEST PUSH2 0x1A4 PUSH2 0x68C JUMP JUMPDEST PUSH1 0x40 MLOAD PUSH2 0x1B1 SWAP2 SWAP1 PUSH2 0x1A5B JUMP JUMPDEST PUSH1 0x40 MLOAD DUP1 SWAP2 SUB SWAP1 RETURN JUMPDEST PUSH2 0x1C2 PUSH2 0x6B1 JUMP JUMPDEST PUSH1 0x40 MLOAD PUSH2 0x1CF SWAP2 SWAP1 PUSH2 0x1A8C JUMP JUMPDEST PUSH1 0x40 MLOAD DUP1 SWAP2 SUB SWAP1 RETURN JUMPDEST PUSH2 0x1E0 PUSH2 0x6B7 JUMP JUMPDEST PUSH1 0x40 MLOAD PUSH2 0x1ED SWAP2 SWAP1 PUSH2 0x1A8C JUMP JUMPDEST PUSH1 0x40 MLOAD DUP1 SWAP2 SUB SWAP1 RETURN JUMPDEST PUSH2 0x1FE PUSH2 0x6BC JUMP JUMPDEST PUSH1 0x40 MLOAD PUSH2 0x20B SWAP2 SWAP1 PUSH2 0x1AC0 JUMP JUMPDEST PUSH1 0x40 MLOAD DUP1 SWAP2 SUB SWAP1 RETURN JUMPDEST PUSH2 0x21C PUSH2 0x6C0 JUMP JUMPDEST STOP JUMPDEST PUSH2 0x238 PUSH1 0x4 DUP1 CALLDATASIZE SUB DUP2 ADD SWAP1 PUSH2 0x233 SWAP2 SWAP1 PUSH2 0x1B03 JUMP JUMPDEST PUSH2 0x7AD JUMP JUMPDEST STOP JUMPDEST PUSH2 0x242 PUSH2 0xB1E JUMP JUMPDEST PUSH1 0x40 MLOAD PUSH2 0x24F SWAP2 SWAP1 PUSH2 0x1B5B JUMP JUMPDEST PUSH1 0x40 MLOAD DUP1 SWAP2 SUB SWAP1 RETURN JUMPDEST PUSH2 0x272 PUSH1 0x4 DUP1 CALLDATASIZE SUB DUP2 ADD SWAP1 PUSH2 0x26D SWAP2 SWAP1 PUSH2 0x191D JUMP JUMPDEST PUSH2 0xB31 JUMP JUMPDEST STOP JUMPDEST PUSH2 0x28E PUSH1 0x4 DUP1 CALLDATASIZE SUB DUP2 ADD SWAP1 PUSH2 0x289 SWAP2 SWAP1 PUSH2 0x191D JUMP JUMPDEST PUSH2 0xCEB JUMP JUMPDEST PUSH1 0x40 MLOAD PUSH2 0x29B SWAP2 SWAP1 PUSH2 0x1A8C JUMP JUMPDEST PUSH1 0x40 MLOAD DUP1 SWAP2 SUB SWAP1 RETURN JUMPDEST PUSH2 0x2AC PUSH2 0xD00 JUMP JUMPDEST STOP JUMPDEST PUSH2 0x2B6 PUSH2 0xDEE JUMP JUMPDEST PUSH1 0x40 MLOAD PUSH2 0x2C3 SWAP2 SWAP1 PUSH2 0x1A5B JUMP JUMPDEST PUSH1 0x40 MLOAD DUP1 SWAP2 SUB SWAP1 RETURN JUMPDEST PUSH2 0x2D4 PUSH2 0xE12 JUMP JUMPDEST PUSH1 0x40 MLOAD PUSH2 0x2E1 SWAP2 SWAP1 PUSH2 0x19B8 JUMP JUMPDEST PUSH1 0x40 MLOAD DUP1 SWAP2 SUB SWAP1 RETURN JUMPDEST PUSH2 0x304 PUSH1 0x4 DUP1 CALLDATASIZE SUB DUP2 ADD SWAP1 PUSH2 0x2FF SWAP2 SWAP1 PUSH2 0x1B03 JUMP JUMPDEST PUSH2 0xE9E JUMP JUMPDEST STOP JUMPDEST PUSH2 0x30E PUSH2 0x11EA JUMP JUMPDEST PUSH1 0x40 MLOAD PUSH2 0x31B SWAP2 SWAP1 PUSH2 0x1A5B JUMP JUMPDEST PUSH1 0x40 MLOAD DUP1 SWAP2 SUB SWAP1 RETURN JUMPDEST PUSH2 0x33E PUSH1 0x4 DUP1 CALLDATASIZE SUB DUP2 ADD SWAP1 PUSH2 0x339 SWAP2 SWAP1 PUSH2 0x1B03 JUMP JUMPDEST PUSH2 0x120F JUMP JUMPDEST PUSH1 0x40 MLOAD PUSH2 0x34B SWAP2 SWAP1 PUSH2 0x1B5B JUMP JUMPDEST PUSH1 0x40 MLOAD DUP1 SWAP2 SUB SWAP1 RETURN JUMPDEST PUSH2 0x35C PUSH2 0x150D JUMP JUMPDEST PUSH1 0x40 MLOAD PUSH2 0x369 SWAP2 SWAP1 PUSH2 0x1A5B JUMP JUMPDEST PUSH1 0x40 MLOAD DUP1 SWAP2 SUB SWAP1 RETURN JUMPDEST PUSH2 0x37A PUSH2 0x1532 JUMP JUMPDEST PUSH1 0x40 MLOAD PUSH2 0x387 SWAP2 SWAP1 PUSH2 0x1A8C JUMP JUMPDEST PUSH1 0x40 MLOAD DUP1 SWAP2 SUB SWAP1 RETURN JUMPDEST PUSH2 0x398 PUSH2 0x1538 JUMP JUMPDEST PUSH1 0x40 MLOAD PUSH2 0x3A5 SWAP2 SWAP1 PUSH2 0x1A5B JUMP JUMPDEST PUSH1 0x40 MLOAD DUP1 SWAP2 SUB SWAP1 RETURN JUMPDEST PUSH2 0x3C8 PUSH1 0x4 DUP1 CALLDATASIZE SUB DUP2 ADD SWAP1 PUSH2 0x3C3 SWAP2 SWAP1 PUSH2 0x191D JUMP JUMPDEST PUSH2 0x155D JUMP JUMPDEST STOP JUMPDEST PUSH0 PUSH0 SWAP1 SLOAD SWAP1 PUSH2 0x100 EXP SWAP1 DIV PUSH20 0xFFFFFFFFFFFFFFFFFFFFFFFFFFFFFFFFFFFFFFFF AND PUSH20 0xFFFFFFFFFFFFFFFFFFFFFFFFFFFFFFFFFFFFFFFF AND CALLER PUSH20 0xFFFFFFFFFFFFFFFFFFFFFFFFFFFFFFFFFFFFFFFF AND EQ DUP1 PUSH2 0x470 JUMPI POP PUSH1 0x9 PUSH0 SWAP1 SLOAD SWAP1 PUSH2 0x100 EXP SWAP1 DIV PUSH20 0xFFFFFFFFFFFFFFFFFFFFFFFFFFFFFFFFFFFFFFFF AND PUSH20 0xFFFFFFFFFFFFFFFFFFFFFFFFFFFFFFFFFFFFFFFF AND CALLER PUSH20 0xFFFFFFFFFFFFFFFFFFFFFFFFFFFFFFFFFFFFFFFF AND EQ JUMPDEST PUSH2 0x4AF JUMPI PUSH1 0x40 MLOAD PUSH32 0x8C379A000000000000000000000000000000000000000000000000000000000 DUP2 MSTORE PUSH1 0x4 ADD PUSH2 0x4A6 SWAP1 PUSH2 0x1BE4 JUMP JUMPDEST PUSH1 0x40 MLOAD DUP1 SWAP2 SUB SWAP1 REVERT JUMPDEST PUSH0 PUSH20 0xFFFFFFFFFFFFFFFFFFFFFFFFFFFFFFFFFFFFFFFF AND DUP2 PUSH20 0xFFFFFFFFFFFFFFFFFFFFFFFFFFFFFFFFFFFFFFFF AND SUB PUSH2 0x51D JUMPI PUSH1 0x40 MLOAD PUSH32 0x8C379A000000000000000000000000000000000000000000000000000000000 DUP2 MSTORE PUSH1 0x4 ADD PUSH2 0x514 SWAP1 PUSH2 0x1C4C JUMP JUMPDEST PUSH1 0x40 MLOAD DUP1 SWAP2 SUB SWAP1 REVERT JUMPDEST DUP1 PUSH20 0xFFFFFFFFFFFFFFFFFFFFFFFFFFFFFFFFFFFFFFFF AND PUSH1 0x8 PUSH0 SWAP1 SLOAD SWAP1 PUSH2 0x100 EXP SWAP1 DIV PUSH20 0xFFFFFFFFFFFFFFFFFFFFFFFFFFFFFFFFFFFFFFFF AND PUSH20 0xFFFFFFFFFFFFFFFFFFFFFFFFFFFFFFFFFFFFFFFF AND PUSH32 0x53D4126A9127DD39595DEFB493DB8F2CC8D4EEFA5ED42A7388F42FF09160C501 PUSH1 0x40 MLOAD PUSH1 0x40 MLOAD DUP1 SWAP2 SUB SWAP1 LOG3 DUP1 PUSH1 0x8 PUSH0 PUSH2 0x100 EXP DUP2 SLOAD DUP2 PUSH20 0xFFFFFFFFFFFFFFFFFFFFFFFFFFFFFFFFFFFFFFFF MUL NOT AND SWAP1 DUP4 PUSH20 0xFFFFFFFFFFFFFFFFFFFFFFFFFFFFFFFFFFFFFFFF AND MUL OR SWAP1 SSTORE POP POP JUMP JUMPDEST PUSH1 0x1 DUP1 SLOAD PUSH2 0x5E8 SWAP1 PUSH2 0x1C97 JUMP JUMPDEST DUP1 PUSH1 0x1F ADD PUSH1 0x20 DUP1 SWAP2 DIV MUL PUSH1 0x20 ADD PUSH1 0x40 MLOAD SWAP1 DUP2 ADD PUSH1 0x40 MSTORE DUP1 SWAP3 SWAP2 SWAP1 DUP2 DUP2 MSTORE PUSH1 0x20 ADD DUP3 DUP1 SLOAD PUSH2 0x614 SWAP1 PUSH2 0x1C97 JUMP JUMPDEST DUP1 ISZERO PUSH2 0x65F JUMPI DUP1 PUSH1 0x1F LT PUSH2 0x636 JUMPI PUSH2 0x100 DUP1 DUP4 SLOAD DIV MUL DUP4 MSTORE SWAP2 PUSH1 0x20 ADD SWAP2 PUSH2 0x65F JUMP JUMPDEST DUP3 ADD SWAP2 SWAP1 PUSH0 MSTORE PUSH1 0x20 PUSH0 KECCAK256 SWAP1 JUMPDEST DUP2 SLOAD DUP2 MSTORE SWAP1 PUSH1 0x1 ADD SWAP1 PUSH1 0x20 ADD DUP1 DUP4 GT PUSH2 0x642 JUMPI DUP3 SWAP1 SUB PUSH1 0x1F AND DUP3 ADD SWAP2 JUMPDEST POP POP POP POP POP DUP2 JUMP JUMPDEST PUSH1 0xA PUSH0 SWAP1 SLOAD SWAP1 PUSH2 0x100 EXP SWAP1 DIV PUSH20 0xFFFFFFFFFFFFFFFFFFFFFFFFFFFFFFFFFFFFFFFF AND DUP2 JUMP JUMPDEST PUSH1 0x9 PUSH0 SWAP1 SLOAD SWAP1 PUSH2 0x100 EXP SWAP1 DIV PUSH20 0xFFFFFFFFFFFFFFFFFFFFFFFFFFFFFFFFFFFFFFFF AND DUP2 JUMP JUMPDEST PUSH1 0x3 SLOAD DUP2 JUMP JUMPDEST PUSH1 0x14 DUP2 JUMP JUMPDEST PUSH0 DUP2 JUMP JUMPDEST PUSH0 PUSH0 SWAP1 SLOAD SWAP1 PUSH2 0x100 EXP SWAP1 DIV PUSH20 0xFFFFFFFFFFFFFFFFFFFFFFFFFFFFFFFFFFFFFFFF AND PUSH20 0xFFFFFFFFFFFFFFFFFFFFFFFFFFFFFFFFFFFFFFFF AND CALLER PUSH20 0xFFFFFFFFFFFFFFFFFFFFFFFFFFFFFFFFFFFFFFFF AND EQ PUSH2 0x74E JUMPI PUSH1 0x40 MLOAD PUSH32 0x8C379A000000000000000000000000000000000000000000000000000000000 DUP2 MSTORE PUSH1 0x4 ADD PUSH2 0x745 SWAP1 PUSH2 0x1D11 JUMP JUMPDEST PUSH1 0x40 MLOAD DUP1 SWAP2 SUB SWAP1 REVERT JUMPDEST PUSH0 PUSH1 0xA PUSH1 0x14 PUSH2 0x100 EXP DUP2 SLOAD DUP2 PUSH1 0xFF MUL NOT AND SWAP1 DUP4 ISZERO ISZERO MUL OR SWAP1 SSTORE POP CALLER PUSH20 0xFFFFFFFFFFFFFFFFFFFFFFFFFFFFFFFFFFFFFFFF AND PUSH32 0x5DB9EE0A495BF2E6FF9C91A7834C1BA4FDD244A5E8AA4E537BD38AEAE4B073AA PUSH1 0x40 MLOAD PUSH1 0x40 MLOAD DUP1 SWAP2 SUB SWAP1 LOG2 JUMP JUMPDEST PUSH1 0x6 PUSH0 SWAP1 SLOAD SWAP1 PUSH2 0x100 EXP SWAP1 DIV PUSH20 0xFFFFFFFFFFFFFFFFFFFFFFFFFFFFFFFFFFFFFFFF AND PUSH20 0xFFFFFFFFFFFFFFFFFFFFFFFFFFFFFFFFFFFFFFFF AND CALLER PUSH20 0xFFFFFFFFFFFFFFFFFFFFFFFFFFFFFFFFFFFFFFFF AND EQ DUP1 PUSH2 0x853 JUMPI POP PUSH0 PUSH0 SWAP1 SLOAD SWAP1 PUSH2 0x100 EXP SWAP1 DIV PUSH20 0xFFFFFFFFFFFFFFFFFFFFFFFFFFFFFFFFFFFFFFFF AND PUSH20 0xFFFFFFFFFFFFFFFFFFFFFFFFFFFFFFFFFFFFFFFF AND CALLER PUSH20 0xFFFFFFFFFFFFFFFFFFFFFFFFFFFFFFFFFFFFFFFF AND EQ JUMPDEST DUP1 PUSH2 0x8AA JUMPI POP PUSH1 0x8 PUSH0 SWAP1 SLOAD SWAP1 PUSH2 0x100 EXP SWAP1 DIV PUSH20 0xFFFFFFFFFFFFFFFFFFFFFFFFFFFFFFFFFFFFFFFF AND PUSH20 0xFFFFFFFFFFFFFFFFFFFFFFFFFFFFFFFFFFFFFFFF AND CALLER PUSH20 0xFFFFFFFFFFFFFFFFFFFFFFFFFFFFFFFFFFFFFFFF AND EQ JUMPDEST PUSH2 0x8E9 JUMPI PUSH1 0x40 MLOAD PUSH32 0x8C379A000000000000000000000000000000000000000000000000000000000 DUP2 MSTORE PUSH1 0x4 ADD PUSH2 0x8E0 SWAP1 PUSH2 0x1D79 JUMP JUMPDEST PUSH1 0x40 MLOAD DUP1 SWAP2 SUB SWAP1 REVERT JUMPDEST PUSH0 PUSH20 0xFFFFFFFFFFFFFFFFFFFFFFFFFFFFFFFFFFFFFFFF AND DUP3 PUSH20 0xFFFFFFFFFFFFFFFFFFFFFFFFFFFFFFFFFFFFFFFF AND SUB PUSH2 0x957 JUMPI PUSH1 0x40 MLOAD PUSH32 0x8C379A000000000000000000000000000000000000000000000000000000000 DUP2 MSTORE PUSH1 0x4 ADD PUSH2 0x94E SWAP1 PUSH2 0x1DE1 JUMP JUMPDEST PUSH1 0x40 MLOAD DUP1 SWAP2 SUB SWAP1 REVERT JUMPDEST PUSH0 DUP2 GT PUSH2 0x999 JUMPI PUSH1 0x40 MLOAD PUSH32 0x8C379A000000000000000000000000000000000000000000000000000000000 DUP2 MSTORE PUSH1 0x4 ADD PUSH2 0x990 SWAP1 PUSH2 0x1E49 JUMP JUMPDEST PUSH1 0x40 MLOAD DUP1 SWAP2 SUB SWAP1 REVERT JUMPDEST PUSH2 0x9A2 DUP3 PUSH2 0x1715 JUMP JUMPDEST PUSH2 0x9AB DUP2 PUSH2 0x17F0 JUMP JUMPDEST PUSH2 0x9FC DUP2 PUSH1 0x5 PUSH0 DUP6 PUSH20 0xFFFFFFFFFFFFFFFFFFFFFFFFFFFFFFFFFFFFFFFF AND PUSH20 0xFFFFFFFFFFFFFFFFFFFFFFFFFFFFFFFFFFFFFFFF AND DUP2 MSTORE PUSH1 0x20 ADD SWAP1 DUP2 MSTORE PUSH1 0x20 ADD PUSH0 KECCAK256 SLOAD PUSH2 0x9F7 SWAP2 SWAP1 PUSH2 0x1E94 JUMP JUMPDEST PUSH2 0x184F JUMP JUMPDEST DUP1 PUSH1 0x5 PUSH0 DUP5 PUSH20 0xFFFFFFFFFFFFFFFFFFFFFFFFFFFFFFFFFFFFFFFF AND PUSH20 0xFFFFFFFFFFFFFFFFFFFFFFFFFFFFFFFFFFFFFFFF AND DUP2 MSTORE PUSH1 0x20 ADD SWAP1 DUP2 MSTORE PUSH1 0x20 ADD PUSH0 KECCAK256 PUSH0 DUP3 DUP3 SLOAD PUSH2 0xA48 SWAP2 SWAP1 PUSH2 0x1E94 JUMP JUMPDEST SWAP3 POP POP DUP2 SWAP1 SSTORE POP DUP1 PUSH1 0x3 PUSH0 DUP3 DUP3 SLOAD PUSH2 0xA60 SWAP2 SWAP1 PUSH2 0x1E94 JUMP JUMPDEST SWAP3 POP POP DUP2 SWAP1 SSTORE POP DUP2 PUSH20 0xFFFFFFFFFFFFFFFFFFFFFFFFFFFFFFFFFFFFFFFF AND PUSH32 0xF6798A560793A54C3BCFE86A93CDE1E73087D944C0EA20544137D4121396885 DUP3 PUSH1 0x40 MLOAD PUSH2 0xAAD SWAP2 SWAP1 PUSH2 0x1A8C JUMP JUMPDEST PUSH1 0x40 MLOAD DUP1 SWAP2 SUB SWAP1 LOG2 DUP2 PUSH20 0xFFFFFFFFFFFFFFFFFFFFFFFFFFFFFFFFFFFFFFFF AND PUSH0 PUSH20 0xFFFFFFFFFFFFFFFFFFFFFFFFFFFFFFFFFFFFFFFF AND PUSH32 0xDDF252AD1BE2C89B69C2B068FC378DAA952BA7F163C4A11628F55A4DF523B3EF DUP4 PUSH1 0x40 MLOAD PUSH2 0xB12 SWAP2 SWAP1 PUSH2 0x1A8C JUMP JUMPDEST PUSH1 0x40 MLOAD DUP1 SWAP2 SUB SWAP1 LOG3 POP POP JUMP JUMPDEST PUSH1 0xA PUSH1 0x14 SWAP1 SLOAD SWAP1 PUSH2 0x100 EXP SWAP1 DIV PUSH1 0xFF AND DUP2 JUMP JUMPDEST PUSH0 PUSH0 SWAP1 SLOAD SWAP1 PUSH2 0x100 EXP SWAP1 DIV PUSH20 0xFFFFFFFFFFFFFFFFFFFFFFFFFFFFFFFFFFFFFFFF AND PUSH20 0xFFFFFFFFFFFFFFFFFFFFFFFFFFFFFFFFFFFFFFFF AND CALLER PUSH20 0xFFFFFFFFFFFFFFFFFFFFFFFFFFFFFFFFFFFFFFFF AND EQ PUSH2 0xBBF JUMPI PUSH1 0x40 MLOAD PUSH32 0x8C379A000000000000000000000000000000000000000000000000000000000 DUP2 MSTORE PUSH1 0x4 ADD PUSH2 0xBB6 SWAP1 PUSH2 0x1D11 JUMP JUMPDEST PUSH1 0x40 MLOAD DUP1 SWAP2 SUB SWAP1 REVERT JUMPDEST PUSH0 PUSH20 0xFFFFFFFFFFFFFFFFFFFFFFFFFFFFFFFFFFFFFFFF AND DUP2 PUSH20 0xFFFFFFFFFFFFFFFFFFFFFFFFFFFFFFFFFFFFFFFF AND SUB PUSH2 0xC2D JUMPI PUSH1 0x40 MLOAD PUSH32 0x8C379A000000000000000000000000000000000000000000000000000000000 DUP2 MSTORE PUSH1 0x4 ADD PUSH2 0xC24 SWAP1 PUSH2 0x1F11 JUMP JUMPDEST PUSH1 0x40 MLOAD DUP1 SWAP2 SUB SWAP1 REVERT JUMPDEST DUP1 PUSH20 0xFFFFFFFFFFFFFFFFFFFFFFFFFFFFFFFFFFFFFFFF AND PUSH1 0x9 PUSH0 SWAP1 SLOAD SWAP1 PUSH2 0x100 EXP SWAP1 DIV PUSH20 0xFFFFFFFFFFFFFFFFFFFFFFFFFFFFFFFFFFFFFFFF AND PUSH20 0xFFFFFFFFFFFFFFFFFFFFFFFFFFFFFFFFFFFFFFFF AND PUSH32 0x9F4583EA13E020DE4CB3B03F413F9BC832CA78E7AF5680DFED1A8E80A6BE81F7 PUSH1 0x40 MLOAD PUSH1 0x40 MLOAD DUP1 SWAP2 SUB SWAP1 LOG3 DUP1 PUSH1 0x9 PUSH0 PUSH2 0x100 EXP DUP2 SLOAD DUP2 PUSH20 0xFFFFFFFFFFFFFFFFFFFFFFFFFFFFFFFFFFFFFFFF MUL NOT AND SWAP1 DUP4 PUSH20 0xFFFFFFFFFFFFFFFFFFFFFFFFFFFFFFFFFFFFFFFF AND MUL OR SWAP1 SSTORE POP POP JUMP JUMPDEST PUSH1 0x5 PUSH1 0x20 MSTORE DUP1 PUSH0 MSTORE PUSH1 0x40 PUSH0 KECCAK256 PUSH0 SWAP2 POP SWAP1 POP SLOAD DUP2 JUMP JUMPDEST PUSH0 PUSH0 SWAP1 SLOAD SWAP1 PUSH2 0x100 EXP SWAP1 DIV PUSH20 0xFFFFFFFFFFFFFFFFFFFFFFFFFFFFFFFFFFFFFFFF AND PUSH20 0xFFFFFFFFFFFFFFFFFFFFFFFFFFFFFFFFFFFFFFFF AND CALLER PUSH20 0xFFFFFFFFFFFFFFFFFFFFFFFFFFFFFFFFFFFFFFFF AND EQ PUSH2 0xD8E JUMPI PUSH1 0x40 MLOAD PUSH32 0x8C379A000000000000000000000000000000000000000000000000000000000 DUP2 MSTORE PUSH1 0x4 ADD PUSH2 0xD85 SWAP1 PUSH2 0x1D11 JUMP JUMPDEST PUSH1 0x40 MLOAD DUP1 SWAP2 SUB SWAP1 REVERT JUMPDEST PUSH1 0x1 PUSH1 0xA PUSH1 0x14 PUSH2 0x100 EXP DUP2 SLOAD DUP2 PUSH1 0xFF MUL NOT AND SWAP1 DUP4 ISZERO ISZERO MUL OR SWAP1 SSTORE POP CALLER PUSH20 0xFFFFFFFFFFFFFFFFFFFFFFFFFFFFFFFFFFFFFFFF AND PUSH32 0x62E78CEA01BEE320CD4E420270B5EA74000D11B0C9F74754EBDBFC544B05A258 PUSH1 0x40 MLOAD PUSH1 0x40 MLOAD DUP1 SWAP2 SUB SWAP1 LOG2 JUMP JUMPDEST PUSH0 PUSH0 SWAP1 SLOAD SWAP1 PUSH2 0x100 EXP SWAP1 DIV PUSH20 0xFFFFFFFFFFFFFFFFFFFFFFFFFFFFFFFFFFFFFFFF AND DUP2 JUMP JUMPDEST PUSH1 0x2 DUP1 SLOAD PUSH2 0xE1F SWAP1 PUSH2 0x1C97 JUMP JUMPDEST DUP1 PUSH1 0x1F ADD PUSH1 0x20 DUP1 SWAP2 DIV MUL PUSH1 0x20 ADD PUSH1 0x40 MLOAD SWAP1 DUP2 ADD PUSH1 0x40 MSTORE DUP1 SWAP3 SWAP2 SWAP1 DUP2 DUP2 MSTORE PUSH1 0x20 ADD DUP3 DUP1 SLOAD PUSH2 0xE4B SWAP1 PUSH2 0x1C97 JUMP JUMPDEST DUP1 ISZERO PUSH2 0xE96 JUMPI DUP1 PUSH1 0x1F LT PUSH2 0xE6D JUMPI PUSH2 0x100 DUP1 DUP4 SLOAD DIV MUL DUP4 MSTORE SWAP2 PUSH1 0x20 ADD SWAP2 PUSH2 0xE96 JUMP JUMPDEST DUP3 ADD SWAP2 SWAP1 PUSH0 MSTORE PUSH1 0x20 PUSH0 KECCAK256 SWAP1 JUMPDEST DUP2 SLOAD DUP2 MSTORE SWAP1 PUSH1 0x1 ADD SWAP1 PUSH1 0x20 ADD DUP1 DUP4 GT PUSH2 0xE79 JUMPI DUP3 SWAP1 SUB PUSH1 0x1F AND DUP3 ADD SWAP2 JUMPDEST POP POP POP POP POP DUP2 JUMP JUMPDEST PUSH1 0x6 PUSH0 SWAP1 SLOAD SWAP1 PUSH2 0x100 EXP SWAP1 DIV PUSH20 0xFFFFFFFFFFFFFFFFFFFFFFFFFFFFFFFFFFFFFFFF AND PUSH20 0xFFFFFFFFFFFFFFFFFFFFFFFFFFFFFFFFFFFFFFFF AND CALLER PUSH20 0xFFFFFFFFFFFFFFFFFFFFFFFFFFFFFFFFFFFFFFFF AND EQ DUP1 PUSH2 0xF44 JUMPI POP PUSH0 PUSH0 SWAP1 SLOAD SWAP1 PUSH2 0x100 EXP SWAP1 DIV PUSH20 0xFFFFFFFFFFFFFFFFFFFFFFFFFFFFFFFFFFFFFFFF AND PUSH20 0xFFFFFFFFFFFFFFFFFFFFFFFFFFFFFFFFFFFFFFFF AND CALLER PUSH20 0xFFFFFFFFFFFFFFFFFFFFFFFFFFFFFFFFFFFFFFFF AND EQ JUMPDEST DUP1 PUSH2 0xF9B JUMPI POP PUSH1 0x8 PUSH0 SWAP1 SLOAD SWAP1 PUSH2 0x100 EXP SWAP1 DIV PUSH20 0xFFFFFFFFFFFFFFFFFFFFFFFFFFFFFFFFFFFFFFFF AND PUSH20 0xFFFFFFFFFFFFFFFFFFFFFFFFFFFFFFFFFFFFFFFF AND CALLER PUSH20 0xFFFFFFFFFFFFFFFFFFFFFFFFFFFFFFFFFFFFFFFF AND EQ JUMPDEST PUSH2 0xFDA JUMPI PUSH1 0x40 MLOAD PUSH32 0x8C379A000000000000000000000000000000000000000000000000000000000 DUP2 MSTORE PUSH1 0x4 ADD PUSH2 0xFD1 SWAP1 PUSH2 0x1D79 JUMP JUMPDEST PUSH1 0x40 MLOAD DUP1 SWAP2 SUB SWAP1 REVERT JUMPDEST PUSH0 PUSH20 0xFFFFFFFFFFFFFFFFFFFFFFFFFFFFFFFFFFFFFFFF AND DUP3 PUSH20 0xFFFFFFFFFFFFFFFFFFFFFFFFFFFFFFFFFFFFFFFF AND SUB PUSH2 0x1048 JUMPI PUSH1 0x40 MLOAD PUSH32 0x8C379A000000000000000000000000000000000000000000000000000000000 DUP2 MSTORE PUSH1 0x4 ADD PUSH2 0x103F SWAP1 PUSH2 0x1F79 JUMP JUMPDEST PUSH1 0x40 MLOAD DUP1 SWAP2 SUB SWAP1 REVERT JUMPDEST DUP1 PUSH1 0x5 PUSH0 DUP5 PUSH20 0xFFFFFFFFFFFFFFFFFFFFFFFFFFFFFFFFFFFFFFFF AND PUSH20 0xFFFFFFFFFFFFFFFFFFFFFFFFFFFFFFFFFFFFFFFF AND DUP2 MSTORE PUSH1 0x20 ADD SWAP1 DUP2 MSTORE PUSH1 0x20 ADD PUSH0 KECCAK256 SLOAD LT ISZERO PUSH2 0x10C8 JUMPI PUSH1 0x40 MLOAD PUSH32 0x8C379A000000000000000000000000000000000000000000000000000000000 DUP2 MSTORE PUSH1 0x4 ADD PUSH2 0x10BF SWAP1 PUSH2 0x1FE1 JUMP JUMPDEST PUSH1 0x40 MLOAD DUP1 SWAP2 SUB SWAP1 REVERT JUMPDEST DUP1 PUSH1 0x5 PUSH0 DUP5 PUSH20 0xFFFFFFFFFFFFFFFFFFFFFFFFFFFFFFFFFFFFFFFF AND PUSH20 0xFFFFFFFFFFFFFFFFFFFFFFFFFFFFFFFFFFFFFFFF AND DUP2 MSTORE PUSH1 0x20 ADD SWAP1 DUP2 MSTORE PUSH1 0x20 ADD PUSH0 KECCAK256 PUSH0 DUP3 DUP3 SLOAD PUSH2 0x1114 SWAP2 SWAP1 PUSH2 0x1FFF JUMP JUMPDEST SWAP3 POP POP DUP2 SWAP1 SSTORE POP DUP1 PUSH1 0x3 PUSH0 DUP3 DUP3 SLOAD PUSH2 0x112C SWAP2 SWAP1 PUSH2 0x1FFF JUMP JUMPDEST SWAP3 POP POP DUP2 SWAP1 SSTORE POP DUP2 PUSH20 0xFFFFFFFFFFFFFFFFFFFFFFFFFFFFFFFFFFFFFFFF AND PUSH32 0xCC16F5DBB4873280815C1EE09DBD06736CFFCC184412CF7A71A0FDB75D397CA5 DUP3 PUSH1 0x40 MLOAD PUSH2 0x1179 SWAP2 SWAP1 PUSH2 0x1A8C JUMP JUMPDEST PUSH1 0x40 MLOAD DUP1 SWAP2 SUB SWAP1 LOG2 PUSH0 PUSH20 0xFFFFFFFFFFFFFFFFFFFFFFFFFFFFFFFFFFFFFFFF AND DUP3 PUSH20 0xFFFFFFFFFFFFFFFFFFFFFFFFFFFFFFFFFFFFFFFF AND PUSH32 0xDDF252AD1BE2C89B69C2B068FC378DAA952BA7F163C4A11628F55A4DF523B3EF DUP4 PUSH1 0x40 MLOAD PUSH2 0x11DE SWAP2 SWAP1 PUSH2 0x1A8C JUMP JUMPDEST PUSH1 0x40 MLOAD DUP1 SWAP2 SUB SWAP1 LOG3 POP POP JUMP JUMPDEST PUSH1 0x6 PUSH0 SWAP1 SLOAD SWAP1 PUSH2 0x100 EXP SWAP1 DIV PUSH20 0xFFFFFFFFFFFFFFFFFFFFFFFFFFFFFFFFFFFFFFFF AND DUP2 JUMP JUMPDEST PUSH0 PUSH1 0xA PUSH1 0x14 SWAP1 SLOAD SWAP1 PUSH2 0x100 EXP SWAP1 DIV PUSH1 0xFF AND ISZERO PUSH2 0x1260 JUMPI PUSH1 0x40 MLOAD PUSH32 0x8C379A000000000000000000000000000000000000000000000000000000000 DUP2 MSTORE PUSH1 0x4 ADD PUSH2 0x1257 SWAP1 PUSH2 0x207C JUMP JUMPDEST PUSH1 0x40 MLOAD DUP1 SWAP2 SUB SWAP1 REVERT JUMPDEST PUSH0 CALLER SWAP1 POP PUSH0 PUSH20 0xFFFFFFFFFFFFFFFFFFFFFFFFFFFFFFFFFFFFFFFF AND DUP5 PUSH20 0xFFFFFFFFFFFFFFFFFFFFFFFFFFFFFFFFFFFFFFFF AND SUB PUSH2 0x12D2 JUMPI PUSH1 0x40 MLOAD PUSH32 0x8C379A000000000000000000000000000000000000000000000000000000000 DUP2 MSTORE PUSH1 0x4 ADD PUSH2 0x12C9 SWAP1 PUSH2 0x20E4 JUMP JUMPDEST PUSH1 0x40 MLOAD DUP1 SWAP2 SUB SWAP1 REVERT JUMPDEST PUSH0 DUP4 GT PUSH2 0x1314 JUMPI PUSH1 0x40 MLOAD PUSH32 0x8C379A000000000000000000000000000000000000000000000000000000000 DUP2 MSTORE PUSH1 0x4 ADD PUSH2 0x130B SWAP1 PUSH2 0x1E49 JUMP JUMPDEST PUSH1 0x40 MLOAD DUP1 SWAP2 SUB SWAP1 REVERT JUMPDEST DUP3 PUSH1 0x5 PUSH0 DUP4 PUSH20 0xFFFFFFFFFFFFFFFFFFFFFFFFFFFFFFFFFFFFFFFF AND PUSH20 0xFFFFFFFFFFFFFFFFFFFFFFFFFFFFFFFFFFFFFFFF AND DUP2 MSTORE PUSH1 0x20 ADD SWAP1 DUP2 MSTORE PUSH1 0x20 ADD PUSH0 KECCAK256 SLOAD LT ISZERO PUSH2 0x1394 JUMPI PUSH1 0x40 MLOAD PUSH32 0x8C379A000000000000000000000000000000000000000000000000000000000 DUP2 MSTORE PUSH1 0x4 ADD PUSH2 0x138B SWAP1 PUSH2 0x1FE1 JUMP JUMPDEST PUSH1 0x40 MLOAD DUP1 SWAP2 SUB SWAP1 REVERT JUMPDEST PUSH2 0x139D DUP2 PUSH2 0x1715 JUMP JUMPDEST PUSH2 0x13A6 DUP5 PUSH2 0x1715 JUMP JUMPDEST PUSH2 0x13F7 DUP4 PUSH1 0x5 PUSH0 DUP8 PUSH20 0xFFFFFFFFFFFFFFFFFFFFFFFFFFFFFFFFFFFFFFFF AND PUSH20 0xFFFFFFFFFFFFFFFFFFFFFFFFFFFFFFFFFFFFFFFF AND DUP2 MSTORE PUSH1 0x20 ADD SWAP1 DUP2 MSTORE PUSH1 0x20 ADD PUSH0 KECCAK256 SLOAD PUSH2 0x13F2 SWAP2 SWAP1 PUSH2 0x1E94 JUMP JUMPDEST PUSH2 0x184F JUMP JUMPDEST DUP3 PUSH1 0x5 PUSH0 DUP4 PUSH20 0xFFFFFFFFFFFFFFFFFFFFFFFFFFFFFFFFFFFFFFFF AND PUSH20 0xFFFFFFFFFFFFFFFFFFFFFFFFFFFFFFFFFFFFFFFF AND DUP2 MSTORE PUSH1 0x20 ADD SWAP1 DUP2 MSTORE PUSH1 0x20 ADD PUSH0 KECCAK256 PUSH0 DUP3 DUP3 SLOAD PUSH2 0x1443 SWAP2 SWAP1 PUSH2 0x1FFF JUMP JUMPDEST SWAP3 POP POP DUP2 SWAP1 SSTORE POP DUP3 PUSH1 0x5 PUSH0 DUP7 PUSH20 0xFFFFFFFFFFFFFFFFFFFFFFFFFFFFFFFFFFFFFFFF AND PUSH20 0xFFFFFFFFFFFFFFFFFFFFFFFFFFFFFFFFFFFFFFFF AND DUP2 MSTORE PUSH1 0x20 ADD SWAP1 DUP2 MSTORE PUSH1 0x20 ADD PUSH0 KECCAK256 PUSH0 DUP3 DUP3 SLOAD PUSH2 0x1496 SWAP2 SWAP1 PUSH2 0x1E94 JUMP JUMPDEST SWAP3 POP POP DUP2 SWAP1 SSTORE POP DUP4 PUSH20 0xFFFFFFFFFFFFFFFFFFFFFFFFFFFFFFFFFFFFFFFF AND DUP2 PUSH20 0xFFFFFFFFFFFFFFFFFFFFFFFFFFFFFFFFFFFFFFFF AND PUSH32 0xDDF252AD1BE2C89B69C2B068FC378DAA952BA7F163C4A11628F55A4DF523B3EF DUP6 PUSH1 0x40 MLOAD PUSH2 0x14FA SWAP2 SWAP1 PUSH2 0x1A8C JUMP JUMPDEST PUSH1 0x40 MLOAD DUP1 SWAP2 SUB SWAP1 LOG3 PUSH1 0x1 SWAP2 POP POP SWAP3 SWAP2 POP POP JUMP JUMPDEST PUSH1 0x7 PUSH0 SWAP1 SLOAD SWAP1 PUSH2 0x100 EXP SWAP1 DIV PUSH20 0xFFFFFFFFFFFFFFFFFFFFFFFFFFFFFFFFFFFFFFFF AND DUP2 JUMP JUMPDEST PUSH1 0x4 SLOAD DUP2 JUMP JUMPDEST PUSH1 0x8 PUSH0 SWAP1 SLOAD SWAP1 PUSH2 0x100 EXP SWAP1 DIV PUSH20 0xFFFFFFFFFFFFFFFFFFFFFFFFFFFFFFFFFFFFFFFF AND DUP2 JUMP JUMPDEST PUSH0 PUSH0 SWAP1 SLOAD SWAP1 PUSH2 0x100 EXP SWAP1 DIV PUSH20 0xFFFFFFFFFFFFFFFFFFFFFFFFFFFFFFFFFFFFFFFF AND PUSH20 0xFFFFFFFFFFFFFFFFFFFFFFFFFFFFFFFFFFFFFFFF AND CALLER PUSH20 0xFFFFFFFFFFFFFFFFFFFFFFFFFFFFFFFFFFFFFFFF AND EQ PUSH2 0x15EB JUMPI PUSH1 0x40 MLOAD PUSH32 0x8C379A000000000000000000000000000000000000000000000000000000000 DUP2 MSTORE PUSH1 0x4 ADD PUSH2 0x15E2 SWAP1 PUSH2 0x1D11 JUMP JUMPDEST PUSH1 0x40 MLOAD DUP1 SWAP2 SUB SWAP1 REVERT JUMPDEST PUSH0 PUSH20 0xFFFFFFFFFFFFFFFFFFFFFFFFFFFFFFFFFFFFFFFF AND DUP2 PUSH20 0xFFFFFFFFFFFFFFFFFFFFFFFFFFFFFFFFFFFFFFFF AND SUB PUSH2 0x1659 JUMPI PUSH1 0x40 MLOAD PUSH32 0x8C379A000000000000000000000000000000000000000000000000000000000 DUP2 MSTORE PUSH1 0x4 ADD PUSH2 0x1650 SWAP1 PUSH2 0x214C JUMP JUMPDEST PUSH1 0x40 MLOAD DUP1 SWAP2 SUB SWAP1 REVERT JUMPDEST DUP1 PUSH20 0xFFFFFFFFFFFFFFFFFFFFFFFFFFFFFFFFFFFFFFFF AND PUSH0 PUSH0 SWAP1 SLOAD SWAP1 PUSH2 0x100 EXP SWAP1 DIV PUSH20 0xFFFFFFFFFFFFFFFFFFFFFFFFFFFFFFFFFFFFFFFF AND PUSH20 0xFFFFFFFFFFFFFFFFFFFFFFFFFFFFFFFFFFFFFFFF AND PUSH32 0x8BE0079C531659141344CD1FD0A4F28419497F9722A3DAAFE3B4186F6B6457E0 PUSH1 0x40 MLOAD PUSH1 0x40 MLOAD DUP1 SWAP2 SUB SWAP1 LOG3 DUP1 PUSH0 PUSH0 PUSH2 0x100 EXP DUP2 SLOAD DUP2 PUSH20 0xFFFFFFFFFFFFFFFFFFFFFFFFFFFFFFFFFFFFFFFF MUL NOT AND SWAP1 DUP4 PUSH20 0xFFFFFFFFFFFFFFFFFFFFFFFFFFFFFFFFFFFFFFFF AND MUL OR SWAP1 SSTORE POP POP JUMP JUMPDEST PUSH1 0xA PUSH0 SWAP1 SLOAD SWAP1 PUSH2 0x100 EXP SWAP1 DIV PUSH20 0xFFFFFFFFFFFFFFFFFFFFFFFFFFFFFFFFFFFFFFFF AND PUSH20 0xFFFFFFFFFFFFFFFFFFFFFFFFFFFFFFFFFFFFFFFF AND PUSH4 0xB9209E33 DUP3 PUSH1 0x40 MLOAD DUP3 PUSH4 0xFFFFFFFF AND PUSH1 0xE0 SHL DUP2 MSTORE PUSH1 0x4 ADD PUSH2 0x176F SWAP2 SWAP1 PUSH2 0x1A5B JUMP JUMPDEST PUSH1 0x20 PUSH1 0x40 MLOAD DUP1 DUP4 SUB DUP2 DUP7 GAS STATICCALL ISZERO DUP1 ISZERO PUSH2 0x178A JUMPI RETURNDATASIZE PUSH0 PUSH0 RETURNDATACOPY RETURNDATASIZE PUSH0 REVERT JUMPDEST POP POP POP POP PUSH1 0x40 MLOAD RETURNDATASIZE PUSH1 0x1F NOT PUSH1 0x1F DUP3 ADD AND DUP3 ADD DUP1 PUSH1 0x40 MSTORE POP DUP2 ADD SWAP1 PUSH2 0x17AE SWAP2 SWAP1 PUSH2 0x2194 JUMP JUMPDEST PUSH2 0x17ED JUMPI PUSH1 0x40 MLOAD PUSH32 0x8C379A000000000000000000000000000000000000000000000000000000000 DUP2 MSTORE PUSH1 0x4 ADD PUSH2 0x17E4 SWAP1 PUSH2 0x2209 JUMP JUMPDEST PUSH1 0x40 MLOAD DUP1 SWAP2 SUB SWAP1 REVERT JUMPDEST POP JUMP JUMPDEST PUSH0 PUSH1 0x4 SLOAD EQ PUSH2 0x184C JUMPI PUSH1 0x4 SLOAD DUP2 PUSH1 0x3 SLOAD PUSH2 0x180A SWAP2 SWAP1 PUSH2 0x1E94 JUMP JUMPDEST GT ISZERO PUSH2 0x184B JUMPI PUSH1 0x40 MLOAD PUSH32 0x8C379A000000000000000000000000000000000000000000000000000000000 DUP2 MSTORE PUSH1 0x4 ADD PUSH2 0x1842 SWAP1 PUSH2 0x2271 JUMP JUMPDEST PUSH1 0x40 MLOAD DUP1 SWAP2 SUB SWAP1 REVERT JUMPDEST JUMPDEST POP JUMP JUMPDEST PUSH0 PUSH1 0x4 SLOAD SUB ISZERO PUSH2 0x18BC JUMPI PUSH0 PUSH1 0x64 PUSH1 0x14 PUSH1 0x4 SLOAD PUSH2 0x186B SWAP2 SWAP1 PUSH2 0x228F JUMP JUMPDEST PUSH2 0x1875 SWAP2 SWAP1 PUSH2 0x22FD JUMP JUMPDEST SWAP1 POP DUP1 DUP3 GT ISZERO PUSH2 0x18BA JUMPI PUSH1 0x40 MLOAD PUSH32 0x8C379A000000000000000000000000000000000000000000000000000000000 DUP2 MSTORE PUSH1 0x4 ADD PUSH2 0x18B1 SWAP1 PUSH2 0x2377 JUMP JUMPDEST PUSH1 0x40 MLOAD DUP1 SWAP2 SUB SWAP1 REVERT JUMPDEST POP JUMPDEST POP JUMP JUMPDEST PUSH0 PUSH0 REVERT JUMPDEST PUSH0 PUSH20 0xFFFFFFFFFFFFFFFFFFFFFFFFFFFFFFFFFFFFFFFF DUP3 AND SWAP1 POP SWAP2 SWAP1 POP JUMP JUMPDEST PUSH0 PUSH2 0x18EC DUP3 PUSH2 0x18C3 JUMP JUMPDEST SWAP1 POP SWAP2 SWAP1 POP JUMP JUMPDEST PUSH2 0x18FC DUP2 PUSH2 0x18E2 JUMP JUMPDEST DUP2 EQ PUSH2 0x1906 JUMPI PUSH0 PUSH0 REVERT JUMPDEST POP JUMP JUMPDEST PUSH0 DUP2 CALLDATALOAD SWAP1 POP PUSH2 0x1917 DUP2 PUSH2 0x18F3 JUMP JUMPDEST SWAP3 SWAP2 POP POP JUMP JUMPDEST PUSH0 PUSH1 0x20 DUP3 DUP5 SUB SLT ISZERO PUSH2 0x1932 JUMPI PUSH2 0x1931 PUSH2 0x18BF JUMP JUMPDEST JUMPDEST PUSH0 PUSH2 0x193F DUP5 DUP3 DUP6 ADD PUSH2 0x1909 JUMP JUMPDEST SWAP2 POP POP SWAP3 SWAP2 POP POP JUMP JUMPDEST PUSH0 DUP2 MLOAD SWAP1 POP SWAP2 SWAP1 POP JUMP JUMPDEST PUSH0 DUP3 DUP3 MSTORE PUSH1 0x20 DUP3 ADD SWAP1 POP SWAP3 SWAP2 POP POP JUMP JUMPDEST DUP3 DUP2 DUP4 MCOPY PUSH0 DUP4 DUP4 ADD MSTORE POP POP POP JUMP JUMPDEST PUSH0 PUSH1 0x1F NOT PUSH1 0x1F DUP4 ADD AND SWAP1 POP SWAP2 SWAP1 POP JUMP JUMPDEST PUSH0 PUSH2 0x198A DUP3 PUSH2 0x1948 JUMP JUMPDEST PUSH2 0x1994 DUP2 DUP6 PUSH2 0x1952 JUMP JUMPDEST SWAP4 POP PUSH2 0x19A4 DUP2 DUP6 PUSH1 0x20 DUP7 ADD PUSH2 0x1962 JUMP JUMPDEST PUSH2 0x19AD DUP2 PUSH2 0x1970 JUMP JUMPDEST DUP5 ADD SWAP2 POP POP SWAP3 SWAP2 POP POP JUMP JUMPDEST PUSH0 PUSH1 0x20 DUP3 ADD SWAP1 POP DUP2 DUP2 SUB PUSH0 DUP4 ADD MSTORE PUSH2 0x19D0 DUP2 DUP5 PUSH2 0x1980 JUMP JUMPDEST SWAP1 POP SWAP3 SWAP2 POP POP JUMP JUMPDEST PUSH0 DUP2 SWAP1 POP SWAP2 SWAP1 POP JUMP JUMPDEST PUSH0 PUSH2 0x19FB PUSH2 0x19F6 PUSH2 0x19F1 DUP5 PUSH2 0x18C3 JUMP JUMPDEST PUSH2 0x19D8 JUMP JUMPDEST PUSH2 0x18C3 JUMP JUMPDEST SWAP1 POP SWAP2 SWAP1 POP JUMP JUMPDEST PUSH0 PUSH2 0x1A0C DUP3 PUSH2 0x19E1 JUMP JUMPDEST SWAP1 POP SWAP2 SWAP1 POP JUMP JUMPDEST PUSH0 PUSH2 0x1A1D DUP3 PUSH2 0x1A02 JUMP JUMPDEST SWAP1 POP SWAP2 SWAP1 POP JUMP JUMPDEST PUSH2 0x1A2D DUP2 PUSH2 0x1A13 JUMP JUMPDEST DUP3 MSTORE POP POP JUMP JUMPDEST PUSH0 PUSH1 0x20 DUP3 ADD SWAP1 POP PUSH2 0x1A46 PUSH0 DUP4 ADD DUP5 PUSH2 0x1A24 JUMP JUMPDEST SWAP3 SWAP2 POP POP JUMP JUMPDEST PUSH2 0x1A55 DUP2 PUSH2 0x18E2 JUMP JUMPDEST DUP3 MSTORE POP POP JUMP JUMPDEST PUSH0 PUSH1 0x20 DUP3 ADD SWAP1 POP PUSH2 0x1A6E PUSH0 DUP4 ADD DUP5 PUSH2 0x1A4C JUMP JUMPDEST SWAP3 SWAP2 POP POP JUMP JUMPDEST PUSH0 DUP2 SWAP1 POP SWAP2 SWAP1 POP JUMP JUMPDEST PUSH2 0x1A86 DUP2 PUSH2 0x1A74 JUMP JUMPDEST DUP3 MSTORE POP POP JUMP JUMPDEST PUSH0 PUSH1 0x20 DUP3 ADD SWAP1 POP PUSH2 0x1A9F PUSH0 DUP4 ADD DUP5 PUSH2 0x1A7D JUMP JUMPDEST SWAP3 SWAP2 POP POP JUMP JUMPDEST PUSH0 PUSH1 0xFF DUP3 AND SWAP1 POP SWAP2 SWAP1 POP JUMP JUMPDEST PUSH2 0x1ABA DUP2 PUSH2 0x1AA5 JUMP JUMPDEST DUP3 MSTORE POP POP JUMP JUMPDEST PUSH0 PUSH1 0x20 DUP3 ADD SWAP1 POP PUSH2 0x1AD3 PUSH0 DUP4 ADD DUP5 PUSH2 0x1AB1 JUMP JUMPDEST SWAP3 SWAP2 POP POP JUMP JUMPDEST PUSH2 0x1AE2 DUP2 PUSH2 0x1A74 JUMP JUMPDEST DUP2 EQ PUSH2 0x1AEC JUMPI PUSH0 PUSH0 REVERT JUMPDEST POP JUMP JUMPDEST PUSH0 DUP2 CALLDATALOAD SWAP1 POP PUSH2 0x1AFD DUP2 PUSH2 0x1AD9 JUMP JUMPDEST SWAP3 SWAP2 POP POP JUMP JUMPDEST PUSH0 PUSH0 PUSH1 0x40 DUP4 DUP6 SUB SLT ISZERO PUSH2 0x1B19 JUMPI PUSH2 0x1B18 PUSH2 0x18BF JUMP JUMPDEST JUMPDEST PUSH0 PUSH2 0x1B26 DUP6 DUP3 DUP7 ADD PUSH2 0x1909 JUMP JUMPDEST SWAP3 POP POP PUSH1 0x20 PUSH2 0x1B37 DUP6 DUP3 DUP7 ADD PUSH2 0x1AEF JUMP JUMPDEST SWAP2 POP POP SWAP3 POP SWAP3 SWAP1 POP JUMP JUMPDEST PUSH0 DUP2 ISZERO ISZERO SWAP1 POP SWAP2 SWAP1 POP JUMP JUMPDEST PUSH2 0x1B55 DUP2 PUSH2 0x1B41 JUMP JUMPDEST DUP3 MSTORE POP POP JUMP JUMPDEST PUSH0 PUSH1 0x20 DUP3 ADD SWAP1 POP PUSH2 0x1B6E PUSH0 DUP4 ADD DUP5 PUSH2 0x1B4C JUMP JUMPDEST SWAP3 SWAP2 POP POP JUMP JUMPDEST PUSH32 0x546F6B656E3A2063616C6C6572206E6F74206F776E6572206F722073616C6546 PUSH0 DUP3 ADD MSTORE PUSH32 0x6163746F72790000000000000000000000000000000000000000000000000000 PUSH1 0x20 DUP3 ADD MSTORE POP JUMP JUMPDEST PUSH0 PUSH2 0x1BCE PUSH1 0x26 DUP4 PUSH2 0x1952 JUMP JUMPDEST SWAP2 POP PUSH2 0x1BD9 DUP3 PUSH2 0x1B74 JUMP JUMPDEST PUSH1 0x40 DUP3 ADD SWAP1 POP SWAP2 SWAP1 POP JUMP JUMPDEST PUSH0 PUSH1 0x20 DUP3 ADD SWAP1 POP DUP2 DUP2 SUB PUSH0 DUP4 ADD MSTORE PUSH2 0x1BFB DUP2 PUSH2 0x1BC2 JUMP JUMPDEST SWAP1 POP SWAP2 SWAP1 POP JUMP JUMPDEST PUSH32 0x546F6B656E3A2073616C65436F6E7472616374207A65726F0000000000000000 PUSH0 DUP3 ADD MSTORE POP JUMP JUMPDEST PUSH0 PUSH2 0x1C36 PUSH1 0x18 DUP4 PUSH2 0x1952 JUMP JUMPDEST SWAP2 POP PUSH2 0x1C41 DUP3 PUSH2 0x1C02 JUMP JUMPDEST PUSH1 0x20 DUP3 ADD SWAP1 POP SWAP2 SWAP1 POP JUMP JUMPDEST PUSH0 PUSH1 0x20 DUP3 ADD SWAP1 POP DUP2 DUP2 SUB PUSH0 DUP4 ADD MSTORE PUSH2 0x1C63 DUP2 PUSH2 0x1C2A JUMP JUMPDEST SWAP1 POP SWAP2 SWAP1 POP JUMP JUMPDEST PUSH32 0x4E487B7100000000000000000000000000000000000000000000000000000000 PUSH0 MSTORE PUSH1 0x22 PUSH1 0x4 MSTORE PUSH1 0x24 PUSH0 REVERT JUMPDEST PUSH0 PUSH1 0x2 DUP3 DIV SWAP1 POP PUSH1 0x1 DUP3 AND DUP1 PUSH2 0x1CAE JUMPI PUSH1 0x7F DUP3 AND SWAP2 POP JUMPDEST PUSH1 0x20 DUP3 LT DUP2 SUB PUSH2 0x1CC1 JUMPI PUSH2 0x1CC0 PUSH2 0x1C6A JUMP JUMPDEST JUMPDEST POP SWAP2 SWAP1 POP JUMP JUMPDEST PUSH32 0x4F776E61626C653A2063616C6C6572206973206E6F7420746865206F776E6572 PUSH0 DUP3 ADD MSTORE POP JUMP JUMPDEST PUSH0 PUSH2 0x1CFB PUSH1 0x20 DUP4 PUSH2 0x1952 JUMP JUMPDEST SWAP2 POP PUSH2 0x1D06 DUP3 PUSH2 0x1CC7 JUMP JUMPDEST PUSH1 0x20 DUP3 ADD SWAP1 POP SWAP2 SWAP1 POP JUMP JUMPDEST PUSH0 PUSH1 0x20 DUP3 ADD SWAP1 POP DUP2 DUP2 SUB PUSH0 DUP4 ADD MSTORE PUSH2 0x1D28 DUP2 PUSH2 0x1CEF JUMP JUMPDEST SWAP1 POP SWAP2 SWAP1 POP JUMP JUMPDEST PUSH32 0x546F6B656E3A2063616C6C6572206E6F7420617574686F72697A656400000000 PUSH0 DUP3 ADD MSTORE POP JUMP JUMPDEST PUSH0 PUSH2 0x1D63 PUSH1 0x1C DUP4 PUSH2 0x1952 JUMP JUMPDEST SWAP2 POP PUSH2 0x1D6E DUP3 PUSH2 0x1D2F JUMP JUMPDEST PUSH1 0x20 DUP3 ADD SWAP1 POP SWAP2 SWAP1 POP JUMP JUMPDEST PUSH0 PUSH1 0x20 DUP3 ADD SWAP1 POP DUP2 DUP2 SUB PUSH0 DUP4 ADD MSTORE PUSH2 0x1D90 DUP2 PUSH2 0x1D57 JUMP JUMPDEST SWAP1 POP SWAP2 SWAP1 POP JUMP JUMPDEST PUSH32 0x546F6B656E3A206D696E7420746F207A65726F00000000000000000000000000 PUSH0 DUP3 ADD MSTORE POP JUMP JUMPDEST PUSH0 PUSH2 0x1DCB PUSH1 0x13 DUP4 PUSH2 0x1952 JUMP JUMPDEST SWAP2 POP PUSH2 0x1DD6 DUP3 PUSH2 0x1D97 JUMP JUMPDEST PUSH1 0x20 DUP3 ADD SWAP1 POP SWAP2 SWAP1 POP JUMP JUMPDEST PUSH0 PUSH1 0x20 DUP3 ADD SWAP1 POP DUP2 DUP2 SUB PUSH0 DUP4 ADD MSTORE PUSH2 0x1DF8 DUP2 PUSH2 0x1DBF JUMP JUMPDEST SWAP1 POP SWAP2 SWAP1 POP JUMP JUMPDEST PUSH32 0x546F6B656E3A20616D6F756E74207A65726F0000000000000000000000000000 PUSH0 DUP3 ADD MSTORE POP JUMP JUMPDEST PUSH0 PUSH2 0x1E33 PUSH1 0x12 DUP4 PUSH2 0x1952 JUMP JUMPDEST SWAP2 POP PUSH2 0x1E3E DUP3 PUSH2 0x1DFF JUMP JUMPDEST PUSH1 0x20 DUP3 ADD SWAP1 POP SWAP2 SWAP1 POP JUMP JUMPDEST PUSH0 PUSH1 0x20 DUP3 ADD SWAP1 POP DUP2 DUP2 SUB PUSH0 DUP4 ADD MSTORE PUSH2 0x1E60 DUP2 PUSH2 0x1E27 JUMP JUMPDEST SWAP1 POP SWAP2 SWAP1 POP JUMP JUMPDEST PUSH32 0x4E487B7100000000000000000000000000000000000000000000000000000000 PUSH0 MSTORE PUSH1 0x11 PUSH1 0x4 MSTORE PUSH1 0x24 PUSH0 REVERT JUMPDEST PUSH0 PUSH2 0x1E9E DUP3 PUSH2 0x1A74 JUMP JUMPDEST SWAP2 POP PUSH2 0x1EA9 DUP4 PUSH2 0x1A74 JUMP JUMPDEST SWAP3 POP DUP3 DUP3 ADD SWAP1 POP DUP1 DUP3 GT ISZERO PUSH2 0x1EC1 JUMPI PUSH2 0x1EC0 PUSH2 0x1E67 JUMP JUMPDEST JUMPDEST SWAP3 SWAP2 POP POP JUMP JUMPDEST PUSH32 0x546F6B656E3A2073616C65466163746F7279207A65726F000000000000000000 PUSH0 DUP3 ADD MSTORE POP JUMP JUMPDEST PUSH0 PUSH2 0x1EFB PUSH1 0x17 DUP4 PUSH2 0x1952 JUMP JUMPDEST SWAP2 POP PUSH2 0x1F06 DUP3 PUSH2 0x1EC7 JUMP JUMPDEST PUSH1 0x20 DUP3 ADD SWAP1 POP SWAP2 SWAP1 POP JUMP JUMPDEST PUSH0 PUSH1 0x20 DUP3 ADD SWAP1 POP DUP2 DUP2 SUB PUSH0 DUP4 ADD MSTORE PUSH2 0x1F28 DUP2 PUSH2 0x1EEF JUMP JUMPDEST SWAP1 POP SWAP2 SWAP1 POP JUMP JUMPDEST PUSH32 0x546F6B656E3A206275726E2066726F6D207A65726F0000000000000000000000 PUSH0 DUP3 ADD MSTORE POP JUMP JUMPDEST PUSH0 PUSH2 0x1F63 PUSH1 0x15 DUP4 PUSH2 0x1952 JUMP JUMPDEST SWAP2 POP PUSH2 0x1F6E DUP3 PUSH2 0x1F2F JUMP JUMPDEST PUSH1 0x20 DUP3 ADD SWAP1 POP SWAP2 SWAP1 POP JUMP JUMPDEST PUSH0 PUSH1 0x20 DUP3 ADD SWAP1 POP DUP2 DUP2 SUB PUSH0 DUP4 ADD MSTORE PUSH2 0x1F90 DUP2 PUSH2 0x1F57 JUMP JUMPDEST SWAP1 POP SWAP2 SWAP1 POP JUMP JUMPDEST PUSH32 0x546F6B656E3A20696E73756666696369656E742062616C616E63650000000000 PUSH0 DUP3 ADD MSTORE POP JUMP JUMPDEST PUSH0 PUSH2 0x1FCB PUSH1 0x1B DUP4 PUSH2 0x1952 JUMP JUMPDEST SWAP2 POP PUSH2 0x1FD6 DUP3 PUSH2 0x1F97 JUMP JUMPDEST PUSH1 0x20 DUP3 ADD SWAP1 POP SWAP2 SWAP1 POP JUMP JUMPDEST PUSH0 PUSH1 0x20 DUP3 ADD SWAP1 POP DUP2 DUP2 SUB PUSH0 DUP4 ADD MSTORE PUSH2 0x1FF8 DUP2 PUSH2 0x1FBF JUMP JUMPDEST SWAP1 POP SWAP2 SWAP1 POP JUMP JUMPDEST PUSH0 PUSH2 0x2009 DUP3 PUSH2 0x1A74 JUMP JUMPDEST SWAP2 POP PUSH2 0x2014 DUP4 PUSH2 0x1A74 JUMP JUMPDEST SWAP3 POP DUP3 DUP3 SUB SWAP1 POP DUP2 DUP2 GT ISZERO PUSH2 0x202C JUMPI PUSH2 0x202B PUSH2 0x1E67 JUMP JUMPDEST JUMPDEST SWAP3 SWAP2 POP POP JUMP JUMPDEST PUSH32 0x546F6B656E3A207472616E736665727320706175736564000000000000000000 PUSH0 DUP3 ADD MSTORE POP JUMP JUMPDEST PUSH0 PUSH2 0x2066 PUSH1 0x17 DUP4 PUSH2 0x1952 JUMP JUMPDEST SWAP2 POP PUSH2 0x2071 DUP3 PUSH2 0x2032 JUMP JUMPDEST PUSH1 0x20 DUP3 ADD SWAP1 POP SWAP2 SWAP1 POP JUMP JUMPDEST PUSH0 PUSH1 0x20 DUP3 ADD SWAP1 POP DUP2 DUP2 SUB PUSH0 DUP4 ADD MSTORE PUSH2 0x2093 DUP2 PUSH2 0x205A JUMP JUMPDEST SWAP1 POP SWAP2 SWAP1 POP JUMP JUMPDEST PUSH32 0x546F6B656E3A207472616E7366657220746F207A65726F000000000000000000 PUSH0 DUP3 ADD MSTORE POP JUMP JUMPDEST PUSH0 PUSH2 0x20CE PUSH1 0x17 DUP4 PUSH2 0x1952 JUMP JUMPDEST SWAP2 POP PUSH2 0x20D9 DUP3 PUSH2 0x209A JUMP JUMPDEST PUSH1 0x20 DUP3 ADD SWAP1 POP SWAP2 SWAP1 POP JUMP JUMPDEST PUSH0 PUSH1 0x20 DUP3 ADD SWAP1 POP DUP2 DUP2 SUB PUSH0 DUP4 ADD MSTORE PUSH2 0x20FB DUP2 PUSH2 0x20C2 JUMP JUMPDEST SWAP1 POP SWAP2 SWAP1 POP JUMP JUMPDEST PUSH32 0x4F776E61626C653A206E6577206F776E6572206973207A65726F000000000000 PUSH0 DUP3 ADD MSTORE POP JUMP JUMPDEST PUSH0 PUSH2 0x2136 PUSH1 0x1A DUP4 PUSH2 0x1952 JUMP JUMPDEST SWAP2 POP PUSH2 0x2141 DUP3 PUSH2 0x2102 JUMP JUMPDEST PUSH1 0x20 DUP3 ADD SWAP1 POP SWAP2 SWAP1 POP JUMP JUMPDEST PUSH0 PUSH1 0x20 DUP3 ADD SWAP1 POP DUP2 DUP2 SUB PUSH0 DUP4 ADD MSTORE PUSH2 0x2163 DUP2 PUSH2 0x212A JUMP JUMPDEST SWAP1 POP SWAP2 SWAP1 POP JUMP JUMPDEST PUSH2 0x2173 DUP2 PUSH2 0x1B41 JUMP JUMPDEST DUP2 EQ PUSH2 0x217D JUMPI PUSH0 PUSH0 REVERT JUMPDEST POP JUMP JUMPDEST PUSH0 DUP2 MLOAD SWAP1 POP PUSH2 0x218E DUP2 PUSH2 0x216A JUMP JUMPDEST SWAP3 SWAP2 POP POP JUMP JUMPDEST PUSH0 PUSH1 0x20 DUP3 DUP5 SUB SLT ISZERO PUSH2 0x21A9 JUMPI PUSH2 0x21A8 PUSH2 0x18BF JUMP JUMPDEST JUMPDEST PUSH0 PUSH2 0x21B6 DUP5 DUP3 DUP6 ADD PUSH2 0x2180 JUMP JUMPDEST SWAP2 POP POP SWAP3 SWAP2 POP POP JUMP JUMPDEST PUSH32 0x546F6B656E3A2077616C6C6574206E6F74204B59430000000000000000000000 PUSH0 DUP3 ADD MSTORE POP JUMP JUMPDEST PUSH0 PUSH2 0x21F3 PUSH1 0x15 DUP4 PUSH2 0x1952 JUMP JUMPDEST SWAP2 POP PUSH2 0x21FE DUP3 PUSH2 0x21BF JUMP JUMPDEST PUSH1 0x20 DUP3 ADD SWAP1 POP SWAP2 SWAP1 POP JUMP JUMPDEST PUSH0 PUSH1 0x20 DUP3 ADD SWAP1 POP DUP2 DUP2 SUB PUSH0 DUP4 ADD MSTORE PUSH2 0x2220 DUP2 PUSH2 0x21E7 JUMP JUMPDEST SWAP1 POP SWAP2 SWAP1 POP JUMP JUMPDEST PUSH32 0x546F6B656E3A206D6178537570706C7920657863656564656400000000000000 PUSH0 DUP3 ADD MSTORE POP JUMP JUMPDEST PUSH0 PUSH2 0x225B PUSH1 0x19 DUP4 PUSH2 0x1952 JUMP JUMPDEST SWAP2 POP PUSH2 0x2266 DUP3 PUSH2 0x2227 JUMP JUMPDEST PUSH1 0x20 DUP3 ADD SWAP1 POP SWAP2 SWAP1 POP JUMP JUMPDEST PUSH0 PUSH1 0x20 DUP3 ADD SWAP1 POP DUP2 DUP2 SUB PUSH0 DUP4 ADD MSTORE PUSH2 0x2288 DUP2 PUSH2 0x224F JUMP JUMPDEST SWAP1 POP SWAP2 SWAP1 POP JUMP JUMPDEST PUSH0 PUSH2 0x2299 DUP3 PUSH2 0x1A74 JUMP JUMPDEST SWAP2 POP PUSH2 0x22A4 DUP4 PUSH2 0x1A74 JUMP JUMPDEST SWAP3 POP DUP3 DUP3 MUL PUSH2 0x22B2 DUP2 PUSH2 0x1A74 JUMP JUMPDEST SWAP2 POP DUP3 DUP3 DIV DUP5 EQ DUP4 ISZERO OR PUSH2 0x22C9 JUMPI PUSH2 0x22C8 PUSH2 0x1E67 JUMP JUMPDEST JUMPDEST POP SWAP3 SWAP2 POP POP JUMP JUMPDEST PUSH32 0x4E487B7100000000000000000000000000000000000000000000000000000000 PUSH0 MSTORE PUSH1 0x12 PUSH1 0x4 MSTORE PUSH1 0x24 PUSH0 REVERT JUMPDEST PUSH0 PUSH2 0x2307 DUP3 PUSH2 0x1A74 JUMP JUMPDEST SWAP2 POP PUSH2 0x2312 DUP4 PUSH2 0x1A74 JUMP JUMPDEST SWAP3 POP DUP3 PUSH2 0x2322 JUMPI PUSH2 0x2321 PUSH2 0x22D0 JUMP JUMPDEST JUMPDEST DUP3 DUP3 DIV SWAP1 POP SWAP3 SWAP2 POP POP JUMP JUMPDEST PUSH32 0x546F6B656E3A20657863656564732032302520696E766573746F722063617000 PUSH0 DUP3 ADD MSTORE POP JUMP JUMPDEST PUSH0 PUSH2 0x2361 PUSH1 0x1F DUP4 PUSH2 0x1952 JUMP JUMPDEST SWAP2 POP PUSH2 0x236C DUP3 PUSH2 0x232D JUMP JUMPDEST PUSH1 0x20 DUP3 ADD SWAP1 POP SWAP2 SWAP1 POP JUMP JUMPDEST PUSH0 PUSH1 0x20 DUP3 ADD SWAP1 POP DUP2 DUP2 SUB PUSH0 DUP4 ADD MSTORE PUSH2 0x238E DUP2 PUSH2 0x2355 JUMP JUMPDEST SWAP1 POP SWAP2 SWAP1 POP JUMP INVALID LOG2 PUSH5 0x6970667358 0x22 SLT KECCAK256 PUSH30 0xB1CB2EB63F174856F4E6728C5C3BB458039B8655C26B9BC0EFCCB19EB785 0x23 PUSH5 0x736F6C6343 STOP ADDMOD 0x1E STOP CALLER "
				},
				"gasEstimates": {
					"creation": {
						"codeDepositCost": "1832600",
						"executionCost": "infinite",
						"totalCost": "infinite"
					},
					"external": {
						"MAX_INVESTOR_PERCENT()": "348",
						"balanceOf(address)": "2825",
						"burn(address,uint256)": "infinite",
						"decimals()": "375",
						"factory()": "2574",
						"identityRegistry()": "infinite",
						"maxSupply()": "2513",
						"mint(address,uint256)": "infinite",
						"name()": "infinite",
						"owner()": "2574",
						"pause()": "27833",
						"paused()": "2628",
						"projectOwner()": "2530",
						"saleContract()": "2618",
						"saleFactory()": "2598",
						"setSaleContract(address)": "32795",
						"setSaleFactory(address)": "30730",
						"symbol()": "infinite",
						"totalSupply()": "2537",
						"transfer(address,uint256)": "infinite",
						"transferOwnership(address)": "30727",
						"unpause()": "27854"
					},
					"internal": {
						"_checkInvestorCap(uint256)": "infinite",
						"_checkKYC(address)": "infinite",
						"_checkMaxSupply(uint256)": "infinite"
					}
				},
				"methodIdentifiers": {
					"MAX_INVESTOR_PERCENT()": "1f58a309",
					"balanceOf(address)": "70a08231",
					"burn(address,uint256)": "9dc29fac",
					"decimals()": "313ce567",
					"factory()": "c45a0155",
					"identityRegistry()": "134e18f4",
					"maxSupply()": "d5abeb01",
					"mint(address,uint256)": "40c10f19",
					"name()": "06fdde03",
					"owner()": "8da5cb5b",
					"pause()": "8456cb59",
					"paused()": "5c975abb",
					"projectOwner()": "a4475ce4",
					"saleContract()": "daf6ca30",
					"saleFactory()": "17de3c84",
					"setSaleContract(address)": "0593d244",
					"setSaleFactory(address)": "69fb9aaa",
					"symbol()": "95d89b41",
					"totalSupply()": "18160ddd",
					"transfer(address,uint256)": "a9059cbb",
					"transferOwnership(address)": "f2fde38b",
					"unpause()": "3f4ba83a"
				}
			},
			"storageLayout": {
				"storage": [
					{
						"astId": 661,
						"contract": "blockchain/contracts/HouseSecurityToken.sol:HouseSecurityToken",
						"label": "owner",
						"offset": 0,
						"slot": "0",
						"type": "t_address"
					},
					{
						"astId": 7,
						"contract": "blockchain/contracts/HouseSecurityToken.sol:HouseSecurityToken",
						"label": "name",
						"offset": 0,
						"slot": "1",
						"type": "t_string_storage"
					},
					{
						"astId": 9,
						"contract": "blockchain/contracts/HouseSecurityToken.sol:HouseSecurityToken",
						"label": "symbol",
						"offset": 0,
						"slot": "2",
						"type": "t_string_storage"
					},
					{
						"astId": 17,
						"contract": "blockchain/contracts/HouseSecurityToken.sol:HouseSecurityToken",
						"label": "totalSupply",
						"offset": 0,
						"slot": "3",
						"type": "t_uint256"
					},
					{
						"astId": 19,
						"contract": "blockchain/contracts/HouseSecurityToken.sol:HouseSecurityToken",
						"label": "maxSupply",
						"offset": 0,
						"slot": "4",
						"type": "t_uint256"
					},
					{
						"astId": 23,
						"contract": "blockchain/contracts/HouseSecurityToken.sol:HouseSecurityToken",
						"label": "balanceOf",
						"offset": 0,
						"slot": "5",
						"type": "t_mapping(t_address,t_uint256)"
					},
					{
						"astId": 25,
						"contract": "blockchain/contracts/HouseSecurityToken.sol:HouseSecurityToken",
						"label": "projectOwner",
						"offset": 0,
						"slot": "6",
						"type": "t_address"
					},
					{
						"astId": 27,
						"contract": "blockchain/contracts/HouseSecurityToken.sol:HouseSecurityToken",
						"label": "factory",
						"offset": 0,
						"slot": "7",
						"type": "t_address"
					},
					{
						"astId": 29,
						"contract": "blockchain/contracts/HouseSecurityToken.sol:HouseSecurityToken",
						"label": "saleContract",
						"offset": 0,
						"slot": "8",
						"type": "t_address"
					},
					{
						"astId": 31,
						"contract": "blockchain/contracts/HouseSecurityToken.sol:HouseSecurityToken",
						"label": "saleFactory",
						"offset": 0,
						"slot": "9",
						"type": "t_address"
					},
					{
						"astId": 34,
						"contract": "blockchain/contracts/HouseSecurityToken.sol:HouseSecurityToken",
						"label": "identityRegistry",
						"offset": 0,
						"slot": "10",
						"type": "t_contract(IIdentityRegistry)547"
					},
					{
						"astId": 36,
						"contract": "blockchain/contracts/HouseSecurityToken.sol:HouseSecurityToken",
						"label": "paused",
						"offset": 20,
						"slot": "10",
						"type": "t_bool"
					}
				],
				"types": {
					"t_address": {
						"encoding": "inplace",
						"label": "address",
						"numberOfBytes": "20"
					},
					"t_bool": {
						"encoding": "inplace",
						"label": "bool",
						"numberOfBytes": "1"
					},
					"t_contract(IIdentityRegistry)547": {
						"encoding": "inplace",
						"label": "contract IIdentityRegistry",
						"numberOfBytes": "20"
					},
					"t_mapping(t_address,t_uint256)": {
						"encoding": "mapping",
						"key": "t_address",
						"label": "mapping(address => uint256)",
						"numberOfBytes": "32",
						"value": "t_uint256"
					},
					"t_string_storage": {
						"encoding": "bytes",
						"label": "string",
						"numberOfBytes": "32"
					},
					"t_uint256": {
						"encoding": "inplace",
						"label": "uint256",
						"numberOfBytes": "32"
					}
				}
			},
			"userdoc": {
				"kind": "user",
				"methods": {},
				"version": 1
			}
		}
	}
}