{
  "_format": "hh-sol-artifact-1",
  "contractName": "HouseEthSale",
  "sourceName": "contracts/HouseEthSale.sol",
  "abi": [
    {
      "inputs": [
        {
          "internalType": "address",
          "name": "platformOwner",
          "type": "address"
        },
        {
          "internalType": "address",
          "name": "_projectOwner",
          "type": "address"
        },
        {
          "internalType": "address",
          "name": "_token",
          "type": "address"
        },
        {
          "internalType": "address",
          "name": "_identityRegistry",
          "type": "address"
        },
        {
          "internalType": "uint256",
          "name": "_priceWeiPerToken",
          "type": "uint256"
        }
      ],
      "stateMutability": "nonpayable",
      "type": "constructor"
    },
    {
      "anonymous": false,
      "inputs": [
        {
          "indexed": true,
          "internalType": "address",
          "name": "previousOwner",
          "type": "address"
        },
        {
          "indexed": true,
          "internalType": "address",
          "name": "newOwner",
          "type": "address"
        }
      ],
      "name": "OwnershipTransferred",
      "type": "event"
    },
    {
      "anonymous": false,
      "inputs": [
        {
          "indexed": false,
          "internalType": "uint256",
          "name": "oldPrice",
          "type": "uint256"
        },
        {
          "indexed": false,
          "internalType": "uint256",
          "name": "newPrice",
          "type": "uint256"
        }
      ],
      "name": "PriceUpdated",
      "type": "event"
    },
    {
      "anonymous": false,
      "inputs": [],
      "name": "SaleActivated",
      "type": "event"
    },
    {
      "anonymous": false,
      "inputs": [],
      "name": "SaleDeactivated",
      "type": "event"
    },
    {
      "anonymous": false,
      "inputs": [
        {
          "indexed": true,
          "internalType": "address",
          "name": "buyer",
          "type": "address"
        },
        {
          "indexed": false,
          "internalType": "uint256",
          "name": "ethPaid",
          "type": "uint256"
        },
        {
          "indexed": false,
          "internalType": "uint256",
          "name": "tokensMinted",
          "type": "uint256"
        }
      ],
      "name": "TokensPurchased",
      "type": "event"
    },
    {
      "anonymous": false,
      "inputs": [
        {
          "indexed": true,
          "internalType": "address",
          "name": "to",
          "type": "address"
        },
        {
          "indexed": false,
          "internalType": "uint256",
          "name": "amount",
          "type": "uint256"
        }
      ],
      "name": "Withdrawn",
      "type": "event"
    },
    {
      "inputs": [],
      "name": "activateSale",
      "outputs": [],
      "stateMutability": "nonpayable",
      "type": "function"
    },
    {
      "inputs": [],
      "name": "buyTokens",
      "outputs": [],
      "stateMutability": "payable",
      "type": "function"
    },
    {
      "inputs": [],
      "name": "deactivateSale",
      "outputs": [],
      "stateMutability": "nonpayable",
      "type": "function"
    },
    {
      "inputs": [
        {
          "internalType": "address",
          "name": "",
          "type": "address"
        }
      ],
      "name": "ethContributed",
      "outputs": [
        {
          "internalType": "uint256",
          "name": "",
          "type": "uint256"
        }
      ],
      "stateMutability": "view",
      "type": "function"
    },
    {
      "inputs": [],
      "name": "getContractBalance",
      "outputs": [
        {
          "internalType": "uint256",
          "name": "",
          "type": "uint256"
        }
      ],
      "stateMutability": "view",
      "type": "function"
    },
    {
      "inputs": [
        {
          "internalType": "address",
          "name": "investor",
          "type": "address"
        }
      ],
      "name": "getInvestorStats",
      "outputs": [
        {
          "internalType": "uint256",
          "name": "ethPaid",
          "type": "uint256"
        },
        {
          "internalType": "uint256",
          "name": "tokensOwned",
          "type": "uint256"
        }
      ],
      "stateMutability": "view",
      "type": "function"
    },
    {
      "inputs": [],
      "name": "identityRegistry",
      "outputs": [
        {
          "internalType": "contract IIdentityRegistry",
          "name": "",
          "type": "address"
        }
      ],
      "stateMutability": "view",
      "type": "function"
    },
    {
      "inputs": [],
      "name": "owner",
      "outputs": [
        {
          "internalType": "address",
          "name": "",
          "type": "address"
        }
      ],
      "stateMutability": "view",
      "type": "function"
    },
    {
      "inputs": [],
      "name": "priceWeiPerToken",
      "outputs": [
        {
          "internalType": "uint256",
          "name": "",
          "type": "uint256"
        }
      ],
      "stateMutability": "view",
      "type": "function"
    },
    {
      "inputs": [],
      "name": "projectOwner",
      "outputs": [
        {
          "internalType": "address",
          "name": "",
          "type": "address"
        }
      ],
      "stateMutability": "view",
      "type": "function"
    },
    {
      "inputs": [],
      "name": "saleActive",
      "outputs": [
        {
          "internalType": "bool",
          "name": "",
          "type": "bool"
        }
      ],
      "stateMutability": "view",
      "type": "function"
    },
    {
      "inputs": [],
      "name": "token",
      "outputs": [
        {
          "internalType": "contract HouseSecurityToken",
          "name": "",
          "type": "address"
        }
      ],
      "stateMutability": "view",
      "type": "function"
    },
    {
      "inputs": [],
      "name": "totalEthRaised",
      "outputs": [
        {
          "internalType": "uint256",
          "name": "",
          "type": "uint256"
        }
      ],
      "stateMutability": "view",
      "type": "function"
    },
    {
      "inputs": [
        {
          "internalType": "address",
          "name": "newOwner",
          "type": "address"
        }
      ],
      "name": "transferOwnership",
      "outputs": [],
      "stateMutability": "nonpayable",
      "type": "function"
    },
    {
      "inputs": [
        {
          "internalType": "uint256",
          "name": "newPriceWei",
          "type": "uint256"
        }
      ],
      "name": "updatePrice",
      "outputs": [],
      "stateMutability": "nonpayable",
      "type": "function"
    },
    {
      "inputs": [
        {
          "internalType": "address payable",
          "name": "to",
          "type": "address"
        },
        {
          "internalType": "uint256",
          "name": "amount",
          "type": "uint256"
        }
      ],
      "name": "withdraw",
      "outputs": [],
      "stateMutability": "nonpayable",
      "type": "function"
    }
  ],
  "bytecode": "0x608060405234801561001057600080fd5b506040516124483803806124488339818101604052810190610032919061043b565b84600073ffffffffffffffffffffffffffffffffffffffff168173ffffffffffffffffffffffffffffffffffffffff16036100a2576040517f08c379a000000000000000000000000000000000000000000000000000000000815260040161009990610513565b60405180910390fd5b806000806101000a81548173ffffffffffffffffffffffffffffffffffffffff021916908373ffffffffffffffffffffffffffffffffffffffff1602179055508073ffffffffffffffffffffffffffffffffffffffff16600073ffffffffffffffffffffffffffffffffffffffff167f8be0079c531659141344cd1fd0a4f28419497f9722a3daafe3b4186f6b6457e060405160405180910390a350600073ffffffffffffffffffffffffffffffffffffffff168473ffffffffffffffffffffffffffffffffffffffff16036101ad576040517f08c379a00000000000000000000000000000000000000000000000000000000081526004016101a49061057f565b60405180910390fd5b600073ffffffffffffffffffffffffffffffffffffffff168373ffffffffffffffffffffffffffffffffffffffff160361021c576040517f08c379a0000000000000000000000000000000000000000000000000000000008152600401610213906105eb565b60405180910390fd5b600073ffffffffffffffffffffffffffffffffffffffff168273ffffffffffffffffffffffffffffffffffffffff160361028b576040517f08c379a000000000000000000000000000000000000000000000000000000000815260040161028290610657565b60405180910390fd5b600081116102ce576040517f08c379a00000000000000000000000000000000000000000000000000000000081526004016102c5906106c3565b60405180910390fd5b83600460006101000a81548173ffffffffffffffffffffffffffffffffffffffff021916908373ffffffffffffffffffffffffffffffffffffffff16021790555082600160006101000a81548173ffffffffffffffffffffffffffffffffffffffff021916908373ffffffffffffffffffffffffffffffffffffffff16021790555081600260006101000a81548173ffffffffffffffffffffffffffffffffffffffff021916908373ffffffffffffffffffffffffffffffffffffffff1602179055508060038190555050505050506106e3565b600080fd5b600073ffffffffffffffffffffffffffffffffffffffff82169050919050565b60006103d2826103a7565b9050919050565b6103e2816103c7565b81146103ed57600080fd5b50565b6000815190506103ff816103d9565b92915050565b6000819050919050565b61041881610405565b811461042357600080fd5b50565b6000815190506104358161040f565b92915050565b600080600080600060a08688031215610457576104566103a2565b5b6000610465888289016103f0565b9550506020610476888289016103f0565b9450506040610487888289016103f0565b9350506060610498888289016103f0565b92505060806104a988828901610426565b9150509295509295909350565b600082825260208201905092915050565b7f4f776e61626c653a206f776e6572206973207a65726f00000000000000000000600082015250565b60006104fd6016836104b6565b9150610508826104c7565b602082019050919050565b6000602082019050818103600083015261052c816104f0565b9050919050565b7f53616c653a2070726f6a6563744f776e6572207a65726f000000000000000000600082015250565b60006105696017836104b6565b915061057482610533565b602082019050919050565b600060208201905081810360008301526105988161055c565b9050919050565b7f53616c653a20746f6b656e207a65726f00000000000000000000000000000000600082015250565b60006105d56010836104b6565b91506105e08261059f565b602082019050919050565b60006020820190508181036000830152610604816105c8565b9050919050565b7f53616c653a206964656e746974795265676973747279207a65726f0000000000600082015250565b6000610641601b836104b6565b915061064c8261060b565b602082019050919050565b6000602082019050818103600083015261067081610634565b9050919050565b7f53616c653a207072696365206973207a65726f00000000000000000000000000600082015250565b60006106ad6013836104b6565b91506106b882610677565b602082019050919050565b600060208201905081810360008301526106dc816106a0565b9050919050565b611d56806106f26000396000f3fe6080604052600436106100f35760003560e01c8063c721f08d1161008a578063f2fde38b11610059578063f2fde38b146102c4578063f3fef3a3146102ed578063f96f5b3514610316578063fc0c546a14610353576100f3565b8063c721f08d1461024d578063c9e904be14610264578063d0febe4c1461028f578063dbf09d6614610299576100f3565b80636f9fb98a116100c65780636f9fb98a146101a35780638d6cc56d146101ce5780638da5cb5b146101f7578063a4475ce414610222576100f3565b806310fdf36a146100f8578063134e18f414610136578063616d0dfd1461016157806368428a1b14610178575b600080fd5b34801561010457600080fd5b5061011f600480360381019061011a91906112b3565b61037e565b60405161012d9291906112f9565b60405180910390f35b34801561014257600080fd5b5061014b610466565b6040516101589190611381565b60405180910390f35b34801561016d57600080fd5b5061017661048c565b005b34801561018457600080fd5b5061018d6105bb565b60405161019a91906113b7565b60405180910390f35b3480156101af57600080fd5b506101b86105ce565b6040516101c591906113d2565b60405180910390f35b3480156101da57600080fd5b506101f560048036038101906101f09190611419565b6105d6565b005b34801561020357600080fd5b5061020c610744565b6040516102199190611455565b60405180910390f35b34801561022e57600080fd5b50610237610768565b6040516102449190611455565b60405180910390f35b34801561025957600080fd5b5061026261078e565b005b34801561027057600080fd5b506102796108bd565b60405161028691906113d2565b60405180910390f35b6102976108c3565b005b3480156102a557600080fd5b506102ae610d36565b6040516102bb91906113d2565b60405180910390f35b3480156102d057600080fd5b506102eb60048036038101906102e691906112b3565b610d3c565b005b3480156102f957600080fd5b50610314600480360381019061030f91906114ae565b610ef6565b005b34801561032257600080fd5b5061033d600480360381019061033891906112b3565b611212565b60405161034a91906113d2565b60405180910390f35b34801561035f57600080fd5b5061036861122a565b604051610375919061150f565b60405180910390f35b600080600660008473ffffffffffffffffffffffffffffffffffffffff1673ffffffffffffffffffffffffffffffffffffffff168152602001908152602001600020549150600160009054906101000a900473ffffffffffffffffffffffffffffffffffffffff1673ffffffffffffffffffffffffffffffffffffffff166370a08231846040518263ffffffff1660e01b815260040161041e9190611455565b602060405180830381865afa15801561043b573d6000803e3d6000fd5b505050506040513d601f19601f8201168201806040525081019061045f919061153f565b9050915091565b600260009054906101000a900473ffffffffffffffffffffffffffffffffffffffff1681565b600460009054906101000a900473ffffffffffffffffffffffffffffffffffffffff1673ffffffffffffffffffffffffffffffffffffffff163373ffffffffffffffffffffffffffffffffffffffff161480610533575060008054906101000a900473ffffffffffffffffffffffffffffffffffffffff1673ffffffffffffffffffffffffffffffffffffffff163373ffffffffffffffffffffffffffffffffffffffff16145b610572576040517f08c379a0000000000000000000000000000000000000000000000000000000008152600401610569906115c9565b60405180910390fd5b6000600460146101000a81548160ff0219169083151502179055507f1b9c44ccfe4db823f4df7ffcfa99de085ec78347bf14815fe1751d4463c04cb860405160405180910390a1565b600460149054906101000a900460ff1681565b600047905090565b600460009054906101000a900473ffffffffffffffffffffffffffffffffffffffff1673ffffffffffffffffffffffffffffffffffffffff163373ffffffffffffffffffffffffffffffffffffffff16148061067d575060008054906101000a900473ffffffffffffffffffffffffffffffffffffffff1673ffffffffffffffffffffffffffffffffffffffff163373ffffffffffffffffffffffffffffffffffffffff16145b6106bc576040517f08c379a00000000000000000000000000000000000000000000000000000000081526004016106b3906115c9565b60405180910390fd5b600081116106ff576040517f08c379a00000000000000000000000000000000000000000000000000000000081526004016106f690611635565b60405180910390fd5b7f945c1c4e99aa89f648fbfe3df471b916f719e16d960fcec0737d4d56bd696838600354826040516107329291906112f9565b60405180910390a18060038190555050565b60008054906101000a900473ffffffffffffffffffffffffffffffffffffffff1681565b600460009054906101000a900473ffffffffffffffffffffffffffffffffffffffff1681565b600460009054906101000a900473ffffffffffffffffffffffffffffffffffffffff1673ffffffffffffffffffffffffffffffffffffffff163373ffffffffffffffffffffffffffffffffffffffff161480610835575060008054906101000a900473ffffffffffffffffffffffffffffffffffffffff1673ffffffffffffffffffffffffffffffffffffffff163373ffffffffffffffffffffffffffffffffffffffff16145b610874576040517f08c379a000000000000000000000000000000000000000000000000000000000815260040161086b906115c9565b60405180910390fd5b6001600460146101000a81548160ff0219169083151502179055507fd88a3baace1fc7f202a292f484bec3329681bf507c912023e2200a4c93a6583c60405160405180910390a1565b60055481565b600060149054906101000a900460ff1615610913576040517f08c379a000000000000000000000000000000000000000000000000000000000815260040161090a906116a1565b60405180910390fd5b6001600060146101000a81548160ff021916908315150217905550600460149054906101000a900460ff1661097d576040517f08c379a00000000000000000000000000000000000000000000000000000000081526004016109749061170d565b60405180910390fd5b600034116109c0576040517f08c379a00000000000000000000000000000000000000000000000000000000081526004016109b790611779565b60405180910390fd5b600260009054906101000a900473ffffffffffffffffffffffffffffffffffffffff1673ffffffffffffffffffffffffffffffffffffffff1663b9209e33336040518263ffffffff1660e01b8152600401610a1b9190611455565b602060405180830381865afa158015610a38573d6000803e3d6000fd5b505050506040513d601f19601f82011682018060405250810190610a5c91906117c5565b610a9b576040517f08c379a0000000000000000000000000000000000000000000000000000000008152600401610a929061183e565b60405180910390fd5b600060035434610aab91906118bc565b905060008111610af0576040517f08c379a0000000000000000000000000000000000000000000000000000000008152600401610ae79061195f565b60405180910390fd5b600160009054906101000a900473ffffffffffffffffffffffffffffffffffffffff1673ffffffffffffffffffffffffffffffffffffffff166340c10f1933836040518363ffffffff1660e01b8152600401610b4d92919061197f565b600060405180830381600087803b158015610b6757600080fd5b505af1158015610b7b573d6000803e3d6000fd5b50505050600060035482610b8f91906119a8565b905060008134610b9f91906119ea565b905081600660003373ffffffffffffffffffffffffffffffffffffffff1673ffffffffffffffffffffffffffffffffffffffff1681526020019081526020016000206000828254610bf09190611a1e565b925050819055508160056000828254610c099190611a1e565b925050819055506000811115610cc75760003373ffffffffffffffffffffffffffffffffffffffff1682604051610c3f90611a83565b60006040518083038185875af1925050503d8060008114610c7c576040519150601f19603f3d011682016040523d82523d6000602084013e610c81565b606091505b5050905080610cc5576040517f08c379a0000000000000000000000000000000000000000000000000000000008152600401610cbc90611ae4565b60405180910390fd5b505b3373ffffffffffffffffffffffffffffffffffffffff167f8fafebcaf9d154343dad25669bfa277f4fbacd7ac6b0c4fed522580e040a0f333485604051610d0f9291906112f9565b60405180910390a250505060008060146101000a81548160ff021916908315150217905550565b60035481565b60008054906101000a900473ffffffffffffffffffffffffffffffffffffffff1673ffffffffffffffffffffffffffffffffffffffff163373ffffffffffffffffffffffffffffffffffffffff1614610dca576040517f08c379a0000000000000000000000000000000000000000000000000000000008152600401610dc190611b50565b60405180910390fd5b600073ffffffffffffffffffffffffffffffffffffffff168173ffffffffffffffffffffffffffffffffffffffff1603610e39576040517f08c379a0000000000000000000000000000000000000000000000000000000008152600401610e3090611bbc565b60405180910390fd5b8073ffffffffffffffffffffffffffffffffffffffff1660008054906101000a900473ffffffffffffffffffffffffffffffffffffffff1673ffffffffffffffffffffffffffffffffffffffff167f8be0079c531659141344cd1fd0a4f28419497f9722a3daafe3b4186f6b6457e060405160405180910390a3806000806101000a81548173ffffffffffffffffffffffffffffffffffffffff021916908373ffffffffffffffffffffffffffffffffffffffff16021790555050565b600460009054906101000a900473ffffffffffffffffffffffffffffffffffffffff1673ffffffffffffffffffffffffffffffffffffffff163373ffffffffffffffffffffffffffffffffffffffff161480610f9d575060008054906101000a900473ffffffffffffffffffffffffffffffffffffffff1673ffffffffffffffffffffffffffffffffffffffff163373ffffffffffffffffffffffffffffffffffffffff16145b610fdc576040517f08c379a0000000000000000000000000000000000000000000000000000000008152600401610fd3906115c9565b60405180910390fd5b600060149054906101000a900460ff161561102c576040517f08c379a0000000000000000000000000000000000000000000000000000000008152600401611023906116a1565b60405180910390fd5b6001600060146101000a81548160ff021916908315150217905550600073ffffffffffffffffffffffffffffffffffffffff168273ffffffffffffffffffffffffffffffffffffffff16036110b6576040517f08c379a00000000000000000000000000000000000000000000000000000000081526004016110ad90611c28565b60405180910390fd5b478111156110f9576040517f08c379a00000000000000000000000000000000000000000000000000000000081526004016110f090611c94565b60405180910390fd5b60008273ffffffffffffffffffffffffffffffffffffffff168260405161111f90611a83565b60006040518083038185875af1925050503d806000811461115c576040519150601f19603f3d011682016040523d82523d6000602084013e611161565b606091505b50509050806111a5576040517f08c379a000000000000000000000000000000000000000000000000000000000815260040161119c90611d00565b60405180910390fd5b8273ffffffffffffffffffffffffffffffffffffffff167f7084f5476618d8e60b11ef0d7d3f06914655adb8793e28ff7f018d4c76d505d5836040516111eb91906113d2565b60405180910390a25060008060146101000a81548160ff0219169083151502179055505050565b60066020528060005260406000206000915090505481565b600160009054906101000a900473ffffffffffffffffffffffffffffffffffffffff1681565b600080fd5b600073ffffffffffffffffffffffffffffffffffffffff82169050919050565b600061128082611255565b9050919050565b61129081611275565b811461129b57600080fd5b50565b6000813590506112ad81611287565b92915050565b6000602082840312156112c9576112c8611250565b5b60006112d78482850161129e565b91505092915050565b6000819050919050565b6112f3816112e0565b82525050565b600060408201905061130e60008301856112ea565b61131b60208301846112ea565b9392505050565b6000819050919050565b600061134761134261133d84611255565b611322565b611255565b9050919050565b60006113598261132c565b9050919050565b600061136b8261134e565b9050919050565b61137b81611360565b82525050565b60006020820190506113966000830184611372565b92915050565b60008115159050919050565b6113b18161139c565b82525050565b60006020820190506113cc60008301846113a8565b92915050565b60006020820190506113e760008301846112ea565b92915050565b6113f6816112e0565b811461140157600080fd5b50565b600081359050611413816113ed565b92915050565b60006020828403121561142f5761142e611250565b5b600061143d84828501611404565b91505092915050565b61144f81611275565b82525050565b600060208201905061146a6000830184611446565b92915050565b600061147b82611255565b9050919050565b61148b81611470565b811461149657600080fd5b50565b6000813590506114a881611482565b92915050565b600080604083850312156114c5576114c4611250565b5b60006114d385828601611499565b92505060206114e485828601611404565b9150509250929050565b60006114f98261134e565b9050919050565b611509816114ee565b82525050565b60006020820190506115246000830184611500565b92915050565b600081519050611539816113ed565b92915050565b60006020828403121561155557611554611250565b5b60006115638482850161152a565b91505092915050565b600082825260208201905092915050565b7f53616c653a2063616c6c6572206e6f7420617574686f72697a65640000000000600082015250565b60006115b3601b8361156c565b91506115be8261157d565b602082019050919050565b600060208201905081810360008301526115e2816115a6565b9050919050565b7f53616c653a207072696365207a65726f00000000000000000000000000000000600082015250565b600061161f60108361156c565b915061162a826115e9565b602082019050919050565b6000602082019050818103600083015261164e81611612565b9050919050565b7f5265656e7472616e637947756172643a207265656e7472616e742063616c6c00600082015250565b600061168b601f8361156c565b915061169682611655565b602082019050919050565b600060208201905081810360008301526116ba8161167e565b9050919050565b7f53616c653a206e6f742061637469766500000000000000000000000000000000600082015250565b60006116f760108361156c565b9150611702826116c1565b602082019050919050565b60006020820190508181036000830152611726816116ea565b9050919050565b7f53616c653a206e6f204554482073656e74000000000000000000000000000000600082015250565b600061176360118361156c565b915061176e8261172d565b602082019050919050565b6000602082019050818103600083015261179281611756565b9050919050565b6117a28161139c565b81146117ad57600080fd5b50565b6000815190506117bf81611799565b92915050565b6000602082840312156117db576117da611250565b5b60006117e9848285016117b0565b91505092915050565b7f53616c653a2077616c6c6574206e6f74204b5943000000000000000000000000600082015250565b600061182860148361156c565b9150611833826117f2565b602082019050919050565b600060208201905081810360008301526118578161181b565b9050919050565b7f4e487b7100000000000000000000000000000000000000000000000000000000600052601260045260246000fd5b7f4e487b7100000000000000000000000000000000000000000000000000000000600052601160045260246000fd5b60006118c7826112e0565b91506118d2836112e0565b9250826118e2576118e161185e565b5b828204905092915050565b7f53616c653a2045544820616d6f756e7420746f6f206c6f7720666f722031207460008201527f6f6b656e00000000000000000000000000000000000000000000000000000000602082015250565b600061194960248361156c565b9150611954826118ed565b604082019050919050565b600060208201905081810360008301526119788161193c565b9050919050565b60006040820190506119946000830185611446565b6119a160208301846112ea565b9392505050565b60006119b3826112e0565b91506119be836112e0565b92508282026119cc816112e0565b915082820484148315176119e3576119e261188d565b5b5092915050565b60006119f5826112e0565b9150611a00836112e0565b9250828203905081811115611a1857611a1761188d565b5b92915050565b6000611a29826112e0565b9150611a34836112e0565b9250828201905080821115611a4c57611a4b61188d565b5b92915050565b600081905092915050565b50565b6000611a6d600083611a52565b9150611a7882611a5d565b600082019050919050565b6000611a8e82611a60565b9150819050919050565b7f53616c653a20726566756e64206661696c656400000000000000000000000000600082015250565b6000611ace60138361156c565b9150611ad982611a98565b602082019050919050565b60006020820190508181036000830152611afd81611ac1565b9050919050565b7f4f776e61626c653a2063616c6c6572206973206e6f7420746865206f776e6572600082015250565b6000611b3a60208361156c565b9150611b4582611b04565b602082019050919050565b60006020820190508181036000830152611b6981611b2d565b9050919050565b7f4f776e61626c653a206e6577206f776e6572206973207a65726f000000000000600082015250565b6000611ba6601a8361156c565b9150611bb182611b70565b602082019050919050565b60006020820190508181036000830152611bd581611b99565b9050919050565b7f53616c653a20746f207a65726f00000000000000000000000000000000000000600082015250565b6000611c12600d8361156c565b9150611c1d82611bdc565b602082019050919050565b60006020820190508181036000830152611c4181611c05565b9050919050565b7f53616c653a20696e73756666696369656e742062616c616e6365000000000000600082015250565b6000611c7e601a8361156c565b9150611c8982611c48565b602082019050919050565b60006020820190508181036000830152611cad81611c71565b9050919050565b7f53616c653a207769746864726177206661696c65640000000000000000000000600082015250565b6000611cea60158361156c565b9150611cf582611cb4565b602082019050919050565b60006020820190508181036000830152611d1981611cdd565b905091905056fea26469706673582212203cda130606b5bdcecb0d9430238415482be3eb0a6e49f552a55c1ed8e7cb08ca64736f6c634300081c0033",
  "linkReferences": {},
  "deployedLinkReferences": {}
}