{
  "_format": "hh-sol-artifact-1",
  "contractName": "SaleFactory",
  "sourceName": "contracts/SaleFactory.sol",
  "abi": [
    {
      "inputs": [
        {
          "internalType": "address",
          "name": "platformOwner",
          "type": "address"
        },
        {
          "internalType": "address",
          "name": "_identityRegistry",
          "type": "address"
        }
      ],
      "stateMutability": "nonpayable",
      "type": "constructor"
    },
    {
      "anonymous": false,
      "inputs": [
        {
          "indexed": true,
          "internalType": "address",
          "name": "previousOwner",
          "type": "address"
        },
        {
          "indexed": true,
          "internalType": "address",
          "name": "newOwner",
          "type": "address"
        }
      ],
      "name": "OwnershipTransferred",
      "type": "event"
    },
    {
      "anonymous": false,
      "inputs": [
        {
          "indexed": true,
          "internalType": "address",
          "name": "token",
          "type": "address"
        },
        {
          "indexed": true,
          "internalType": "address",
          "name": "saleContract",
          "type": "address"
        },
        {
          "indexed": true,
          "internalType": "address",
          "name": "projectOwner",
          "type": "address"
        },
        {
          "indexed": false,
          "internalType": "uint256",
          "name": "priceWeiPerToken",
          "type": "uint256"
        }
      ],
      "name": "SaleCreated",
      "type": "event"
    },
    {
      "inputs": [
        {
          "internalType": "address",
          "name": "tokenAddr",
          "type": "address"
        },
        {
          "internalType": "address",
          "name": "projectOwner",
          "type": "address"
        },
        {
          "internalType": "uint256",
          "name": "priceWeiPerToken",
          "type": "uint256"
        }
      ],
      "name": "createSaleForToken",
      "outputs": [
        {
          "internalType": "address",
          "name": "saleAddr",
          "type": "address"
        }
      ],
      "stateMutability": "nonpayable",
      "type": "function"
    },
    {
      "inputs": [],
      "name": "identityRegistry",
      "outputs": [
        {
          "internalType": "address",
          "name": "",
          "type": "address"
        }
      ],
      "stateMutability": "view",
      "type": "function"
    },
    {
      "inputs": [],
      "name": "owner",
      "outputs": [
        {
          "internalType": "address",
          "name": "",
          "type": "address"
        }
      ],
      "stateMutability": "view",
      "type": "function"
    },
    {
      "inputs": [
        {
          "internalType": "address",
          "name": "newOwner",
          "type": "address"
        }
      ],
      "name": "transferOwnership",
      "outputs": [],
      "stateMutability": "nonpayable",
      "type": "function"
    }
  ],
  "bytecode": "0x60a060405234801561001057600080fd5b506040516133363803806133368339818101604052810190610032919061024b565b81600073ffffffffffffffffffffffffffffffffffffffff168173ffffffffffffffffffffffffffffffffffffffff16036100a2576040517f08c379a0000000000000000000000000000000000000000000000000000000008152600401610099906102e8565b60405180910390fd5b806000806101000a81548173ffffffffffffffffffffffffffffffffffffffff021916908373ffffffffffffffffffffffffffffffffffffffff1602179055508073ffffffffffffffffffffffffffffffffffffffff16600073ffffffffffffffffffffffffffffffffffffffff167f8be0079c531659141344cd1fd0a4f28419497f9722a3daafe3b4186f6b6457e060405160405180910390a350600073ffffffffffffffffffffffffffffffffffffffff168173ffffffffffffffffffffffffffffffffffffffff16036101ad576040517f08c379a00000000000000000000000000000000000000000000000000000000081526004016101a49061037a565b60405180910390fd5b8073ffffffffffffffffffffffffffffffffffffffff1660808173ffffffffffffffffffffffffffffffffffffffff1681525050505061039a565b600080fd5b600073ffffffffffffffffffffffffffffffffffffffff82169050919050565b6000610218826101ed565b9050919050565b6102288161020d565b811461023357600080fd5b50565b6000815190506102458161021f565b92915050565b60008060408385031215610262576102616101e8565b5b600061027085828601610236565b925050602061028185828601610236565b9150509250929050565b600082825260208201905092915050565b7f4f776e61626c653a206f776e6572206973207a65726f00000000000000000000600082015250565b60006102d260168361028b565b91506102dd8261029c565b602082019050919050565b60006020820190508181036000830152610301816102c5565b9050919050565b7f53616c65466163746f72793a206964656e746974795265676973747279207a6560008201527f726f000000000000000000000000000000000000000000000000000000000000602082015250565b600061036460228361028b565b915061036f82610308565b604082019050919050565b6000602082019050818103600083015261039381610357565b9050919050565b608051612f7b6103bb6000396000818160db01526103050152612f7b6000f3fe608060405234801561001057600080fd5b506004361061004c5760003560e01c8063134e18f4146100515780638da5cb5b1461006f578063a1e9f81e1461008d578063f2fde38b146100bd575b600080fd5b6100596100d9565b604051610066919061065a565b60405180910390f35b6100776100fd565b604051610084919061065a565b60405180910390f35b6100a760048036038101906100a291906106dc565b610121565b6040516100b4919061065a565b60405180910390f35b6100d760048036038101906100d2919061072f565b610452565b005b7f000000000000000000000000000000000000000000000000000000000000000081565b60008054906101000a900473ffffffffffffffffffffffffffffffffffffffff1681565b60008060009054906101000a900473ffffffffffffffffffffffffffffffffffffffff1673ffffffffffffffffffffffffffffffffffffffff163373ffffffffffffffffffffffffffffffffffffffff16146101b2576040517f08c379a00000000000000000000000000000000000000000000000000000000081526004016101a9906107b9565b60405180910390fd5b600073ffffffffffffffffffffffffffffffffffffffff168473ffffffffffffffffffffffffffffffffffffffff1603610221576040517f08c379a000000000000000000000000000000000000000000000000000000000815260040161021890610825565b60405180910390fd5b600073ffffffffffffffffffffffffffffffffffffffff168373ffffffffffffffffffffffffffffffffffffffff1603610290576040517f08c379a000000000000000000000000000000000000000000000000000000000815260040161028790610891565b60405180910390fd5b600082116102d3576040517f08c379a00000000000000000000000000000000000000000000000000000000081526004016102ca906108fd565b60405180910390fd5b600084905060008060009054906101000a900473ffffffffffffffffffffffffffffffffffffffff16905060008186887f0000000000000000000000000000000000000000000000000000000000000000886040516103319061060c565b61033f95949392919061092c565b604051809103906000f08015801561035b573d6000803e3d6000fd5b5090508093508273ffffffffffffffffffffffffffffffffffffffff16630593d244856040518263ffffffff1660e01b815260040161039a919061065a565b600060405180830381600087803b1580156103b457600080fd5b505af11580156103c8573d6000803e3d6000fd5b505050508573ffffffffffffffffffffffffffffffffffffffff168473ffffffffffffffffffffffffffffffffffffffff168873ffffffffffffffffffffffffffffffffffffffff167faebf71ae4f08b1070668aea8c7a4841fa5c4600ac5d690557920a43b96e39d5688604051610440919061097f565b60405180910390a45050509392505050565b60008054906101000a900473ffffffffffffffffffffffffffffffffffffffff1673ffffffffffffffffffffffffffffffffffffffff163373ffffffffffffffffffffffffffffffffffffffff16146104e0576040517f08c379a00000000000000000000000000000000000000000000000000000000081526004016104d7906107b9565b60405180910390fd5b600073ffffffffffffffffffffffffffffffffffffffff168173ffffffffffffffffffffffffffffffffffffffff160361054f576040517f08c379a0000000000000000000000000000000000000000000000000000000008152600401610546906109e6565b60405180910390fd5b8073ffffffffffffffffffffffffffffffffffffffff1660008054906101000a900473ffffffffffffffffffffffffffffffffffffffff1673ffffffffffffffffffffffffffffffffffffffff167f8be0079c531659141344cd1fd0a4f28419497f9722a3daafe3b4186f6b6457e060405160405180910390a3806000806101000a81548173ffffffffffffffffffffffffffffffffffffffff021916908373ffffffffffffffffffffffffffffffffffffffff16021790555050565b61253f80610a0783390190565b600073ffffffffffffffffffffffffffffffffffffffff82169050919050565b600061064482610619565b9050919050565b61065481610639565b82525050565b600060208201905061066f600083018461064b565b92915050565b600080fd5b61068381610639565b811461068e57600080fd5b50565b6000813590506106a08161067a565b92915050565b6000819050919050565b6106b9816106a6565b81146106c457600080fd5b50565b6000813590506106d6816106b0565b92915050565b6000806000606084860312156106f5576106f4610675565b5b600061070386828701610691565b935050602061071486828701610691565b9250506040610725868287016106c7565b9150509250925092565b60006020828403121561074557610744610675565b5b600061075384828501610691565b91505092915050565b600082825260208201905092915050565b7f4f776e61626c653a2063616c6c6572206973206e6f7420746865206f776e6572600082015250565b60006107a360208361075c565b91506107ae8261076d565b602082019050919050565b600060208201905081810360008301526107d281610796565b9050919050565b7f53616c65466163746f72793a20746f6b656e207a65726f000000000000000000600082015250565b600061080f60178361075c565b915061081a826107d9565b602082019050919050565b6000602082019050818103600083015261083e81610802565b9050919050565b7f53616c65466163746f72793a2070726f6a6563744f776e6572207a65726f0000600082015250565b600061087b601e8361075c565b915061088682610845565b602082019050919050565b600060208201905081810360008301526108aa8161086e565b9050919050565b7f53616c65466163746f72793a207072696365207a65726f000000000000000000600082015250565b60006108e760178361075c565b91506108f2826108b1565b602082019050919050565b60006020820190508181036000830152610916816108da565b9050919050565b610926816106a6565b82525050565b600060a082019050610941600083018861064b565b61094e602083018761064b565b61095b604083018661064b565b610968606083018561064b565b610975608083018461091d565b9695505050505050565b6000602082019050610994600083018461091d565b92915050565b7f4f776e61626c653a206e6577206f776e6572206973207a65726f000000000000600082015250565b60006109d0601a8361075c565b91506109db8261099a565b602082019050919050565b600060208201905081810360008301526109ff816109c3565b905091905056fe608060405234801561001057600080fd5b5060405161253f38038061253f8339818101604052810190610032919061043b565b84600073ffffffffffffffffffffffffffffffffffffffff168173ffffffffffffffffffffffffffffffffffffffff16036100a2576040517f08c379a000000000000000000000000000000000000000000000000000000000815260040161009990610513565b60405180910390fd5b806000806101000a81548173ffffffffffffffffffffffffffffffffffffffff021916908373ffffffffffffffffffffffffffffffffffffffff1602179055508073ffffffffffffffffffffffffffffffffffffffff16600073ffffffffffffffffffffffffffffffffffffffff167f8be0079c531659141344cd1fd0a4f28419497f9722a3daafe3b4186f6b6457e060405160405180910390a350600073ffffffffffffffffffffffffffffffffffffffff168473ffffffffffffffffffffffffffffffffffffffff16036101ad576040517f08c379a00000000000000000000000000000000000000000000000000000000081526004016101a49061057f565b60405180910390fd5b600073ffffffffffffffffffffffffffffffffffffffff168373ffffffffffffffffffffffffffffffffffffffff160361021c576040517f08c379a0000000000000000000000000000000000000000000000000000000008152600401610213906105eb565b60405180910390fd5b600073ffffffffffffffffffffffffffffffffffffffff168273ffffffffffffffffffffffffffffffffffffffff160361028b576040517f08c379a000000000000000000000000000000000000000000000000000000000815260040161028290610657565b60405180910390fd5b600081116102ce576040517f08c379a00000000000000000000000000000000000000000000000000000000081526004016102c5906106c3565b60405180910390fd5b83600460006101000a81548173ffffffffffffffffffffffffffffffffffffffff021916908373ffffffffffffffffffffffffffffffffffffffff16021790555082600160006101000a81548173ffffffffffffffffffffffffffffffffffffffff021916908373ffffffffffffffffffffffffffffffffffffffff16021790555081600260006101000a81548173ffffffffffffffffffffffffffffffffffffffff021916908373ffffffffffffffffffffffffffffffffffffffff1602179055508060038190555050505050506106e3565b600080fd5b600073ffffffffffffffffffffffffffffffffffffffff82169050919050565b60006103d2826103a7565b9050919050565b6103e2816103c7565b81146103ed57600080fd5b50565b6000815190506103ff816103d9565b92915050565b6000819050919050565b61041881610405565b811461042357600080fd5b50565b6000815190506104358161040f565b92915050565b600080600080600060a08688031215610457576104566103a2565b5b6000610465888289016103f0565b9550506020610476888289016103f0565b9450506040610487888289016103f0565b9350506060610498888289016103f0565b92505060806104a988828901610426565b9150509295509295909350565b600082825260208201905092915050565b7f4f776e61626c653a206f776e6572206973207a65726f00000000000000000000600082015250565b60006104fd6016836104b6565b9150610508826104c7565b602082019050919050565b6000602082019050818103600083015261052c816104f0565b9050919050565b7f53616c653a2070726f6a6563744f776e6572207a65726f000000000000000000600082015250565b60006105696017836104b6565b915061057482610533565b602082019050919050565b600060208201905081810360008301526105988161055c565b9050919050565b7f53616c653a20746f6b656e207a65726f00000000000000000000000000000000600082015250565b60006105d56010836104b6565b91506105e08261059f565b602082019050919050565b60006020820190508181036000830152610604816105c8565b9050919050565b7f53616c653a206964656e746974795265676973747279207a65726f0000000000600082015250565b6000610641601b836104b6565b915061064c8261060b565b602082019050919050565b6000602082019050818103600083015261067081610634565b9050919050565b7f53616c653a207072696365206973207a65726f00000000000000000000000000600082015250565b60006106ad6013836104b6565b91506106b882610677565b602082019050919050565b600060208201905081810360008301526106dc816106a0565b9050919050565b611e4d806106f26000396000f3fe6080604052600436106100fe5760003560e01c8063a4475ce411610095578063dbf09d6611610064578063dbf09d66146102cf578063f2fde38b146102fa578063f3fef3a314610323578063f96f5b351461034c578063fc0c546a14610389576100fe565b8063a4475ce414610258578063c721f08d14610283578063c9e904be1461029a578063d0febe4c146102c5576100fe565b80636f9fb98a116100d15780636f9fb98a146101ae5780638d6cc56d146101d95780638da5cb5b14610202578063953bbbe21461022d576100fe565b806310fdf36a14610103578063134e18f414610141578063616d0dfd1461016c57806368428a1b14610183575b600080fd5b34801561010f57600080fd5b5061012a6004803603810190610125919061133e565b6103b4565b604051610138929190611384565b60405180910390f35b34801561014d57600080fd5b5061015661049c565b604051610163919061140c565b60405180910390f35b34801561017857600080fd5b506101816104c2565b005b34801561018f57600080fd5b506101986105f1565b6040516101a59190611442565b60405180910390f35b3480156101ba57600080fd5b506101c3610604565b6040516101d0919061145d565b60405180910390f35b3480156101e557600080fd5b5061020060048036038101906101fb91906114a4565b61060c565b005b34801561020e57600080fd5b5061021761077a565b60405161022491906114e0565b60405180910390f35b34801561023957600080fd5b5061024261079e565b60405161024f919061145d565b60405180910390f35b34801561026457600080fd5b5061026d6107a9565b60405161027a91906114e0565b60405180910390f35b34801561028f57600080fd5b506102986107cf565b005b3480156102a657600080fd5b506102af6108fe565b6040516102bc919061145d565b60405180910390f35b6102cd610904565b005b3480156102db57600080fd5b506102e4610dc1565b6040516102f1919061145d565b60405180910390f35b34801561030657600080fd5b50610321600480360381019061031c919061133e565b610dc7565b005b34801561032f57600080fd5b5061034a60048036038101906103459190611539565b610f81565b005b34801561035857600080fd5b50610373600480360381019061036e919061133e565b61129d565b604051610380919061145d565b60405180910390f35b34801561039557600080fd5b5061039e6112b5565b6040516103ab919061159a565b60405180910390f35b600080600660008473ffffffffffffffffffffffffffffffffffffffff1673ffffffffffffffffffffffffffffffffffffffff168152602001908152602001600020549150600160009054906101000a900473ffffffffffffffffffffffffffffffffffffffff1673ffffffffffffffffffffffffffffffffffffffff166370a08231846040518263ffffffff1660e01b815260040161045491906114e0565b602060405180830381865afa158015610471573d6000803e3d6000fd5b505050506040513d601f19601f8201168201806040525081019061049591906115ca565b9050915091565b600260009054906101000a900473ffffffffffffffffffffffffffffffffffffffff1681565b600460009054906101000a900473ffffffffffffffffffffffffffffffffffffffff1673ffffffffffffffffffffffffffffffffffffffff163373ffffffffffffffffffffffffffffffffffffffff161480610569575060008054906101000a900473ffffffffffffffffffffffffffffffffffffffff1673ffffffffffffffffffffffffffffffffffffffff163373ffffffffffffffffffffffffffffffffffffffff16145b6105a8576040517f08c379a000000000000000000000000000000000000000000000000000000000815260040161059f90611654565b60405180910390fd5b6000600460146101000a81548160ff0219169083151502179055507f1b9c44ccfe4db823f4df7ffcfa99de085ec78347bf14815fe1751d4463c04cb860405160405180910390a1565b600460149054906101000a900460ff1681565b600047905090565b600460009054906101000a900473ffffffffffffffffffffffffffffffffffffffff1673ffffffffffffffffffffffffffffffffffffffff163373ffffffffffffffffffffffffffffffffffffffff1614806106b3575060008054906101000a900473ffffffffffffffffffffffffffffffffffffffff1673ffffffffffffffffffffffffffffffffffffffff163373ffffffffffffffffffffffffffffffffffffffff16145b6106f2576040517f08c379a00000000000000000000000000000000000000000000000000000000081526004016106e990611654565b60405180910390fd5b60008111610735576040517f08c379a000000000000000000000000000000000000000000000000000000000815260040161072c906116c0565b60405180910390fd5b7f945c1c4e99aa89f648fbfe3df471b916f719e16d960fcec0737d4d56bd69683860035482604051610768929190611384565b60405180910390a18060038190555050565b60008054906101000a900473ffffffffffffffffffffffffffffffffffffffff1681565b66b1a2bc2ec5000081565b600460009054906101000a900473ffffffffffffffffffffffffffffffffffffffff1681565b600460009054906101000a900473ffffffffffffffffffffffffffffffffffffffff1673ffffffffffffffffffffffffffffffffffffffff163373ffffffffffffffffffffffffffffffffffffffff161480610876575060008054906101000a900473ffffffffffffffffffffffffffffffffffffffff1673ffffffffffffffffffffffffffffffffffffffff163373ffffffffffffffffffffffffffffffffffffffff16145b6108b5576040517f08c379a00000000000000000000000000000000000000000000000000000000081526004016108ac90611654565b60405180910390fd5b6001600460146101000a81548160ff0219169083151502179055507fd88a3baace1fc7f202a292f484bec3329681bf507c912023e2200a4c93a6583c60405160405180910390a1565b60055481565b600060149054906101000a900460ff1615610954576040517f08c379a000000000000000000000000000000000000000000000000000000000815260040161094b9061172c565b60405180910390fd5b6001600060146101000a81548160ff021916908315150217905550600460149054906101000a900460ff166109be576040517f08c379a00000000000000000000000000000000000000000000000000000000081526004016109b590611798565b60405180910390fd5b60003411610a01576040517f08c379a00000000000000000000000000000000000000000000000000000000081526004016109f890611804565b60405180910390fd5b66b1a2bc2ec50000341015610a4b576040517f08c379a0000000000000000000000000000000000000000000000000000000008152600401610a4290611870565b60405180910390fd5b600260009054906101000a900473ffffffffffffffffffffffffffffffffffffffff1673ffffffffffffffffffffffffffffffffffffffff1663b9209e33336040518263ffffffff1660e01b8152600401610aa691906114e0565b602060405180830381865afa158015610ac3573d6000803e3d6000fd5b505050506040513d601f19601f82011682018060405250810190610ae791906118bc565b610b26576040517f08c379a0000000000000000000000000000000000000000000000000000000008152600401610b1d90611935565b60405180910390fd5b600060035434610b3691906119b3565b905060008111610b7b576040517f08c379a0000000000000000000000000000000000000000000000000000000008152600401610b7290611a56565b60405180910390fd5b600160009054906101000a900473ffffffffffffffffffffffffffffffffffffffff1673ffffffffffffffffffffffffffffffffffffffff166340c10f1933836040518363ffffffff1660e01b8152600401610bd8929190611a76565b600060405180830381600087803b158015610bf257600080fd5b505af1158015610c06573d6000803e3d6000fd5b50505050600060035482610c1a9190611a9f565b905060008134610c2a9190611ae1565b905081600660003373ffffffffffffffffffffffffffffffffffffffff1673ffffffffffffffffffffffffffffffffffffffff1681526020019081526020016000206000828254610c7b9190611b15565b925050819055508160056000828254610c949190611b15565b925050819055506000811115610d525760003373ffffffffffffffffffffffffffffffffffffffff1682604051610cca90611b7a565b60006040518083038185875af1925050503d8060008114610d07576040519150601f19603f3d011682016040523d82523d6000602084013e610d0c565b606091505b5050905080610d50576040517f08c379a0000000000000000000000000000000000000000000000000000000008152600401610d4790611bdb565b60405180910390fd5b505b3373ffffffffffffffffffffffffffffffffffffffff167f8fafebcaf9d154343dad25669bfa277f4fbacd7ac6b0c4fed522580e040a0f333485604051610d9a929190611384565b60405180910390a250505060008060146101000a81548160ff021916908315150217905550565b60035481565b60008054906101000a900473ffffffffffffffffffffffffffffffffffffffff1673ffffffffffffffffffffffffffffffffffffffff163373ffffffffffffffffffffffffffffffffffffffff1614610e55576040517f08c379a0000000000000000000000000000000000000000000000000000000008152600401610e4c90611c47565b60405180910390fd5b600073ffffffffffffffffffffffffffffffffffffffff168173ffffffffffffffffffffffffffffffffffffffff1603610ec4576040517f08c379a0000000000000000000000000000000000000000000000000000000008152600401610ebb90611cb3565b60405180910390fd5b8073ffffffffffffffffffffffffffffffffffffffff1660008054906101000a900473ffffffffffffffffffffffffffffffffffffffff1673ffffffffffffffffffffffffffffffffffffffff167f8be0079c531659141344cd1fd0a4f28419497f9722a3daafe3b4186f6b6457e060405160405180910390a3806000806101000a81548173ffffffffffffffffffffffffffffffffffffffff021916908373ffffffffffffffffffffffffffffffffffffffff16021790555050565b600460009054906101000a900473ffffffffffffffffffffffffffffffffffffffff1673ffffffffffffffffffffffffffffffffffffffff163373ffffffffffffffffffffffffffffffffffffffff161480611028575060008054906101000a900473ffffffffffffffffffffffffffffffffffffffff1673ffffffffffffffffffffffffffffffffffffffff163373ffffffffffffffffffffffffffffffffffffffff16145b611067576040517f08c379a000000000000000000000000000000000000000000000000000000000815260040161105e90611654565b60405180910390fd5b600060149054906101000a900460ff16156110b7576040517f08c379a00000000000000000000000000000000000000000000000000000000081526004016110ae9061172c565b60405180910390fd5b6001600060146101000a81548160ff021916908315150217905550600073ffffffffffffffffffffffffffffffffffffffff168273ffffffffffffffffffffffffffffffffffffffff1603611141576040517f08c379a000000000000000000000000000000000000000000000000000000000815260040161113890611d1f565b60405180910390fd5b47811115611184576040517f08c379a000000000000000000000000000000000000000000000000000000000815260040161117b90611d8b565b60405180910390fd5b60008273ffffffffffffffffffffffffffffffffffffffff16826040516111aa90611b7a565b60006040518083038185875af1925050503d80600081146111e7576040519150601f19603f3d011682016040523d82523d6000602084013e6111ec565b606091505b5050905080611230576040517f08c379a000000000000000000000000000000000000000000000000000000000815260040161122790611df7565b60405180910390fd5b8273ffffffffffffffffffffffffffffffffffffffff167f7084f5476618d8e60b11ef0d7d3f06914655adb8793e28ff7f018d4c76d505d583604051611276919061145d565b60405180910390a25060008060146101000a81548160ff0219169083151502179055505050565b60066020528060005260406000206000915090505481565b600160009054906101000a900473ffffffffffffffffffffffffffffffffffffffff1681565b600080fd5b600073ffffffffffffffffffffffffffffffffffffffff82169050919050565b600061130b826112e0565b9050919050565b61131b81611300565b811461132657600080fd5b50565b60008135905061133881611312565b92915050565b600060208284031215611354576113536112db565b5b600061136284828501611329565b91505092915050565b6000819050919050565b61137e8161136b565b82525050565b60006040820190506113996000830185611375565b6113a66020830184611375565b9392505050565b6000819050919050565b60006113d26113cd6113c8846112e0565b6113ad565b6112e0565b9050919050565b60006113e4826113b7565b9050919050565b60006113f6826113d9565b9050919050565b611406816113eb565b82525050565b600060208201905061142160008301846113fd565b92915050565b60008115159050919050565b61143c81611427565b82525050565b60006020820190506114576000830184611433565b92915050565b60006020820190506114726000830184611375565b92915050565b6114818161136b565b811461148c57600080fd5b50565b60008135905061149e81611478565b92915050565b6000602082840312156114ba576114b96112db565b5b60006114c88482850161148f565b91505092915050565b6114da81611300565b82525050565b60006020820190506114f560008301846114d1565b92915050565b6000611506826112e0565b9050919050565b611516816114fb565b811461152157600080fd5b50565b6000813590506115338161150d565b92915050565b600080604083850312156115505761154f6112db565b5b600061155e85828601611524565b925050602061156f8582860161148f565b9150509250929050565b6000611584826113d9565b9050919050565b61159481611579565b82525050565b60006020820190506115af600083018461158b565b92915050565b6000815190506115c481611478565b92915050565b6000602082840312156115e0576115df6112db565b5b60006115ee848285016115b5565b91505092915050565b600082825260208201905092915050565b7f53616c653a2063616c6c6572206e6f7420617574686f72697a65640000000000600082015250565b600061163e601b836115f7565b915061164982611608565b602082019050919050565b6000602082019050818103600083015261166d81611631565b9050919050565b7f53616c653a207072696365207a65726f00000000000000000000000000000000600082015250565b60006116aa6010836115f7565b91506116b582611674565b602082019050919050565b600060208201905081810360008301526116d98161169d565b9050919050565b7f5265656e7472616e637947756172643a207265656e7472616e742063616c6c00600082015250565b6000611716601f836115f7565b9150611721826116e0565b602082019050919050565b6000602082019050818103600083015261174581611709565b9050919050565b7f53616c653a206e6f742061637469766500000000000000000000000000000000600082015250565b60006117826010836115f7565b915061178d8261174c565b602082019050919050565b600060208201905081810360008301526117b181611775565b9050919050565b7f53616c653a206e6f204554482073656e74000000000000000000000000000000600082015250565b60006117ee6011836115f7565b91506117f9826117b8565b602082019050919050565b6000602082019050818103600083015261181d816117e1565b9050919050565b7f53616c653a206d696e20302e3035204554480000000000000000000000000000600082015250565b600061185a6012836115f7565b915061186582611824565b602082019050919050565b600060208201905081810360008301526118898161184d565b9050919050565b61189981611427565b81146118a457600080fd5b50565b6000815190506118b681611890565b92915050565b6000602082840312156118d2576118d16112db565b5b60006118e0848285016118a7565b91505092915050565b7f53616c653a2077616c6c6574206e6f74204b5943000000000000000000000000600082015250565b600061191f6014836115f7565b915061192a826118e9565b602082019050919050565b6000602082019050818103600083015261194e81611912565b9050919050565b7f4e487b7100000000000000000000000000000000000000000000000000000000600052601260045260246000fd5b7f4e487b7100000000000000000000000000000000000000000000000000000000600052601160045260246000fd5b60006119be8261136b565b91506119c98361136b565b9250826119d9576119d8611955565b5b828204905092915050565b7f53616c653a2045544820616d6f756e7420746f6f206c6f7720666f722031207460008201527f6f6b656e00000000000000000000000000000000000000000000000000000000602082015250565b6000611a406024836115f7565b9150611a4b826119e4565b604082019050919050565b60006020820190508181036000830152611a6f81611a33565b9050919050565b6000604082019050611a8b60008301856114d1565b611a986020830184611375565b9392505050565b6000611aaa8261136b565b9150611ab58361136b565b9250828202611ac38161136b565b91508282048414831517611ada57611ad9611984565b5b5092915050565b6000611aec8261136b565b9150611af78361136b565b9250828203905081811115611b0f57611b0e611984565b5b92915050565b6000611b208261136b565b9150611b2b8361136b565b9250828201905080821115611b4357611b42611984565b5b92915050565b600081905092915050565b50565b6000611b64600083611b49565b9150611b6f82611b54565b600082019050919050565b6000611b8582611b57565b9150819050919050565b7f53616c653a20726566756e64206661696c656400000000000000000000000000600082015250565b6000611bc56013836115f7565b9150611bd082611b8f565b602082019050919050565b60006020820190508181036000830152611bf481611bb8565b9050919050565b7f4f776e61626c653a2063616c6c6572206973206e6f7420746865206f776e6572600082015250565b6000611c316020836115f7565b9150611c3c82611bfb565b602082019050919050565b60006020820190508181036000830152611c6081611c24565b9050919050565b7f4f776e61626c653a206e6577206f776e6572206973207a65726f000000000000600082015250565b6000611c9d601a836115f7565b9150611ca882611c67565b602082019050919050565b60006020820190508181036000830152611ccc81611c90565b9050919050565b7f53616c653a20746f207a65726f00000000000000000000000000000000000000600082015250565b6000611d09600d836115f7565b9150611d1482611cd3565b602082019050919050565b60006020820190508181036000830152611d3881611cfc565b9050919050565b7f53616c653a20696e73756666696369656e742062616c616e6365000000000000600082015250565b6000611d75601a836115f7565b9150611d8082611d3f565b602082019050919050565b60006020820190508181036000830152611da481611d68565b9050919050565b7f53616c653a207769746864726177206661696c65640000000000000000000000600082015250565b6000611de16015836115f7565b9150611dec82611dab565b602082019050919050565b60006020820190508181036000830152611e1081611dd4565b905091905056fea2646970667358221220e25738548f360d82c032e20c1309ef6db58e66bfc34fe7bb7db27138032bd6e964736f6c634300081c0033a2646970667358221220a2557508cee5a39f17113eba7449a88b356664f18197beade29f81ce7e637cf864736f6c634300081c0033",
  "linkReferences": {},
  "deployedLinkReferences": {}
}