{
  "_format": "hh-sol-artifact-1",
  "contractName": "TokenFactory",
  "sourceName": "contracts/TokenFactory.sol",
  "abi": [
    {
      "inputs": [
        {
          "internalType": "address",
          "name": "platformOwner",
          "type": "address"
        },
        {
          "internalType": "address",
          "name": "_identityRegistry",
          "type": "address"
        }
      ],
      "stateMutability": "nonpayable",
      "type": "constructor"
    },
    {
      "anonymous": false,
      "inputs": [
        {
          "indexed": true,
          "internalType": "address",
          "name": "tokenAddress",
          "type": "address"
        },
        {
          "indexed": true,
          "internalType": "address",
          "name": "projectOwner",
          "type": "address"
        },
        {
          "indexed": false,
          "internalType": "string",
          "name": "name",
          "type": "string"
        },
        {
          "indexed": false,
          "internalType": "string",
          "name": "symbol",
          "type": "string"
        },
        {
          "indexed": false,
          "internalType": "uint256",
          "name": "maxSupply",
          "type": "uint256"
        }
      ],
      "name": "HouseTokenCreated",
      "type": "event"
    },
    {
      "anonymous": false,
      "inputs": [
        {
          "indexed": true,
          "internalType": "address",
          "name": "previousOwner",
          "type": "address"
        },
        {
          "indexed": true,
          "internalType": "address",
          "name": "newOwner",
          "type": "address"
        }
      ],
      "name": "OwnershipTransferred",
      "type": "event"
    },
    {
      "inputs": [
        {
          "internalType": "uint256",
          "name": "",
          "type": "uint256"
        }
      ],
      "name": "allHouseTokens",
      "outputs": [
        {
          "internalType": "address",
          "name": "",
          "type": "address"
        }
      ],
      "stateMutability": "view",
      "type": "function"
    },
    {
      "inputs": [
        {
          "internalType": "string",
          "name": "name",
          "type": "string"
        },
        {
          "internalType": "string",
          "name": "symbol",
          "type": "string"
        },
        {
          "internalType": "uint256",
          "name": "maxSupply",
          "type": "uint256"
        },
        {
          "internalType": "address",
          "name": "projectOwner",
          "type": "address"
        }
      ],
      "name": "createHouseToken",
      "outputs": [
        {
          "internalType": "address",
          "name": "tokenAddress",
          "type": "address"
        }
      ],
      "stateMutability": "nonpayable",
      "type": "function"
    },
    {
      "inputs": [],
      "name": "getHouseTokenCount",
      "outputs": [
        {
          "internalType": "uint256",
          "name": "",
          "type": "uint256"
        }
      ],
      "stateMutability": "view",
      "type": "function"
    },
    {
      "inputs": [
        {
          "internalType": "address",
          "name": "_projectOwner",
          "type": "address"
        }
      ],
      "name": "getTokensByProjectOwner",
      "outputs": [
        {
          "internalType": "address[]",
          "name": "",
          "type": "address[]"
        }
      ],
      "stateMutability": "view",
      "type": "function"
    },
    {
      "inputs": [],
      "name": "identityRegistry",
      "outputs": [
        {
          "internalType": "address",
          "name": "",
          "type": "address"
        }
      ],
      "stateMutability": "view",
      "type": "function"
    },
    {
      "inputs": [],
      "name": "owner",
      "outputs": [
        {
          "internalType": "address",
          "name": "",
          "type": "address"
        }
      ],
      "stateMutability": "view",
      "type": "function"
    },
    {
      "inputs": [
        {
          "internalType": "address",
          "name": "",
          "type": "address"
        },
        {
          "internalType": "uint256",
          "name": "",
          "type": "uint256"
        }
      ],
      "name": "tokensByProjectOwner",
      "outputs": [
        {
          "internalType": "address",
          "name": "",
          "type": "address"
        }
      ],
      "stateMutability": "view",
      "type": "function"
    },
    {
      "inputs": [
        {
          "internalType": "address",
          "name": "newOwner",
          "type": "address"
        }
      ],
      "name": "transferOwnership",
      "outputs": [],
      "stateMutability": "nonpayable",
      "type": "function"
    }
  ],
  "bytecode": "0x60a060405234801561001057600080fd5b50604051613da3380380613da38339818101604052810190610032919061024b565b81600073ffffffffffffffffffffffffffffffffffffffff168173ffffffffffffffffffffffffffffffffffffffff16036100a2576040517f08c379a0000000000000000000000000000000000000000000000000000000008152600401610099906102e8565b60405180910390fd5b806000806101000a81548173ffffffffffffffffffffffffffffffffffffffff021916908373ffffffffffffffffffffffffffffffffffffffff1602179055508073ffffffffffffffffffffffffffffffffffffffff16600073ffffffffffffffffffffffffffffffffffffffff167f8be0079c531659141344cd1fd0a4f28419497f9722a3daafe3b4186f6b6457e060405160405180910390a350600073ffffffffffffffffffffffffffffffffffffffff168173ffffffffffffffffffffffffffffffffffffffff16036101ad576040517f08c379a00000000000000000000000000000000000000000000000000000000081526004016101a490610354565b60405180910390fd5b8073ffffffffffffffffffffffffffffffffffffffff1660808173ffffffffffffffffffffffffffffffffffffffff16815250505050610374565b600080fd5b600073ffffffffffffffffffffffffffffffffffffffff82169050919050565b6000610218826101ed565b9050919050565b6102288161020d565b811461023357600080fd5b50565b6000815190506102458161021f565b92915050565b60008060408385031215610262576102616101e8565b5b600061027085828601610236565b925050602061028185828601610236565b9150509250929050565b600082825260208201905092915050565b7f4f776e61626c653a206f776e6572206973207a65726f00000000000000000000600082015250565b60006102d260168361028b565b91506102dd8261029c565b602082019050919050565b60006020820190508181036000830152610301816102c5565b9050919050565b7f466163746f72793a206964656e746974795265676973747279207a65726f0000600082015250565b600061033e601e8361028b565b915061034982610308565b602082019050919050565b6000602082019050818103600083015261036d81610331565b9050919050565b608051613a0d610396600039600081816101c501526103ed0152613a0d6000f3fe608060405234801561001057600080fd5b50600436106100885760003560e01c80638da5cb5b1161005b5780638da5cb5b1461013b578063de20e28214610159578063f2a3393714610177578063f2fde38b146101a757610088565b8063134e18f41461008d5780631ec6a25d146100ab57806324aeae06146100db5780633db4df121461010b575b600080fd5b6100956101c3565b6040516100a2919061090b565b60405180910390f35b6100c560048036038101906100c09190610992565b6101e7565b6040516100d2919061090b565b60405180910390f35b6100f560048036038101906100f09190610a37565b610235565b604051610102919061090b565b60405180910390f35b61012560048036038101906101209190610ade565b6105c6565b6040516101329190610bc9565b60405180910390f35b610143610693565b604051610150919061090b565b60405180910390f35b6101616106b7565b60405161016e9190610bfa565b60405180910390f35b610191600480360381019061018c9190610c15565b6106c4565b60405161019e919061090b565b60405180910390f35b6101c160048036038101906101bc9190610ade565b610703565b005b7f000000000000000000000000000000000000000000000000000000000000000081565b6002602052816000526040600020818154811061020357600080fd5b906000526020600020016000915091509054906101000a900473ffffffffffffffffffffffffffffffffffffffff1681565b60008060009054906101000a900473ffffffffffffffffffffffffffffffffffffffff1673ffffffffffffffffffffffffffffffffffffffff163373ffffffffffffffffffffffffffffffffffffffff16146102c6576040517f08c379a00000000000000000000000000000000000000000000000000000000081526004016102bd90610c9f565b60405180910390fd5b6000878790501161030c576040517f08c379a000000000000000000000000000000000000000000000000000000000815260040161030390610d0b565b60405180910390fd5b60008585905011610352576040517f08c379a000000000000000000000000000000000000000000000000000000000815260040161034990610d77565b60405180910390fd5b600073ffffffffffffffffffffffffffffffffffffffff168273ffffffffffffffffffffffffffffffffffffffff16036103c1576040517f08c379a00000000000000000000000000000000000000000000000000000000081526004016103b890610de3565b60405180910390fd5b60008060009054906101000a900473ffffffffffffffffffffffffffffffffffffffff168389898989897f0000000000000000000000000000000000000000000000000000000000000000604051610418906108bd565b610429989796959493929190610e50565b604051809103906000f080158015610445573d6000803e3d6000fd5b5090508091506001829080600181540180825580915050600190039060005260206000200160009091909190916101000a81548173ffffffffffffffffffffffffffffffffffffffff021916908373ffffffffffffffffffffffffffffffffffffffff160217905550600260008473ffffffffffffffffffffffffffffffffffffffff1673ffffffffffffffffffffffffffffffffffffffff168152602001908152602001600020829080600181540180825580915050600190039060005260206000200160009091909190916101000a81548173ffffffffffffffffffffffffffffffffffffffff021916908373ffffffffffffffffffffffffffffffffffffffff1602179055508273ffffffffffffffffffffffffffffffffffffffff168273ffffffffffffffffffffffffffffffffffffffff167f8fc7908d7eeb48b6194abacefa3d88e0fea4f3c9f53d64009ca1ece9955ef8518a8a8a8a8a6040516105b3959493929190610ec3565b60405180910390a3509695505050505050565b6060600260008373ffffffffffffffffffffffffffffffffffffffff1673ffffffffffffffffffffffffffffffffffffffff16815260200190815260200160002080548060200260200160405190810160405280929190818152602001828054801561068757602002820191906000526020600020905b8160009054906101000a900473ffffffffffffffffffffffffffffffffffffffff1673ffffffffffffffffffffffffffffffffffffffff168152602001906001019080831161063d575b50505050509050919050565b60008054906101000a900473ffffffffffffffffffffffffffffffffffffffff1681565b6000600180549050905090565b600181815481106106d457600080fd5b906000526020600020016000915054906101000a900473ffffffffffffffffffffffffffffffffffffffff1681565b60008054906101000a900473ffffffffffffffffffffffffffffffffffffffff1673ffffffffffffffffffffffffffffffffffffffff163373ffffffffffffffffffffffffffffffffffffffff1614610791576040517f08c379a000000000000000000000000000000000000000000000000000000000815260040161078890610c9f565b60405180910390fd5b600073ffffffffffffffffffffffffffffffffffffffff168173ffffffffffffffffffffffffffffffffffffffff1603610800576040517f08c379a00000000000000000000000000000000000000000000000000000000081526004016107f790610f58565b60405180910390fd5b8073ffffffffffffffffffffffffffffffffffffffff1660008054906101000a900473ffffffffffffffffffffffffffffffffffffffff1673ffffffffffffffffffffffffffffffffffffffff167f8be0079c531659141344cd1fd0a4f28419497f9722a3daafe3b4186f6b6457e060405160405180910390a3806000806101000a81548173ffffffffffffffffffffffffffffffffffffffff021916908373ffffffffffffffffffffffffffffffffffffffff16021790555050565b612a5f80610f7983390190565b600073ffffffffffffffffffffffffffffffffffffffff82169050919050565b60006108f5826108ca565b9050919050565b610905816108ea565b82525050565b600060208201905061092060008301846108fc565b92915050565b600080fd5b600080fd5b610939816108ea565b811461094457600080fd5b50565b60008135905061095681610930565b92915050565b6000819050919050565b61096f8161095c565b811461097a57600080fd5b50565b60008135905061098c81610966565b92915050565b600080604083850312156109a9576109a8610926565b5b60006109b785828601610947565b92505060206109c88582860161097d565b9150509250929050565b600080fd5b600080fd5b600080fd5b60008083601f8401126109f7576109f66109d2565b5b8235905067ffffffffffffffff811115610a1457610a136109d7565b5b602083019150836001820283011115610a3057610a2f6109dc565b5b9250929050565b60008060008060008060808789031215610a5457610a53610926565b5b600087013567ffffffffffffffff811115610a7257610a7161092b565b5b610a7e89828a016109e1565b9650965050602087013567ffffffffffffffff811115610aa157610aa061092b565b5b610aad89828a016109e1565b94509450506040610ac089828a0161097d565b9250506060610ad189828a01610947565b9150509295509295509295565b600060208284031215610af457610af3610926565b5b6000610b0284828501610947565b91505092915050565b600081519050919050565b600082825260208201905092915050565b6000819050602082019050919050565b610b40816108ea565b82525050565b6000610b528383610b37565b60208301905092915050565b6000602082019050919050565b6000610b7682610b0b565b610b808185610b16565b9350610b8b83610b27565b8060005b83811015610bbc578151610ba38882610b46565b9750610bae83610b5e565b925050600181019050610b8f565b5085935050505092915050565b60006020820190508181036000830152610be38184610b6b565b905092915050565b610bf48161095c565b82525050565b6000602082019050610c0f6000830184610beb565b92915050565b600060208284031215610c2b57610c2a610926565b5b6000610c398482850161097d565b91505092915050565b600082825260208201905092915050565b7f4f776e61626c653a2063616c6c6572206973206e6f7420746865206f776e6572600082015250565b6000610c89602083610c42565b9150610c9482610c53565b602082019050919050565b60006020820190508181036000830152610cb881610c7c565b9050919050565b7f466163746f72793a206e616d6520656d70747900000000000000000000000000600082015250565b6000610cf5601383610c42565b9150610d0082610cbf565b602082019050919050565b60006020820190508181036000830152610d2481610ce8565b9050919050565b7f466163746f72793a2073796d626f6c20656d7074790000000000000000000000600082015250565b6000610d61601583610c42565b9150610d6c82610d2b565b602082019050919050565b60006020820190508181036000830152610d9081610d54565b9050919050565b7f466163746f72793a2070726f6a6563744f776e6572207a65726f000000000000600082015250565b6000610dcd601a83610c42565b9150610dd882610d97565b602082019050919050565b60006020820190508181036000830152610dfc81610dc0565b9050919050565b82818337600083830152505050565b6000601f19601f8301169050919050565b6000610e2f8385610c42565b9350610e3c838584610e03565b610e4583610e12565b840190509392505050565b600060c082019050610e65600083018b6108fc565b610e72602083018a6108fc565b8181036040830152610e8581888a610e23565b90508181036060830152610e9a818688610e23565b9050610ea96080830185610beb565b610eb660a08301846108fc565b9998505050505050505050565b60006060820190508181036000830152610ede818789610e23565b90508181036020830152610ef3818587610e23565b9050610f026040830184610beb565b9695505050505050565b7f4f776e61626c653a206e6577206f776e6572206973207a65726f000000000000600082015250565b6000610f42601a83610c42565b9150610f4d82610f0c565b602082019050919050565b60006020820190508181036000830152610f7181610f35565b905091905056fe608060405234801561001057600080fd5b50604051612a5f380380612a5f8339818101604052810190610032919061051a565b85600073ffffffffffffffffffffffffffffffffffffffff168173ffffffffffffffffffffffffffffffffffffffff16036100a2576040517f08c379a00000000000000000000000000000000000000000000000000000000081526004016100999061063c565b60405180910390fd5b806000806101000a81548173ffffffffffffffffffffffffffffffffffffffff021916908373ffffffffffffffffffffffffffffffffffffffff1602179055508073ffffffffffffffffffffffffffffffffffffffff16600073ffffffffffffffffffffffffffffffffffffffff167f8be0079c531659141344cd1fd0a4f28419497f9722a3daafe3b4186f6b6457e060405160405180910390a350600073ffffffffffffffffffffffffffffffffffffffff168573ffffffffffffffffffffffffffffffffffffffff16036101ad576040517f08c379a00000000000000000000000000000000000000000000000000000000081526004016101a4906106a8565b60405180910390fd5b600073ffffffffffffffffffffffffffffffffffffffff168173ffffffffffffffffffffffffffffffffffffffff160361021c576040517f08c379a000000000000000000000000000000000000000000000000000000000815260040161021390610714565b60405180910390fd5b84600660006101000a81548173ffffffffffffffffffffffffffffffffffffffff021916908373ffffffffffffffffffffffffffffffffffffffff160217905550836001908161026c919061094b565b50826002908161027c919061094b565b508160048190555080600960006101000a81548173ffffffffffffffffffffffffffffffffffffffff021916908373ffffffffffffffffffffffffffffffffffffffff16021790555033600760006101000a81548173ffffffffffffffffffffffffffffffffffffffff021916908373ffffffffffffffffffffffffffffffffffffffff160217905550505050505050610a1d565b6000604051905090565b600080fd5b600080fd5b600073ffffffffffffffffffffffffffffffffffffffff82169050919050565b600061035082610325565b9050919050565b61036081610345565b811461036b57600080fd5b50565b60008151905061037d81610357565b92915050565b600080fd5b600080fd5b6000601f19601f8301169050919050565b7f4e487b7100000000000000000000000000000000000000000000000000000000600052604160045260246000fd5b6103d68261038d565b810181811067ffffffffffffffff821117156103f5576103f461039e565b5b80604052505050565b6000610408610311565b905061041482826103cd565b919050565b600067ffffffffffffffff8211156104345761043361039e565b5b61043d8261038d565b9050602081019050919050565b60005b8381101561046857808201518184015260208101905061044d565b60008484015250505050565b600061048761048284610419565b6103fe565b9050828152602081018484840111156104a3576104a2610388565b5b6104ae84828561044a565b509392505050565b600082601f8301126104cb576104ca610383565b5b81516104db848260208601610474565b91505092915050565b6000819050919050565b6104f7816104e4565b811461050257600080fd5b50565b600081519050610514816104ee565b92915050565b60008060008060008060c087890312156105375761053661031b565b5b600061054589828a0161036e565b965050602061055689828a0161036e565b955050604087015167ffffffffffffffff81111561057757610576610320565b5b61058389828a016104b6565b945050606087015167ffffffffffffffff8111156105a4576105a3610320565b5b6105b089828a016104b6565b93505060806105c189828a01610505565b92505060a06105d289828a0161036e565b9150509295509295509295565b600082825260208201905092915050565b7f4f776e61626c653a206f776e6572206973207a65726f00000000000000000000600082015250565b60006106266016836105df565b9150610631826105f0565b602082019050919050565b6000602082019050818103600083015261065581610619565b9050919050565b7f546f6b656e3a2070726f6a6563744f776e6572207a65726f0000000000000000600082015250565b60006106926018836105df565b915061069d8261065c565b602082019050919050565b600060208201905081810360008301526106c181610685565b9050919050565b7f546f6b656e3a206964656e746974795265676973747279207a65726f00000000600082015250565b60006106fe601c836105df565b9150610709826106c8565b602082019050919050565b6000602082019050818103600083015261072d816106f1565b9050919050565b600081519050919050565b7f4e487b7100000000000000000000000000000000000000000000000000000000600052602260045260246000fd5b6000600282049050600182168061078657607f821691505b6020821081036107995761079861073f565b5b50919050565b60008190508160005260206000209050919050565b60006020601f8301049050919050565b600082821b905092915050565b6000600883026108017fffffffffffffffffffffffffffffffffffffffffffffffffffffffffffffffff826107c4565b61080b86836107c4565b95508019841693508086168417925050509392505050565b6000819050919050565b600061084861084361083e846104e4565b610823565b6104e4565b9050919050565b6000819050919050565b6108628361082d565b61087661086e8261084f565b8484546107d1565b825550505050565b600090565b61088b61087e565b610896818484610859565b505050565b5b818110156108ba576108af600082610883565b60018101905061089c565b5050565b601f8211156108ff576108d08161079f565b6108d9846107b4565b810160208510156108e8578190505b6108fc6108f4856107b4565b83018261089b565b50505b505050565b600082821c905092915050565b600061092260001984600802610904565b1980831691505092915050565b600061093b8383610911565b9150826002028217905092915050565b61095482610734565b67ffffffffffffffff81111561096d5761096c61039e565b5b610977825461076e565b6109828282856108be565b600060209050601f8311600181146109b557600084156109a3578287015190505b6109ad858261092f565b865550610a15565b601f1984166109c38661079f565b60005b828110156109eb578489015182556001820191506020850194506020810190506109c6565b86831015610a085784890151610a04601f891682610911565b8355505b6001600288020188555050505b505050505050565b61203380610a2c6000396000f3fe608060405234801561001057600080fd5b506004361061012c5760003560e01c80638456cb59116100ad578063a9059cbb11610071578063a9059cbb146102d7578063c45a015514610307578063d5abeb0114610325578063daf6ca3014610343578063f2fde38b146103615761012c565b80638456cb59146102575780638da5cb5b1461026157806395d89b411461027f5780639dc29fac1461029d578063a4475ce4146102b95761012c565b8063313ce567116100f4578063313ce567146101c55780633f4ba83a146101e357806340c10f19146101ed5780635c975abb1461020957806370a08231146102275761012c565b80630593d2441461013157806306fdde031461014d578063134e18f41461016b57806318160ddd146101895780631f58a309146101a7575b600080fd5b61014b6004803603810190610146919061166b565b61037d565b005b6101556104cb565b6040516101629190611728565b60405180910390f35b610173610559565b60405161018091906117a9565b60405180910390f35b61019161057f565b60405161019e91906117dd565b60405180910390f35b6101af610585565b6040516101bc91906117dd565b60405180910390f35b6101cd61058a565b6040516101da9190611814565b60405180910390f35b6101eb61058f565b005b6102076004803603810190610202919061185b565b61067d565b005b6102116109f9565b60405161021e91906118b6565b60405180910390f35b610241600480360381019061023c919061166b565b610a0c565b60405161024e91906117dd565b60405180910390f35b61025f610a24565b005b610269610b12565b60405161027691906118e0565b60405180910390f35b610287610b36565b6040516102949190611728565b60405180910390f35b6102b760048036038101906102b2919061185b565b610bc4565b005b6102c1610f1a565b6040516102ce91906118e0565b60405180910390f35b6102f160048036038101906102ec919061185b565b610f40565b6040516102fe91906118b6565b60405180910390f35b61030f61124c565b60405161031c91906118e0565b60405180910390f35b61032d611272565b60405161033a91906117dd565b60405180910390f35b61034b611278565b60405161035891906118e0565b60405180910390f35b61037b6004803603810190610376919061166b565b61129e565b005b60008054906101000a900473ffffffffffffffffffffffffffffffffffffffff1673ffffffffffffffffffffffffffffffffffffffff163373ffffffffffffffffffffffffffffffffffffffff161461040b576040517f08c379a000000000000000000000000000000000000000000000000000000000815260040161040290611947565b60405180910390fd5b8073ffffffffffffffffffffffffffffffffffffffff16600860009054906101000a900473ffffffffffffffffffffffffffffffffffffffff1673ffffffffffffffffffffffffffffffffffffffff167f53d4126a9127dd39595defb493db8f2cc8d4eefa5ed42a7388f42ff09160c50160405160405180910390a380600860006101000a81548173ffffffffffffffffffffffffffffffffffffffff021916908373ffffffffffffffffffffffffffffffffffffffff16021790555050565b600180546104d890611996565b80601f016020809104026020016040519081016040528092919081815260200182805461050490611996565b80156105515780601f1061052657610100808354040283529160200191610551565b820191906000526020600020905b81548152906001019060200180831161053457829003601f168201915b505050505081565b600960009054906101000a900473ffffffffffffffffffffffffffffffffffffffff1681565b60035481565b601481565b600081565b60008054906101000a900473ffffffffffffffffffffffffffffffffffffffff1673ffffffffffffffffffffffffffffffffffffffff163373ffffffffffffffffffffffffffffffffffffffff161461061d576040517f08c379a000000000000000000000000000000000000000000000000000000000815260040161061490611947565b60405180910390fd5b6000600960146101000a81548160ff0219169083151502179055503373ffffffffffffffffffffffffffffffffffffffff167f5db9ee0a495bf2e6ff9c91a7834c1ba4fdd244a5e8aa4e537bd38aeae4b073aa60405160405180910390a2565b600660009054906101000a900473ffffffffffffffffffffffffffffffffffffffff1673ffffffffffffffffffffffffffffffffffffffff163373ffffffffffffffffffffffffffffffffffffffff161480610724575060008054906101000a900473ffffffffffffffffffffffffffffffffffffffff1673ffffffffffffffffffffffffffffffffffffffff163373ffffffffffffffffffffffffffffffffffffffff16145b8061077c5750600860009054906101000a900473ffffffffffffffffffffffffffffffffffffffff1673ffffffffffffffffffffffffffffffffffffffff163373ffffffffffffffffffffffffffffffffffffffff16145b6107bb576040517f08c379a00000000000000000000000000000000000000000000000000000000081526004016107b290611a13565b60405180910390fd5b600073ffffffffffffffffffffffffffffffffffffffff168273ffffffffffffffffffffffffffffffffffffffff160361082a576040517f08c379a000000000000000000000000000000000000000000000000000000000815260040161082190611a7f565b60405180910390fd5b6000811161086d576040517f08c379a000000000000000000000000000000000000000000000000000000000815260040161086490611aeb565b60405180910390fd5b61087682611458565b61087f81611536565b6108d281600560008573ffffffffffffffffffffffffffffffffffffffff1673ffffffffffffffffffffffffffffffffffffffff168152602001908152602001600020546108cd9190611b3a565b611596565b80600560008473ffffffffffffffffffffffffffffffffffffffff1673ffffffffffffffffffffffffffffffffffffffff16815260200190815260200160002060008282546109219190611b3a565b92505081905550806003600082825461093a9190611b3a565b925050819055508173ffffffffffffffffffffffffffffffffffffffff167f0f6798a560793a54c3bcfe86a93cde1e73087d944c0ea20544137d41213968858260405161098791906117dd565b60405180910390a28173ffffffffffffffffffffffffffffffffffffffff16600073ffffffffffffffffffffffffffffffffffffffff167fddf252ad1be2c89b69c2b068fc378daa952ba7f163c4a11628f55a4df523b3ef836040516109ed91906117dd565b60405180910390a35050565b600960149054906101000a900460ff1681565b60056020528060005260406000206000915090505481565b60008054906101000a900473ffffffffffffffffffffffffffffffffffffffff1673ffffffffffffffffffffffffffffffffffffffff163373ffffffffffffffffffffffffffffffffffffffff1614610ab2576040517f08c379a0000000000000000000000000000000000000000000000000000000008152600401610aa990611947565b60405180910390fd5b6001600960146101000a81548160ff0219169083151502179055503373ffffffffffffffffffffffffffffffffffffffff167f62e78cea01bee320cd4e420270b5ea74000d11b0c9f74754ebdbfc544b05a25860405160405180910390a2565b60008054906101000a900473ffffffffffffffffffffffffffffffffffffffff1681565b60028054610b4390611996565b80601f0160208091040260200160405190810160405280929190818152602001828054610b6f90611996565b8015610bbc5780601f10610b9157610100808354040283529160200191610bbc565b820191906000526020600020905b815481529060010190602001808311610b9f57829003601f168201915b505050505081565b600660009054906101000a900473ffffffffffffffffffffffffffffffffffffffff1673ffffffffffffffffffffffffffffffffffffffff163373ffffffffffffffffffffffffffffffffffffffff161480610c6b575060008054906101000a900473ffffffffffffffffffffffffffffffffffffffff1673ffffffffffffffffffffffffffffffffffffffff163373ffffffffffffffffffffffffffffffffffffffff16145b80610cc35750600860009054906101000a900473ffffffffffffffffffffffffffffffffffffffff1673ffffffffffffffffffffffffffffffffffffffff163373ffffffffffffffffffffffffffffffffffffffff16145b610d02576040517f08c379a0000000000000000000000000000000000000000000000000000000008152600401610cf990611a13565b60405180910390fd5b600073ffffffffffffffffffffffffffffffffffffffff168273ffffffffffffffffffffffffffffffffffffffff1603610d71576040517f08c379a0000000000000000000000000000000000000000000000000000000008152600401610d6890611bba565b60405180910390fd5b80600560008473ffffffffffffffffffffffffffffffffffffffff1673ffffffffffffffffffffffffffffffffffffffff168152602001908152602001600020541015610df3576040517f08c379a0000000000000000000000000000000000000000000000000000000008152600401610dea90611c26565b60405180910390fd5b80600560008473ffffffffffffffffffffffffffffffffffffffff1673ffffffffffffffffffffffffffffffffffffffff1681526020019081526020016000206000828254610e429190611c46565b925050819055508060036000828254610e5b9190611c46565b925050819055508173ffffffffffffffffffffffffffffffffffffffff167fcc16f5dbb4873280815c1ee09dbd06736cffcc184412cf7a71a0fdb75d397ca582604051610ea891906117dd565b60405180910390a2600073ffffffffffffffffffffffffffffffffffffffff168273ffffffffffffffffffffffffffffffffffffffff167fddf252ad1be2c89b69c2b068fc378daa952ba7f163c4a11628f55a4df523b3ef83604051610f0e91906117dd565b60405180910390a35050565b600660009054906101000a900473ffffffffffffffffffffffffffffffffffffffff1681565b6000600960149054906101000a900460ff1615610f92576040517f08c379a0000000000000000000000000000000000000000000000000000000008152600401610f8990611cc6565b60405180910390fd5b6000339050600073ffffffffffffffffffffffffffffffffffffffff168473ffffffffffffffffffffffffffffffffffffffff1603611006576040517f08c379a0000000000000000000000000000000000000000000000000000000008152600401610ffd90611d32565b60405180910390fd5b60008311611049576040517f08c379a000000000000000000000000000000000000000000000000000000000815260040161104090611aeb565b60405180910390fd5b82600560008373ffffffffffffffffffffffffffffffffffffffff1673ffffffffffffffffffffffffffffffffffffffff1681526020019081526020016000205410156110cb576040517f08c379a00000000000000000000000000000000000000000000000000000000081526004016110c290611c26565b60405180910390fd5b6110d481611458565b6110dd84611458565b61113083600560008773ffffffffffffffffffffffffffffffffffffffff1673ffffffffffffffffffffffffffffffffffffffff1681526020019081526020016000205461112b9190611b3a565b611596565b82600560008373ffffffffffffffffffffffffffffffffffffffff1673ffffffffffffffffffffffffffffffffffffffff168152602001908152602001600020600082825461117f9190611c46565b9250508190555082600560008673ffffffffffffffffffffffffffffffffffffffff1673ffffffffffffffffffffffffffffffffffffffff16815260200190815260200160002060008282546111d59190611b3a565b925050819055508373ffffffffffffffffffffffffffffffffffffffff168173ffffffffffffffffffffffffffffffffffffffff167fddf252ad1be2c89b69c2b068fc378daa952ba7f163c4a11628f55a4df523b3ef8560405161123991906117dd565b60405180910390a3600191505092915050565b600760009054906101000a900473ffffffffffffffffffffffffffffffffffffffff1681565b60045481565b600860009054906101000a900473ffffffffffffffffffffffffffffffffffffffff1681565b60008054906101000a900473ffffffffffffffffffffffffffffffffffffffff1673ffffffffffffffffffffffffffffffffffffffff163373ffffffffffffffffffffffffffffffffffffffff161461132c576040517f08c379a000000000000000000000000000000000000000000000000000000000815260040161132390611947565b60405180910390fd5b600073ffffffffffffffffffffffffffffffffffffffff168173ffffffffffffffffffffffffffffffffffffffff160361139b576040517f08c379a000000000000000000000000000000000000000000000000000000000815260040161139290611d9e565b60405180910390fd5b8073ffffffffffffffffffffffffffffffffffffffff1660008054906101000a900473ffffffffffffffffffffffffffffffffffffffff1673ffffffffffffffffffffffffffffffffffffffff167f8be0079c531659141344cd1fd0a4f28419497f9722a3daafe3b4186f6b6457e060405160405180910390a3806000806101000a81548173ffffffffffffffffffffffffffffffffffffffff021916908373ffffffffffffffffffffffffffffffffffffffff16021790555050565b600960009054906101000a900473ffffffffffffffffffffffffffffffffffffffff1673ffffffffffffffffffffffffffffffffffffffff1663b9209e33826040518263ffffffff1660e01b81526004016114b391906118e0565b602060405180830381865afa1580156114d0573d6000803e3d6000fd5b505050506040513d601f19601f820116820180604052508101906114f49190611dea565b611533576040517f08c379a000000000000000000000000000000000000000000000000000000000815260040161152a90611e63565b60405180910390fd5b50565b60006004541461159357600454816003546115519190611b3a565b1115611592576040517f08c379a000000000000000000000000000000000000000000000000000000000815260040161158990611ecf565b60405180910390fd5b5b50565b60006004540315611605576000606460146004546115b49190611eef565b6115be9190611f60565b905080821115611603576040517f08c379a00000000000000000000000000000000000000000000000000000000081526004016115fa90611fdd565b60405180910390fd5b505b50565b600080fd5b600073ffffffffffffffffffffffffffffffffffffffff82169050919050565b60006116388261160d565b9050919050565b6116488161162d565b811461165357600080fd5b50565b6000813590506116658161163f565b92915050565b60006020828403121561168157611680611608565b5b600061168f84828501611656565b91505092915050565b600081519050919050565b600082825260208201905092915050565b60005b838110156116d25780820151818401526020810190506116b7565b60008484015250505050565b6000601f19601f8301169050919050565b60006116fa82611698565b61170481856116a3565b93506117148185602086016116b4565b61171d816116de565b840191505092915050565b6000602082019050818103600083015261174281846116ef565b905092915050565b6000819050919050565b600061176f61176a6117658461160d565b61174a565b61160d565b9050919050565b600061178182611754565b9050919050565b600061179382611776565b9050919050565b6117a381611788565b82525050565b60006020820190506117be600083018461179a565b92915050565b6000819050919050565b6117d7816117c4565b82525050565b60006020820190506117f260008301846117ce565b92915050565b600060ff82169050919050565b61180e816117f8565b82525050565b60006020820190506118296000830184611805565b92915050565b611838816117c4565b811461184357600080fd5b50565b6000813590506118558161182f565b92915050565b6000806040838503121561187257611871611608565b5b600061188085828601611656565b925050602061189185828601611846565b9150509250929050565b60008115159050919050565b6118b08161189b565b82525050565b60006020820190506118cb60008301846118a7565b92915050565b6118da8161162d565b82525050565b60006020820190506118f560008301846118d1565b92915050565b7f4f776e61626c653a2063616c6c6572206973206e6f7420746865206f776e6572600082015250565b60006119316020836116a3565b915061193c826118fb565b602082019050919050565b6000602082019050818103600083015261196081611924565b9050919050565b7f4e487b7100000000000000000000000000000000000000000000000000000000600052602260045260246000fd5b600060028204905060018216806119ae57607f821691505b6020821081036119c1576119c0611967565b5b50919050565b7f546f6b656e3a2063616c6c6572206e6f7420617574686f72697a656400000000600082015250565b60006119fd601c836116a3565b9150611a08826119c7565b602082019050919050565b60006020820190508181036000830152611a2c816119f0565b9050919050565b7f546f6b656e3a206d696e7420746f207a65726f00000000000000000000000000600082015250565b6000611a696013836116a3565b9150611a7482611a33565b602082019050919050565b60006020820190508181036000830152611a9881611a5c565b9050919050565b7f546f6b656e3a20616d6f756e74207a65726f0000000000000000000000000000600082015250565b6000611ad56012836116a3565b9150611ae082611a9f565b602082019050919050565b60006020820190508181036000830152611b0481611ac8565b9050919050565b7f4e487b7100000000000000000000000000000000000000000000000000000000600052601160045260246000fd5b6000611b45826117c4565b9150611b50836117c4565b9250828201905080821115611b6857611b67611b0b565b5b92915050565b7f546f6b656e3a206275726e2066726f6d207a65726f0000000000000000000000600082015250565b6000611ba46015836116a3565b9150611baf82611b6e565b602082019050919050565b60006020820190508181036000830152611bd381611b97565b9050919050565b7f546f6b656e3a20696e73756666696369656e742062616c616e63650000000000600082015250565b6000611c10601b836116a3565b9150611c1b82611bda565b602082019050919050565b60006020820190508181036000830152611c3f81611c03565b9050919050565b6000611c51826117c4565b9150611c5c836117c4565b9250828203905081811115611c7457611c73611b0b565b5b92915050565b7f546f6b656e3a207472616e736665727320706175736564000000000000000000600082015250565b6000611cb06017836116a3565b9150611cbb82611c7a565b602082019050919050565b60006020820190508181036000830152611cdf81611ca3565b9050919050565b7f546f6b656e3a207472616e7366657220746f207a65726f000000000000000000600082015250565b6000611d1c6017836116a3565b9150611d2782611ce6565b602082019050919050565b60006020820190508181036000830152611d4b81611d0f565b9050919050565b7f4f776e61626c653a206e6577206f776e6572206973207a65726f000000000000600082015250565b6000611d88601a836116a3565b9150611d9382611d52565b602082019050919050565b60006020820190508181036000830152611db781611d7b565b9050919050565b611dc78161189b565b8114611dd257600080fd5b50565b600081519050611de481611dbe565b92915050565b600060208284031215611e0057611dff611608565b5b6000611e0e84828501611dd5565b91505092915050565b7f546f6b656e3a2077616c6c6574206e6f74204b59430000000000000000000000600082015250565b6000611e4d6015836116a3565b9150611e5882611e17565b602082019050919050565b60006020820190508181036000830152611e7c81611e40565b9050919050565b7f546f6b656e3a206d6178537570706c7920657863656564656400000000000000600082015250565b6000611eb96019836116a3565b9150611ec482611e83565b602082019050919050565b60006020820190508181036000830152611ee881611eac565b9050919050565b6000611efa826117c4565b9150611f05836117c4565b9250828202611f13816117c4565b91508282048414831517611f2a57611f29611b0b565b5b5092915050565b7f4e487b7100000000000000000000000000000000000000000000000000000000600052601260045260246000fd5b6000611f6b826117c4565b9150611f76836117c4565b925082611f8657611f85611f31565b5b828204905092915050565b7f546f6b656e3a20657863656564732032302520696e766573746f722063617000600082015250565b6000611fc7601f836116a3565b9150611fd282611f91565b602082019050919050565b60006020820190508181036000830152611ff681611fba565b905091905056fea264697066735822122083b6b7c1e981215f05c144d7b93736d9e05a8df2b41dd38c9e77ef073eb891bd64736f6c634300081c0033a2646970667358221220b7cdc0007a9b08d188c93150be271e4e7c1bd6bc296e8e71e013eda7a95addd764736f6c634300081c0033",
  "linkReferences": {},
  "deployedLinkReferences": {}
}