{
  "_format": "hh-sol-artifact-1",
  "contractName": "TokenFactory",
  "sourceName": "contracts/TokenFactory.sol",
  "abi": [
    {
      "inputs": [
        {
          "internalType": "address",
          "name": "platformOwner",
          "type": "address"
        },
        {
          "internalType": "address",
          "name": "_identityRegistry",
          "type": "address"
        }
      ],
      "stateMutability": "nonpayable",
      "type": "constructor"
    },
    {
      "anonymous": false,
      "inputs": [
        {
          "indexed": true,
          "internalType": "address",
          "name": "tokenAddress",
          "type": "address"
        }
      ],
      "name": "HouseTokenActivated",
      "type": "event"
    },
    {
      "anonymous": false,
      "inputs": [
        {
          "indexed": true,
          "internalType": "address",
          "name": "tokenAddress",
          "type": "address"
        },
        {
          "indexed": true,
          "internalType": "address",
          "name": "projectOwner",
          "type": "address"
        },
        {
          "indexed": false,
          "internalType": "string",
          "name": "name",
          "type": "string"
        },
        {
          "indexed": false,
          "internalType": "string",
          "name": "symbol",
          "type": "string"
        },
        {
          "indexed": false,
          "internalType": "uint256",
          "name": "maxSupply",
          "type": "uint256"
        }
      ],
      "name": "HouseTokenCreated",
      "type": "event"
    },
    {
      "anonymous": false,
      "inputs": [
        {
          "indexed": true,
          "internalType": "address",
          "name": "tokenAddress",
          "type": "address"
        }
      ],
      "name": "HouseTokenDeactivated",
      "type": "event"
    },
    {
      "anonymous": false,
      "inputs": [
        {
          "indexed": true,
          "internalType": "address",
          "name": "previousOwner",
          "type": "address"
        },
        {
          "indexed": true,
          "internalType": "address",
          "name": "newOwner",
          "type": "address"
        }
      ],
      "name": "OwnershipTransferred",
      "type": "event"
    },
    {
      "anonymous": false,
      "inputs": [
        {
          "indexed": true,
          "internalType": "address",
          "name": "oldFactory",
          "type": "address"
        },
        {
          "indexed": true,
          "internalType": "address",
          "name": "newFactory",
          "type": "address"
        }
      ],
      "name": "SaleFactoryUpdated",
      "type": "event"
    },
    {
      "inputs": [
        {
          "internalType": "address",
          "name": "tokenAddress",
          "type": "address"
        }
      ],
      "name": "activateHouseToken",
      "outputs": [],
      "stateMutability": "nonpayable",
      "type": "function"
    },
    {
      "inputs": [
        {
          "internalType": "uint256",
          "name": "",
          "type": "uint256"
        }
      ],
      "name": "allHouseTokens",
      "outputs": [
        {
          "internalType": "address",
          "name": "",
          "type": "address"
        }
      ],
      "stateMutability": "view",
      "type": "function"
    },
    {
      "inputs": [
        {
          "internalType": "string",
          "name": "name",
          "type": "string"
        },
        {
          "internalType": "string",
          "name": "symbol",
          "type": "string"
        },
        {
          "internalType": "uint256",
          "name": "maxSupply",
          "type": "uint256"
        },
        {
          "internalType": "address",
          "name": "projectOwner",
          "type": "address"
        }
      ],
      "name": "createHouseToken",
      "outputs": [
        {
          "internalType": "address",
          "name": "tokenAddress",
          "type": "address"
        }
      ],
      "stateMutability": "nonpayable",
      "type": "function"
    },
    {
      "inputs": [
        {
          "internalType": "address",
          "name": "tokenAddress",
          "type": "address"
        }
      ],
      "name": "deactivateHouseToken",
      "outputs": [],
      "stateMutability": "nonpayable",
      "type": "function"
    },
    {
      "inputs": [],
      "name": "getHouseTokenCount",
      "outputs": [
        {
          "internalType": "uint256",
          "name": "",
          "type": "uint256"
        }
      ],
      "stateMutability": "view",
      "type": "function"
    },
    {
      "inputs": [
        {
          "internalType": "address",
          "name": "_projectOwner",
          "type": "address"
        }
      ],
      "name": "getTokensByProjectOwner",
      "outputs": [
        {
          "internalType": "address[]",
          "name": "",
          "type": "address[]"
        }
      ],
      "stateMutability": "view",
      "type": "function"
    },
    {
      "inputs": [],
      "name": "identityRegistry",
      "outputs": [
        {
          "internalType": "address",
          "name": "",
          "type": "address"
        }
      ],
      "stateMutability": "view",
      "type": "function"
    },
    {
      "inputs": [
        {
          "internalType": "address",
          "name": "",
          "type": "address"
        }
      ],
      "name": "isActive",
      "outputs": [
        {
          "internalType": "bool",
          "name": "",
          "type": "bool"
        }
      ],
      "stateMutability": "view",
      "type": "function"
    },
    {
      "inputs": [
        {
          "internalType": "address",
          "name": "",
          "type": "address"
        }
      ],
      "name": "isHouseToken",
      "outputs": [
        {
          "internalType": "bool",
          "name": "",
          "type": "bool"
        }
      ],
      "stateMutability": "view",
      "type": "function"
    },
    {
      "inputs": [],
      "name": "owner",
      "outputs": [
        {
          "internalType": "address",
          "name": "",
          "type": "address"
        }
      ],
      "stateMutability": "view",
      "type": "function"
    },
    {
      "inputs": [],
      "name": "saleFactory",
      "outputs": [
        {
          "internalType": "address",
          "name": "",
          "type": "address"
        }
      ],
      "stateMutability": "view",
      "type": "function"
    },
    {
      "inputs": [
        {
          "internalType": "address",
          "name": "_saleFactory",
          "type": "address"
        }
      ],
      "name": "setSaleFactory",
      "outputs": [],
      "stateMutability": "nonpayable",
      "type": "function"
    },
    {
      "inputs": [
        {
          "internalType": "address",
          "name": "",
          "type": "address"
        },
        {
          "internalType": "uint256",
          "name": "",
          "type": "uint256"
        }
      ],
      "name": "tokensByProjectOwner",
      "outputs": [
        {
          "internalType": "address",
          "name": "",
          "type": "address"
        }
      ],
      "stateMutability": "view",
      "type": "function"
    },
    {
      "inputs": [
        {
          "internalType": "address",
          "name": "newOwner",
          "type": "address"
        }
      ],
      "name": "transferOwnership",
      "outputs": [],
      "stateMutability": "nonpayable",
      "type": "function"
    }
  ],
  "bytecode": "0x60a060405234801561001057600080fd5b50604051614d61380380614d618339818101604052810190610032919061024b565b81600073ffffffffffffffffffffffffffffffffffffffff168173ffffffffffffffffffffffffffffffffffffffff16036100a2576040517f08c379a0000000000000000000000000000000000000000000000000000000008152600401610099906102e8565b60405180910390fd5b806000806101000a81548173ffffffffffffffffffffffffffffffffffffffff021916908373ffffffffffffffffffffffffffffffffffffffff1602179055508073ffffffffffffffffffffffffffffffffffffffff16600073ffffffffffffffffffffffffffffffffffffffff167f8be0079c531659141344cd1fd0a4f28419497f9722a3daafe3b4186f6b6457e060405160405180910390a350600073ffffffffffffffffffffffffffffffffffffffff168173ffffffffffffffffffffffffffffffffffffffff16036101ad576040517f08c379a00000000000000000000000000000000000000000000000000000000081526004016101a490610354565b60405180910390fd5b8073ffffffffffffffffffffffffffffffffffffffff1660808173ffffffffffffffffffffffffffffffffffffffff16815250505050610374565b600080fd5b600073ffffffffffffffffffffffffffffffffffffffff82169050919050565b6000610218826101ed565b9050919050565b6102288161020d565b811461023357600080fd5b50565b6000815190506102458161021f565b92915050565b60008060408385031215610262576102616101e8565b5b600061027085828601610236565b925050602061028185828601610236565b9150509250929050565b600082825260208201905092915050565b7f4f776e61626c653a206f776e6572206973207a65726f00000000000000000000600082015250565b60006102d260168361028b565b91506102dd8261029c565b602082019050919050565b60006020820190508181036000830152610301816102c5565b9050919050565b7f466163746f72793a206964656e746974795265676973747279207a65726f0000600082015250565b600061033e601e8361028b565b915061034982610308565b602082019050919050565b6000602082019050818103600083015261036d81610331565b9050919050565b6080516149cb610396600039600081816102f9015261054701526149cb6000f3fe608060405234801561001057600080fd5b50600436106100ea5760003560e01c806369fb9aaa1161008c5780639f8a13d7116100665780639f8a13d71461025d578063de20e2821461028d578063f2a33937146102ab578063f2fde38b146102db576100ea565b806369fb9aaa146101f35780638da5cb5b1461020f5780639c9cf8cf1461022d576100ea565b806324aeae06116100c857806324aeae061461015b5780633db4df121461018b57806351da2d68146101bb57806353979f68146101d7576100ea565b8063134e18f4146100ef57806317de3c841461010d5780631ec6a25d1461012b575b600080fd5b6100f76102f7565b604051610104919061127f565b60405180910390f35b61011561031b565b604051610122919061127f565b60405180910390f35b61014560048036038101906101409190611306565b610341565b604051610152919061127f565b60405180910390f35b610175600480360381019061017091906113ab565b61038f565b604051610182919061127f565b60405180910390f35b6101a560048036038101906101a09190611452565b6108b4565b6040516101b2919061153d565b60405180910390f35b6101d560048036038101906101d09190611452565b610981565b005b6101f160048036038101906101ec9190611452565b610bc5565b005b61020d60048036038101906102089190611452565b610e0a565b005b610217610fc7565b604051610224919061127f565b60405180910390f35b61024760048036038101906102429190611452565b610feb565b604051610254919061157a565b60405180910390f35b61027760048036038101906102729190611452565b61100b565b604051610284919061157a565b60405180910390f35b61029561102b565b6040516102a291906115a4565b60405180910390f35b6102c560048036038101906102c091906115bf565b611038565b6040516102d2919061127f565b60405180910390f35b6102f560048036038101906102f09190611452565b611077565b005b7f000000000000000000000000000000000000000000000000000000000000000081565b600160009054906101000a900473ffffffffffffffffffffffffffffffffffffffff1681565b6003602052816000526040600020818154811061035d57600080fd5b906000526020600020016000915091509054906101000a900473ffffffffffffffffffffffffffffffffffffffff1681565b60008060009054906101000a900473ffffffffffffffffffffffffffffffffffffffff1673ffffffffffffffffffffffffffffffffffffffff163373ffffffffffffffffffffffffffffffffffffffff1614610420576040517f08c379a000000000000000000000000000000000000000000000000000000000815260040161041790611649565b60405180910390fd5b60008787905011610466576040517f08c379a000000000000000000000000000000000000000000000000000000000815260040161045d906116b5565b60405180910390fd5b600085859050116104ac576040517f08c379a00000000000000000000000000000000000000000000000000000000081526004016104a390611721565b60405180910390fd5b600073ffffffffffffffffffffffffffffffffffffffff168273ffffffffffffffffffffffffffffffffffffffff160361051b576040517f08c379a00000000000000000000000000000000000000000000000000000000081526004016105129061178d565b60405180910390fd5b60008060009054906101000a900473ffffffffffffffffffffffffffffffffffffffff168389898989897f000000000000000000000000000000000000000000000000000000000000000060405161057290611231565b6105839897969594939291906117fa565b604051809103906000f08015801561059f573d6000803e3d6000fd5b509050809150600073ffffffffffffffffffffffffffffffffffffffff16600160009054906101000a900473ffffffffffffffffffffffffffffffffffffffff1673ffffffffffffffffffffffffffffffffffffffff1614610689578073ffffffffffffffffffffffffffffffffffffffff166369fb9aaa600160009054906101000a900473ffffffffffffffffffffffffffffffffffffffff166040518263ffffffff1660e01b8152600401610656919061127f565b600060405180830381600087803b15801561067057600080fd5b505af1158015610684573d6000803e3d6000fd5b505050505b6002829080600181540180825580915050600190039060005260206000200160009091909190916101000a81548173ffffffffffffffffffffffffffffffffffffffff021916908373ffffffffffffffffffffffffffffffffffffffff160217905550600360008473ffffffffffffffffffffffffffffffffffffffff1673ffffffffffffffffffffffffffffffffffffffff168152602001908152602001600020829080600181540180825580915050600190039060005260206000200160009091909190916101000a81548173ffffffffffffffffffffffffffffffffffffffff021916908373ffffffffffffffffffffffffffffffffffffffff1602179055506001600460008473ffffffffffffffffffffffffffffffffffffffff1673ffffffffffffffffffffffffffffffffffffffff16815260200190815260200160002060006101000a81548160ff0219169083151502179055506001600560008473ffffffffffffffffffffffffffffffffffffffff1673ffffffffffffffffffffffffffffffffffffffff16815260200190815260200160002060006101000a81548160ff0219169083151502179055508273ffffffffffffffffffffffffffffffffffffffff168273ffffffffffffffffffffffffffffffffffffffff167f8fc7908d7eeb48b6194abacefa3d88e0fea4f3c9f53d64009ca1ece9955ef8518a8a8a8a8a6040516108a195949392919061186d565b60405180910390a3509695505050505050565b6060600360008373ffffffffffffffffffffffffffffffffffffffff1673ffffffffffffffffffffffffffffffffffffffff16815260200190815260200160002080548060200260200160405190810160405280929190818152602001828054801561097557602002820191906000526020600020905b8160009054906101000a900473ffffffffffffffffffffffffffffffffffffffff1673ffffffffffffffffffffffffffffffffffffffff168152602001906001019080831161092b575b50505050509050919050565b60008054906101000a900473ffffffffffffffffffffffffffffffffffffffff1673ffffffffffffffffffffffffffffffffffffffff163373ffffffffffffffffffffffffffffffffffffffff1614610a0f576040517f08c379a0000000000000000000000000000000000000000000000000000000008152600401610a0690611649565b60405180910390fd5b600460008273ffffffffffffffffffffffffffffffffffffffff1673ffffffffffffffffffffffffffffffffffffffff16815260200190815260200160002060009054906101000a900460ff16610a9b576040517f08c379a0000000000000000000000000000000000000000000000000000000008152600401610a9290611902565b60405180910390fd5b600560008273ffffffffffffffffffffffffffffffffffffffff1673ffffffffffffffffffffffffffffffffffffffff16815260200190815260200160002060009054906101000a900460ff16610b27576040517f08c379a0000000000000000000000000000000000000000000000000000000008152600401610b1e9061196e565b60405180910390fd5b6000600560008373ffffffffffffffffffffffffffffffffffffffff1673ffffffffffffffffffffffffffffffffffffffff16815260200190815260200160002060006101000a81548160ff0219169083151502179055508073ffffffffffffffffffffffffffffffffffffffff167fac9530697d4c2c7b259520bc047f05957faee67ea4f6f57c3aad888783be043f60405160405180910390a250565b60008054906101000a900473ffffffffffffffffffffffffffffffffffffffff1673ffffffffffffffffffffffffffffffffffffffff163373ffffffffffffffffffffffffffffffffffffffff1614610c53576040517f08c379a0000000000000000000000000000000000000000000000000000000008152600401610c4a90611649565b60405180910390fd5b600460008273ffffffffffffffffffffffffffffffffffffffff1673ffffffffffffffffffffffffffffffffffffffff16815260200190815260200160002060009054906101000a900460ff16610cdf576040517f08c379a0000000000000000000000000000000000000000000000000000000008152600401610cd690611902565b60405180910390fd5b600560008273ffffffffffffffffffffffffffffffffffffffff1673ffffffffffffffffffffffffffffffffffffffff16815260200190815260200160002060009054906101000a900460ff1615610d6c576040517f08c379a0000000000000000000000000000000000000000000000000000000008152600401610d63906119da565b60405180910390fd5b6001600560008373ffffffffffffffffffffffffffffffffffffffff1673ffffffffffffffffffffffffffffffffffffffff16815260200190815260200160002060006101000a81548160ff0219169083151502179055508073ffffffffffffffffffffffffffffffffffffffff167f252afc5874b1fe79950d2c8fc9a4d044b5983c78c69ec4e254a0a4b0b60ed82560405160405180910390a250565b60008054906101000a900473ffffffffffffffffffffffffffffffffffffffff1673ffffffffffffffffffffffffffffffffffffffff163373ffffffffffffffffffffffffffffffffffffffff1614610e98576040517f08c379a0000000000000000000000000000000000000000000000000000000008152600401610e8f90611649565b60405180910390fd5b600073ffffffffffffffffffffffffffffffffffffffff168173ffffffffffffffffffffffffffffffffffffffff1603610f07576040517f08c379a0000000000000000000000000000000000000000000000000000000008152600401610efe90611a46565b60405180910390fd5b8073ffffffffffffffffffffffffffffffffffffffff16600160009054906101000a900473ffffffffffffffffffffffffffffffffffffffff1673ffffffffffffffffffffffffffffffffffffffff167f9f4583ea13e020de4cb3b03f413f9bc832ca78e7af5680dfed1a8e80a6be81f760405160405180910390a380600160006101000a81548173ffffffffffffffffffffffffffffffffffffffff021916908373ffffffffffffffffffffffffffffffffffffffff16021790555050565b60008054906101000a900473ffffffffffffffffffffffffffffffffffffffff1681565b60046020528060005260406000206000915054906101000a900460ff1681565b60056020528060005260406000206000915054906101000a900460ff1681565b6000600280549050905090565b6002818154811061104857600080fd5b906000526020600020016000915054906101000a900473ffffffffffffffffffffffffffffffffffffffff1681565b60008054906101000a900473ffffffffffffffffffffffffffffffffffffffff1673ffffffffffffffffffffffffffffffffffffffff163373ffffffffffffffffffffffffffffffffffffffff1614611105576040517f08c379a00000000000000000000000000000000000000000000000000000000081526004016110fc90611649565b60405180910390fd5b600073ffffffffffffffffffffffffffffffffffffffff168173ffffffffffffffffffffffffffffffffffffffff1603611174576040517f08c379a000000000000000000000000000000000000000000000000000000000815260040161116b90611ab2565b60405180910390fd5b8073ffffffffffffffffffffffffffffffffffffffff1660008054906101000a900473ffffffffffffffffffffffffffffffffffffffff1673ffffffffffffffffffffffffffffffffffffffff167f8be0079c531659141344cd1fd0a4f28419497f9722a3daafe3b4186f6b6457e060405160405180910390a3806000806101000a81548173ffffffffffffffffffffffffffffffffffffffff021916908373ffffffffffffffffffffffffffffffffffffffff16021790555050565b612ec380611ad383390190565b600073ffffffffffffffffffffffffffffffffffffffff82169050919050565b60006112698261123e565b9050919050565b6112798161125e565b82525050565b60006020820190506112946000830184611270565b92915050565b600080fd5b600080fd5b6112ad8161125e565b81146112b857600080fd5b50565b6000813590506112ca816112a4565b92915050565b6000819050919050565b6112e3816112d0565b81146112ee57600080fd5b50565b600081359050611300816112da565b92915050565b6000806040838503121561131d5761131c61129a565b5b600061132b858286016112bb565b925050602061133c858286016112f1565b9150509250929050565b600080fd5b600080fd5b600080fd5b60008083601f84011261136b5761136a611346565b5b8235905067ffffffffffffffff8111156113885761138761134b565b5b6020830191508360018202830111156113a4576113a3611350565b5b9250929050565b600080600080600080608087890312156113c8576113c761129a565b5b600087013567ffffffffffffffff8111156113e6576113e561129f565b5b6113f289828a01611355565b9650965050602087013567ffffffffffffffff8111156114155761141461129f565b5b61142189828a01611355565b9450945050604061143489828a016112f1565b925050606061144589828a016112bb565b9150509295509295509295565b6000602082840312156114685761146761129a565b5b6000611476848285016112bb565b91505092915050565b600081519050919050565b600082825260208201905092915050565b6000819050602082019050919050565b6114b48161125e565b82525050565b60006114c683836114ab565b60208301905092915050565b6000602082019050919050565b60006114ea8261147f565b6114f4818561148a565b93506114ff8361149b565b8060005b8381101561153057815161151788826114ba565b9750611522836114d2565b925050600181019050611503565b5085935050505092915050565b6000602082019050818103600083015261155781846114df565b905092915050565b60008115159050919050565b6115748161155f565b82525050565b600060208201905061158f600083018461156b565b92915050565b61159e816112d0565b82525050565b60006020820190506115b96000830184611595565b92915050565b6000602082840312156115d5576115d461129a565b5b60006115e3848285016112f1565b91505092915050565b600082825260208201905092915050565b7f4f776e61626c653a2063616c6c6572206973206e6f7420746865206f776e6572600082015250565b60006116336020836115ec565b915061163e826115fd565b602082019050919050565b6000602082019050818103600083015261166281611626565b9050919050565b7f466163746f72793a206e616d6520656d70747900000000000000000000000000600082015250565b600061169f6013836115ec565b91506116aa82611669565b602082019050919050565b600060208201905081810360008301526116ce81611692565b9050919050565b7f466163746f72793a2073796d626f6c20656d7074790000000000000000000000600082015250565b600061170b6015836115ec565b9150611716826116d5565b602082019050919050565b6000602082019050818103600083015261173a816116fe565b9050919050565b7f466163746f72793a2070726f6a6563744f776e6572207a65726f000000000000600082015250565b6000611777601a836115ec565b915061178282611741565b602082019050919050565b600060208201905081810360008301526117a68161176a565b9050919050565b82818337600083830152505050565b6000601f19601f8301169050919050565b60006117d983856115ec565b93506117e68385846117ad565b6117ef836117bc565b840190509392505050565b600060c08201905061180f600083018b611270565b61181c602083018a611270565b818103604083015261182f81888a6117cd565b905081810360608301526118448186886117cd565b90506118536080830185611595565b61186060a0830184611270565b9998505050505050505050565b600060608201905081810360008301526118888187896117cd565b9050818103602083015261189d8185876117cd565b90506118ac6040830184611595565b9695505050505050565b7f466163746f72793a20756e6b6e6f776e20746f6b656e00000000000000000000600082015250565b60006118ec6016836115ec565b91506118f7826118b6565b602082019050919050565b6000602082019050818103600083015261191b816118df565b9050919050565b7f466163746f72793a20616c726561647920696e61637469766500000000000000600082015250565b60006119586019836115ec565b915061196382611922565b602082019050919050565b600060208201905081810360008301526119878161194b565b9050919050565b7f466163746f72793a20616c726561647920616374697665000000000000000000600082015250565b60006119c46017836115ec565b91506119cf8261198e565b602082019050919050565b600060208201905081810360008301526119f3816119b7565b9050919050565b7f466163746f72793a2073616c65466163746f7279207a65726f00000000000000600082015250565b6000611a306019836115ec565b9150611a3b826119fa565b602082019050919050565b60006020820190508181036000830152611a5f81611a23565b9050919050565b7f4f776e61626c653a206e6577206f776e6572206973207a65726f000000000000600082015250565b6000611a9c601a836115ec565b9150611aa782611a66565b602082019050919050565b60006020820190508181036000830152611acb81611a8f565b905091905056fe608060405234801561001057600080fd5b50604051612ec3380380612ec38339818101604052810190610032919061051a565b85600073ffffffffffffffffffffffffffffffffffffffff168173ffffffffffffffffffffffffffffffffffffffff16036100a2576040517f08c379a00000000000000000000000000000000000000000000000000000000081526004016100999061063c565b60405180910390fd5b806000806101000a81548173ffffffffffffffffffffffffffffffffffffffff021916908373ffffffffffffffffffffffffffffffffffffffff1602179055508073ffffffffffffffffffffffffffffffffffffffff16600073ffffffffffffffffffffffffffffffffffffffff167f8be0079c531659141344cd1fd0a4f28419497f9722a3daafe3b4186f6b6457e060405160405180910390a350600073ffffffffffffffffffffffffffffffffffffffff168573ffffffffffffffffffffffffffffffffffffffff16036101ad576040517f08c379a00000000000000000000000000000000000000000000000000000000081526004016101a4906106a8565b60405180910390fd5b600073ffffffffffffffffffffffffffffffffffffffff168173ffffffffffffffffffffffffffffffffffffffff160361021c576040517f08c379a000000000000000000000000000000000000000000000000000000000815260040161021390610714565b60405180910390fd5b84600660006101000a81548173ffffffffffffffffffffffffffffffffffffffff021916908373ffffffffffffffffffffffffffffffffffffffff160217905550836001908161026c919061094b565b50826002908161027c919061094b565b508160048190555080600a60006101000a81548173ffffffffffffffffffffffffffffffffffffffff021916908373ffffffffffffffffffffffffffffffffffffffff16021790555033600760006101000a81548173ffffffffffffffffffffffffffffffffffffffff021916908373ffffffffffffffffffffffffffffffffffffffff160217905550505050505050610a1d565b6000604051905090565b600080fd5b600080fd5b600073ffffffffffffffffffffffffffffffffffffffff82169050919050565b600061035082610325565b9050919050565b61036081610345565b811461036b57600080fd5b50565b60008151905061037d81610357565b92915050565b600080fd5b600080fd5b6000601f19601f8301169050919050565b7f4e487b7100000000000000000000000000000000000000000000000000000000600052604160045260246000fd5b6103d68261038d565b810181811067ffffffffffffffff821117156103f5576103f461039e565b5b80604052505050565b6000610408610311565b905061041482826103cd565b919050565b600067ffffffffffffffff8211156104345761043361039e565b5b61043d8261038d565b9050602081019050919050565b60005b8381101561046857808201518184015260208101905061044d565b60008484015250505050565b600061048761048284610419565b6103fe565b9050828152602081018484840111156104a3576104a2610388565b5b6104ae84828561044a565b509392505050565b600082601f8301126104cb576104ca610383565b5b81516104db848260208601610474565b91505092915050565b6000819050919050565b6104f7816104e4565b811461050257600080fd5b50565b600081519050610514816104ee565b92915050565b60008060008060008060c087890312156105375761053661031b565b5b600061054589828a0161036e565b965050602061055689828a0161036e565b955050604087015167ffffffffffffffff81111561057757610576610320565b5b61058389828a016104b6565b945050606087015167ffffffffffffffff8111156105a4576105a3610320565b5b6105b089828a016104b6565b93505060806105c189828a01610505565b92505060a06105d289828a0161036e565b9150509295509295509295565b600082825260208201905092915050565b7f4f776e61626c653a206f776e6572206973207a65726f00000000000000000000600082015250565b60006106266016836105df565b9150610631826105f0565b602082019050919050565b6000602082019050818103600083015261065581610619565b9050919050565b7f546f6b656e3a2070726f6a6563744f776e6572207a65726f0000000000000000600082015250565b60006106926018836105df565b915061069d8261065c565b602082019050919050565b600060208201905081810360008301526106c181610685565b9050919050565b7f546f6b656e3a206964656e746974795265676973747279207a65726f00000000600082015250565b60006106fe601c836105df565b9150610709826106c8565b602082019050919050565b6000602082019050818103600083015261072d816106f1565b9050919050565b600081519050919050565b7f4e487b7100000000000000000000000000000000000000000000000000000000600052602260045260246000fd5b6000600282049050600182168061078657607f821691505b6020821081036107995761079861073f565b5b50919050565b60008190508160005260206000209050919050565b60006020601f8301049050919050565b600082821b905092915050565b6000600883026108017fffffffffffffffffffffffffffffffffffffffffffffffffffffffffffffffff826107c4565b61080b86836107c4565b95508019841693508086168417925050509392505050565b6000819050919050565b600061084861084361083e846104e4565b610823565b6104e4565b9050919050565b6000819050919050565b6108628361082d565b61087661086e8261084f565b8484546107d1565b825550505050565b600090565b61088b61087e565b610896818484610859565b505050565b5b818110156108ba576108af600082610883565b60018101905061089c565b5050565b601f8211156108ff576108d08161079f565b6108d9846107b4565b810160208510156108e8578190505b6108fc6108f4856107b4565b83018261089b565b50505b505050565b600082821c905092915050565b600061092260001984600802610904565b1980831691505092915050565b600061093b8383610911565b9150826002028217905092915050565b61095482610734565b67ffffffffffffffff81111561096d5761096c61039e565b5b610977825461076e565b6109828282856108be565b600060209050601f8311600181146109b557600084156109a3578287015190505b6109ad858261092f565b865550610a15565b601f1984166109c38661079f565b60005b828110156109eb578489015182556001820191506020850194506020810190506109c6565b86831015610a085784890151610a04601f891682610911565b8355505b6001600288020188555050505b505050505050565b61249780610a2c6000396000f3fe608060405234801561001057600080fd5b50600436106101425760003560e01c806370a08231116100b8578063a4475ce41161007c578063a4475ce414610309578063a9059cbb14610327578063c45a015514610357578063d5abeb0114610375578063daf6ca3014610393578063f2fde38b146103b157610142565b806370a08231146102775780638456cb59146102a75780638da5cb5b146102b157806395d89b41146102cf5780639dc29fac146102ed57610142565b80631f58a3091161010a5780631f58a309146101db578063313ce567146101f95780633f4ba83a1461021757806340c10f19146102215780635c975abb1461023d57806369fb9aaa1461025b57610142565b80630593d2441461014757806306fdde0314610163578063134e18f41461018157806317de3c841461019f57806318160ddd146101bd575b600080fd5b610161600480360381019061015c9190611965565b6103cd565b005b61016b6105e2565b6040516101789190611a22565b60405180910390f35b610189610670565b6040516101969190611aa3565b60405180910390f35b6101a7610696565b6040516101b49190611acd565b60405180910390f35b6101c56106bc565b6040516101d29190611b01565b60405180910390f35b6101e36106c2565b6040516101f09190611b01565b60405180910390f35b6102016106c7565b60405161020e9190611b38565b60405180910390f35b61021f6106cc565b005b61023b60048036038101906102369190611b7f565b6107ba565b005b610245610b36565b6040516102529190611bda565b60405180910390f35b61027560048036038101906102709190611965565b610b49565b005b610291600480360381019061028c9190611965565b610d06565b60405161029e9190611b01565b60405180910390f35b6102af610d1e565b005b6102b9610e0c565b6040516102c69190611acd565b60405180910390f35b6102d7610e30565b6040516102e49190611a22565b60405180910390f35b61030760048036038101906103029190611b7f565b610ebe565b005b610311611214565b60405161031e9190611acd565b60405180910390f35b610341600480360381019061033c9190611b7f565b61123a565b60405161034e9190611bda565b60405180910390f35b61035f611546565b60405161036c9190611acd565b60405180910390f35b61037d61156c565b60405161038a9190611b01565b60405180910390f35b61039b611572565b6040516103a89190611acd565b60405180910390f35b6103cb60048036038101906103c69190611965565b611598565b005b60008054906101000a900473ffffffffffffffffffffffffffffffffffffffff1673ffffffffffffffffffffffffffffffffffffffff163373ffffffffffffffffffffffffffffffffffffffff1614806104745750600960009054906101000a900473ffffffffffffffffffffffffffffffffffffffff1673ffffffffffffffffffffffffffffffffffffffff163373ffffffffffffffffffffffffffffffffffffffff16145b6104b3576040517f08c379a00000000000000000000000000000000000000000000000000000000081526004016104aa90611c67565b60405180910390fd5b600073ffffffffffffffffffffffffffffffffffffffff168173ffffffffffffffffffffffffffffffffffffffff1603610522576040517f08c379a000000000000000000000000000000000000000000000000000000000815260040161051990611cd3565b60405180910390fd5b8073ffffffffffffffffffffffffffffffffffffffff16600860009054906101000a900473ffffffffffffffffffffffffffffffffffffffff1673ffffffffffffffffffffffffffffffffffffffff167f53d4126a9127dd39595defb493db8f2cc8d4eefa5ed42a7388f42ff09160c50160405160405180910390a380600860006101000a81548173ffffffffffffffffffffffffffffffffffffffff021916908373ffffffffffffffffffffffffffffffffffffffff16021790555050565b600180546105ef90611d22565b80601f016020809104026020016040519081016040528092919081815260200182805461061b90611d22565b80156106685780601f1061063d57610100808354040283529160200191610668565b820191906000526020600020905b81548152906001019060200180831161064b57829003601f168201915b505050505081565b600a60009054906101000a900473ffffffffffffffffffffffffffffffffffffffff1681565b600960009054906101000a900473ffffffffffffffffffffffffffffffffffffffff1681565b60035481565b601481565b600081565b60008054906101000a900473ffffffffffffffffffffffffffffffffffffffff1673ffffffffffffffffffffffffffffffffffffffff163373ffffffffffffffffffffffffffffffffffffffff161461075a576040517f08c379a000000000000000000000000000000000000000000000000000000000815260040161075190611d9f565b60405180910390fd5b6000600a60146101000a81548160ff0219169083151502179055503373ffffffffffffffffffffffffffffffffffffffff167f5db9ee0a495bf2e6ff9c91a7834c1ba4fdd244a5e8aa4e537bd38aeae4b073aa60405160405180910390a2565b600660009054906101000a900473ffffffffffffffffffffffffffffffffffffffff1673ffffffffffffffffffffffffffffffffffffffff163373ffffffffffffffffffffffffffffffffffffffff161480610861575060008054906101000a900473ffffffffffffffffffffffffffffffffffffffff1673ffffffffffffffffffffffffffffffffffffffff163373ffffffffffffffffffffffffffffffffffffffff16145b806108b95750600860009054906101000a900473ffffffffffffffffffffffffffffffffffffffff1673ffffffffffffffffffffffffffffffffffffffff163373ffffffffffffffffffffffffffffffffffffffff16145b6108f8576040517f08c379a00000000000000000000000000000000000000000000000000000000081526004016108ef90611e0b565b60405180910390fd5b600073ffffffffffffffffffffffffffffffffffffffff168273ffffffffffffffffffffffffffffffffffffffff1603610967576040517f08c379a000000000000000000000000000000000000000000000000000000000815260040161095e90611e77565b60405180910390fd5b600081116109aa576040517f08c379a00000000000000000000000000000000000000000000000000000000081526004016109a190611ee3565b60405180910390fd5b6109b382611752565b6109bc81611830565b610a0f81600560008573ffffffffffffffffffffffffffffffffffffffff1673ffffffffffffffffffffffffffffffffffffffff16815260200190815260200160002054610a0a9190611f32565b611890565b80600560008473ffffffffffffffffffffffffffffffffffffffff1673ffffffffffffffffffffffffffffffffffffffff1681526020019081526020016000206000828254610a5e9190611f32565b925050819055508060036000828254610a779190611f32565b925050819055508173ffffffffffffffffffffffffffffffffffffffff167f0f6798a560793a54c3bcfe86a93cde1e73087d944c0ea20544137d412139688582604051610ac49190611b01565b60405180910390a28173ffffffffffffffffffffffffffffffffffffffff16600073ffffffffffffffffffffffffffffffffffffffff167fddf252ad1be2c89b69c2b068fc378daa952ba7f163c4a11628f55a4df523b3ef83604051610b2a9190611b01565b60405180910390a35050565b600a60149054906101000a900460ff1681565b60008054906101000a900473ffffffffffffffffffffffffffffffffffffffff1673ffffffffffffffffffffffffffffffffffffffff163373ffffffffffffffffffffffffffffffffffffffff1614610bd7576040517f08c379a0000000000000000000000000000000000000000000000000000000008152600401610bce90611d9f565b60405180910390fd5b600073ffffffffffffffffffffffffffffffffffffffff168173ffffffffffffffffffffffffffffffffffffffff1603610c46576040517f08c379a0000000000000000000000000000000000000000000000000000000008152600401610c3d90611fb2565b60405180910390fd5b8073ffffffffffffffffffffffffffffffffffffffff16600960009054906101000a900473ffffffffffffffffffffffffffffffffffffffff1673ffffffffffffffffffffffffffffffffffffffff167f9f4583ea13e020de4cb3b03f413f9bc832ca78e7af5680dfed1a8e80a6be81f760405160405180910390a380600960006101000a81548173ffffffffffffffffffffffffffffffffffffffff021916908373ffffffffffffffffffffffffffffffffffffffff16021790555050565b60056020528060005260406000206000915090505481565b60008054906101000a900473ffffffffffffffffffffffffffffffffffffffff1673ffffffffffffffffffffffffffffffffffffffff163373ffffffffffffffffffffffffffffffffffffffff1614610dac576040517f08c379a0000000000000000000000000000000000000000000000000000000008152600401610da390611d9f565b60405180910390fd5b6001600a60146101000a81548160ff0219169083151502179055503373ffffffffffffffffffffffffffffffffffffffff167f62e78cea01bee320cd4e420270b5ea74000d11b0c9f74754ebdbfc544b05a25860405160405180910390a2565b60008054906101000a900473ffffffffffffffffffffffffffffffffffffffff1681565b60028054610e3d90611d22565b80601f0160208091040260200160405190810160405280929190818152602001828054610e6990611d22565b8015610eb65780601f10610e8b57610100808354040283529160200191610eb6565b820191906000526020600020905b815481529060010190602001808311610e9957829003601f168201915b505050505081565b600660009054906101000a900473ffffffffffffffffffffffffffffffffffffffff1673ffffffffffffffffffffffffffffffffffffffff163373ffffffffffffffffffffffffffffffffffffffff161480610f65575060008054906101000a900473ffffffffffffffffffffffffffffffffffffffff1673ffffffffffffffffffffffffffffffffffffffff163373ffffffffffffffffffffffffffffffffffffffff16145b80610fbd5750600860009054906101000a900473ffffffffffffffffffffffffffffffffffffffff1673ffffffffffffffffffffffffffffffffffffffff163373ffffffffffffffffffffffffffffffffffffffff16145b610ffc576040517f08c379a0000000000000000000000000000000000000000000000000000000008152600401610ff390611e0b565b60405180910390fd5b600073ffffffffffffffffffffffffffffffffffffffff168273ffffffffffffffffffffffffffffffffffffffff160361106b576040517f08c379a00000000000000000000000000000000000000000000000000000000081526004016110629061201e565b60405180910390fd5b80600560008473ffffffffffffffffffffffffffffffffffffffff1673ffffffffffffffffffffffffffffffffffffffff1681526020019081526020016000205410156110ed576040517f08c379a00000000000000000000000000000000000000000000000000000000081526004016110e49061208a565b60405180910390fd5b80600560008473ffffffffffffffffffffffffffffffffffffffff1673ffffffffffffffffffffffffffffffffffffffff168152602001908152602001600020600082825461113c91906120aa565b92505081905550806003600082825461115591906120aa565b925050819055508173ffffffffffffffffffffffffffffffffffffffff167fcc16f5dbb4873280815c1ee09dbd06736cffcc184412cf7a71a0fdb75d397ca5826040516111a29190611b01565b60405180910390a2600073ffffffffffffffffffffffffffffffffffffffff168273ffffffffffffffffffffffffffffffffffffffff167fddf252ad1be2c89b69c2b068fc378daa952ba7f163c4a11628f55a4df523b3ef836040516112089190611b01565b60405180910390a35050565b600660009054906101000a900473ffffffffffffffffffffffffffffffffffffffff1681565b6000600a60149054906101000a900460ff161561128c576040517f08c379a00000000000000000000000000000000000000000000000000000000081526004016112839061212a565b60405180910390fd5b6000339050600073ffffffffffffffffffffffffffffffffffffffff168473ffffffffffffffffffffffffffffffffffffffff1603611300576040517f08c379a00000000000000000000000000000000000000000000000000000000081526004016112f790612196565b60405180910390fd5b60008311611343576040517f08c379a000000000000000000000000000000000000000000000000000000000815260040161133a90611ee3565b60405180910390fd5b82600560008373ffffffffffffffffffffffffffffffffffffffff1673ffffffffffffffffffffffffffffffffffffffff1681526020019081526020016000205410156113c5576040517f08c379a00000000000000000000000000000000000000000000000000000000081526004016113bc9061208a565b60405180910390fd5b6113ce81611752565b6113d784611752565b61142a83600560008773ffffffffffffffffffffffffffffffffffffffff1673ffffffffffffffffffffffffffffffffffffffff168152602001908152602001600020546114259190611f32565b611890565b82600560008373ffffffffffffffffffffffffffffffffffffffff1673ffffffffffffffffffffffffffffffffffffffff168152602001908152602001600020600082825461147991906120aa565b9250508190555082600560008673ffffffffffffffffffffffffffffffffffffffff1673ffffffffffffffffffffffffffffffffffffffff16815260200190815260200160002060008282546114cf9190611f32565b925050819055508373ffffffffffffffffffffffffffffffffffffffff168173ffffffffffffffffffffffffffffffffffffffff167fddf252ad1be2c89b69c2b068fc378daa952ba7f163c4a11628f55a4df523b3ef856040516115339190611b01565b60405180910390a3600191505092915050565b600760009054906101000a900473ffffffffffffffffffffffffffffffffffffffff1681565b60045481565b600860009054906101000a900473ffffffffffffffffffffffffffffffffffffffff1681565b60008054906101000a900473ffffffffffffffffffffffffffffffffffffffff1673ffffffffffffffffffffffffffffffffffffffff163373ffffffffffffffffffffffffffffffffffffffff1614611626576040517f08c379a000000000000000000000000000000000000000000000000000000000815260040161161d90611d9f565b60405180910390fd5b600073ffffffffffffffffffffffffffffffffffffffff168173ffffffffffffffffffffffffffffffffffffffff1603611695576040517f08c379a000000000000000000000000000000000000000000000000000000000815260040161168c90612202565b60405180910390fd5b8073ffffffffffffffffffffffffffffffffffffffff1660008054906101000a900473ffffffffffffffffffffffffffffffffffffffff1673ffffffffffffffffffffffffffffffffffffffff167f8be0079c531659141344cd1fd0a4f28419497f9722a3daafe3b4186f6b6457e060405160405180910390a3806000806101000a81548173ffffffffffffffffffffffffffffffffffffffff021916908373ffffffffffffffffffffffffffffffffffffffff16021790555050565b600a60009054906101000a900473ffffffffffffffffffffffffffffffffffffffff1673ffffffffffffffffffffffffffffffffffffffff1663b9209e33826040518263ffffffff1660e01b81526004016117ad9190611acd565b602060405180830381865afa1580156117ca573d6000803e3d6000fd5b505050506040513d601f19601f820116820180604052508101906117ee919061224e565b61182d576040517f08c379a0000000000000000000000000000000000000000000000000000000008152600401611824906122c7565b60405180910390fd5b50565b60006004541461188d576004548160035461184b9190611f32565b111561188c576040517f08c379a000000000000000000000000000000000000000000000000000000000815260040161188390612333565b60405180910390fd5b5b50565b600060045403156118ff576000606460146004546118ae9190612353565b6118b891906123c4565b9050808211156118fd576040517f08c379a00000000000000000000000000000000000000000000000000000000081526004016118f490612441565b60405180910390fd5b505b50565b600080fd5b600073ffffffffffffffffffffffffffffffffffffffff82169050919050565b600061193282611907565b9050919050565b61194281611927565b811461194d57600080fd5b50565b60008135905061195f81611939565b92915050565b60006020828403121561197b5761197a611902565b5b600061198984828501611950565b91505092915050565b600081519050919050565b600082825260208201905092915050565b60005b838110156119cc5780820151818401526020810190506119b1565b60008484015250505050565b6000601f19601f8301169050919050565b60006119f482611992565b6119fe818561199d565b9350611a0e8185602086016119ae565b611a17816119d8565b840191505092915050565b60006020820190508181036000830152611a3c81846119e9565b905092915050565b6000819050919050565b6000611a69611a64611a5f84611907565b611a44565b611907565b9050919050565b6000611a7b82611a4e565b9050919050565b6000611a8d82611a70565b9050919050565b611a9d81611a82565b82525050565b6000602082019050611ab86000830184611a94565b92915050565b611ac781611927565b82525050565b6000602082019050611ae26000830184611abe565b92915050565b6000819050919050565b611afb81611ae8565b82525050565b6000602082019050611b166000830184611af2565b92915050565b600060ff82169050919050565b611b3281611b1c565b82525050565b6000602082019050611b4d6000830184611b29565b92915050565b611b5c81611ae8565b8114611b6757600080fd5b50565b600081359050611b7981611b53565b92915050565b60008060408385031215611b9657611b95611902565b5b6000611ba485828601611950565b9250506020611bb585828601611b6a565b9150509250929050565b60008115159050919050565b611bd481611bbf565b82525050565b6000602082019050611bef6000830184611bcb565b92915050565b7f546f6b656e3a2063616c6c6572206e6f74206f776e6572206f722073616c654660008201527f6163746f72790000000000000000000000000000000000000000000000000000602082015250565b6000611c5160268361199d565b9150611c5c82611bf5565b604082019050919050565b60006020820190508181036000830152611c8081611c44565b9050919050565b7f546f6b656e3a2073616c65436f6e7472616374207a65726f0000000000000000600082015250565b6000611cbd60188361199d565b9150611cc882611c87565b602082019050919050565b60006020820190508181036000830152611cec81611cb0565b9050919050565b7f4e487b7100000000000000000000000000000000000000000000000000000000600052602260045260246000fd5b60006002820490506001821680611d3a57607f821691505b602082108103611d4d57611d4c611cf3565b5b50919050565b7f4f776e61626c653a2063616c6c6572206973206e6f7420746865206f776e6572600082015250565b6000611d8960208361199d565b9150611d9482611d53565b602082019050919050565b60006020820190508181036000830152611db881611d7c565b9050919050565b7f546f6b656e3a2063616c6c6572206e6f7420617574686f72697a656400000000600082015250565b6000611df5601c8361199d565b9150611e0082611dbf565b602082019050919050565b60006020820190508181036000830152611e2481611de8565b9050919050565b7f546f6b656e3a206d696e7420746f207a65726f00000000000000000000000000600082015250565b6000611e6160138361199d565b9150611e6c82611e2b565b602082019050919050565b60006020820190508181036000830152611e9081611e54565b9050919050565b7f546f6b656e3a20616d6f756e74207a65726f0000000000000000000000000000600082015250565b6000611ecd60128361199d565b9150611ed882611e97565b602082019050919050565b60006020820190508181036000830152611efc81611ec0565b9050919050565b7f4e487b7100000000000000000000000000000000000000000000000000000000600052601160045260246000fd5b6000611f3d82611ae8565b9150611f4883611ae8565b9250828201905080821115611f6057611f5f611f03565b5b92915050565b7f546f6b656e3a2073616c65466163746f7279207a65726f000000000000000000600082015250565b6000611f9c60178361199d565b9150611fa782611f66565b602082019050919050565b60006020820190508181036000830152611fcb81611f8f565b9050919050565b7f546f6b656e3a206275726e2066726f6d207a65726f0000000000000000000000600082015250565b600061200860158361199d565b915061201382611fd2565b602082019050919050565b6000602082019050818103600083015261203781611ffb565b9050919050565b7f546f6b656e3a20696e73756666696369656e742062616c616e63650000000000600082015250565b6000612074601b8361199d565b915061207f8261203e565b602082019050919050565b600060208201905081810360008301526120a381612067565b9050919050565b60006120b582611ae8565b91506120c083611ae8565b92508282039050818111156120d8576120d7611f03565b5b92915050565b7f546f6b656e3a207472616e736665727320706175736564000000000000000000600082015250565b600061211460178361199d565b915061211f826120de565b602082019050919050565b6000602082019050818103600083015261214381612107565b9050919050565b7f546f6b656e3a207472616e7366657220746f207a65726f000000000000000000600082015250565b600061218060178361199d565b915061218b8261214a565b602082019050919050565b600060208201905081810360008301526121af81612173565b9050919050565b7f4f776e61626c653a206e6577206f776e6572206973207a65726f000000000000600082015250565b60006121ec601a8361199d565b91506121f7826121b6565b602082019050919050565b6000602082019050818103600083015261221b816121df565b9050919050565b61222b81611bbf565b811461223657600080fd5b50565b60008151905061224881612222565b92915050565b60006020828403121561226457612263611902565b5b600061227284828501612239565b91505092915050565b7f546f6b656e3a2077616c6c6574206e6f74204b59430000000000000000000000600082015250565b60006122b160158361199d565b91506122bc8261227b565b602082019050919050565b600060208201905081810360008301526122e0816122a4565b9050919050565b7f546f6b656e3a206d6178537570706c7920657863656564656400000000000000600082015250565b600061231d60198361199d565b9150612328826122e7565b602082019050919050565b6000602082019050818103600083015261234c81612310565b9050919050565b600061235e82611ae8565b915061236983611ae8565b925082820261237781611ae8565b9150828204841483151761238e5761238d611f03565b5b5092915050565b7f4e487b7100000000000000000000000000000000000000000000000000000000600052601260045260246000fd5b60006123cf82611ae8565b91506123da83611ae8565b9250826123ea576123e9612395565b5b828204905092915050565b7f546f6b656e3a20657863656564732032302520696e766573746f722063617000600082015250565b600061242b601f8361199d565b9150612436826123f5565b602082019050919050565b6000602082019050818103600083015261245a8161241e565b905091905056fea26469706673582212207639c3039620c898239b2259383ea90f21725422a5da2606d4639487fcc2378664736f6c634300081c0033a2646970667358221220d0dc53dbd8461a2d901925a28cda86c504e779ab022a836b50042b71d433b1ff64736f6c634300081c0033",
  "linkReferences": {},
  "deployedLinkReferences": {}
}